:020000041000EA
:1000000000B5324B212058609868022188439860DF
:10001000D860186158612E4B002199600221596106
:100020000121F02299502B49196001219960352056
:1000300000F044F80222904214D00621196600F024
:1000400034F8196E01211966002018661A6600F04E
:100050002CF8196E196E196E052000F02FF8012189
:100060000842F9D1002199601B49196000215960AB
:100070001A491B48016001219960EB211966A021F2
:10008000196600F012F800219960164914480160C1
:100090000121996001BC002800D000471248134993
:1000A000086003C880F30888084703B5996A0420EC
:1000B0000142FBD001200142F8D103BD02B5186610
:1000C0001866FFF7F2FF186E186E02BD00000240BE
:1000D000000000180000070000035F00212200005C
:1000E000F4000018222000A00001001008ED00E03C
:1000F00000000000000000000000000074B24E7A12
:1001000000200420F7010010C3010010C5010010F9
:10011000C1010010C1010010C1010010C101001097
:10012000C1010010C1010010C1010010C701001081
:10013000C1010010C1010010C9010010CB01001065
:10014000CD010010CD010010CD010010CD01001037
:10015000CD010010CD010010CD010010CD01001027
:10016000CD010010CD010010CD010010CD01001017
:10017000CD010010CD010010CD010010CD01001007
:10018000CD010010CD010010CD010010CD010010F7
:10019000CD010010CD010010CD010010CD010010E7
:1001A000CD010010CD010010CD010010CD010010D7
:1001B000CD010010CD010010CD010010CD010010C7
:1001C00000BE00BE00BE00BE00BE00BE00F04BF888
:1001D000103800BEF2EB8871D4700010FC70001073
:1001E0003402001090A31AE700202149086006C8D5
:1001F00081F3088810471F48006800282FD10DA4FC
:100200000ECC002902D000F012F8F9E71A491B4A77
:10021000002000E001C19142FCD1194988471949E9
:1002200088471949884700BEFDE701C901C29A42C3
:10023000FBD37047FC700010C00000208407002032
:10024000C07700100000042000000420C0770010D8
:1002500000100420001004200000000070470B482C
:1002600003F00CF90047EFF30580C0B270470000BF
:1002700008ED00E0000000D08807002050160020A4
:10028000151600105D0300100117001057560000EE
:1002900006005250ABB36053F06D00100600525090
:1002A000861C0302006E0010060052505422A29DCC
:1002B000106E001005005250DE65F468C077001023
:1002C000F8B5C046044B10B5002B03D003490448D1
:1002D00000E000BF10BDC04600000000FC1500207B
:1002E000006B0010F8B50E2000F0E6F8192000F0C1
:1002F000E3F8D0248023802601252406DB01B60400
:10030000084FA362666263689B0B1D42FBD03D7081
:10031000FA20666100F032FDA66163689B0B1D4206
:10032000F1D0F4E74B160020F0B5C646060000B544
:1003300000280FD00123D0270C00002598463F0647
:10034000206800F0B9F8424608CC01359A407A623C
:10035000AE42F5D180BCB846F0BDC046F0B5DE4631
:1003600045464E465746E0B585B001AC22003F4BAE
:10037000802623CB23C2D02504F066F92100032078
:10038000FFF7D2FF2D061320360300F095F838480A
:100390006E6206F07BFA374B9A46374B9B468023BA
:1003A0005B02984680239B029946534642461B783F
:1003B0006A61002B09D05846304904F039F9534698
:1003C0001B78002B09D143466B6158462C4904F039
:1003D0002FF953461B78002BF5D02A4800F0CEFCAD
:1003E0004346FA206B61400000F0C8FC4B462548AC
:1003F0006B6100F0C3FC4346AB614B46AB618023AD
:100400007D24DB026B610A206E6100F0B7FC013CC9
:100410000A20AE6100F0B2FC002CF4D10A270C24B3
:100420000A206E6100F0AAFC013C0A20AE6100F0D7
:10043000A5FC002CF4D1FA20013F00F09FFC002F16
:10044000EDD180245346FA20E4021F7040006C6115
:1004500000F094FC4B46AC610A486B6100F08EFCE6
:100460004B46AB6143466B619FE7C046246B00106F
:10047000E50200104B160020086B0010006B001006
:100480001C6B0010EE020000094A830094464022D3
:10049000634410B51C68C0006240C0241440802230
:1004A000520113431C60034B9C466044416010BDE5
:1004B00004C00140004001400123D02283401206C5
:1004C00093629361094A8300944640226344196809
:1004D000C0004A40C02111408022520113431960DC
:1004E000034B9C46052360444360704704C00140B1
:1004F00000400140F8B5CE464746914680B5EFF33F
:10050000108C72B6104D2B68002BFCD0BFF35F8FA0
:10051000CB08C45CC7180720260001230840C6404A
:100520001A00324033420BD1834023433B70BFF368
:100530005F8F2A608CF31088C0BCB946B046F8BD06
:10054000484601F0DFF8C0462C0100D0F8B5474618
:10055000CE46884680B5EFF3108C72B6214D2C68DC
:10056000002CFCD0BFF35F8F9A422DD8D408055DD4
:10057000071907242E001440E640F1071ED5072175
:100580008946063908E0D408055D07194C462E0057
:100590001440E640314211D001329342F3D201209F
:1005A0004042BFF35F8F00220E4B1A608CF310881D
:1005B000002811DBC0BCB946B046F8BD0123A340FA
:1005C0001D4310003D70ECE7BFF35F8F00232B60ED
:1005D0008CF31088012040424346002BEAD0089853
:1005E00001F090F82C0100D00021044B044ABFF325
:1005F0005F8F02C39342FAD17047C046000100D01A
:10060000800100D0044A1078431CDBB2172B00D9BC
:10061000102313707047C0464802002000B5054BF8
:1006200083B00100009318221F230348FFF78EFFB9
:1006300003B000BD306B0010D40E0020024B1868D0
:100640008007C00F7047C04600C00640F8B50400E0
:1006500006200D0001F0E4F9002844D02A4B2B4974
:10066000E21853425A418023DB039C469205284BF3
:1006700062441A60274B1A6010008B689843FBD1C4
:10068000214B8021E3185A425341234A5B00490021
:100690009952062001F0C4F92900C00002F04CFF75
:1006A000C30921D140270121260080256162A36270
:1006B00000232C36AD0135432B60062001F0B0F944
:1006C0003900800002F038FF6023E26A53406E2256
:1006D0001A4080235B0133431A60104B23631023BD
:1006E0002B600D3BA364F8BD0D4A934203D9002350
:1006F0000C4F0D49D8E77F221040013040089F0180
:1007000019003F180300CFE70080FCBF00C0004085
:1007100000E0004000F0004040160020010300000F
:10072000FEFF0000C0FF3F00FFFF000083680B4892
:1007300010B5844662446144120109019A1859189F
:1007400054684B6801209C4201D802D00020C0B2FE
:1007500010BD12680B689A42F9D8F7E7FFFFFF0F48
:1007600040BF002000217047F8B557464E46454629
:10077000DE46E0B599460CAB1C780DAB1B78060045
:1007800090469A460768002C11D1BC7B002C42D0C1
:1007900065003B682D19033D59194B78BB73002B3D
:1007A00000D1FB7300238B704B700B7004E065006D
:1007B0003B682D19033D5919B268284B94464246AF
:1007C000E3181B0163441A604A465A600A9A9A6009
:1007D0000B9ADA6000238B704B700B707B7B9B460F
:1007E000002B27D022007B685946B86898475B46A3
:1007F0005B005B443A68033B002812D05846551909
:10080000A870D118D35C002B00D06B705B460C70C5
:100810007B73A3450FD0F0BCBB46B246A946A046A9
:10082000F8BDD3189C705119525D002A00D05A703F
:100830005B460B707C7342464B46307D00F072FC89
:10084000051E06D05346002B03D12100306800F06E
:10085000A3FE0E9B002BDED01D70DCE7FFFFFF0F19
:10086000F0B5DE4657464E4645460023E0B58DB00E
:100870000A93654B8200D45800239B460B90079443
:1008800000F0F0FB079C02000B006068EFF3108A99
:1008900072B601680029FCD00794BFF35F8F20680F
:1008A000457B002D64D0A4685849A1466918090108
:1008B000894449460E684F68B61A9F41002F5EDD95
:1008C0004B460B981A685B6800F02CFC002300264E
:1008D000002799469846079C6368BFF35F8F5A4686
:1008E0001A608AF310884346002B08D10028C7D12C
:1008F0000DB0F0BCBB46B246A946A046F0BD0A9B6F
:10090000494618022843C047089009916268EFF3EE
:10091000108A72B61368002BFCD00794BFF35F8F68
:100920000899099A002A44DB114303D0079B1B69ED
:10093000002B59D1079B1B68D97B002906D04A00A0
:10094000521819688C466244033A5570DD73079B50
:10095000013DDA68535D013353555B46079A1361D5
:100960005368BFF35F8F5A461A608AF3108887E78F
:10097000002300260027994698460020ABE7002F69
:1009800001D1002E9CD1002100F088FD4B461E684D
:100990005F689B68079A98464B46DB689946D36820
:1009A0005B19013B1B780A931B0203431361002070
:1009B00091E72369002BBDD033003C005B1A9441C2
:1009C0001A002300A74219D901225242D3175946CF
:1009D00004910121039149460191414607980295EE
:1009E0000091FFF7C1FEB8E700F03CFB089A099BB5
:1009F00006000F0092197B419942E5D89F42E6D14B
:100A00009642E4D9E0E7C04614160020FFFFFF0F2E
:100A1000F8B557464E464546DE46E0B53E4D814662
:100A20008A466A68EFF3108872B61368002BFCD010
:100A3000BFF35F8F2E68B47B002C39D0670033681A
:100A40003F19033FDB195A78B273002A00D1F273C1
:100A5000A968324A8C464946A218120162441160C4
:100A6000514651602E4991600021D16099705970B2
:100A70001970737B9B46002B31D022001900B0689F
:100A8000736898475B465B005B443268033B002811
:100A90001CD05846D719B870D118D35C002B00D0A1
:100AA0007B705B460C7073735C4519D0002622E0A6
:100AB0006B68BFF35F8F1C6088F310880120404291
:100AC000F0BCBB46B246A946A046F8BDD3189C7000
:100AD000D119D25D002A00D05A705B460B70747336
:100AE0004A465346287D00F01DFB061EDED021003D
:100AF000286800F051FDEB681B19013B19786B6801
:100B0000BFF35F8F00221A6088F310880020002E48
:100B1000D6D108022043D3E74C020020FFFFFF0F8D
:100B20006107001010B5104C6368002B00D010BD99
:100B300023000E4A1021206800F0CEFB032000F0B5
:100B400085FA032000F05AFB0320094900F0A4FABB
:100B5000FFF758FD074B9C46032360442375064B63
:100B600080006060DC60E2E74C0200202D0700108E
:100B7000610800104000003414160020004870473F
:100B80004C020020F0B545465746DE464E46E0B5DD
:100B900085B00193002305009A46984610A909786C
:100BA000009203916A68EFF3108972B61368002B04
:100BB000FCD0BFF35F8F2E68B47B002C49D0670058
:100BC00033683F19033FDB195A78B273002A00D10A
:100BD000F273A9684C4A8C4600980199A218120138
:100BE0006244106051600E9991600F99D160424645
:100BF0009A705A701A70737B9B46002B41D022006A
:100C00001900B068736898475B465B005B443268C4
:100C1000033B00282CD05846D719B870D118D35CA4
:100C2000002B00D07B705B460C7073735C4529D041
:100C3000EB681B19013B18786B68BFF35F8F424666
:100C40001A6089F310885346002B28D100022043F4
:100C500007E06B68BFF35F8F1C6089F31088012089
:100C6000404205B0F0BCBB46B246A946A046F0BD26
:100C7000D3189C70D119D25D002A00D05A705B46FF
:100C80000B707473287D009A019B00F04BFA82462A
:100C90000028CDD02100286800F07EFCC8E7039B27
:100CA000002B2ED00E9B00200F99984703000B437A
:100CB00027D006000F1E0FDA0098019902000B00E2
:100CC000921BBB41994216D801D1904213D8009291
:100CD0000193039B9A4665E700F0C4F902000B00FC
:100CE000B6185F413000390000900191BB4202D834
:100CF000EFD1B242EDD901235B42DC17009301949E
:100D0000E7E70020ADE7C046FFFFFF0FF8B54268F8
:100D10000400EFF3108572B61368002BFCD0BFF30C
:100D20005F8FFF232068CEB2427B0B40B24208D0D7
:100D300007685A00BC46D2186244033A9278002AE7
:100D400011D0E268090A94466344013B1B78C9B29A
:100D50008B420ED000206368BFF35F8F00221A60C1
:100D600085F31088F8BD23698B42F3D100202261FE
:100D7000F1E7310000F010FCEDE7C046F8B50400E3
:100D800000F070F9FA2206000F0000232000002175
:100D9000920003F015FA801979418F421CD819D0BE
:100DA00004000D0006267642F71736196F418F4270
:100DB00035D90026002700F055F932003B00121A01
:100DC0008B41002B16DC002B26D02900200000F0E0
:100DD00053F9F8BD8642E3D907267642F71700F0AB
:100DE00041F932003B00121A8B4101246442E5179D
:100DF000002BE8DD30003900FFF70AFE0028E4DBB5
:100E00003900094A536A994204D8906AB042DCD248
:100E10009942DAD120BFF5E7002AD6D0EAE78F421F
:100E2000C9D18642C5D8C6E700400540F0B54E4658
:100E30004546DE465746E0B5524C83B080460E002C
:100E400000906268EFF3108972B61368002BFCD033
:100E5000BFF35F8F2768B246BD7B002D3DD06B008E
:100E60005B19DA1E94463B68019263445A78BA7360
:100E7000002A00D1FA73A168434A8C464146AA1859
:100E80001201624411604149566091600021D160B5
:100E90009970597019707B7B9B46002B44D02A00B7
:100EA0001900B8687B6898475B465B005B443A680A
:100EB000033B00282ED05846D1188C460199511872
:100EC0008870D35C002B00D04B7063461D705B466E
:100ED0007B735D4529D0002732E06368BFF35F8FE5
:100EE0001D6089F310882A4B0027596A514504D3A5
:100EF0009B6A009A0137934207D3380003B0F0BCD5
:100F0000BB46B246A946A046F0BD891B4B1E99417F
:100F1000CFB2F2E70198D3189D701118125C002A25
:100F200000D05A705B460B707D7342463300207DC3
:100F300000F0F8F8071ECED02900206800F02CFB46
:100F4000E3685B19013B19786368BFF35F8F002288
:100F50001A6089F31088002FC5D120BF0902200034
:100F60002943FFF7D3FE0A4A536A5345C5D3926A11
:100F7000009901278A42C0D29B1B5A1E9341DFB2BF
:100F8000BBE7C0464C020020FFFFFF0F61070010C7
:100F900000400540F0B5D6464F464646C0B5EFF393
:100FA00005833F22134018001038EFF3108C72B6FF
:100FB000204D2A68002AFCD0BFF35F8F0122110068
:100FC00081401D4C884661631C4917000E788A4693
:100FD0003100C1400F400A4209D1BFF35F8F2F603B
:100FE0008CF31088E0BCBA46B146A846F0BD14495F
:100FF0008200646A51588C420FD3124BD258434638
:101000009E4353461E70BFF35F8F00232B608CF30B
:101010001088002AE6D09047E4E70B4A9B009046F0
:1010200043441A681A60BFF35F8F00232B608CF370
:101030001088D7E7280100D0004005404F16002057
:1010400030160020C40E0020D03F054010B501002E
:10105000024A0348FFF74EFA10BDC0464C6B001021
:101060004C160020034B596A0A00986A596A8A4252
:10107000FAD1704700400540064A536A9942FCD8AD
:1010800007D1044B02E05A6A914202D19A6A824225
:10109000F9D370470040054070B504000D00EFF330
:1010A000108672B61A4A1368002BFCD0BFF35F8F0C
:1010B000002D1BD0200000F065FD164981420AD0AA
:1010C000200000F067FD0121200000F041FD012318
:1010D000A340114A1360114BA400E550BFF35F8F8A
:1010E00000220B4B1A6086F3108870BD0B4BA200D8
:1010F000D5500122A2400A4920000B7893430B707F
:10110000044900F071FD0021200000F021FDE5E719
:10111000280100D0950F001038600540C40E002053
:101120004F160020F0B5DE4657464E464546E0B520
:101130002E4C83B0616A0D00A66A616AA942FAD199
:1011400094461D008B420AD807D0012003B0F0BCA2
:10115000BB46B246A946A046F0BDB242F5D9EFF370
:10116000108972B6224C21680029FCD0BFF35F8F32
:1011700001248440E6B2B0461C491E4E4C63B3467F
:10118000367801964646019F3E435F463E70061DF7
:10119000B6007250184A800083500B6A0020234228
:1011A0000BD04B6A1A00886A4B6A9342FAD19D426F
:1011B00002D80AD1844508D90020BFF35F8F0022EE
:1011C0000B4B1A6089F31088C0E7084B019F1C6223
:1011D0005C6343469F435B4601201F70BFF35F8FF4
:1011E0000022034B1A6089F31088AFE700400540E6
:1011F000280100D04F16002030160020EFF3108C8D
:1012000072B60A490B68002BFCD0BFF35F8F012335
:101210008340074A0748136202789A430270BFF37B
:101220005F8F00230B608CF310887047280100D07B
:10123000004005404F160020024B9C466144890047
:10124000016070474000003410B50400FFF7DAF980
:1012500001002000FFF7F0FFFF232371BFF35F8F32
:1012600010BDC04610B504000120FFF7D7F90100FA
:101270002000FFF7E1FFBFF35F8F10BD70B50500E1
:1012800014001600002915D00C00002A12D06B683B
:10129000806898477200630092191B192968033A05
:1012A000033B002808D08A189470C818CB5C002B28
:1012B0000FD10670200070BDCB189E7088188A5C14
:1012C000002A02D104703400F4E75A70047034002C
:1012D000F0E753700670EDE710B583600023CCB2E1
:1012E00043730133426004738373C4730068421C08
:1012F000012C05D90133DBB2137003329C42F9D1C2
:10130000FF2319404B00591800234018033843703D
:1013100010BDC046F8B5CE46474606000C0080B565
:10132000002907D04D0003686D18033D5A195778FE
:10133000002F04D12000C0BCB946B046F8BD7900EA
:10134000C9190339884643445978894600215970A0
:10135000517073683A00210080689847336800280C
:1013600014D042469A18947059195B5D002B00D036
:1013700053700F70270049463000FFF7CBFF39004C
:1013800002003000FFF77AFF0400D3E742464146EF
:101390005D19AF709A185B5C002B00D06B701470F5
:1013A000E9E7C046F0B557464546DE464E46E0B54D
:1013B0000D006B0001685B19DF1E0400C85D83B07F
:1013C0000192CA1900284CD043001B18033BCB18CC
:1013D0005E78B446002E16D1019E002E3ED0E67BEC
:1013E000002E04D073009B19CB18033B5D70E5738E
:1013F00000282FD10023537003B0F0BCBB46B24687
:10140000A946A046F0BD72006244033A89184A78A2
:10141000904600224A7091465A7001003200200026
:10142000FFF72CFF43468246002B07D05B00216864
:101430004344033BCB185A78002A16D14246514602
:101440002000FFF71BFF2168019BCA19002BC6D1A2
:101450000028CFD043001B18033BCB180021997004
:10146000C8E7019B002BBAD1C4E7500080180338AD
:10147000091848788346484648705870414620000D
:10148000FFF7FCFE594680462000FFF743FF414628
:1014900002002000FFF7F2FE8046CFE7F0B5574686
:1014A0004546DE464E46E0B583B00191457B0400DB
:1014B0006B0000685B19DF1EC15DC21900294ED0A8
:1014C0004B005B18033BC3185E78B446002E18D15E
:1014D000019E002E40D0E67B002E04D073009B19A5
:1014E000C318033B5D70E573002931D10023280048
:1014F0005370617303B0F0BCBB46B246A946A04628
:10150000F0BD72006244033A80184278904600228F
:10151000427091465A7020003200FFF7AFFE4346FA
:101520008246002B07D05B0021684344033BCB1865
:101530005A78002A17D1424651462000FFF79EFEF6
:10154000019B01002068C219002BC4D10029CDD015
:101550004B005B18033BC31800209870C6E7019B43
:10156000002BB8D1C2E7500080180338091848781A
:10157000834648464870587041462000FFF77EFE7B
:10158000594680462000FFF7C5FE41460200200074
:10159000FFF774FE8046CEE770B5040000292CD01A
:1015A000437B8B422ED0056848004018033828182A
:1015B0008278002A21D053009B18033BEA5CEE1886
:1015C0008A4202D11BE0002A08D053009B18033B3B
:1015D000EB185A788A42F6D142785A7000230122D9
:1015E000837043702000FFF7DDFE617B0200200066
:1015F000FFF744FE6073012000E0002070BD4378D7
:101600003370EBE701221900FFF7CCFE6073012075
:10161000F4E7C046F8B52B4A2B4B2C491A602C4AEC
:101620002C4B1A6014008B689C43FBD12A4D2B4E27
:10163000B54208D2013E761BB60808CD9847230074
:101640000134B342F9D100F07BF8254A214B1A60EE
:101650001E4A9368DB43DB01DC09002BF9D14022F1
:10166000204B214D214F9A675A671A67DA66BD42AF
:101670000BD20026013F7F1BFF082800FFF7E4FD87
:10168000083533000136BB42F7D1194E194DC0223F
:10169000A968300002F004FEAE60FEF7A5FF00F07E
:1016A000D7FBFFF73FFA144D144EB54208D2013E66
:1016B000761BB60808CD9847230001349E42F9D125
:1016C000F8BDC046BFCDFFFF00E0004000C00040B5
:1016D000FE7F3C0000F000406C0700207C070020EB
:1016E000FFFFFF0100F001405C0700206C070020B5
:1016F0000000002000ED00E07C07002084070020AF
:1017000000BEFDE70FB400B5084883B002F0E0FE6C
:10171000049B002B07D005A91800019101F08EFE53
:10172000034802F0D5FE00BEFDE7C046706B001016
:10173000806B001010B50148FFF7E4FF846B0010C8
:1017400030B50C2083B000F071F9FEF777FF002868
:101750000ED09A4B9A4A1A605A609A60DA601A61FF
:101760005A619A61DA611A62964A5A6203B030BDD0
:10177000954CA06700F0AEF90122944B1A60636C9F
:10178000012BFCD10322924B1A608F4A936B012BE1
:10179000FCD1C0228F4B92011A608F4B8F491A6087
:1017A00010008B689843031EFAD1022401218C4A51
:1017B0008C480633009400F0A1F905238A4A0121E0
:1017C0008A48009400F09AF9894B5A68FF2A02D897
:1017D000802252005A608022784C7D4B2169120190
:1017E000834D1A60002905D0606901F0A5FE013023
:1017F0000138FDD1E0217E4B02201A681140802281
:1018000052012A43116019684840032101401160C8
:1018100004219A681142FCD08022802192012A433F
:1018200009011160802252005A60724B2361724B91
:101830005968FF2900D85A600321644A6E4B116031
:1018400002399A681142FCD0E0201A6810408022C8
:1018500052011A43106018684840032101400220D9
:10186000116065498A681042FCD0802292011343BE
:10187000802212011A608022604B52004A6063612C
:101880005F4B5968FF2900D85A6080225D4BE1699F
:1018900012015B4D1A60002905D0606901F04CFE11
:1018A00001300138FDD1E02255490B681A408023F0
:1018B0005B012B431A60802380229B012B43120182
:1018C0001A6080223E4B52004A60E3614E4B5968D9
:1018D000FF2900D85A6080224C4B216A12014A4DE0
:1018E0001A60002905D0606901F026FE0130013838
:1018F000FDD1E02244490B681A4080235B012B4351
:101900001A60802380229B012B4312011A608023DE
:1019100080225B004B602A4BD20223623C4B596809
:10192000914200D25A6080223A4B616A1201384DCE
:101930001A60002905D0606901F0FEFD0130013810
:10194000FDD1E02232490B681A4080235B012B4312
:101950001A60802380229B012B4312011A6080238E
:10196000DB024B60174B63622B4B5A68FF2A02D88D
:10197000802252005A608022284BA1691201264D14
:101980001A60002905D0606901F0D6FD01300138E8
:10199000FDD1E02220490B681A4080235B012B43D4
:1019A0001A60802380229B012B4312011A6080233E
:1019B0005B004B60114BA361D8E6C046D80E0020F7
:1019C000006CDC021BB70000008000403CB000400F
:1019D00030B0004000E0004000F0004000C0004097
:1019E000002F68590080024000389C1C00C0024053
:1019F00030800040001BB7003C8000404059730716
:101A00005480004054B000406080004060B000400E
:101A10006C8000406CB000404880004048B00040FE
:101A2000014B8000C0587047D80E00208023024A26
:101A30009B000343D36270470080054010B514003B
:101A400080221A4BD2051A6000282CD00123184A94
:101A50001843184BDA61184A42401A625962986278
:101A60008022124BD2051A601449154A1160E022F7
:101A7000D2041A60002C12D063011B1B9A00802331
:101A8000121912015B049A4200D30E4A0E4B1A60DF
:101A9000084B5A6080220D4BD2051A6010BD0C4ACB
:101AA000094B1A60F4E7034BD861D9E700B0054051
:101AB000D3C007B0008005402D3FF84FFCFF010068
:101AC00008200140FFFFFF00F415002000A00540A2
:101AD000A0860100AA23064A1B0113602F23054993
:101AE000D360054B19605368002BFCDA7047C04681
:101AF0000040024000B0FA0000600240F8B51E004D
:101B000001235B42436000230400836001600C20DA
:101B1000170001F011FD4101091A8D01691AC90070
:101B200009188901380001F007FDC021231D890132
:101B300019432123A0600B602268002AFCDA069B6F
:101B400036041B031E430823E6600B60F8BDC04645
:101B500001238340002904D0034A1360034A136021
:101B60007047034A1360FBE780E200E000E100E019
:101B700080E100E001238340014A13607047C046C2
:101B800000E200E0024B10309B688000C0587047B4
:101B900000ED00E070B50D00EFF3108672B60F4A4D
:101BA0001368002BFCD0BFF35F8F0D4B10309B6888
:101BB00084001B590B4A934203D09D4201D0FFF78A
:101BC000B9FD074B9B681D51BFF35F8FBFF35F8F5C
:101BD0000022024B1A6086F3108870BD240100D0E9
:101BE00000ED00E0CD010010F0B5DE4657464E4650
:101BF0004546E0B50C0083B0EFF3108A72B65A4A3E
:101C00001368002BFCD0BFF35F8F102291468144F4
:101C10004A46564B96009B689D59554B98469D42A7
:101C200005D0A54216D0534FEB1B2F2B14D94F4B89
:101C30009B689D51BFF35F8FBFF35F8F00224A4BBC
:101C40001A608AF3108803B0F0BCBB46B246A946BE
:101C5000A046F0BD1D00EAE7012383409B465A469B
:101C6000454B1B681A4000925A46444B1A60BFF31A
:101C70005F8FFEF7F8FA0190002803D0814501D06C
:101C8000FFF758FD01232A0006209A431300DB1BAF
:101C90005B4141495943090D936810569C420AD152
:101CA0005AE043001B189B00FB189868A04211D013
:101CB00006201A0018560028F3DA009B002B05D0E6
:101CC0005A462F4B1A602C4B1A60B0E75A462B4BE2
:101CD0001A60ACE706201856002821DB42001118D4
:101CE00089007C188846A1689960E179D97106213C
:101CF0006156997100291FDBA488F91A640524151F
:101D000044440919E0240905490D2402214399801E
:101D100012181C4B9200BF181A781870BA71CCE7D1
:101D2000019800280BD1FF30907117489080154A18
:101D3000107811709871C0E7BD210902E7E7134AD6
:101D40001349D21A083A5002400D014399801149B3
:101D500052080A43DA80B0E713000028BEDA019A7D
:101D6000002AECD14546E2E7240100D000ED00E076
:101D7000CD0100107402002000E100E080E100E0ED
:101D800080E200E04D16002000BDFFFFAE02002003
:101D900000F0FFFF00F8FFFFAAAA0000F8B5012538
:101DA00004000543FEF75FFAEFF3108C72B6214A88
:101DB0001368002BFCD0BFF35F8F1F4E2200B76863
:101DC0001E49521A5241214B53431B0D8200B858F1
:101DD0005BB2A8421CD006228A569A421CD012221C
:101DE0008A569A4222D01E228A569A4220D02A220D
:101DF0008A5603209A4210D0114A11781370A171AB
:101E0000BFF35F8F00220B4B1A608CF31088F8BD74
:101E1000B1680C488850EFE7002042001218920089
:101E20008918FF228A71084A8A80E5E70120F4E7D1
:101E30000220F2E7240100D000ED00E0740200204F
:101E40004D160020CD01001000BDFFFFAAAA000022
:101E5000F0B500220324FF27802620003D00094B17
:101E600011009C461040C0008540A14361440B68AE
:101E70000132AB43350085402B430B60202AECD167
:101E8000F0BDC04600E400E07047C046F8B55746D4
:101E90004E464546DE46E0B599460A9B07009A46FF
:101EA0000D9B8846934615000B9E9B0710D10C9BFB
:101EB0009E420DD29D1B14000E005D4422004B4635
:101EC000013431002020B847A542F7D1B0460B9E1F
:101ED000002E27D0444675195346AA1B013E985D33
:101EE00021004B46B847002EF6D123002C0098461F
:101EF0000D9B9B070FD55B46E51A0C9BAB420AD99D
:101F00004646984622004B46310020200135B8470E
:101F10000134A845F6D82000F0BCBB46B246A9461D
:101F2000A046F8BD2C00E3E7F0B54F464646D6463E
:101F3000C0B584B098460EAB1B7894469946129B68
:101F40000D9C109F119E9A0724D401221A4092469C
:101F5000002E47D1BC420CD21F2C00D9B4E00C9A01
:101F6000551E302201E0202C03D001342A55A7420F
:101F7000F9D85246002A0DD0A6420BD9202C40D0C9
:101F80000C9A551E302201E0202C3AD001342A55FB
:101F9000B442F9D1DA0649D55A053BD4002C35D1E3
:101FA0000F9A102A00D175E00F9A022A00D186E01C
:101FB00030220C9C22704A460124002A3BD02D225C
:101FC0000C9D2A55013403930C9B624600930296A4
:101FD00043460194FFF75AFF04B0E0BCBA46B1464D
:101FE000A846F0BD002A2FD04A46002A02D10C3262
:101FF0001A4200D0013EBC42BED21F2CAFD9202EC7
:1020000027D92024DA06DED55A0503D4A7422DD0DD
:10201000A6422BD00F9A102A32D0022A20D0202C90
:10202000D1D030250C9A121915700134202CCAD049
:102030004A46002AC3D15A070DD41A07C3D5202215
:102040000C9D2A550134BEE7BC42A3D21F2C00D8F8
:1020500085E720249EE72B220C9D2A550134B2E708
:10206000202CB0D00C9A1219013439E0621E012CD8
:1020700096D00F9D102D29D0022D2ED01400D0E720
:102080009A060ED4202C9ED00C9A15190134782271
:102090002A70C4E79A060DD478220C9C2270012481
:1020A000BFE7202C00D18EE758250C9A1219157025
:1020B0000134B4E758220C9C22700124B1E70C9C37
:1020C000603222700124ACE7202452E7023C9D06D6
:1020D000EAD40C9D2D191400D9E70C9DAA46524450
:1020E000622515709BE7C04610B5002800D110BDD1
:1020F00002F0E0F9FBE7C0460B0010B5002802D063
:1021000049681B68984710BDF0B5DE4657464E46F5
:102110004546E0B59BB09B46249B89469846259B47
:102120000A900B924046424619009A4601F0C1FCC3
:10213000002800D0DDE0012240465146794B524252
:1021400001F0B2FC002800D0D3E001224046514605
:10215000754B524201F092FC002800D0C9E00022E9
:1021600000234046514601F089FC002800D0BCE124
:1021700042465346099208938023289ADB001A406E
:102180000E92289A1A4201D1062326938023289A78
:102190001B0109991A40089B0E000D920B4300D0B9
:1021A000C6E000250026002A00D19BE100230C9305
:1021B000269B19000C9B994200DC9DE1C81A431E26
:1021C00026938023289ADB001A43002300272892B5
:1021D0000C93279B0024BB4200D9DC1B0223289AC6
:1021E0001A400D92289A134203D07B427B415B42F6
:1021F0001C400C9B002B07D0099808992A0033003B
:1022000001F0F1FB0990089100220023404651465D
:1022100001F034FC002805D080200006844608998F
:1022200061440891289A414B0A9D13400493269BD0
:10223000099A0293089B03940092019349465B46D6
:1022400028000B9A00F08AF90400002F62D0289B26
:10225000220098061F23C0179843631C98464946DE
:102260005B466530A8470C9B0025DA179C18DB0FEE
:102270009A465440013F01E0202D13D00AAA94460B
:102280001F23200063440A2101355E1901F054F92F
:102290003031317020000A2101F04EF9260004008F
:1022A000092EE9D805230693002304930A330393E8
:1022B000534605970A9F029312AB009342465B4632
:1022C000494638000195FFF72FFE0D9B0400002BB7
:1022D00020D00B9BC51A279BAB421BD91E002200A6
:1022E0005B46494620200135B8470134AE42F6D856
:1022F00010E0289B42460493279B49460393269B64
:102300000A9802935346009201935B460B9A00F0A1
:1023100025F9040020001BB0F0BCBB46B246A9461C
:10232000A046F0BDFFFFEF7FFFFFEFFFFFF7FFFFCE
:10233000734B089F9C467800400D604401F0CCFB35
:10234000704A714B01F058FB704A714B01F042FB2F
:102350003B03704A1B0B1A4304000D0030001100B0
:102360006D4B002201F02DFB6C4A6D4B01F044FBDC
:1023700002000B002000290001F02CFB01F0C4FB3F
:102380000C9001F0A9FB674A674B04000D0001F0B7
:1023900033FB0022654B01F01DFB01F0B5FB644AE5
:1023A0000600644B2000290001F026FB04003000E9
:1023B0000D000F9601F090FB5F4A604B01F01CFB93
:1023C00002000B002000290001F0FBFA02000B00C4
:1023D00006000F0001F010FB320004000D003B006E
:1023E0003000390001F0F6FA002210901191544BA0
:1023F0002000290001F0F7FA0022524B01F0EAFA1E
:1024000002000B002000290001F0EDFA00224E4BE3
:1024100001F0E0FA02000B002000290001F0E3FACD
:102420000D008021320004003B000020C90501F0AE
:10243000C8FA02000B002000290001F0CBFA0200CC
:102440000B001098119901F0CEFA0022314B01F0E7
:10245000C1FA3E4A0F9B9446634400221B0501F0DB
:10246000CBFA05000E0002000B000998089901F054
:1024700005FB00280AD00C9B2800013B31000C937F
:102480000022304B01F0AFFA05000E00C6270C9970
:102490002B0063318F42BF410D997F4204370029E1
:1024A00000D196E6334300D182E6089C284A2100F9
:1024B000284B099801F0F0FA002808D000222100EA
:1024C000254B099801F0DAFA002800D070E6269B27
:1024D000002B00D17DE60E9B5A1E9341269AD31AFB
:1024E000269376E604270C9373E6434609938023EC
:1024F0001B06534408933FE60023269361E6C0463B
:1025000001FCFFFFFB799F501344D33FB3C8608B9E
:10251000288AC63F0000F03F0000F83F61436F6328
:10252000A787D23F71A379094F930A400000E03F8B
:102530001655B5BBB16B0240EF39FAFE422EE63FAD
:1025400000002C400000244000001840FF03000061
:102550002D431CEBE2361A3F80842E41F0B54E46E7
:10256000DE4657464546E0B597B09946209E219FE6
:10257000229B8346984607910C923B003200300024
:10258000390001F096FA002800D0A9E101223000BC
:102590003900CA4B524201F071FA002800D0E1E044
:1025A000012230003900C64B524201F07DFA00286A
:1025B00000D0B7E0002230003900C24B01F074FABD
:1025C000002800D099E0002230003900BE4B01F015
:1025D00055FA002800D090E0002200233000390096
:1025E00001F04CFA002800D0B1E000230D93249BA9
:1025F0005B0501D40623984608AB9C4617220024AD
:1026000030234146624404E0013413550139202C43
:1026100001D00929F8D888463000390001F074FA51
:102620004346DA00A94B05009B181A685B680892BC
:10263000099301F051FA02000B003000390001F05B
:10264000C0F9089A099B01F0D7F90A900B9101F0A3
:102650007FFA824601F03CFA02000B000A980B99BF
:1026600001F0AFF900229A4B0A900B9101F01CFA8D
:10267000002800D1C0E001239C46E244504601F00E
:1026800027FA02000B000898099901F0FDF90028CB
:1026900002D000239A4601354346002B6AD008AB8E
:1026A00017269C4608956644554614E001235B4274
:1026B00043440A2128009A4600F03EFF013430319D
:1026C0003719397028000A2100F036FF092D00D88B
:1026D000D0E0D0460500202CE8D10EAB984603236D
:1026E000249A1340012B00D196E02023249A0193D1
:1026F0000392239A434602921EE0249B5846049379
:10270000239B00960197039343460C9A02930799E3
:102710004B46FFF7F9FC17B0F0BCBB46B246A946E2
:10272000A046F0BD249B5B070ED40322694B24997D
:102730000192039123990291009358464B460C9ABB
:102740000799FFF7A3FBE6E70422634BEFE73B00A3
:1027500032000020002101F034F9012306000F00AF
:102760000D9344E7249B0393239B0293042301933B
:102770005A4BE1E7280001F0AFF902000B003000EE
:10278000390001F01EF9524B002206000F0001F043
:1027900075F90EAB984600280AD1002230003900A6
:1027A0004B4B01F081F9002802D1EB0700D5013530
:1027B000202C94D008AA94461723280063440A21A9
:1027C00001341E1900F08CFE3031280031700A21CE
:1027D00000F086FE051EEBD10323249A1340012B43
:1027E0001BD0202C00D180E70D9B002B35D02D2253
:1027F0004146631C0A5579E700220A980B99344B2D
:1028000001F03CF9002800D046E75346002B51D197
:1028100001239C46E2443FE72024239B002BE0D089
:102820000D9B002B03D1249A0C33134202D0239B1F
:10283000013B2393239BA342D3D908AB9C46172289
:1028400030236244202C00D14FE7239901341355E3
:102850008C42C6D0202CF8D147E7249B5B0724D4B8
:10286000249A2300120700D440E720224146013376
:102870000A553BE75746089D202C00D12DE7220042
:1028800030214046002F09D00132B154202A00D116
:1028900023E7D3431B191B18002BF5D10EAB984629
:1028A0002E234146541C8B5482E72B224146631C45
:1028B0000A551BE7DB0700D4EEE6A9E7FFFFEFFFB1
:1028C000FFFFEF7F65CDCD4165CDCDC1886D001097
:1028D0000000E03F906B0010946B0010A06B0010A4
:1028E000249B0393239B029303230193004B23E731
:1028F0009C6B0010F0B54E46DE4657464546E0B5A7
:102900009FB01E00289B91469846D14AD14B8346E2
:102910008A461A60002900D111E230780027002889
:1029200000D113E243464D460A9308E03A002B00DB
:1029300051467C1CD8472700307800287CD00136CF
:102940002528F3D104239946023B9846013B0022F7
:102950009C460B953078711C0300203BDBB20C00C9
:10296000102B03D8BC4D9B00EB589F460300303B17
:102970000B9D092B35D92A2800D170E000233400A3
:1029800098460E0000230B932E2846D00300683B88
:10299000DBB2122B1CD8B1499B00CB589F46634633
:1029A0000E001A43D6E743460E001A43D2E74B46C1
:1029B0000E001A43CEE710230E001A43CAE708237D
:1029C0000E001A43C6E7802360785B001A43013685
:1029D0000300253BDBB2532BA8D8A1499B00CB5861
:1029E0009F46002394461C00020000E00131A00035
:1029F0000019400080180A78303804001000303880
:102A000033000E000928F1D99E1C0023A0461000B7
:102A10000C0062460B932E28B8D180236078DB002F
:102A20001A430300303B092B00D891E12A2800D13A
:102A3000A2E134000136A9E7A9463C00B94501D816
:102A40004B465F1E4B463A0051460020D8472000B7
:102A50001FB0F0BCBB46B246A946A046F0BD0A9BDB
:102A600002CB8846002903DB70780A93023689E797
:102A700002210A43414649427078884602360A9349
:102A800080E7782800D109E3582800D1EDE16F28CC
:102A900000D159E3622801D100F042FC102311005B
:102AA00099438023DB000C911340692801D000F08A
:102AB000B1FC002B00D0FFE280239B001A4094461B
:102AC0000A246346002B00D08BE20C9A802311006D
:102AD0005B00194089460A9904310D911A4200D0D1
:102AE00099E313005B0600D4EDE20A9B1B781A0001
:102AF0001000DA0F1292002B09D1802310220C99BA
:102B0000DB000B4091430C91002B00D013E30C9A97
:102B10006123920600D54123DBB20EA90A3B1F2296
:102B20008C460A9343466244A846149725004F46B4
:102B30000400B146139316000AE03033DBB20137CC
:102B4000F355AC4200D2EFE2202F00D1ECE20400BA
:102B50002900200000F0F0FCCBB20929EDD90A9A37
:102B600094466344DBB2EAE780239B0060781A4313
:102B700001362DE76078682800D171E180230136A5
:102B80001A4325E760786C2800D163E180235B005D
:102B90001A4301361CE7462800D142E107210A9B6F
:102BA0000492424607338B43190003920B9A58460E
:102BB00002920CC9009201930A913A002B005146EF
:102BC000FFF7CCFC0700B7E63A002B005146252062
:102BD0007C1CD8472700AFE60A9B04330B937B1C71
:102BE00099461C00930700D4DAE10A9B3A00187852
:102BF00051462B00D84743464744012B00D891E269
:102C0000A846B1465D46564622004346013431008F
:102C10002020A847BC42F7D1AB46B24645464E46B7
:102C20000B9B0A9388E60A9B10CB12930B9B207890
:102C3000002B00D1CBE0002800D1DFE3013B0133C2
:102C40009C46A4446146230094460A000CE0C0461A
:102C5000F5280010F0150020A86B0010EC6B001098
:102C6000386C0010934203D0597801330029F9D110
:102C700062461B1B0A9380231100DB0019400C9154
:102C80001A4205D00A9B9C460B9B9C4500D90A938F
:102C90000223190011400D91134200D15BE100287D
:102CA00000D140E10C9B002B00D1BDE00B9B3A0012
:102CB0009946B944E71B3B004F46A9465D46B346DB
:102CC00056469A4609E04B463100541CA8475346E5
:102CD000185D002800D120E122009742F3D1B246CE
:102CE0005E46AB464D460D9B002B00D01BE1129B70
:102CF0000A9321E60A9B190008C98946002B46D091
:102D000021210A4390460EA884461F2262440A9657
:102D100000210F24AC46160002E020290CD013003D
:102D200025001D4028003730092D00D80738013113
:102D300070541A090F2BF0D865460A9E30E0DD4B1F
:102D400030789B460027002800D0EBE5002475E68C
:102D5000002304009800C01831004000013600191B
:102D60003478030020003038303B0928F2D92000A5
:102D70000B9334008E1C09E60A9BE61C01CB02343F
:102D8000C143C91708400B900A932078FEE5102133
:102D90001000884311310843804600215205B2D506
:102DA00043460693082305930B9B3A000493102394
:102DB00003930023029316AB0191009351462B001D
:102DC0005846FFF7B1F84B4607000A93B4E50028D0
:102DD00000D114E302235B4231E720230100994331
:102DE000472904D180231B011A4302239843452815
:102DF00001D120231A4307210A9B0492424607333C
:102E00008B43190003920B9A584602920CC9009208
:102E100001930A913A002B005146FFF775F907001C
:102E20008AE520231A43B9E63300E41B2E00A146AD
:102E300055465C469A463A0033002900A0474B4667
:102E40000137D85D0028F6D15346A346AA4635007F
:102E50001E0048E7C0239B00A0781A43E61CB7E594
:102E6000C023A0781A43E61CB2E50C231100994355
:102E70001433194310240C91530500D41EE101238F
:102E80000C9A9A430C9280220C9B920013409C4611
:102E9000692800D115E6642800D112E66346002BAC
:102EA00000D096E10C9A802311005B0019408946FE
:102EB0000A9904310D911A4200D033E213005B06E7
:102EC00000D50CE113001B0600D49AE20A9B1B8874
:102ED0001800031E00D047E10C9A103311009943EB
:102EE0000C91520500D43FE1002399460C9B0394BA
:102EF0000693434605930B9B0493002302934B4692
:102F0000019316AB3A00009351462B005846FFF749
:102F10000BF80D9B07000A930EE5B24627005E46AC
:102F2000AB464D46DFE60A9B3C00984500D8DEE6FE
:102F30004744B146A84656465D46FF1A220043461E
:102F4000013431002020A847BC42F7D1AB46B2463D
:102F500045464E46CBE60A9A531C904500D854E2AB
:102F60004346DB199B1A994633005646A2464C4607
:102F7000A9465D469B463A004B460137310020206A
:102F8000A847A742F7D154464346B2465E46AB46F1
:102F90004D46013320780A93002800D082E6A6E649
:102FA0004346012B00D832E27C1E4444A84625004B
:102FB0004C46B1465E4600E001343A004346514675
:102FC00020202700B047AC42F6D12C00B34645463E
:102FD0004E4601370A9B2200187851462B00D847ED
:102FE0001EE607220A9B07339343013294469C4412
:102FF00062460A921A685B6891469C46DB171093FA
:10300000119310981199030053400E9362460B00E0
:1030100053400F930E9A0F9B121A8B410E920F93EF
:103020006346DB0F4A46129363461A435BD00C9A01
:103030006123920600D54123DBB20A3B00220D93A7
:1030400043460EA98C46914613935B461F32624459
:10305000B346149726004F469046A9460E9C0F9DF6
:1030600015930DE03032D2B243460137DA550023D2
:10307000AB4200D1A0E1202F00D1A0E104000D005F
:10308000320000232000290000F09CFAD2B2092A65
:10309000E8D90D9B9C466244D2B2E5E78023102418
:1030A000DB0013400C218A430C92002B00D1EAE68E
:1030B000E5E6C046891E00100A24E0E680239B0056
:1030C0001A409446EAE613001B0600D483E10A9BEB
:1030D00000229B5ED9175A184A4092B208E50A9B13
:1030E0001B781800F5E60C9A1023110099430C91F7
:1030F00052059CD5002399460C9B039406934346A6
:1031000005930B9B0493129B02934B46019316ABC2
:103110003A00009351462B005846FEF705FF070082
:10312000FFF70AFC4F467BE5139B2C00454698466B
:103130004E46B946149F0C9B039406934346059351
:103140000B9B0493129BD9E608240C928023DB008E
:1031500013406428A6D1002B00D090E613008022F3
:10316000920013409C46ACE40C9A6123920600D571
:103170004123DBB20A3B0A9343460EA91F228C4629
:10318000129333006244A846260013974C4605006C
:103190001700994608E03033DBB201343B55B542A5
:1031A0000ED3202C0CD005003100280000F0C4F90B
:1031B000CBB20929EFD90A9A94466344DBB2ECE713
:1031C000129B454698464B46139FA14634001E006D
:1031D0008CE607220A9B07339343013294469C44B2
:1031E00062460A921A6859681300100009910B434D
:1031F00061D10C9A1033110099430C9152055AD5A4
:10320000002399460C9B03940693434605930B9B1E
:103210000493002378E70A9B1B68D9175A184A4081
:103220001000DA0F1492002B08D1802310220C9981
:10323000DB000B4091430C91002B31D10C9A6123A0
:10324000920600D54123DBB20EA989460A3B1F2214
:103250000A9343464A44A846B14613972600050000
:1032600064461700129308E03033DBB201343B555B
:10327000B5420ED3202C0CD005003100280000F000
:103280005BF9CBB20929EFD90A9A94466344DBB2C1
:10329000ECE7129BA4464546340098464E46139FE1
:1032A0000C9B03940693434605930B9B0493149B3A
:1032B0000293634624E60C9A6123920600D54123CB
:1032C000DBB20A3B00220D9343460EA98C46914681
:1032D00012935B461F326244B346139726004F4653
:1032E0009046A946099C050014930BE03032D2B2F7
:1032F00043460137DA550023A34273D0202F73D001
:1033000005000C00320000232800210000F05AF9CB
:10331000D2B2092AEAD90D9B9C466244D2B2E7E7B1
:10332000022412E70A9B1B68181E08D18023DB00C9
:1033300011001340102291430C91002B31D10C9AB3
:103340006123920600D54123DBB20EA989460A3BD0
:103350001F220A9343464A44A846B14613972600C3
:10336000050064461700129308E03033DBB20134E5
:103370003B55B5420ED3202C0CD00500310028005F
:1033800000F0DAF8CBB20929EFD90A9A94466344DF
:10339000DBB2ECE7129BA4464546340098464E4605
:1033A000139F0C9B03940693434605930B9B049336
:1033B000002302936346A3E5A64200D85BE6139B75
:1033C0000E940F959846159B34004D465E46B946BF
:1033D0009B46149F90E60A9B1B68D9175A184A40CF
:1033E000FFF786FBAE4289D9129B34009846149BA6
:1033F0004D465E46B9469B46139F03E700230A935A
:1034000039E40A9B1B68180063E50A93C4E53C0095
:103410004F46DFE50A240A0098E6C04600B585B0AD
:103420000391012102900093034813004A4202A92C
:10343000FFF760FA05B000BDF920001010B5094A89
:103440000300146884B0002C08D0012200910648C3
:10345000524203A9A047012004B010BD01F038F882
:103460000020F9E7F0150020E920001001480421B0
:10347000014B1847C00200209D340010142310B5E2
:103480000100188804331B88984710BD162310B517
:103490000100188802331B88984710BDF8B54746CD
:1034A000CE4680B50F1E19D014239946043304006C
:1034B0000025012698464B461888434621681B88FC
:1034C000984701C4431E9841013540420640AF422F
:1034D000F1D13000C0BCB946B046F8BD0126F8E7CE
:1034E000144A936F9B0815D29066D166002905D0C7
:1034F000FFE7FFE7FFE7516F106F704704B58021CA
:103500000906C2175140002800D0C84303F0D8FA7A
:10351000002104BD936F5B08FDD3F0B5946ED56EAA
:10352000576F166FFFF7E0FF9466D566576716670B
:10353000F0BD0000000000D0134A936F9B0813D227
:1035400010665166002905D0FFE7FFE7FFE7516FDE
:10355000106F704704B5002801D00020C04303F06D
:10356000AFFA002104BDC046936F5B08FDD3F0B5F0
:10357000946ED56E576F166FFFF7E2FF9466D566AF
:1035800057671667F0BD0000000000D094464E4A11
:10359000926F9208624601D230E0C046F0B54A4EC2
:1035A000B56F6D08FCD3346E756E776F366F00F0B3
:1035B00025F89446444A146655665767166762466E
:1035C000F0BDC0469446404A926F9208624601D2CE
:1035D00058E0C046F0B53C4EB56F6D08FCD3346E74
:1035E000756E776F366F00F04DF89446364A146664
:1035F0005566576716676246F0BDC046002B24DB50
:1036000011D000293EDA00B5C943404200D1013152
:1036100000F038F8C943404200D10131DB43524247
:1036200000D1013300BD002AEBD1002801D10029CF
:1036300005D00020C90FC90701D1C043410800B51A
:1036400003F036FA0022002300BD00B500290ADB92
:10365000DB43524200D1013300F014F8C943404229
:1036600000D1013100BDC943404200D10131DB43EB
:10367000524200D1013300F005F8DB43524200D141
:10368000013300BD002923D1002B18D1002A0CD012
:10369000BC460D4F38667A6600210023FFE7FFE73E
:1036A000FFE77A6F386F67467047002801D00748F8
:1036B000010000B503F0FCF90022002300BD020068
:1036C0000B00002000217047000000D0FFFFFFFF2B
:1036D000002B00D0BDE0130C26D1002AE7D080B427
:1036E000104F39667A66FFE7FFE730B4040C7B6F52
:1036F000396F1B0423433B66FFE7FFE7FFE7C04644
:1037000084B27B6F3D6F1B0423433B66FFE7FFE7FB
:10371000C04600232C042D0C7A6F386F00196941C4
:10372000B0BC7047000000D0F0B594460025140EE0
:1037300001D112020835140F01D112010435940F82
:1037400001D192000235D40F01D152000135D40BC2
:103750000134254F7C66254C3C660E0C93B2FFE786
:10376000FFE7FFE73C6F6643360C7703BE467343C3
:10377000DF0B5B04C01AB941130C7343DB18C91A81
:10378000CE086643360CB64493B273431F0F1B0139
:10379000C01AB941130C73431F0B1B05C01AB94162
:1037A000860D8F023E436643360C092D24DB520AF8
:1037B0007243801A7703460A6643360C16235B1B56
:1037C000DE40DF40BF1964466643821B7046043505
:1037D00006330100D940A840C01900D30131A242EC
:1037E00006D20023F0BD0000000000D0FFFFFFFF65
:1037F000121B0130F3D3F1E709277F1BFE4064461B
:10380000A2B27243801A00D20139220C7243130C07
:103810001204821A99410B007046043513370100D7
:10382000F940A840801900D30131002B02D1A242F7
:103830000AD2F0BD013000D30131121BFAD2013B94
:10384000F8D1A24200D2F0BD013000D30131121BE9
:10385000F7E7F0B51C0C00D080E00CB400251C0A82
:1038600004D11B02160E3343120208351C0B04D17F
:103870001B01160F3343120104359C0B04D19B002E
:10388000960F334392000235DC0B02D192185B4154
:1038900001351C00971864410134464F7C66464C44
:1038A0003C660E0CFFE7FFE7FFE7C0463C6F664350
:1038B000360C7703BE4697B27743C01B00D201395E
:1038C000C01B00D201399FB27743C91BC91B170C1B
:1038D00077437E04FF0B801BB941CE086643360C4C
:1038E0000C2D33DBB644120B1F053A431B0B97B26A
:1038F0007743C01B00D201399FB27743C91B170C15
:1039000077433E043F0C801BB941860D8F023E4336
:10391000664329277F1BFE400C3D7746AF40BF1909
:1039200030BCA2B2ABB272437343801A9941220CED
:103930007243130C1204801A994102000B000137E4
:10394000001BA941F9D2781E0021F0BD0C277F1B76
:10395000FE4077467F0BAF40FF19E0E700245D1C77
:1039600007D0144F7D663966FFE7FFE7FFE7FFE703
:103970003C6F95B29EB265436643401BB141150C46
:103980001E0C6543664336042F0C3E432D04401B3A
:10399000B141994204D202000B0020000021F0BD89
:1039A00001D19042F7D3801A994101349942F2D360
:1039B000F6E70000000000D0FFFFFFFF4840414055
:1039C000484018B4114B5B68FC46019308BD04DF06
:1039D0001B3C001018B40D4B1B68FC46019308BD3E
:1039E00000DF253C001018B4084BDB68FC4601934F
:1039F00008BD0CDFDD3E001018B4044B9B68FC468C
:103A0000019308BD08DF813D0010000090080020F0
:103A1000FFB550404240504059404B40594000E0B3
:103A2000FFB5154F4C00640D03D0BC4204D10C030C
:103A300014D80020090D09055C00640D03D0BC42B8
:103A400004D11C030AD800221B0D1B0501264B4084
:103A500009D44B4003D58B4200D18242FFBD99422D
:103A6000FCD19042FFBD0B43DB1803431343F5D059
:103A7000C9434918FFBD0000FF07000000B5FFF76C
:103A8000CFFF804100BDC04600B5FFF7C9FF01D997
:103A9000002000BD012000BD00B5FFF7B9FF01D92E
:103AA000002000BD012000BD00B5FFF7B1FF80413F
:103AB00000BD012040054A00121804D85A0012180F
:103AC00001D8002070470120704700207047000097
:103AD0000021002805D17047C1174840401AFAD08C
:103AE000C90713B5064B1B6898470CBC441CA24081
:103AF0001005120B0349091B09051943114310BD99
:103B0000241600201F04000010B54C00620D802315
:103B1000D218DB00D21A5B057E2A10DD9E3A13DA3A
:103B2000CC170903490819435242D14064000134BB
:103B30001532202A05DAD0400843604310BD00202A
:103B400010BD0846604310BDC80FC018013810BD35
:103B500018B4044B5B6AFC46019308BD24DF09419D
:103B60000010000090080020132370B51D78012D6F
:103B700010D00BDD1948FFF789FC194C0100802299
:103B8000200000F08DFB022D01D070BD144C154BB0
:103B9000A364FAE7134B124C23606360A360E360F5
:103BA00023616361A361E36123626362A362E362F1
:103BB00023636363A363E36323646364A364E364D1
:103BC00023656365A365E36523666366A366E366B1
:103BD00023676367A367E367A364D6E753440000E2
:103BE00090080020E93B001007B5604601880A0AEA
:103BF0000230DF2AFAD1C9B2820804D30288408891
:103C00000004104300E00068014A5050039007BDD3
:103C1000900800200FB403BC0CBCF0B50124E407ED
:103C2000634000E0F0B50C0DCF0F661E3605891B12
:103C3000640503D3C943404200D30131640D03D06E
:103C4000661CF60A07D0E41B00207F00791C890758
:103C50008912803C24031D0DDF0F6E1E36059B1B51
:103C60006D0503D3DB43524200D301336D0D03D006
:103C70006E1CF60A07D0ED1B00227F007B1C9B0701
:103C80009B12803D2D032F1B661B58D4A446202E6B
:103C900046DA20371400BC401D00BD40F2403341DD
:103CA0002A4380185941CB0F05D0C943C043002295
:103CB00064425041514162464D0D28D10D0D07D14E
:103CC00000281FD0241940414941013A0D0DF9D077
:103CD000640006D3013000D30131002C01D140082B
:103CE0004000013A0BD4941CE40A04D1120511449B
:103CF000DB071944F0BDD907204B194300E0D90771
:103D00000020F0BD0029DDD1002CDBD1F0BD013257
:103D1000C6074008CD0728434908002EE1D0D9E75F
:103D20003C2E29DA203E40371400BC4000D001244C
:103D3000F24014431A00BB401C43D317ACE7AC4617
:103D4000202F08DA20360400B4400D00B540F840BA
:103D500039412843A5E73C2F0CDA203F40360400C8
:103D6000B44000D00124F84004430800B1400C43A3
:103D7000C117EAE710001900002494E70000F07F63
:103D8000F0B50C0D661E3605891BE60A6405640D48
:103D900002D0651CED0A04D0002001210905803CF9
:103DA0002403A4461C0D671E3F05DB1BE70A6405C0
:103DB000640D02D0651CED0A04D0002201231B050E
:103DC000803C24037740644497B484B296B2744331
:103DD000070C7E43150C6F4380B26843361802D33C
:103DE000012000043F183004350C00197D41844641
:103DF00088B29AB250430C0C62431F0C7C438EB2C3
:103E00007E43921902D301263604A4191604170C16
:103E10003618674101BC81B29AB25143040C624327
:103E20001B0C5C4380B25843121802D301200004DB
:103E300024181004130C401863412D185E41002013
:103E4000474106BC88B293B258430C0C6343120C32
:103E5000544389B251435B1802D301210904641809
:103E600019041A0C091862416D1856410020474187
:103E700018BCF902720D1143F0026A0D1043ED02F5
:103E80000A0D03D16D1940414941013B124E9B1B64
:103E90007600B3420ED26D0007D301300026714187
:103EA0006646354301D1400840001B05C918E407A8
:103EB0002144F0BD0BDA013306D1013004D10131C8
:103EC0004F0D01D04908F2E7E1070020F0BD0136AF
:103ED00031050020EBE70000FF030000F0B51C0DEA
:103EE000671E3F05DB1BE70A6405640D02D0661CF4
:103EF000F60A04D0002201231B05803C2403D025B0
:103F00002D060026F6432E661E096E66CE0FF619A4
:103F1000B44649004F0D02D07E1CF60A03D00020A3
:103F20000021403F3F033E1BB600B444013F7F05E4
:103F3000C91B49082E6F013676089C02950D254352
:103F40007543ED137543AD1301356D10F603761B04
:103F50000CB4CC02450D2C43A2B2B3B25A43270C89
:103F60007B43350C6F43A4B26C431B1902D301246D
:103F700024043F191C041D0CA4187D4124196D4113
:103F8000009A91B2ACB26143170C7C432B0C5F4397
:103F900092B25A43A41802D301221204BF18220479
:103FA000230C52187B41019C6C431B19520ED90102
:103FB0000A434401A01A81B2B2B2514303145A43D6
:103FC000360C734387B27743D617D21900277E4148
:103FD00036049B191704160C7F185E417316ED18F2
:103FE000F301002680337541A90F06D16400690AE8
:103FF000E8055B0A184309D22FE004229444803379
:104000007541A90AA8059B0A184326D34041494196
:104010002404009A019B0D005543641B4343E41A9A
:1040200095B286B27543170C7E43030C5F4392B280
:104030005A43B61802D301221204BF183204330CBB
:1040400052197B4152429C41002C02D40022013083
:1040500051414008CA071043490802B06246D707D9
:104060009210084BD218084B9A4203D212058918B5
:10407000C919F0BD0020002A01DC3900F0BD013370
:104080001905F5E7FD030000FE070000624618CAA7
:10409000944600291ADAC01861415B463B415C46F0
:1040A000B4405246FA40224344464D4662416B4179
:1040B000904699462B46B3403D41FC401C43524636
:1040C0005B46A241AB4192469B467047C01AA14154
:1040D0004B463B414C46B4404246FA40224354468C
:1040E0005D4662416B4192469B462B46B3403D4143
:1040F000FC401C4342464B46A241AB419046994688
:104100007047002000217047002200B5203200F0E7
:1041100004F8080000BD000000220B15F1D410B512
:10412000944600F02FF81414013400DA0021CB1764
:10413000134C20476244343A0CD40C2A07DA0400AA
:104140009140904052422032D440214310BDD84388
:10415000D94310BD203207D40C469440524220323D
:104160001141D040204310BD0800C917203203D4AC
:1041700052422032104110BD1800190010BD00003D
:10418000354100100A0DCC0F531E1B05C91A5205EC
:1041900003D3C943404200D30131520D03D0531C15
:1041A000DB0A07D0121B00206400611C89078912FA
:1041B000803A1203014BD21A70470000FF0300003F
:1041C00051434343C9188C46110C83B24B4310B47E
:1041D000040C614392B280B2504362431C041B0C36
:1041E000001910BC59411304120CC018514161440C
:1041F00070470000132310B512481C78FFF746F9EA
:104200000100012C0AD003DD80220F4800F048F89D
:104210000E48FFF733F90E4B186010BD0A4C5422BC
:10422000200000F03DF80B4B6365A365E365236652
:104230006366A366E36623676367A367E367236236
:10424000E361E5E753460000900900204C3300008D
:10425000241600205942001007B5604601880A0A5A
:104260000230DF2AFAD1C9B2820804D3028840881A
:104270000004104300E00068014A5050039007BD5D
:104280009009002001480421014B1847D00200206A
:104290009D340010014B1B6818470000D00200201D
:1042A000014B5B6818470000D0020020F0B5D646ED
:1042B00046464F468246C0B515000E00002A39DD3D
:1042C0004B1E98461E4B0020002499460CE04346A6
:1042D0001B5D671C0D3B5A425341325DDBB20A2A1B
:1042E0000AD0BD4219D03C00002CF0D15346325DBB
:1042F0001B7C671C0A2AF4D1002BF2D153461B68A1
:10430000A04204DA211A3018984753461B684846E1
:10431000022198473800BD42E5D1A84204DA53464D
:10432000291A1B6830189847335D0D3B5A42534198
:1043300052461374E0BCBA46B146A846F0BDC0462A
:10434000406E0010F8B5CE4647460D0009680600DD
:1043500080B5802907D04B1C2B606D182E71C0BC16
:10436000B946B046F8BD134B1C68002C1BD0124B4D
:1043700098462B1D994602E0E468002C13D027686C
:10438000002FF9D043461B68002B01D09C42F3D18B
:10439000637C2A68002B09D020004946FFF786FF7E
:1043A000E468002CEBD101230021D5E71100484639
:1043B000B847E1E7680F00206C0F0020F0B55746C2
:1043C0004546DE464E46D023E0B51B061C68354BFD
:1043D00083B007000D00180001A990469A4602F02C
:1043E00077FB8146002807D1019B9C4204D05046B0
:1043F00002F07EFB012399466B1C03D1380002F0CA
:10440000B5FA0500284B1C68002C2FD00A23274E34
:104410009B4602E0E468002C28D02268002AF9D0EC
:104420003368002B01D0A342F4D1637C002B27D04A
:104430002A0039002000FFF739FF4346002BE9D05E
:104440006B465A461A71637C002B1DD0237C226870
:10445000002B22D0012101A890476B461B790D3B10
:104460005A4253412374E468002CD6D14B46002BAA
:104470000FD103B0F0BCBB46B246A946A046F0BD82
:10448000290038009047D8E70121236801A8984700
:10449000C0E7504602F004FBEBE7022104489047D6
:1044A000DBE7C04664070020680F00206C0F002087
:1044B000406E001010B582B06B4604000022D81D7B
:1044C00001210470FFF77AFF200002B010BDC04642
:1044D00070B5040002F04AFA012201000500200034
:1044E000FFF76CFF084B1C68002C06D06368002B9C
:1044F00005D09847E468002CF8D1280070BDE46826
:10450000002CF3D1F9E7C046680F00200D4A13686C
:10451000002B13D0834202D109E0984208D01A0040
:10452000DB68002BF9D1002900D0D06070471A0059
:104530000029FBD1DB68D360C160F7E70029F5D023
:104540001060F3E7680F0020F0B54646D6464F46A8
:10455000D023C0B51B061F68314BA2B004000D006C
:10456000180001A9984602F0B3FA061E06D1019B75
:104570009F4203D0404602F0BBFA0136842200215C
:1045800001A8FFF787FE2B002200264801A9FEF7AD
:1045900045FF019B0700002B15D1234B1C68002C05
:1045A00006D06368002B0CD09847E468002CF8D143
:1045B000002E2FD1380022B0E0BCBA46B146A84642
:1045C000F0BDE468EBE7184B1D689A46002D25D036
:1045D000164B994602E0ED68002D13D02C68002C94
:1045E000F9D04B461B68002B01D09D42F3D16B7C68
:1045F000019A002B0AD0280002A9FFF757FEED68A8
:10460000002DEBD1534601951C68C8E7110002A8A4
:10461000A047E0E7404602F043FACBE70195C7E741
:104620006407002045430010680F00206C0F002035
:104630000FB400B583B004A901C90191FFF784FF4D
:1046400003B008BC04B0184710B500F045F800F0FE
:1046500097F910BDF0B50D1E15DD0E4B0D271A682C
:104660000D4B4519D31859424B410C495B005E5E16
:1046700020210478A64207D093691942FCD1013069
:104680001460A842F5D1F0BD93691942FCD11760BE
:10469000F2E7C046441600200080FCBF4016002010
:1046A00030B504000D1E12DD00201021094B013C25
:1046B0001A689369194208D1013093691942FCD1F3
:1046C000136823548542F4D130BD0028FCD1032067
:1046D0004042F9E744160020E12110B50B4B0C488D
:1046E0001B780C4B49021B780B4B1860FBF7AEFF95
:1046F00002210020FBF7C8FE02210120FBF7C4FEC7
:1047000001210648FFF702FF10BDC046F0700010FF
:1047100000400340F470001044160020E002002026
:104720007047C0460022014B1A7070474E16002099
:104730004B790020FF2B0BD18B79002B08D1CB7943
:10474000012B05D1082A03D98A78024B09301A7047
:104750007047C0464E160020012070470120704768
:1047600070B5144A4B79087912781B020343002074
:104770009A4200D070BD4B78012B08D0022BF9D1A2
:10478000002064220C49FDF759F90120F2E7CA78AC
:104790008C78120205001443D20502D5620A9340B8
:1047A0001D000648FEF76AFE7F2103002140280015
:1047B0009847C0464E1600200020042055420000B5
:1047C0000123037000487047846E001048780B780E
:1047D0008A7800021843120410439622CB7810B551
:1047E0001B060343D200934200D010BD0348FEF7DE
:1047F00045FE0021030008009847C04655420000CE
:1048000070B5184C82B006000D00200001A902F01E
:104810005FF9002808D1D0231B061B68019A9A4231
:104820001CD0200002F064F9002001F087FB002872
:1048300007D103256D42200002F032F9280002B0B2
:1048400070BD002001F094FB0028F2D02A00310056
:10485000002001F09BFB051EEBD0ECE703256D4229
:10486000ECE7C04628160020F0B5DE464F46464627
:10487000C0B5334B82B081460D00180001A99B469C
:1048800002F026F9002808D1D0231B061B68019AE4
:104890009A424FD0584602F02BF9002001F04EFB0F
:1048A00000283FD00024002D41DD264E11E04B466C
:1048B0000020191901F0E4FB804600F0B7FC00204D
:1048C00001F09EFBFCF7CEFB306071604444AC42CB
:1048D0002DDA002001F0F0FB2F1B0200B84200DDB2
:1048E0003A00002AE3D100F0A1FC002001F088FB8F
:1048F000002001F023FB002819D0002001F0DCFB90
:104900000028E4D1FCF7AEFB326873680F00002189
:1049100084460D4812184B419F4208D8D7D1944580
:10492000D5D904E000200021064B18605960584694
:1049300002F0B6F802B0E0BCBB46B146A846F0BDF6
:10494000281600208808002020A107001F2010B58D
:10495000FDF710F9FA200021800010BD10B5074CBA
:104960000021200002F0B4F8002800D110BD00F0B2
:104970005DFC200002F094F8F8E7C04628160020FD
:1049800070B51E4B84B01B7801F068FD1F201C49D8
:10499000FDF700F901211F20FDF7DAF81948FCF7AF
:1049A00053FCFCF7EBF80600FCF75CFBFA22040072
:1049B0000D000023920012196B41994214D811D0B6
:1049C00001210291002101910F4930000091FCF773
:1049D000D9F80400631E9C41E4B2002808D12000ED
:1049E00004B070BD9042EBD901225242D317E7E7E1
:1049F00001210648FFF78AFDF1E7C046F870001074
:104A00005D490010281600204D490010F4020020D6
:104A100000487047506F001000487047FC6E00104F
:104A200030B5002806D1C1251148124BAD00438096
:104A3000058030BD052818D80F4B8000C4580C489D
:104A40000123811C013C04E001330A800231142B54
:104A500008D0E25CDDB2002AF6D1C0236D009B00D5
:104A60001D43E5E7CA25AD00E2E70020E1E7C046C7
:104A7000400F002009040000646F00109823F0B577
:104A80004546DE4657464E46424AE0B5D358802456
:104A900098461D00102385B00393434664022540C9
:104AA000234214D00121392000223B4B2500195408
:104AB000597147315A541A7500200132374901F0B3
:104AC00023F88022364B92021A65364B03934346F5
:104AD000DB060DD4802342465B011A4238D145459E
:104AE00052D105B0F0BCBB46B246A946A046F0BDC7
:104AF000284B9F6D9A46002F24D0294B0025012476
:104B00009B4603E064000135202D1BD02742F9D0DD
:104B10005346DB6D5B46682601229C656B085E434D
:104B200034239146AA435343F6181B4B9C466644D4
:104B3000300000F03DFA00281AD1A7430135640087
:104B4000002FE1D1802342465B01039D1A42C6D06B
:104B50000022154900200A700E491D430A600132E7
:104B6000012100F061FF80220D4B12031A65B6E7A8
:104B70004B46F269317900200093002300F0ECFFEE
:104B8000300000F0E9F9D8E7414608486940FCF7F1
:104B9000B9FDC04600001150700F002000001050F9
:104BA00000301150100001004A1600207C6F0010E8
:104BB00010B501210520FCF7CBFF10BD094B10B546
:104BC00001221970392100230748425442714732AB
:104BD00083540375002200213430013300F066FA5B
:104BE00010BDC0464A160020700F00208022024BE4
:104BF0005202DA647047C0460020115070B50500BB
:104C000000F082F905201C49FCF7C4FFD0221B4CA0
:104C100000212000D200FFF73DFB0022184B19496C
:104C20001A70194B40201960352601231749E3708B
:104C30006371E062E1600A60A3554C36FF36268757
:104C4000002620662430265411491248A2602161B2
:104C50002370E28620640260E2633432A3540E4A79
:104C60006164136480239B05D36490230B4928005F
:104C7000D150FFF7BBFF70BD7D4A0010700F0020C0
:104C80004A16002080011050F815002084001050B2
:104C90000001105080001050000011501010010051
:104CA0000B785B0602D14B78052B09D00121392006
:104CB0000022064B5971195447311A755A547047DE
:104CC000034B1A78034B1A60F0E7C046700F0020C0
:104CD0004A16002000001150F8B54746CE4607237B
:104CE00080B54879CC780A7903408F78A4071B02F5
:104CF0001343A20F944614007F207AB29146682194
:104D000034223840FE094143724352184946C94390
:104D10003C4DC90FAA18D1704142414117715670DC
:104D200090705171012C5ED0402B60D834226821E4
:104D3000724341435218AA181100674630310F7070
:104D40004F46D362C100002F3DDB2F4FBC460027EA
:104D50006144D1600F6000283DD02C4FC100BC469B
:104D60006144916068272A4A47431168904634227B
:104D7000BC4672436244AA181161402B00D2402302
:104D80003F22CB18134201D0934340334246136075
:104D9000204B682259403423A4060C43A0217343BE
:104DA00042439B18EB189B6809060C431C60342394
:104DB0005E4334335843673B3618AB550120C0BCC3
:104DC000B946B046F8BD144FBC4600276144D160D7
:104DD0000F6000280FD1342300227343EB189A6030
:104DE0000E4A1A61E3E78022D20093429ED3190053
:104DF0000B48FCF787FC074FC100BC46614491603B
:104E0000B0E7C046700F002084001050040010501E
:104E1000F8150020000010508000105000011050C4
:104E2000906F001010B50C00342011001A00E30937
:104E300058437F23234068245C43044B0019C01867
:104E4000012300F033F9012010BDC046700F00208F
:104E500070B57F25342068230D40CC096B43604337
:104E60000C4EC01830188378002B05D143785A4275
:104E70005341094A0133936680220849120100F028
:104E800075F8342101234C4334314D4364193419EE
:104E9000237570BD700F002000201150FFF7FFFF39
:104EA00070B57F25342068230D40CC096B436043E7
:104EB0000C4EC01830188378002B05D143785A4225
:104EC0005341094A013393660022084900F04EF825
:104ED000342100234C4334314D4364193419237574
:104EE00070BDC046700F002000301150FFF7FFFF6B
:104EF000034B8000C25810B50248FCF703FCC046C3
:104F000008030020B86F001080220E4B520410B529
:104F10001A600D4B0D491A6010008B689843FBD145
:104F20000B4C9C2200212000FFF7B4F980220021C5
:104F300052010848FFF7AEF9092363670333A367FB
:104F400010BDC04600E0004000F0004000C000403E
:104F500000001150000010500023002132228382F3
:104F600081548361C36103628362704710B5C36873
:104F7000002901D01C682140002A11D08024E400BF
:104F8000114322420CD01A6822420BD1074A0A4030
:104F90001A60FFE7FFE7FFE7FFE7FFE7FFE7C36808
:104FA000196010BD81784078FFF7A2FFFFFBFFFF7B
:104FB000F8B5467D0400002E00D165E0C368C078D6
:104FC0001D68E169AD05AD0D002842D16918E161A8
:104FD000A269551A402D2ED86B189B1A5F427B414F
:104FE0002427DBB22562E3558A424AD347D0002802
:104FF00023D08022D2002A436179002902D0802068
:1050000080010243012041406171002B02D08023C6
:10501000DB011A43E1680B685B053AD41F4B134070
:105020000B60FFE7FFE7FFE7FFE7FFE7FFE7002091
:10503000E3681A60F8BD4025CEE7A36A2A009C46C3
:1050400020696144FFF72CF984221202E35D2A43B0
:10505000D2E7A36A2A0058182169FFF721F9E3690A
:10506000E078E918E1610028B2D0236A9D42AFD20E
:105070000023012223622433A161E254DAE73000E5
:10508000D8E70748FCF73EFB8178064A0648FCF75C
:1050900039FBA1786078FFF72BFFC046FFFBFFFFCD
:1050A0000470001008030020D86F001070B50400D1
:1050B000002B49D0437D002B03D000230375322001
:1050C00023540023A261E361151C402A31D8012337
:1050D000ADB2521B637553425A412426252300204A
:1050E000D2B22562A162A255E054E378002B22D00F
:1050F0008023DB002B436179002902D080208001CE
:105100000343012041406171002A02D08022D20174
:105110001343E1680A68520519D40F4A1A400A601D
:10512000FFE7FFE7FFE7FFE7FFE7FFE7E26813605E
:1051300070BD4025CBE72A002069FFF7B1F8842332
:105140001B02A25D2B43D6E7FFF732FFF0E7A17801
:105150006078FFF7CDFEC046FFFBFFFF024B58789B
:10516000431E9841C0B27047C40D0020024B18780E
:105170004007C00F7047C046C40D0020F8B5372265
:1051800000212148FFF786F8204C2000FCF75CF84E
:105190001F4B1C601F4C20001830FCF763F82000E8
:1051A00001F056FB1C4B1D4E1D4D1C60002E04D003
:1051B0002800FFF705FB1B4B186000242B78002EFE
:1051C00019D0194E174F9C420FD319D1330098476D
:1051D00001342B78E4B2A342F5D20020FFF70EFD94
:1051E0000020FFF7E5FC0120F8BDE3003A681B1B37
:1051F0009B009B58EBE700F06DFF2B78002BECD069
:1052000000231B68FFDEC046C40D00207C0D00207B
:10521000FC0D002010030020000E0020C1470010EC
:1052200048160020940A0020D5600010F0B5DE4634
:1052300057464E464546E0B58BB001F01FF90028B1
:1052400000D123E1B34B07AF9A46B34B9B4653467D
:105250001D68AA69EFF3108172B61368002BFCD0A9
:10526000BFF35F8FE9612800390001F063F9AA6993
:105270000400EB69BFF35F8F0021116083F3108896
:10528000002800D102E17B78082BE0D85A469B0029
:10529000D3589F467B68002BD9D0B8689847D6E78B
:1052A0007F2239799D4B0A405400C8091B191B18ED
:1052B0001800012520304479AC434471447903350A
:1052C000AC434471002A00D1E7E0954ADB7C002A18
:1052D00006D0944A1278934200D26EE19B1ADBB258
:1052E000002B00D0D2E0904C7A793878BB68A04788
:1052F000ADE78A4B0126984642461B78002033438F
:1053000013703B78994600F08FFD60233D792B4068
:10531000602B0DD0402B00D1DBE0ED06ED0E012D12
:1053200000D155E1022D00D112E1002D00D1E2E0C3
:1053300038780021FFF78CFD80213878FFF788FD51
:1053400085E77A4B002B82D000E000BF7FE7784BE7
:10535000002B00D17BE7714B18780007C00F00E0ED
:1053600000BF74E76F4D6E4A00242B78002A00D1ED
:1053700099E0704EA34209D8A34200D096E00134D0
:10538000E4B29C4200D962E7A342F5D93168E20059
:105390008C46121B920062449269002AEFD0387842
:1053A000904701342B78E4B29C42E3D94FE737228F
:1053B00000215A483E78FEF76DFF1022FF215E481B
:1053C000FEF768FF55481222FF211330FEF762FFF7
:1053D00000F020FD534D524A00242B78002A00D1C2
:1053E00070E0564A9046534A9146A34245D866D14A
:1053F00043463000984701342B78E4B2A342F4D2FC
:105400004F4B002B00D122E700E000BF1FE7434BCA
:1054100037229846002118003E78FEF73BFF4346AE
:105420001022D81CFF21FEF735FF40461222FF2133
:105430001330FEF72FFF00F0EDFC3A4D384A002400
:105440002B78002A35D03B4A91469C420CD336D16A
:105450003A4B3000984701342B78E4B2A342F4D29F
:1054600042463B799370F2E64A461268E30094465E
:105470001B1B9B0063445B68EBE74A461268E30032
:1054800094461B1B9B0063445B68B2E70BB0F0BC07
:10549000BB46B246A946A046F0BD7A793878BB68CB
:1054A00000F0D6FCD3E6002B00D1D0E600239B69A8
:1054B000FFDE300000F04AFE2B78002BD0D0002316
:1054C0005B68FFDE300000F041FE2B78002B97D0A8
:1054D000F5E71C4B002B00D12AE71B48002801D020
:1054E00000F0A2FC484608A900E000BF0400002C20
:1054F00000D0ACE61CE7202B00D19AE0002B00D0B6
:1055000016E77B79092B00D912E7104A9B00D35884
:105510009F46C046000E002028700010C40D0020D9
:10552000C147001048160020096300100000000069
:1055300000000000940A0020C70D00204D610010FB
:105540000000000000000000000000004C7000108F
:105550007F22397A0A40082A00D9E9E6C809019071
:10556000002B00D182E0002453000293019A029B99
:1055700094464344D64A6344DB7C002A06D0D54A8D
:105580001278934200D200E19B1ADBB2002B00D0CC
:10559000F2E0D148D14D00F047FC4846EB6808A93D
:1055A0009847002800D1E7E060223B791A4200D0FA
:1055B0004DE6002000F038FC49E6DA00D31AC84A6C
:1055C0009B001268D318002B00D15FE75C698BE663
:1055D0003B7A0F2B00D9ABE6BD4A4344DB78002A67
:1055E00005D0BC4A127893425ED39B1ADBB2002BE3
:1055F00000D09DE6B848B94C00F016FC4846E36878
:1056000008A99847002800D021E6602211003B79C4
:1056100019401A4200D08BE67B790A2B00D087E62E
:1056200006AB9A1C11700123484608A900F094FBB0
:105630000DE63B7A0F2B00D97AE6A54A4344DB7886
:10564000002A06D0A34A1278934200D2C7E09B1AE0
:10565000DBB2002B00D06BE69F48A04C00F0E4FBCF
:10566000E368484608A99847040040E77B7903931C
:10567000012B00D19DE0032B00D190E0002B00D046
:1056800056E65300019A0293944643446344203300
:105690005B7906AA9B07DB0F023213804846022380
:1056A00008A900F059FB61E78D4ADC00E31A146891
:1056B0009B00E418002C00D13AE620699CE7FB88A7
:1056C000012B00D034E6434608221B789343424620
:1056D000484608A9137000F027FBB8E543460220AE
:1056E000197806AB9A1C8B0689080140DB0F0B4327
:1056F00013804846022308A900F02EFBA7E5434685
:10570000BA7903925B78002B02D1002A00D082E0A4
:105710004346039A484608A95A7000F005FB96E5EF
:10572000434606AA5B78023213704846012308A953
:1057300000F012FB8BE5FB88B8791B0A0F2B00D910
:10574000F6E5684A9B00D3589F4608A800F072FB14
:105750004846B979FFF732FA434602221B781343D1
:105760004246137073E5FB88012B00D0E0E5434609
:1057700008221B781343AAE760223B791A4200D023
:10578000B5E6002000F050FBB1E6554ADD00EB1A0B
:1057900015689B00ED18002DEED02869FBE6FB880C
:1057A00052000292002B25D0484608A900F0BCFA0E
:1057B000DCE6FB8852000292002BF5D14846FFF749
:1057C0006FFB019A029B94464344634420335A7909
:1057D0000399AA435A715A798A435A71E4E7404AB5
:1057E000DC00E31A14689B00E418002C00D19FE54C
:1057F000206933E74846FFF72BFB019A02219446C4
:10580000029B4344634420335A790A435A715A79BC
:1058100016435E71C8E7501EC0B2FFF7FDF80028BE
:1058200000D185E54378022B00D081E50121C279C2
:105830000500931152110B400A4012015B01134302
:10584000424612782F318A43134342461370C3787D
:1058500082781B021343C31809350493049BAB429F
:1058600000D8D1E000236A7802930B2A04D12B7868
:105870000295EB181D005A78042A00D058E5049BC5
:10588000134A5B1B9BB20193124B00241B78002A26
:1058900010D12BE09C4235D1134B29004846019A88
:1058A0009847002831D10B4B01341B78E4B2A34256
:1058B00000D23DE59C42EDD2094B1B680593059A49
:1058C000E30094461B1B9B0063449B68E5E7C046CE
:1058D000C1470010481600205D620010B47000102F
:1058E000940A00207470001071610010290048466D
:1058F000019A00F03DFC061E08D1474B1B78002B97
:1059000000D115E500239B68FFDE0600082E00D8B5
:105910000EE5019BB34200D20AE54346AA789B18E4
:10592000D978FF2900D003E5DC70029B002B14D04E
:1059300018009B78934200D0FAE401796A79914289
:1059400000D0F5E4C278012A07D90433013A434470
:1059500018002100D2B2FEF79DFC7F212A0000230F
:105960008C465178052907D161469078014049005D
:1059700041441331C0090C5411785B189BB2521882
:10598000B342EED3244BAD191B78A34200D365E795
:10599000CEE4224B002B00D1CAE400E000BF04009B
:1059A00006AB9D1C0222A11C2800FEF779FC2200F8
:1059B00048462B8808A900F0CFF9002800D046E41B
:1059C000B6E4174B002B00D1B2E400E000BF021E8A
:1059D00000D1ADE44846137808A900F0BDF9ECE722
:1059E0003989FFF71DF8021EF4D1A1E4FFF714F87E
:1059F000041ED5D19CE4FFF70BF81223020008A97E
:105A0000484600F0A9F9D8E7064B002B00D17FE605
:105A100000E000BF7CE6C046481600200000000001
:105A2000000000000000000030B585B005000C004B
:105A30000C22002101A8FEF72DFC6B461D715C7144
:105A4000042C4BD005D8022C30D0032C15D105B036
:105A500030BD052C11D12A4B1A78D207F7D5042175
:105A60001A788A431A70274B1C68A269EFF31081D9
:105A700072B61368002B09D1FBE7224B1C68A269A0
:105A8000EFF3108172B61368002BFCD0BFF35F8F69
:105A9000E161200001A900F019FEA269E369BFF3EA
:105AA0005F8F0021116083F31088D0E70121144B30
:105AB0001A788A431A701A780331A2431A700022A6
:105AC0005A701A788A431A700E4B1C68A269EFF359
:105AD000108172B61368002BD8D1FBE7084B1A78F7
:105AE000D207B4D504211A780A431A70054B1C68F2
:105AF000A269EFF3108172B61368002BC6D1FBE7E1
:105B0000C40D0020000E0020002330B585B001AD8B
:105B10006B8028700633082202A86B70FEF7C0FB6A
:105B20000C4B1C68A269EFF3108372B61168002950
:105B3000FCD0BFF35F8FE3612900200000F0C6FDB9
:105B4000A269E369BFF35F8F0021116083F31088BE
:105B500005B030BD000E0020F0B5C646804600B549
:105B600084B001AC0F0016000021082220001D00A7
:105B7000FEF790FB43462370072363700F4B65715C
:105B80001D682771A660AA69EFF3108372B61168C9
:105B90000029FCD0BFF35F8FEB612100280000F0EB
:105BA00095FDAA69EB69BFF35F8F0021116083F354
:105BB000108804B080BCB846F0BDC046000E00207E
:105BC000F8B54746D64680B59846089B06000C00B7
:105BD000171E9A4621D0002506E0524613702378FE
:105BE0000135E418BD4218DA6378052B17D1E17846
:105BF0008907890F414512D121003000FFF76CF869
:105C000000280CD0A378DA09012AE6D1099A0135D7
:105C100013702378E418BD42E6DB012000E0002089
:105C2000C0BCBA46B046F8BD10B5FFF755F810BD78
:105C300070B57F240C406300144CC909E418641843
:105C400020346379DB07DD0F002B18D163795B0704
:105C500001D5280070BD01210D4E4942306800F089
:105C60003FFF6379DB07DD0F002B0AD163795B0708
:105C700008D40422637901251343637102E00025EF
:105C8000E7E70025306800F00BFFE2E7C40D0020D5
:105C9000FC0D002070B50C0001210F4D4942286811
:105CA00000F01EFF7F2121404B000C49E409C91878
:105CB000091920314B790024DB0708D44B795B07A5
:105CC000DC0F002B03DA04224B7993434B712868D5
:105CD00000F0E6FE200070BDFC0D0020C40D002089
:105CE00070B57F250F4C0D406D0064190600C80982
:105CF0002418203465790020ED0700D570BD0125FA
:105D00006079284360713000FFF78CF80028F5D1E6
:105D1000012263799343637163790332934363711F
:105D2000ECE7C046C40D002070B50A4E05003000F7
:105D300008220C00FEF7B4FA00237F21F3602278DA
:105D4000B36091425B412800D90100220023FFF794
:105D500069F870BD680D0020F8B5CE4647469146FB
:105D60002A4E80B50822070030000D009846FEF745
:105D700097FA4B46B3600023F381EC79A9792402AA
:105D80000C43231C444500D943469AB29046B38144
:105D9000002C13D0002A1FD04B46002B34D0131CEC
:105DA000402A1FD89BB2984633787F2B20D80021F9
:105DB000174A43463800FFF735F809E07F222B7871
:105DC00038009A42644100230022E101FFF72AF8DB
:105DD000C0BCB946B046F8BD33787F2B11D98021BD
:105DE0000022E6E740239BB2984633787F2BDED92A
:105DF000074C424649462000FEF752FA8021220015
:105E0000D7E700210022D4E70020E1E7680D002059
:105E1000840D002010B5142200210248FEF73AFA42
:105E200010BDC046680D0020014B18617047C04688
:105E3000680D002010B5054C010008222000FEF777
:105E40002FFA0023A360E36010BDC046680D002058
:105E5000F8B5374D1C002B780600DA09C9098A42CB
:105E60000CD00027002C01D03800F8BD314B013791
:105E7000002BF9D02900FEF713FFF5E7A8687F2B68
:105E800006D8002838D022002B49FEF709FAA86866
:105E9000EA89EB88121992B20019EA81A86093424C
:105EA00015D03F2C13D9AC89A11A0F1C89B24029F7
:105EB0002ED82B78BFB27F2B2CD80021A24235D010
:105EC0001D4A3B003000FEF7ADFF0700CCE72B6911
:105ED000002B04D029003000984700280ED07F22E4
:105EE00000212B7830009A42494100230022C90149
:105EF000FEF798FF0700B7E70027B5E7002130005D
:105F0000FEF7A6FF80213000FEF7A2FF0127ABE7D6
:105F10004027CEE78021A24208D0074C01003A007A
:105F20002000FEF7BDF980212200CAE70022C8E761
:105F3000680D0020A14C0010840D002010B5040055
:105F4000FFF70CF9002801D1002010BDFFF70EF972
:105F50000028F9D160000419230104481C1B240106
:105F60000419012023791840EFE7C046980A002061
:105F700043001B1810B51801C01A0001024B103065
:105F8000C01800F0BDFA10BD980A0020F0B544001A
:105F900020180401241A24012600C646174F103683
:105FA000F61900B5300092B200F018FB0500300081
:105FB00000F0B2FA3F2803D8280080BCB846F0BDF4
:105FC0003B190020D9789846FFF732FE0028F3D01D
:105FD000300000F0A1FA3F280AD994239B00E21870
:105FE0004346D219D97800204023FFF779FEE3E732
:105FF00043460020D978FFF74DFEDDE7980A0020E0
:10600000F8B5440020180401241A240125001B4E71
:106010002835AD19280000F073FA002801D10020BE
:10602000F8BD37190020B978FFF702FE0028F6D036
:10603000A4239B009C466444A4192800402221000C
:1060400000F0CCFA051E03D0FFF788F8002804D131
:10605000B9780020FFF71EFEE1E7FFF787F8B9786F
:106060000028F6D13B79DB07F3D52B002200002076
:10607000FFF736FE0028D2D02800D1E7980A00208A
:1060800043001B1870B51C01E41A2401094B283485
:10609000E418050092B2200000F05AFB0600200030
:1060A00000F02EFA3F2801D8300070BD2800FFF71D
:1060B000A7FFF9E7980A002043001B1810B5180144
:1060C000C01A0001024B2830C01800F025FA10BD9C
:1060D000980A0020B42270B51A4C82B0002120002A
:1060E0009200FEF7D7F8FF236371174B8025E380FA
:1060F000012300262100200023816D000733237334
:106100002A0040310096073B103000F0BDF9210015
:10611000200041312A00FF3101230096283000F091
:10612000B3F990239B00E5182800FBF78DF8922324
:106130009B006562E5182800FBF786F8E56302B06E
:1061400070BDC046980A002000C2FFFF10B5074C82
:10615000052200212000FEF79DF82000103000F0FD
:1061600077FB2000283000F073FB10BD980A002058
:10617000F0B54B79060083B0022B02D18B79022B4C
:1061800003D00025280003B0F0BDCB79062BF8D84A
:106190002F4FBB78002BF4D18B7809253B700C78FE
:1061A0000C196378242B0BD1082A02D80FE0AA42DD
:1061B0000DD32378E418ED186378ADB2242BF6D014
:1061C000052B20D0042B02D163790A2B2ED0214C31
:1061D000200000F0A1F93F28D4D92600103E00206D
:1061E000F178FFF725FD0028CCD0200000F094F9CD
:1061F0003F2816D990239B00E218F1784023002015
:10620000FFF76EFDBEE721003000FFF70DFD00280F
:10621000B7D0A3787B702378ED18E4186378ADB21B
:10622000D0E7F1780020FFF735FDABE70A4B277880
:10623000019301330093022202233000E119FFF79A
:10624000BFFC00289DD00E35ED19ADB2BFE7C046AA
:10625000980A0020A80A00209A0A002060230A78E1
:1062600070B513400024202B0BD10B4A4B790D79CC
:1062700010781B022B43984203D14B780134202B1A
:1062800001D0200070BD054B002BFAD00020911DDD
:10629000FEF79CFAF5E7C046980A0020CD470010AB
:1062A00060230A7870B513400024202B11D1144AC2
:1062B0004B790E7915781B0233439D4209D14B78F7
:1062C000212B08D81F2B04D907230632FFF744FDE2
:1062D0000124200070BD222BFBD1CD788B782D02BC
:1062E0001D431571FFF720FD064B0124002BF0D054
:1062F00029006A0800202240214000E000BFE8E7B2
:10630000980A002000000000F0B546464F46D646E9
:10631000C0B54D4E9946F37880460D008B4257D15B
:106320004B46002B00D188E0484B002B00D175E094
:1063300094239B00F418A2463700CA44103721006A
:10634000380000F0C3F97379FF2B02D0217899420D
:1063500043D001345445F2D13D4B002B04D03800DA
:1063600000F0CEF800286BD1380000F0D5F83F28B7
:1063700037D8103FBB789D4206D001242000E0BCF6
:10638000BA46B146A846F0BD324B002B02D00020E1
:1063900000E000BF0020FFF733FE0028EDD12E4DB6
:1063A000280000F0ADF80028E7D14B46002BE4D0E0
:1063B0009B06E2D1283D4046A978FFF739FC041E30
:1063C000DBD0002300224046A978FFF789FCD5E7FF
:1063D000B3788B42D8D00024D0E7002000E000BF83
:1063E000B7E73C00103C0020E178FFF721FC0028D3
:1063F00012D0380000F090F83F2809D990239B0074
:10640000FA1800204023E178FFF76AFCA378B2E78E
:106410000020E178FFF73EFCA378ACE794239B00D3
:10642000F418A24610363700CA442100380001345F
:1064300000F04CF95445F8D18EE7103637008BE761
:10644000002000E000BF8FE7980A00200000000055
:106450000000000000000000C00A002070B5064DDA
:106460002C78002C01D0200070BDFEF787FE00289C
:10647000F9D001232B70F6E749160020014B18785C
:106480007047C04649160020F0B5C64600B5140056
:1064900006AA1E001378802205000F0098461202FB
:1064A00094422BD8406900281AD00121494200F0BB
:1064B00017FB4346AC806400A4B22B72631EAB8111
:1064C000002368696442EB812F60EE806C812B822F
:1064D000002811D000F0E4FA012080BCB846F0BDDD
:1064E000AC806400A4B22B72631E6442E881296010
:1064F000EE80AB816C8128820120EEE70020ECE782
:1065000010B5C489018A0200601A80B28C4202D29E
:106510005389C01A80B210BD10B5C489018A83881E
:10652000621A92B28C4202D24089121A92B2981A1E
:1065300080B210BDF8B5040040690E00002803D0F9
:106540000121494200F0CCFAE189228A8FB28D1AEA
:1065500093B2ADB2914202D26289AD1AADB2A288B5
:10656000A189AA4205D2B81A88422BDC80B2150054
:106570002082002D2ED08B4206D961895B189BB2F8
:106580009A4203D89B1A9BB29A42FBD9E2882168AF
:1065900053433000C918FDF783FE01250120012671
:1065A000A189228A93B212188A4210DD62899B184F
:1065B000ED18ADB260692582002801D000F070FAB4
:1065C0003000F8BD60891018381A80B2CFE75D1925
:1065D000ADB2EFE700200026E3E7C046F0B5C646BF
:1065E000040040698846170000B5002803D0012147
:1065F000494200F075FAE089218A82B2461A8BB2CC
:10660000B6B2884202D26189761AB6B2A588A1894B
:10661000B54207D2531B8B422CDC9BB22E00238247
:10662000238A9BB2002E2CD03A1CB74227D896B2B0
:106630008B4202D962899B189BB29D4203D85B1B97
:106640009BB29D42FBD9E2882068110084465943E1
:10665000981937006144A84227DC72434046FDF791
:106660001FFE228AA18993B2D2198A420FDC9B199C
:106670009BB210E06389EB18D31A9BB2CEE7321CB1
:10668000D5E70027228A93B2D2198A42EFDD6289C8
:106690009B18F3189BB260692382002801D000F098
:1066A000FFF9300080BCB846F0BDED1AADB26A43C8
:1066B0004046FDF7F5FDE388721B1800684321682A
:1066C0005A434044FDF7ECFDA189DBE7F8B504002F
:1066D00040690E00002803D00121494200F000FA71
:1066E000E289218A95B2531A9BB2914202D96289FA
:1066F0009B1A9BB2A2889A4226D0A1892B00A9425C
:1067000006D26389EB189BB29A4203D89B1A9BB2BC
:106710009A42FBD9E28821685343C8183100FDF73B
:10672000BFFDA389AB420AD90135ADB2606901272B
:10673000E581002801D000F0B3F93800F8BD638985
:10674000ED180135ADB2F1E7277A002FD5D1F4E786
:10675000F0B54F46D64646460400C0B515000F00BA
:10676000002A57D04069002803D00121494200F097
:10677000B7F9E388E6899A46208A237AA188B6B2D7
:1067800080B2002B3BD1331A9BB2864202D2608981
:106790001B1A9BB2CB1A181C9BB2AB4252D883B2C5
:1067A00098461D00A0893300864205DD6389F318F1
:1067B0009BB201E05B1A9BB28B42FBD2504622682F
:1067C000584394465A1960448A4229DC524639009B
:1067D0006A43FDF765FDA38975199D421DDD638937
:1067E000F6184644B6B26069E681002801D000F090
:1067F00057F94046E0BCBA46B146A846F0BDA846A7
:106800008D42CFD953466D1A5D4388467F19E0818A
:106810000D00C7E700239846EBE74644B6B2E2E72F
:10682000C91A8BB25246994639005A43FDF738FDD2
:106830004B46E188EA1A4A43594320687918FDF724
:106840002FFDC8E7281C83B298461D00AAE7C04662
:1068500010B50400406900280DD00121494200F024
:106860003FF900236069E3812382002801D000F012
:1068700017F9012010BDE0812082FAE703BDC04670
:1068800010B50400FBF7E4FAA04710BD30B5224A6A
:10689000224B87B09A4201D2012252421300204972
:1068A00000245050043152501E4A1F490020995074
:1068B0001E4A00219268009001910392184A01211A
:1068C0009446634404931A4B00250593D023029108
:1068D0001B060230002C14D01A6D1042FCD05C65EF
:1068E00040BF1A6D114203D120BF1A6D1142FBD077
:1068F0009A6DA2420AD000256C46AA00A458E9E786
:106900009A6D1A6D1142FBD140BFE5E70135052DA7
:10691000F2D907B030BDC0460008042000000420B2
:10692000F4070000FC0700008168001000ED00E0A3
:106930007D68001010B5010000230022002000F047
:1069400043F810BD70B5074D074C641BA41005D06B
:10695000013CA300EB589847002CF9D100F09CF8BB
:1069600070BDC046840700208407002010B583074F
:106970000AD00300032102E001330B4205D01A784C
:10698000002AF9D1181A10BD030019680C4A0D4CE1
:106990008A188A4322420FD15968094A04338A1857
:1069A0008A43224208D15968054A04338A188A4327
:1069B0002242F1D000E001331A78002AFBD1E1E74E
:1069C000FFFEFEFE80808080F0B5D6464F464646EC
:1069D000C0B5274F82B006003868914698468A466F
:1069E00000F056F8234B1B680193A423019A5B0027
:1069F000D558002D31D06C6838681F2C32DC002E41
:106A00000ED1631C6B6053460234A400635100F046
:106A100041F8002002B0E0BCBA46B146A846F0BD3D
:106A200088224946A300EB189950C42149008C469E
:106A3000AC446146873AA240674609681143396011
:106A40008421474649005F50022EDAD12B008D3356
:106A5000FF3319680A431A60D3E715004D35FF3537
:106A6000D550C8E700F016F801204042D2E7C046F2
:106A700058070020D0700010034B10B5002B02D037
:106A80000248FFF757FF10BD0000000045690010E5
:106A90007047C0467047C046F8B5C04600000000C9
:106AA00001B40248844601BC604700BFE9010020F0
:106AB00001B40248844601BC604700BF11020020B7
:106AC00001B40248844601BC604700BF11020020A7
:106AD00001B40248844601BC604700BF0D0100209C
:106AE00001B40248844601BC604700BF5101002048
:106AF00001B40248844601BC604700BFC1000020C9
:106B00007472756500000000627574746F6E207099
:106B10007265737365643F2025730A0066616C7348
:106B200065000000100000001100000012000000CD
:106B30004E6F207370696E6C6F636B73206172654A
:106B400020617661696C61626C6500004861726405
:106B50007761726520616C61726D20256420616CC3
:106B6000726561647920636C61696D656400000021
:106B70000A2A2A2A2050414E4943202A2A2A0A005A
:106B80000A000000486172642061737365727400CA
:106B9000666E6900666E692B000000006E616E0013
:106BA000666E692D00000000BE2900106C290010DF
:106BB0006C290010B62900106C2900106C290010F7
:106BC0006C2900106C2900106C2900106C29001031
:106BD0006C290010AE2900106C290010A6290010A5
:106BE0006C2900106C2900109E290010742B0010D5
:106BF000D0290010682B0010D0290010842B001021
:106C0000D0290010D0290010D0290010D029001060
:106C1000D0290010D0290010D0290010C62900105A
:106C2000D0290010D0290010D0290010D029001040
:106C3000D0290010C6290010C82B00102C290010E4
:106C40002C2900102C2900102C2900102C290010B0
:106C50002C2900102C2900102C2900102C290010A0
:106C60002C2900102C2900102C2900102C29001090
:106C70002C2900102C2900102C2900102C29001080
:106C80002C2900102C2900102C2900102C29001070
:106C90002C2900102C2900102C2900102C29001060
:106CA0002C2900102C2900102C2900102C29001050
:106CB0002C2900102C290010DA2D0010962B001022
:106CC000DA2D00102C2900102C2900102C2900107E
:106CD0002C2900102C2900102C2900102C29001020
:106CE0002C2900102C2900102C2900102C29001010
:106CF0002C2900102C2900102C2900102C29001000
:106D00002C290010822A00102C2900102C29001098
:106D10002C2900102C2900102C2900102C290010DF
:106D20002C2900102C2900102C290010822A001078
:106D3000D82B0010822A0010DA2D0010962B00109C
:106D4000DA2D00102C290010822A00102C290010A6
:106D50002C2900102C2900102C2900102C2900109F
:106D6000822A0010F42C00102C2900102C2900106D
:106D7000262C00102C290010822A00102C2900102B
:106D80002C290010822A0010000000000000F03FB3
:106D900000000000000024400000000000005940F6
:106DA0000000000000408F40000000000088C34049
:106DB00000000000006AF8400000000080842E41BE
:106DC00000000000D01263410000000084D797410A
:106DD0000000000065CDCD4152656C6561736500B2
:106DE000626F6F74325F7732357130383000000077
:106DF000312E312E300000007069636F00000000FA
:106E0000747261666669635F6C69676874730000B9
:106E10004D6172203135203230323100060052503F
:106E2000BBFF3CB6F86D001006005250E182887F2F
:106E3000E06D001006005250D3F07542D86D00107E
:106E40000D0A00005541525420737464696E0000AD
:106E500055415254207374646F75740055415254F7
:106E600020737464696E202F207374646F757400CE
:106E70000600525053B4F4A15C6E0010080052504A
:106E800092000000214700102547001031470010F4
:106E900061470010594700105D47001000000000D6
:106EA00055534220737464696E202F207374646F8D
:106EB000757400000600525053B4F4A1A06E001087
:106EC000526173706265727279205069000000002F
:106ED0005069636F000000003030303030303030A7
:106EE0003030303000000000426F61726420434453
:106EF00043000000526573657400000009025400ED
:106F0000030100A07D080B0002020200000904003A
:106F100000010202000405240020010524010001F3
:106F2000042402020524060001070581030800105D
:106F300009040100020A00000007050202400000E7
:106F4000070582024000000904020000FF0001055D
:106F500012010002EF0201408A2E0A000001010224
:106F60000301000000000000C06E0010D06E001091
:106F7000D86E0010E86E0010F46E0010556E686157
:106F80006E646C65642049525120307825780A007F
:106F900049736F6368726F6E6F757320774D617898
:106FA0005061636B657453697A6520256420746F42
:106FB0006F206C6172676500657020256420257301
:106FC0002077617320616C726561647920617661FC
:106FD000696C61626C65000043616E277420636FA9
:106FE0006E74696E75652078666572206F6E2069B3
:106FF0006E61637469766520657020256420257351
:10700000000000005472616E7366657272656420E0
:107010006D6F72652064617461207468616E2065B3
:1070200078706563746564004E5200100E54001051
:10703000AE530010645300104E5300104253001022
:10704000F2520010A052001094520010DC560010B2
:10705000BE56001030530010665700103053001019
:107060004A570010365700103053001020570010B8
:10707000FE56001030530010F6590010EC59001065
:10708000E05900103053001030530010C259001066
:1070900030530010305300103053001030530010A4
:1070A0003053001030530010305300103053001094
:1070B00092590010D56000104D61001071610010F0
:1070C000A16200105D620010096300100000000062
:0470D0003003002069
:1070D400B4020010A80200109C0200101C6E0010E4
:1070E40090020010286E0010346E0010706E0010B4
:0870F4007C6E0010B46E001068
:1070FC0010B502680024EFF3108172B61368002BF0
:10710C00FCD0BFF35F8F03797F2B0BD80368BFF3E1
:10711C005F8F1C6081F3108820BF0268EFF3108131
:10712C0072B6EBE7D0231B061B6803710368BFF331
:10713C005F8F00221A6081F3108810BD0300006875
:10714C00EFF3108C72B60268002AFCD0BFF35F8F8D
:10715C0004229A56002A0BDB00290FD000200A606B
:10716C001B68BFF35F8F00221A608CF31088704786
:10717C00D0221206126801201A71F1E70020EFE705
:10718C00F0B5C64600B50C00804600F06DF8FA224A
:10719C0006000F00200000230021920000F054F89C
:1071AC008019794104000D008F4230D82DD0002673
:1071BC0043461A68EFF3108172B61368002BFCD0AB
:1071CC00BFF35F8F43461B797F2B0ED843461B685A
:1071DC00BFF35F8F1E6081F310882000290000F040
:1071EC003BF80028E4D000200CE0D02342461B06DC
:1071FC001B6813711368BFF35F8F00221A6081F351
:10720C001088012080BCB846F0BD8642CFD901243D
:10721C006442E517CBE7C0460268EFF3108172B603
:10722C001368002BFCD0BFF35F8FFF23037140BFAB
:10723C000368BFF35F8F00221A6081F310887047D8
:10724C007047C0460000000001B40248844601BCEF
:10725C00604700BFC141001001B40248844601BC24
:10726C00604700BF2D0E001001B40248844601BCDB
:10727C00604700BF65100010100000006402002081
:10728C000000000088070020000F00200000000014
:10729C0000000000100F00200000000000000000A3
:1072AC0010000000000000000000010000000000C1
:1072BC0000000000000002000000000000000000C0
:1072CC000000030000000000000000000000FF00B0
:1072DC000000000000B5486801318E46004770463A
:1072EC0009380149884700BD9D1D001000000000B1
:1072FC00503300004C330000543300005233000074
:10730C004D5300004D430000533400004334000043
:10731C005546001000000000A146001000000000BF
:10732C000001000069480010000000000148001036
:10733C0000000000000100006C6E00104C6E00108C
:10734C00040E002010000C000000000000000000E3
:10735C000000000000000000000000000000000021
:10736C00000000001C06002084060020EC06002013
:10737C000000000000000000000000000000000001
:10738C0000000000000000000000000000000000F1
:10739C0000000000000000000000000000000000E1
:1073AC0000000000000000000000000000000000D1
:1073BC0000000000000000000000000000000000C1
:1073CC0000000000000000000000000000000000B1
:1073DC0000000000000000000000000000000000A1
:1073EC000000000000000000000000000000000091
:1073FC000000000000000000000000000000000081
:10740C00000000000000000001000000000000006F
:10741C000E33CDAB34126DE6ECDE05000B00000034
:10742C000000000000000000000000000000000050
:10743C000000000000000000000000000000000040
:10744C000000000000000000000000000000000030
:10745C000000000000000000000000000000000020
:10778C000000000000000000900A00200000000033
:10779C000000000000000000000000008542001006
:1077AC006D340010693B0010F5410010796A00102F
:0477BC00C5020010F2
:04000005100001E9FD
:00000001FF
