:020000041000EA
:1000000000B5324B212058609868022188439860DF
:10001000D860186158612E4B002199600221596106
:100020000121F02299502B49196001219960352056
:1000300000F044F80222904214D00621196600F024
:1000400034F8196E01211966002018661A6600F04E
:100050002CF8196E196E196E052000F02FF8012189
:100060000842F9D1002199601B49196000215960AB
:100070001A491B48016001219960EB211966A021F2
:10008000196600F012F800219960164914480160C1
:100090000121996001BC002800D000471248134993
:1000A000086003C880F30888084703B5996A0420EC
:1000B0000142FBD001200142F8D103BD02B5186610
:1000C0001866FFF7F2FF186E186E02BD00000240BE
:1000D000000000180000070000035F00212200005C
:1000E000F4000018222000A00001001008ED00E03C
:1000F00000000000000000000000000074B24E7A12
:1001000000200420F7010010C3010010C5010010F9
:10011000C1010010C1010010C1010010C101001097
:10012000C1010010C1010010C1010010C701001081
:10013000C1010010C1010010C9010010CB01001065
:10014000CD010010CD010010CD010010CD01001037
:10015000CD010010CD010010CD010010CD01001027
:10016000CD010010CD010010CD010010CD01001017
:10017000CD010010CD010010CD010010CD01001007
:10018000CD010010CD010010CD010010CD010010F7
:10019000CD010010CD010010CD010010CD010010E7
:1001A000CD010010CD010010CD010010CD010010D7
:1001B000CD010010CD010010CD010010CD010010C7
:1001C00000BE00BE00BE00BE00BE00BE00F04BF888
:1001D000103800BEF2EB8871C82A0010E82A00101F
:1001E0003402001090A31AE700202149086006C8D5
:1001F00081F3088810471F48006800282FD10DA4FC
:100200000ECC002902D000F012F8F9E71A491B4A77
:10021000002000E001C19142FCD1194988471949E9
:1002200088471949884700BEFDE701C901C29A42C3
:10023000FBD37047E82A0010C0000020640A0020A9
:100240008C34001000000420000004208C340010C6
:1002500000100420001004200000000070470B482C
:1002600001F0DCFB0047EFF30580C0B270470000EF
:1002700008ED00E0000000D0680A0020380D0020E2
:10028000B111001019030010D112001057560000D0
:1002900006005250ABB360533C2A00100600525087
:1002A000861C03024C2A0010060052505422A29DC4
:1002B0005C2A001005005250DE65F4688C34001092
:1002C000F8B5C046044B10B5002B03D003490448D1
:1002D00000E000BF10BDC04600000000F40C00208C
:1002E000E0290010F0B5C646060000B500280FD082
:1002F0000123D0270C00002598463F06206800F017
:1003000093F8424608CC01359A407A62AE42F5D164
:1003100080BCB846F0BDC046F0B5C64600B584B056
:100320006C462200324B802623CB23C21B68D0258B
:10033000136001F0B5FD21000420FFF7D3FF0E206C
:1003400000F072F8132000F06FF880232D06DB0117
:10035000AB6280235B02984636036E6201224346FD
:100360006B616B689B0B1A42F9D04346FA208024DC
:100370006B61A402400000F081FB6C611D4800F03D
:100380007DFB4346AB618023AC617D24DB026B6166
:100390000A206E6100F072FB013C0A20AE6100F0A1
:1003A0006DFB002CF4D10A270C240A206E6100F0AA
:1003B00065FB013C0A20AE6100F060FB002CF4D12B
:1003C000FA20013F00F05AFB002FEDD18024FA20E3
:1003D000E4026C61400000F051FBAC618024A40297
:1003E00004486C6100F04AFB4346AC616B61B5E7C1
:1003F000E0290010EE020000094A830094464022E2
:10040000634410B51C68C0006240C02414408022C0
:10041000520113431C60034B9C466044416010BD75
:1004200004C00140004001400123D0228340120655
:1004300093629361094A8300944640226344196899
:10044000C0004A40C021114080225201134319606C
:10045000034B9C46052360444360704704C0014041
:1004600000400140F8B5CE464746914680B5EFF3CF
:10047000108C72B6104D2B68002BFCD0BFF35F8F31
:10048000CB08C45CC7180720260001230840C640DB
:100490001A00324033420BD1834023433B70BFF3F9
:1004A0005F8F2A608CF31088C0BCB946B046F8BD97
:1004B000484600F00FFFC0462C0100D00021044B3D
:1004C000044ABFF35F8F02C39342FAD17047C0461C
:1004D000000100D0800100D0044A1078431CDBB238
:1004E000172B00D9102313707047C0467C010020E1
:1004F000024B18688007C00F7047C04600C0064016
:10050000F8B5040006200D0001F072F8002844D070
:100510002A4B2B49E21853425A418023DB039C4665
:100520009205284B62441A60274B1A6010008B68B2
:100530009843FBD1214B8021E3185A425341234A6F
:100540005B0049009952062001F052F82900C000D2
:1005500001F096FAC30921D1402701212600802508
:100560006162A36200232C36AD0135432B60062067
:1005700001F03EF83900800001F082FA6023E26A5F
:1005800053406E221A4080235B0133431A60104BA4
:10059000236310232B600D3BA364F8BD0D4A9342E7
:1005A00003D900230C4F0D49D8E77F2210400130BA
:1005B00040089F0119003F180300CFE70080FCBFEF
:1005C00000C0004000E0004000F00040300D00207E
:1005D00001030000FEFF0000C0FF3F00FFFF00001E
:1005E00083680B4810B584466144624409011201D6
:1005F0009A18591854684B6801209C4201D802D0BF
:100600000020C0B210BD12680B689A42F9D8F7E713
:10061000FFFFFF0F40BF002000217047F8B545469F
:10062000DE4657464E46E0B598460DAB1B780500B2
:100630009B460C9B17000668002B3FD03368394956
:100640000C9A8C46D2B2A96892460C9A62448C46A7
:1006500041461201624451600A99176091600B99FA
:10066000D1600C990C9A8C4652006244033A914630
:1006700000224B449A705A701A70747B002C36D04A
:10068000524673682100B068984763001B193268AE
:10069000033B002821D0494651188C70D018D35CF8
:1006A000002B39D1534603700C9B74739C4220D0AD
:1006B000F0BCBB46B246A946A046F8BDB47B002CB0
:1006C000F6D03368620012199A18033A5278B2735E
:1006D000002A00D1F2730C94B1E75046D3189870F9
:1006E000494648465118125C002A17D10C705346EF
:1006F00073733A004346287D00F0E4FA041E06D0E6
:100700005B46002B03D15146286800F013FD0E9B79
:10071000002BCDD01C70CBE74B70C3E75A700C7028
:10072000E5E7C046FFFFFF0FF0B5DE464E465746F1
:1007300045460023E0B58DB00A936B4B8200D35839
:100740000B90994600239B464B46079300F05AFABC
:10075000079C06000F006268EFF3108572B61368FD
:10076000002BFCD022000794BFF35F8F2468637BCB
:100770009946002B67D092685C4B90464B441B0116
:10078000984443461A685B6810001900801BB94101
:1007900000295FDD0B9800F095FA002300269846AB
:1007A00000279A46079C6368BFF35F8F5A461A601A
:1007B00085F310885346002B08D10028C6D10DB010
:1007C000F0BCBB46B246A946A046F0BD0A9B4146D6
:1007D00018024B461843D047089009916268EFF31E
:1007E000108572B61368002BFCD00794BFF35F8F9F
:1007F0000899099A002A48DB114303D0079B1B691B
:10080000002B5DD1079B1B68D97B002907D04A00CC
:10081000521819688C4649466244033A51704A4658
:10082000DA734B46079A013BD168CA5C0132CA545D
:100830005B46079A13615368BFF35F8F5A461A608D
:1008400085F3108882E700230026984600279A4601
:100850000020A7E7002901D100289BD10121200019
:1008600000F0EAFB43461E685F689B68079A9A4659
:100870004346DB689846D3684B44013B1B780A9398
:100880001B020343136100208CE72369002BB9D0BE
:1008900033003C005B1A94411A002300A74219D888
:1008A0009F421BD059460491012103914946029170
:1008B00041460191514607980091FFF7AFFEB7E717
:1008C00000F0A0F9089A099B06000F0092197B41DD
:1008D0009942E5D901225242D317E3E79642E1D982
:1008E00001225242D317DDE70C0D0020FFFFFF0F5E
:1008F000F8B557464E46DE4645469146E0B50400FB
:100900009A464268EFF3108872B61368002BFCD049
:10091000BFF35F8F2668B57B002D48D06F0033682A
:100920007F19033FD9194B78B373002B00D1F373B0
:10093000A268324B94464A46EB181B0163441A6086
:1009400052465A602E4A9A600022DA608A704A70D3
:100950000A70737B9B46002B3FD02A001900B068B9
:10096000736898475B465B005B443268033B002832
:100970002BD05846D719B870D118D35C002B3BD177
:100980005B460D7073735D4528D00026E3685B19E4
:10099000013B19786368BFF35F8F00221A6088F308
:1009A00010880020002E0AD10802284307E063685F
:1009B000BFF35F8F1D6088F3108801204042F0BCB8
:1009C000BB46B246A946A046F8BDD3189D70D119C2
:1009D000D25D002A0ED15B460B7075734A465346B2
:1009E000207D00F06FF9061ECFD02900206800F0AE
:1009F000A1FBCBE75A70EEE77B70C1E7FFFFFF0F6B
:100A00001506001070B5184C2368002B00D070BD7F
:100A1000032000F0EBF8032000F0B6F9134903209F
:100A200000F00AF9182001F00DF90500FFF754FD58
:100A30000F4B2A009C46604480000E4968601020DD
:100A400000F004FA10212860102001F0FFF80121C5
:100A5000A860102001F0FAF803232B75064BE8601C
:100A6000DD602560D3E7C046DC0C002029070010BC
:100A700040000034E10500100C0D0020F8B5040022
:100A800000F0C0F8FA2206000F0020000023002129
:100A9000920001F075F88019794104000D008F4231
:100AA0001AD817D006267642F71736196F41AF428B
:100AB00037D90026002700F0A5F832003B00121AB3
:100AC0008B41002B16DC002B28D02900200000F0E1
:100AD000A3F8F8BD8642E5D907267642F71700F05D
:100AE00091F832003B00121A8B4101246442E51751
:100AF000002BE8DD0D4B320018683B00FFF7F8FED5
:100B00000028E2DB39000A4A536A994204D8906A05
:100B1000B042DAD29942D8D120BFF5E7002AD4D02A
:100B2000E8E7AF42C7D1A642C3D8C4E7DC0C002037
:100B300000400540F0B5D6464F464646C0B5EFF3F7
:100B400005833F22134018001038EFF3108C72B663
:100B5000204D2A68002AFCD0BFF35F8F01221100CC
:100B600081401D4C884661631C4917000E788A46F7
:100B70003100C1400F400A4209D1BFF35F8F2F609F
:100B80008CF31088E0BCBA46B146A846F0BD1449C3
:100B90008200646A51588C420FD3124BD25843469C
:100BA0009E4353461E70BFF35F8F00232B608CF370
:100BB0001088002AE6D09047E4E70B4A9B00904655
:100BC00043441A681A60BFF35F8F00232B608CF3D5
:100BD0001088D7E7280100D000400540360D0020DE
:100BE000200D0020A40C0020D03F054010B50100CE
:100BF000024A0348FFF736FC10BDC046F02900103A
:100C0000340D0020034B596A0A00986A596A8A42D7
:100C1000FAD1704700400540064A536A9942FCD811
:100C200007D1044B02E05A6A914202D19A6A824289
:100C3000F9D370470040054070B504000D00EFF394
:100C4000108672B61A4A1368002BFCD0BFF35F8F70
:100C5000002D1BD0200000F02DFD164981420AD046
:100C6000200000F02FFD0121200000F011FD0123E4
:100C7000A340114A1360114BA400E550BFF35F8FEE
:100C800000220B4B1A6086F3108870BD0B4BA2003C
:100C9000D5500122A2400A4920000B7893430B70E3
:100CA000044900F039FD0021200000F0F1FCE5E7E7
:100CB000280100D0350B001038600540A40C00203E
:100CC000360D0020F0B5CE46474680B52A4C616A05
:100CD0000D00A66A616AA942FAD18B4207D804D0F6
:100CE0000120C0BCB946B046F0BDB242F8D9EFF31E
:100CF000108972B6214C21680029FCD0BFF35F8FA8
:100D0000012585401C4C1E4F6563E9B28846397841
:100D10008C464146664631433970011D89000A51AF
:100D2000184980004350216A002029420BD0616A93
:100D30000800A66A616A8142FAD18B4202D80AD1C0
:100D4000B24208D90020BFF35F8F00220B4B1A601C
:100D500089F31088C5E7084B42461D625D63634610
:100D6000934301203B70BFF35F8F0022034B1A6057
:100D700089F31088B5E7C04600400540280100D03F
:100D8000360D0020200D0020EFF3108C72B60A49BA
:100D90000B68002BFCD0BFF35F8F01238340074A11
:100DA0000748136202789A430270BFF35F8F0023F3
:100DB0000B608CF310887047280100D0004005407C
:100DC000360D0020024B9C4661448900016070474B
:100DD0004000003410B50400FFF77EFB0100200046
:100DE000FFF7F0FFFF232371BFF35F8F10BDC046F5
:100DF00070B5050014001600002915D00C00002A5B
:100E000012D06B68806898477200630092191B19B2
:100E10002968033A033B002808D08A189470C81840
:100E2000CB5C002B0FD10670200070BDCB189E70DC
:100E300088188A5C002A02D104703400F4E75A70E2
:100E400004703400F0E753700670EDE7F0B5C64665
:100E500005000F0000B510210120160000F0F6FE7D
:100E6000EBB204000373032147602800984600F0AA
:100E7000EDFE002363730133A3734346FF21E37345
:100E8000FE232060A66029402B4206D0421CFD3B79
:100E90000133137003328B42FAD34B0059180023ED
:100EA000401803384370200080BCB846F0BDC046EF
:100EB000F8B5CE46474606000C0080B5002907D09D
:100EC0004D0003686D18033D5A195778002F04D15F
:100ED0002000C0BCB946B046F8BD7900C919033935
:100EE0008846434459788946002159705170736887
:100EF0003A002100806898473368002814D04246A1
:100F00009A18947059195B5D002B00D053700F70C4
:100F1000270049463000FFF7CBFF390002003000C0
:100F2000FFF766FF0400D3E7424641465D19AF7004
:100F30009A185B5C002B00D06B701470E9E7C04618
:100F4000F0B557464546DE464E46E0B50D006B000F
:100F500001685B19DF1E0400C85D83B00192CA19E5
:100F600000284CD043001B18033BCB185E78B446D6
:100F7000002E16D1019E002E3ED1E67B002E04D01D
:100F800073009B19CB18033B5D70E57300282FD1CC
:100F90000023537003B0F0BCBB46B246A946A0463E
:100FA000F0BD72006244033A89184A7890460022E4
:100FB0004A7091465A70010032002000FFF718FF76
:100FC00043468246002B07D05B0021684344033B25
:100FD000CB185A78002A16D1424651462000FFF716
:100FE00007FF2168019BCA19002BC6D00028CFD06B
:100FF00043001B18033BCB1800219970C8E7019BE5
:10100000002BC5D1B9E7500080180338091848787B
:10101000834648464870587041462000FFF7E8FE76
:10102000594680462000FFF743FF4146020020005A
:10103000FFF7DEFE8046CFE7F0B557464546DE4671
:101040004E46E0B583B00191457B04006B0000681B
:101050005B19DF1EC15DC21900294ED04B005B1821
:10106000033BC3185E78B446002E18D1019E002EB3
:1010700040D1E67B002E04D073009B19C318033BBC
:101080005D70E573002931D100232800537061732E
:1010900003B0F0BCBB46B246A946A046F0BD720004
:1010A0006244033A8018427890460022427091468A
:1010B0005A7020003200FFF79BFE43468246002B09
:1010C00007D05B0021684344033BCB185A78002AC1
:1010D00017D1424651462000FFF78AFE019B0100CE
:1010E0002068C219002BC4D00029CDD04B005B185A
:1010F000033BC31800209870C6E7019B002BC3D1A7
:10110000B7E75000801803380918487883464846E6
:101110004870587041462000FFF76AFE59468046E5
:101120002000FFF7C5FE414602002000FFF760FEE9
:101130008046CEE770B5040000292CD0437B8B425B
:101140002ED0056848004018033828188278002AF5
:1011500021D053009B18033BEA5CEE188A4202D16F
:101160001BE0002A08D053009B18033BEB185A7869
:101170008A42F6D142785A7000230022837043706D
:101180002000FFF7DDFE617B02002000FFF730FE4C
:101190006073012000E0002070BD43783370EBE7FE
:1011A00000221900FFF7CCFE60730120F4E7C0466F
:1011B000F8B52B4A2B4B2C491A602C4A2C4B1A6041
:1011C00014008B689C43FBD12A4D2B4EB54208D2AC
:1011D000013E761BB60808CD984723000134B34280
:1011E000F9D100F095F8254A214B1A601E4A936800
:1011F000DB43DB01DC09002BF9D14022204B214DE0
:10120000214F9A675A671A67DA66BD420BD20026E9
:10121000013F7F1BFF082800FFF7DCFD0835330086
:101220000136BB42F7D1194E194DC022A9683000D2
:1012300000F01EFDAE60FFF741F900F0ABFBFFF7D9
:10124000E1FB144D144EB54208D2013E761BB608A0
:1012500008CD9847230001349E42F9D1F8BDC0461D
:10126000BFCDFFFF00E0004000C00040FE7F3C001B
:1012700000F000404C0A00205C0A0020FFFFFF0144
:1012800000F00140440A00204C0A00200000002029
:1012900000ED00E05C0A0020640A0020094A030017
:1012A0001068002805D00849C3188B4207D2136084
:1012B000704706480449C31810608B42F7D30120D9
:1012C0004042F5E7EC0C002000000420380D00201F
:1012D00000BEFDE70FB400B5084883B000F0A4FDE0
:1012E000049B002B07D005A91800019100F076FBA4
:1012F000034800F099FD00BEFDE7C046142A001027
:10130000242A001010B50148FFF7E4FF282A001036
:1013100030B50C2083B000F071F9FFF7E9F8002830
:101320000ED09A4B9A4A1A605A609A60DA601A6133
:101330005A619A61DA611A62964A5A6203B030BD04
:10134000954CA06700F062F90122944B1A60636C1F
:10135000012BFCD10322924B1A608F4A936B012B15
:10136000FCD1C0228F4B92011A608F4B8F491A60BB
:1013700010008B689843031EFAD1022401218C4A85
:101380008C480633009400F055F905238A4A012160
:101390008A48009400F04EF9894B5A68FF2A02D817
:1013A000802252005A608022784C7D4B21691201C4
:1013B000834D1A60002905D0606900F061FB01309F
:1013C0000138FDD1E0217E4B02201A6811408022B5
:1013D00052012A43116019684840032101401160FD
:1013E00004219A681142FCD08022802192012A4374
:1013F00009011160802252005A60724B2361724BC6
:101400005968FF2900D85A600321644A6E4B116065
:1014100002399A681142FCD0E0201A6810408022FC
:1014200052011A431060186848400321014002200D
:10143000116065498A681042FCD0802292011343F2
:10144000802212011A608022604B52004A60636160
:101450005F4B5968FF2900D85A6080225D4BE169D3
:1014600012015B4D1A60002905D0606900F008FB8D
:1014700001300138FDD1E02255490B681A40802324
:101480005B012B431A60802380229B012B431201B6
:101490001A6080223E4B52004A60E3614E4B59680D
:1014A000FF2900D85A6080224C4B216A12014A4D14
:1014B0001A60002905D0606900F0E2FA01300138B5
:1014C000FDD1E02244490B681A4080235B012B4385
:1014D0001A60802380229B012B4312011A60802313
:1014E00080225B004B602A4BD20223623C4B59683E
:1014F000914200D25A6080223A4B616A1201384D03
:101500001A60002905D0606900F0BAFA013001388C
:10151000FDD1E02232490B681A4080235B012B4346
:101520001A60802380229B012B4312011A608023C2
:10153000DB024B60174B63622B4B5A68FF2A02D8C1
:10154000802252005A608022284BA1691201264D48
:101550001A60002905D0606900F092FA0130013864
:10156000FDD1E02220490B681A4080235B012B4308
:101570001A60802380229B012B4312011A60802372
:101580005B004B60114BA361D8E6C046B40C002051
:10159000006CDC021BB70000008000403CB0004043
:1015A00030B0004000E0004000F0004000C00040CB
:1015B000002F68590080024000389C1C00C0024087
:1015C00030800040001BB7003C800040405973074A
:1015D0005480004054B000406080004060B0004043
:1015E0006C8000406CB000404880004048B0004033
:1015F000014B8000C0587047B40C00208023024A81
:101600009B000343D362704700800540AA23064A2B
:101610001B0113602F230549D360054B19605368E4
:10162000002BFCDA7047C0460040024000B0FA00D0
:1016300000600240F0B5C64600B51E0006AB1F783C
:1016400001235B42436000230400836001600C209F
:10165000904600F015FA4101091A8D01691AC90076
:1016600009188901404600F00BFAC021231D8901A9
:1016700019432123A0600B602268002AFCDA0823AA
:101680003F0336043E43E6600B6080BCB846F0BDC5
:1016900001238340002904D0034A1360034A1360E6
:1016A0007047034A1360FBE780E200E000E100E0DE
:1016B00080E100E0024B10309B688000C05870470A
:1016C00000ED00E070B50D00EFF3108672B60F4A22
:1016D0001368002BFCD0BFF35F8F0D4B10309B685D
:1016E00084001B590B4A934203D09D4201D0FFF75F
:1016F00009FE074B9B681D51BFF35F8FBFF35F8FE0
:101700000022024B1A6086F3108870BD240100D0BD
:1017100000ED00E0CD010010F0B5DE4657464E4624
:101720004546E0B50C0083B0EFF3108A72B65E4A0E
:101730001368002BFCD0BFF35F8F102291468144C9
:101740004A465A4B96009B689D59594B98469D4274
:1017500005D0A54216D0574FEB1B2F2B14D9534B56
:101760009B689D51BFF35F8FBFF35F8F00224E4B8D
:101770001A608AF3108803B0F0BCBB46B246A94693
:10178000A046F0BD1D00EAE7012383409B465A4670
:10179000494B1B681A4000925A46484B1A60BFF3E7
:1017A0005F8FFEF760FD0190002803D0814501D0D6
:1017B000FFF7A8FD01232900062099438B680856EE
:1017C000A34268D00A0009E043001B189B00FB18E5
:1017D0009868A04211D006201A0018560028F3DAA3
:1017E000009B002B05D05A46354B1A60324B1A60CD
:1017F000B5E75A46314B1A60B1E706201856002863
:1018000021DB4200111889007C188846A168996084
:10181000E179D97106216156997100292BDBA488E1
:10182000F91A6405241544440919E0240905490DF1
:101830002402214399801218224B9200BF181A7873
:101840001870BA71CCE70198002817D1FF30907159
:101850001D4890801B4AC91B1078891098718B0015
:101860005B1818011B1818021B1818041B185B00C2
:101870005B181370B4E7BD210902DBE7134A144972
:10188000D21A083A5002400D01439980114952087A
:101890000A43DA80A4E70B000028B2DA019A002A92
:1018A000ECD14546D6E7C046240100D000ED00E06B
:1018B000CD0100108001002000E100E080E100E0A7
:1018C00080E200E0350D002000BDFFFFBA010020DE
:1018D00000F0FFFF00F8FFFF70B50125040005438D
:1018E000FEF7C1FCEFF3108C72B6244A1368002B8C
:1018F000FCD0BFF35F8F224E8000A11B89108A00AD
:1019000052181301D2181302D2181304D3181D4A07
:101910005B005B1891680958A9421CD00622B25698
:101920009A421CD01222B256934222D01E22B256A4
:10193000934220D02A22B25603219A4210D0124A52
:1019400011781370A171BFF35F8F00220B4B1A60E7
:101950008CF3108870BD92680C491150EFE700219C
:101960004A005218FF219200B218917108499180E3
:10197000E5E70121F4E70221F2E7C046240100D0A7
:101980008001002000ED00E0350D0020CD010010A9
:1019900000BDFFFFF0B500220324FF2780262000B2
:1019A0003D00094B11009C461040C0008540A143FA
:1019B00061440B680132AB43350085402B430B601B
:1019C000202AECD1F0BDC04600E400E010B50028AC
:1019D00000D110BD00F01AFAFBE7C04610B5094A65
:1019E0000300146884B0002C08D00122009106483E
:1019F000524203A9A047012004B010BD00F014FA20
:101A00000020F9E7F00C0020CD1900100148042156
:101A1000014B1847D00100203D1A0010142310B5C7
:101A20000100188804331B88984710BD162310B591
:101A30000100188802331B88984710BDF8B5474647
:101A4000CE4680B50F1E19D01423994604330400E6
:101A50000025012698464B461888434621681B8876
:101A6000984701C4431E9841013540420640AF42A9
:101A7000F1D13000C0BCB946B046F8BD0126F8E748
:101A8000134A936F9B0813D210665166002905D044
:101A9000FFE7FFE7FFE7516F106F704704B50028BD
:101AA00001D00020C04300F083FF002104BDC046E8
:101AB000936F5B08FDD3F0B5946ED56E576F166FBC
:101AC000FFF7E2FF9466D56657671667F0BD000022
:101AD000000000D0132370B51D78012D10D00BDD50
:101AE0001948FFF7A3FF194C01008022200000F0E5
:101AF000BFF8022D01D070BD144C154BA364FAE75A
:101B0000134B124C23606360A360E3602361636145
:101B1000A361E36123626362A362E362236363639D
:101B2000A363E36323646364A364E364236563657D
:101B3000A365E36523666366A366E366236763675D
:101B4000A367E367A364D6E753440000680A002054
:101B5000551B001007B5604601880A0A0230DF2ACB
:101B6000FAD1C9B2820804D3028840880004104325
:101B700000E00068014A5050039007BD680A002049
:101B800051434343C9188C46110C83B24B4310B4E4
:101B9000040C614392B280B2504362431C041B0C9C
:101BA000001910BC59411304120CC0185141614472
:101BB00070470000132310B512481C78FFF736FF5A
:101BC0000100012C0AD003DD80220F4800F050F8FC
:101BD0000E48FFF723FF0E4B186010BD0A4C54222D
:101BE000200000F045F80B4B6365A365E3652366B1
:101BF0006366A366E36623676367A367E36723629D
:101C0000E361E5E753460000680B00204C33000019
:101C10001C0D0020191C001007B5604601880A0A37
:101C20000230DF2AFAD1C9B2820804D30288408880
:101C30000004104300E00068014A5050039007BDC3
:101C4000680B002010B500F0DFF910BD10B500F0F2
:101C50008DF910BD01480421014B1847E001002017
:101C60003D1A0010014B1B6818470000E0010020DE
:101C7000014B5B6818470000E0010020F0B5D64634
:101C800046464F468246C0B515000E00002A39DD93
:101C90004B1E98461E4B0020002499460CE04346FC
:101CA0001B5D671C0D3B5A425341325DDBB20A2A71
:101CB0000AD0BD4219D03C00002CF0D15346325D11
:101CC0001B7C671C0A2AF4D1002BF2D153461B68F7
:101CD000A04204DA211A3018984753461B68484638
:101CE000022198473800BD42E5D1A84204DA5346A4
:101CF000291A1B6830189847335D0D3B5A425341EF
:101D000052461374E0BCBA46B146A846F0BDC04680
:101D1000802A0010F0B557464546DE464E46D02391
:101D2000E0B51B061C68354B83B007000D0018009A
:101D300001A990469A4600F043FE8146002807D14B
:101D4000019B9C4204D0504600F042FE012399467C
:101D50006B1C03D1380000F04FFC0500284B1C68B9
:101D6000002C2FD00A23274E9B4602E0E468002C6B
:101D700028D02268002AF9D03368002B01D0A34272
:101D8000F4D1637C002B27D02A0039002000FFF714
:101D900075FF4346002BE9D06B465A461A71637CA7
:101DA000002B1DD0237C2268002B22D0012101A80A
:101DB00090476B461B790D3B5A4253412374E468AC
:101DC000002CD6D14B46002B0FD103B0F0BCBB4644
:101DD000B246A946A046F0BD290038009047D8E792
:101DE0000121236801A89847C0E7504600F0D8FDBC
:101DF000EBE7022104489047DBE7C046440A002095
:101E0000E00C0020E80C0020802A001010B582B001
:101E10006B4604000022D81D01210470FFF77AFFF1
:101E2000200002B010BDC04670B5040000F0E4FB15
:101E30000122010005002000FFF76CFF084B1C6821
:101E4000002C06D06368002B05D09847E468002C6E
:101E5000F8D1280070BDE468002CF3D1F9E7C04642
:101E6000E00C00200D4A1368002B13D0834202D1EE
:101E700009E0984208D01A00DB68002BF9D100294C
:101E800000D0D06070471A000029FBD1DB68D36016
:101E9000C160F7E70029F5D01060F3E7E00C0020FF
:101EA00010B500F03BF810BDF0B5002910D0451872
:101EB0000D272021094B0A4A00269E5F0478A6427E
:101EC00007D093691942FCD101301460A842F5D1C2
:101ED000F0BD93691942FCD11760F2E7300D002084
:101EE0000040034030B504000D000020002910DD43
:101EF0001021094A013C9369194208D101309369C4
:101F00001942FCD1136823548542F4D130BD002816
:101F1000FCD103204042F9E700400340E12110B525
:101F20000A4B49021B780A4B0A481B78FEF7E8FA6D
:101F300002210020FEF760FA02210120FEF75CFA80
:101F400001210548FFF78EFF10BDC046E02A0010B2
:101F5000E42A001000400340F001002010B5010009
:101F600000230022002000F075FB10BD030010B517
:101F70000A0003490868190000F004F810BDC046C3
:101F80000402002010B5514300F048F8041E0ED0A2
:101F90000300083B5A6803239A43043A242A15D8BD
:101FA0000300132A05D800221A605A609A602000A4
:101FB00010BD00210833016041601B2AF3D9816004
:101FC000C160242A06D003001033ECE70021FFF79C
:101FD00049FEECE70300016118334161E3E7C046C5
:101FE00070B5074D074C641BA41005D0013CA3003D
:101FF000EB589847002CF9D100F0D0FC70BDC046DA
:10200000640A0020640A002010B5034B0100186820
:1020100000F004F810BDC04604020020F0B54E46A2
:102020004546DE465746E0B50D000B35060083B049
:10203000162D22D8102900D9A8E000F0BBFA1025EF
:1020400018230220CD4FFB181A005C68083A94420E
:1020500000D1ABE0032362689A431300E268A168F1
:10206000CA6091600122E318596830000A435A603F
:1020700000F0A8FA200008308BE007239D4300D52C
:1020800084E0A94200D981E000F094FAFC235B00CF
:102090009D4200D2A9E1680A00D181E0042800D95C
:1020A0005FE138239846A80980443930C100B34F16
:1020B00079184C680839A1420ED003239C4604E0ED
:1020C000002ACBDAE468A14206D0624663689343F3
:1020D0005A1B0F2AF4DD40463A003C69083294420C
:1020E0006ED003236168994389460B00491B0F2971
:1020F00000DD7EE17A613A610029B3DA8022920044
:10210000914500D305E15909DA0801238B40D2003B
:102110007968D2190B4391687B60E260A16094609A
:10212000CC600121821091408C4699424FD80B42DD
:1021300007D1032290436246520094460430134272
:10214000F9D003239946C3009A46BA44D04600907A
:102150004346DB680BE049465A681C008A43DB684B
:10216000511B0F2900DD19E1002900DB2FE1984503
:10217000F1D108239B46073BD8449B46009B5B4418
:102180001A0000934B461342E2D16CE10C2300206D
:10219000336003B0F0BCBB46B246A946A046F0BDD2
:1021A00080213F2340209846890080E7DC68023088
:1021B000A34200D04EE73A003C690832944290D1E5
:1021C0000121821091407B688C469942AFD903234C
:1021D000BC6862689A439146954203D8531B0F2B03
:1021E00000DD88E023004B44654A0193654B93462C
:1021F0001B681268EB18013200D150E1624A944624
:1022000063441B0B1B0300933000009900F0E2F9BC
:1022100003008046013300D106E1019B834200D9CF
:1022200000E15A4B19009A460968009B8C465146BA
:1022300063440B6001991A00814200D165E15B465D
:102240001B68013300D16AE1434601995B1A9A1871
:1022500053461A600723424641461A4001921942EA
:1022600000D126E108239846881A494B00998044FA
:1022700041449B1A5B1A1B051B0D0091300019008D
:102280009B4600F0A7F9431C00D164E14346C01A05
:1022900003005B440093534652461B6801215B4494
:1022A000136042464046BA60009A0A434260BC420C
:1022B00000D138E14A460F2A00D836E107200C3A0F
:1022C000824360680140052011436160A1184860A5
:1022D00088600F2A00D949E14246444652682D4998
:1022E0000868984200D20B602B490868984200D3D6
:1022F0009CE00B609AE00122290013431143651909
:1023000061603000BD606B6000F05CF92000083057
:102310003FE75A0A042A00D87EE0142A00D9D8E000
:1023200011005C325B31D20008235B429C46BA1834
:10233000944463469A6803239846944500D1B1E0DB
:10234000434651689943494502D992689445F7D16B
:10235000D3689C467B686146A260E1608C60D46073
:10236000DFE614286FD9542800D9BAE06E239846C6
:10237000280B80446F30C10099E6C046300600202B
:10238000380A0020A00C00200F100000700C002064
:1023900008100000980C00209C0C0020601980465A
:1023A000012005436560A5680837EB609D604346E2
:1023B000FB60BB60DF609F60030040460B434360EF
:1023C0003000A15000F0FEF820000830E1E60121C5
:1023D000A218506801435160A2683000D3609A602F
:1023E00000F0F0F820000830D3E62B00E8080833AE
:1023F00028E6012360191D43656078613861C26079
:1024000082601A004B460A4342603000E15000F0FF
:10241000D9F820000830BCE69A0911003932383169
:10242000D20081E7BC4267D0BC68626803239A434C
:10243000531B954202D80F2B00DD5CE7300000F003
:10244000C1F80020A5E65B23984680445C30C100BB
:102450002DE608235B429846C24453469B680138E8
:10246000534500D09FE04B460342F2D162467B6861
:1024700093437B606246520094469A4200D9A6E696
:10248000002A08D1A3E604229046009A4244009212
:102490006246520094461342F5D0009853E610333A
:1024A0000093B1E68910023B8B4079680B437B6057
:1024B00051E7009B300043445B421B051B0D190094
:1024C0009B4600F087F8431C00D0DFE600239B46C4
:1024D000E1E6542A2BD81A0B11006F326E31D2006C
:1024E00022E7AA235B0098422BD8DD3B9846E80BF5
:1024F00080447830C100DAE52C4B009A9A461B687C
:102500009C46534662441A6099E6090500D096E657
:10251000009ABC684A4401310A436260DFE65B46C8
:1025200042461A6096E64446D9E6416086E7AA210B
:1025300049008A4224D8DA0B110078327731D20070
:10254000F2E61B4B984224D87C239846A80C804482
:102550007D30C100ABE5009A019B94464246083BA2
:1025600063449B1A009300239B4694E621003000AD
:10257000083100F021F95346BC681B686268AEE67A
:102580000B498A420BD89A0C11007D327C31D20063
:10259000CAE6FE217E237F209846890087E5FE2239
:1025A0007E219200C0E67B6864E7C046700C002084
:1025B0005405000010B5024800F0ECF910BDC0460B
:1025C0006C0C002010B5024800F0E6F910BDC046C2
:1025D0006C0C0020002370B5064D040008002B6031
:1025E000FEF75CFE431C00D070BD2B68002BFBD0B7
:1025F0002360F9E7E40C002010B583070AD003003C
:10260000032102E001330B4205D01A78002AF9D1E8
:10261000181A10BD030019680C4A0D4C8A188A4319
:1026200022420FD15968094A04338A188A43224248
:1026300008D15968054A04338A188A432242F1D0E6
:1026400000E001331A78002AFBD1E1E7FFFEFEFE2D
:1026500080808080F0B5D6464F464646C0B5274FAD
:1026600082B006003868914698468A4600F092F992
:10267000234B1B680193A423019A5B00D558002DBE
:1026800031D06C6838681F2C32DC002E0ED1631CF0
:102690006B6053460234A400635100F07DF90020C2
:1026A00002B0E0BCBA46B146A846F0BD8822494611
:1026B000A300EB189950C42149008C46AC446146F4
:1026C000873AA2406746096811433960842147462A
:1026D00049005F50022EDAD12B008D33FF33196889
:1026E0000A431A60D3E715004D35FF35D550C8E7CA
:1026F00000F052F901204042D2E7C046400A0020D3
:10270000C42A0010034B10B5002B02D00248FFF77B
:1027100025FC10BD00000000E11F0010F8B50C0002
:102720000500FFF747FF204FBB685E6803239E4309
:102730001E4B341B9C466444240B013C1133240380
:102740009C4207DB00212800FFF744FFBB689B1970
:10275000984204D02800FFF735FF0020F8BD28007C
:102760006142FFF737FF431C0DD00122BB68361BC7
:1027700016435E600E4B28001A68141B1C60FFF79E
:1027800021FF0120EAE700212800FFF723FFBA68B4
:10279000831A0F2BDEDD07490968401A04490860D7
:1027A00001210B435360D5E730060020EF0F0000F6
:1027B000700C0020380A0020F0B5D6464F46464639
:1027C00005000C00C0B500295CD0FFF7F3FE210026
:1027D00008394F6801243A000323A2438818466849
:1027E0009E43B146664EB368834200D176E04B46C5
:1027F0004360C3189C463C4229D10F68C91B8B68B3
:10280000D219984663465F6808239C462740B44423
:10281000BA46E04556D0CB689C4643466746DF60E3
:10282000634647469F605346002B13D101234A4419
:102830008F18BC468468534F1343BC4200D17CE0E0
:10284000C068E06084604B6063461A6005E05F68C2
:102850002742EBD014434C60026080239B009A42D5
:1028600015D25009D308012282407068DB00024370
:1028700072609E19B368CE608B60B160D960280029
:10288000FFF7A0FEE0BCBA46B146A846F0BD540A28
:10289000042C3CD89409200039343830E400341931
:1028A0002368083C03279C4240D05868B8439042B4
:1028B00002D99B689C42F8D1DC68CC608B60A16037
:1028C000D960DCE7002F57D11300C2684B44806801
:1028D0001C43C26090604C60CB50D0E713004B4467
:1028E0003C4206D10A68891A88689B18CA68C26087
:1028F000906001221A434A60234AB16012689A42EA
:10290000BDD8224B28001968FFF708FFB7E7142C41
:1029100007D9542C19D8140B20006F346E30E40002
:10292000BDE720005C345B30E400B8E70122801092
:102930008240706802437260BFE7E160A1604B6053
:102940006346CC608C601A6099E7AA2040008442FC
:1029500005D8D40B200078347730E4009FE70C488A
:10296000844205D8940C20007D347C30E40096E746
:10297000FE247E20A40092E714434C6002607EE7B0
:1029800030060020380600203C0A0020A00C002061
:10299000540500007047C0467047C046F8B5C046B1
:1029A00001B40248844601BC604700BF51010020C9
:1029B00001B40248844601BC604700BF7901002091
:1029C00001B40248844601BC604700BF0D010020ED
:1029D00001B40248844601BC604700BFC10000202A
:1029E000190000001000000011000000120000009B
:1029F000486172647761726520616C61726D202537
:102A00006420616C726561647920636C61696D65D5
:102A1000640000000A2A2A2A2050414E4943202AF5
:102A20002A2A0A000A000000486172642061737358
:102A30006572740052656C6561736500312E302ECD
:102A4000310000007069636F0000000074726166FD
:102A50006669635F6C69676874730000466562202D
:102A6000313320323032310006005250BBFF3CB6C9
:102A7000442A001006005250D3F07542342A001048
:102A80000D0A00005541525420737464696E0000B1
:102A900055415254207374646F75740055415254FB
:102AA00020737464696E202F207374646F757400D2
:102AB0000600525053B4F4A19C2A00100800525052
:082AC000920000000802002052
:102AC800B4020010A80200109C020010682A00102E
:102AD80090020010742A0010B02A0010BC2A0010BE
:102AE80010B502680024EFF3108172B61368002B4A
:102AF800FCD0BFF35F8F03797F2B0BD80368BFF33C
:102B08005F8F1C6081F3108820BF0268EFF310818B
:102B180072B6EBE7D0231B061B6803710368BFF38B
:102B28005F8F00221A6081F3108810BD03000068CF
:102B3800EFF3108C72B60268002AFCD0BFF35F8FE7
:102B480004229A56002A0BDB00290FD000200A60C5
:102B58001B68BFF35F8F00221A608CF310887047E0
:102B6800D0221206126801201A71F1E70020EFE75F
:102B78000268EFF3108172B61368002BFCD0BFF324
:102B88005F8FFF23037140BF0368BFF35F8F00228D
:102B98001A6081F3108870477047C0461000000023
:102BA800000000000000010000000000000000001C
:102BB8000000020000000000000000000000030008
:102BC80000000000000000000000FF0000000000FE
:102BD80000B5486801318E460047704609380149FA
:102BE800884700BDD9180010000000000000000050
:102BF800503300004C3300005433000052330000BF
:102C08004D5300004D43000053340000433400008E
:102C1800A91E001000000000E51E001000000000C2
:102C2800000100000802002000000000F404002059
:102C38005C050020C4050020000000000000000022
:102C4800000000000000000000000000000000007C
:102C5800000000000000000000000000000000006C
:102C6800000000000000000000000000000000005C
:102C7800000000000000000000000000000000004C
:102C8800000000000000000000000000000000003C
:102C9800000000000000000000000000000000002C
:102CA800000000000000000000000000000000001C
:102CB800000000000000000000000000000000000C
:102CC80000000000000000000000000000000000FC
:102CD80001000000000000000E33CDAB34126DE699
:102CE800ECDE05000B000000000000000000000002
:102CF80000000000000000000000000000000000CC
:102D080000000000000000000000000000000000BB
:102D180000000000000000000000000000000000AB
:102D2800000000000000000000000000000000009B
:1030580000000000000000003006002030060020BC
:1030680038060020380600204006002040060020D0
:103078004806002048060020500600205006002080
:103088005806002058060020600600206006002030
:1030980068060020680600207006002070060020E0
:1030A8007806002078060020800600208006002090
:1030B8008806002088060020900600209006002040
:1030C8009806002098060020A0060020A0060020F0
:1030D800A8060020A8060020B0060020B0060020A0
:1030E800B8060020B8060020C0060020C006002050
:1030F800C8060020C8060020D0060020D006002000
:10310800D8060020D8060020E0060020E0060020AF
:10311800E8060020E8060020F0060020F00600205F
:10312800F8060020F806002000070020000700200D
:1031380008070020080700201007002010070020BB
:10314800180700201807002020070020200700206B
:10315800280700202807002030070020300700201B
:1031680038070020380700204007002040070020CB
:10317800480700204807002050070020500700207B
:10318800580700205807002060070020600700202B
:1031980068070020680700207007002070070020DB
:1031A800780700207807002080070020800700208B
:1031B800880700208807002090070020900700203B
:1031C8009807002098070020A0070020A0070020EB
:1031D800A8070020A8070020B0070020B00700209B
:1031E800B8070020B8070020C0070020C00700204B
:1031F800C8070020C8070020D0070020D0070020FB
:10320800D8070020D8070020E0070020E0070020AA
:10321800E8070020E8070020F0070020F00700205A
:10322800F8070020F8070020000800200008002008
:1032380008080020080800201008002010080020B6
:103248001808002018080020200800202008002066
:103258002808002028080020300800203008002016
:1032680038080020380800204008002040080020C6
:103278004808002048080020500800205008002076
:103288005808002058080020600800206008002026
:1032980068080020680800207008002070080020D6
:1032A8007808002078080020800800208008002086
:1032B8008808002088080020900800209008002036
:1032C8009808002098080020A0080020A0080020E6
:1032D800A8080020A8080020B0080020B008002096
:1032E800B8080020B8080020C0080020C008002046
:1032F800C8080020C8080020D0080020D0080020F6
:10330800D8080020D8080020E0080020E0080020A5
:10331800E8080020E8080020F0080020F008002055
:10332800F8080020F8080020000900200009002003
:1033380008090020080900201009002010090020B1
:103348001809002018090020200900202009002061
:103358002809002028090020300900203009002011
:1033680038090020380900204009002040090020C1
:103378004809002048090020500900205009002071
:103388005809002058090020600900206009002021
:1033980068090020680900207009002070090020D1
:1033A8007809002078090020800900208009002081
:1033B8008809002088090020900900209009002031
:1033C8009809002098090020A0090020A0090020E1
:1033D800A8090020A8090020B0090020B009002091
:1033E800B8090020B8090020C0090020C009002041
:1033F800C8090020C8090020D0090020D0090020F1
:10340800D8090020D8090020E0090020E0090020A0
:10341800E8090020E8090020F0090020F009002050
:10342800F8090020F8090020000A0020000A0020FE
:10343800080A0020080A0020100A0020100A0020AC
:10344800180A0020180A0020200A0020200A00205C
:10345800280A0020280A0020FFFFFFFF00000200C2
:10346800680C00200000000000000000551C00103F
:103478000D1A0010D51A0010B51B001005270010F2
:04348800C502001069
:04000005100001E9FD
:00000001FF
