
switch.elf:     file format elf32-littlearm

Sections:
Idx Name          Size      VMA       LMA       File off  Algn
  0 .boot2        00000100  10000000  10000000  00010000  2**0
                  CONTENTS, ALLOC, LOAD, READONLY, CODE
  1 .text         00004b38  10000100  10000100  00010100  2**3
                  CONTENTS, ALLOC, LOAD, READONLY, CODE
  2 .rodata       00000308  10004c38  10004c38  00014c38  2**2
                  CONTENTS, ALLOC, LOAD, READONLY, DATA
  3 .binary_info  00000024  10004f40  10004f40  00014f40  2**2
                  CONTENTS, ALLOC, LOAD, DATA
  4 .ram_vector_table 000000c0  20000000  20000000  00020b74  2**2
                  CONTENTS
  5 .data         00000ab4  200000c0  10004f64  000200c0  2**4
                  CONTENTS, ALLOC, LOAD, READONLY, CODE
  6 .uninitialized_data 00000000  20000b74  20000b74  00020c34  2**0
                  CONTENTS
  7 .scratch_x    00000000  20040000  20040000  00020c34  2**0
                  CONTENTS
  8 .scratch_y    00000000  20041000  20041000  00020c34  2**0
                  CONTENTS
  9 .bss          00000dc4  20000b78  20000b78  00020b78  2**3
                  ALLOC
 10 .heap         00000800  2000193c  2000193c  00020c34  2**2
                  CONTENTS, READONLY
 11 .stack_dummy  00000800  20041000  20041000  00021440  2**5
                  CONTENTS, READONLY
 12 .ARM.attributes 00000028  00000000  00000000  00021c40  2**0
                  CONTENTS, READONLY
 13 .comment      0000001e  00000000  00000000  00021c68  2**0
                  CONTENTS, READONLY
 14 .debug_frame  0000039c  00000000  00000000  00021c88  2**2
                  CONTENTS, READONLY, DEBUGGING, OCTETS

switch.elf:     file format elf32-littlearm


Disassembly of section .boot2:

10000000 <__boot2_start__>:
10000000:	4b32b500 	.word	0x4b32b500
10000004:	60582021 	.word	0x60582021
10000008:	21026898 	.word	0x21026898
1000000c:	60984388 	.word	0x60984388
10000010:	611860d8 	.word	0x611860d8
10000014:	4b2e6158 	.word	0x4b2e6158
10000018:	60992100 	.word	0x60992100
1000001c:	61592102 	.word	0x61592102
10000020:	22f02101 	.word	0x22f02101
10000024:	492b5099 	.word	0x492b5099
10000028:	21016019 	.word	0x21016019
1000002c:	20356099 	.word	0x20356099
10000030:	f844f000 	.word	0xf844f000
10000034:	42902202 	.word	0x42902202
10000038:	2106d014 	.word	0x2106d014
1000003c:	f0006619 	.word	0xf0006619
10000040:	6e19f834 	.word	0x6e19f834
10000044:	66192101 	.word	0x66192101
10000048:	66182000 	.word	0x66182000
1000004c:	f000661a 	.word	0xf000661a
10000050:	6e19f82c 	.word	0x6e19f82c
10000054:	6e196e19 	.word	0x6e196e19
10000058:	f0002005 	.word	0xf0002005
1000005c:	2101f82f 	.word	0x2101f82f
10000060:	d1f94208 	.word	0xd1f94208
10000064:	60992100 	.word	0x60992100
10000068:	6019491b 	.word	0x6019491b
1000006c:	60592100 	.word	0x60592100
10000070:	481b491a 	.word	0x481b491a
10000074:	21016001 	.word	0x21016001
10000078:	21eb6099 	.word	0x21eb6099
1000007c:	21a06619 	.word	0x21a06619
10000080:	f0006619 	.word	0xf0006619
10000084:	2100f812 	.word	0x2100f812
10000088:	49166099 	.word	0x49166099
1000008c:	60014814 	.word	0x60014814
10000090:	60992101 	.word	0x60992101
10000094:	2800bc01 	.word	0x2800bc01
10000098:	4700d000 	.word	0x4700d000
1000009c:	49134812 	.word	0x49134812
100000a0:	c8036008 	.word	0xc8036008
100000a4:	8808f380 	.word	0x8808f380
100000a8:	b5034708 	.word	0xb5034708
100000ac:	20046a99 	.word	0x20046a99
100000b0:	d0fb4201 	.word	0xd0fb4201
100000b4:	42012001 	.word	0x42012001
100000b8:	bd03d1f8 	.word	0xbd03d1f8
100000bc:	6618b502 	.word	0x6618b502
100000c0:	f7ff6618 	.word	0xf7ff6618
100000c4:	6e18fff2 	.word	0x6e18fff2
100000c8:	bd026e18 	.word	0xbd026e18
100000cc:	40020000 	.word	0x40020000
100000d0:	18000000 	.word	0x18000000
100000d4:	00070000 	.word	0x00070000
100000d8:	005f0300 	.word	0x005f0300
100000dc:	00002221 	.word	0x00002221
100000e0:	180000f4 	.word	0x180000f4
100000e4:	a0002022 	.word	0xa0002022
100000e8:	10000100 	.word	0x10000100
100000ec:	e000ed08 	.word	0xe000ed08
	...
100000fc:	7a4eb274 	.word	0x7a4eb274

Disassembly of section .text:

10000100 <__logical_binary_start>:
10000100:	20042000 	.word	0x20042000
10000104:	100001f7 	.word	0x100001f7
10000108:	100001c3 	.word	0x100001c3
1000010c:	100001c5 	.word	0x100001c5
10000110:	100001c1 	.word	0x100001c1
10000114:	100001c1 	.word	0x100001c1
10000118:	100001c1 	.word	0x100001c1
1000011c:	100001c1 	.word	0x100001c1
10000120:	100001c1 	.word	0x100001c1
10000124:	100001c1 	.word	0x100001c1
10000128:	100001c1 	.word	0x100001c1
1000012c:	100001c7 	.word	0x100001c7
10000130:	100001c1 	.word	0x100001c1
10000134:	100001c1 	.word	0x100001c1
10000138:	100001c9 	.word	0x100001c9
1000013c:	100001cb 	.word	0x100001cb
10000140:	100001cd 	.word	0x100001cd
10000144:	100001cd 	.word	0x100001cd
10000148:	100001cd 	.word	0x100001cd
1000014c:	100001cd 	.word	0x100001cd
10000150:	100001cd 	.word	0x100001cd
10000154:	100001cd 	.word	0x100001cd
10000158:	100001cd 	.word	0x100001cd
1000015c:	100001cd 	.word	0x100001cd
10000160:	100001cd 	.word	0x100001cd
10000164:	100001cd 	.word	0x100001cd
10000168:	100001cd 	.word	0x100001cd
1000016c:	100001cd 	.word	0x100001cd
10000170:	100001cd 	.word	0x100001cd
10000174:	100001cd 	.word	0x100001cd
10000178:	100001cd 	.word	0x100001cd
1000017c:	100001cd 	.word	0x100001cd
10000180:	100001cd 	.word	0x100001cd
10000184:	100001cd 	.word	0x100001cd
10000188:	100001cd 	.word	0x100001cd
1000018c:	100001cd 	.word	0x100001cd
10000190:	100001cd 	.word	0x100001cd
10000194:	100001cd 	.word	0x100001cd
10000198:	100001cd 	.word	0x100001cd
1000019c:	100001cd 	.word	0x100001cd
100001a0:	100001cd 	.word	0x100001cd
100001a4:	100001cd 	.word	0x100001cd
100001a8:	100001cd 	.word	0x100001cd
100001ac:	100001cd 	.word	0x100001cd
100001b0:	100001cd 	.word	0x100001cd
100001b4:	100001cd 	.word	0x100001cd
100001b8:	100001cd 	.word	0x100001cd
100001bc:	100001cd 	.word	0x100001cd

100001c0 <isr_invalid>:
100001c0:	be00      	bkpt	0x0000

100001c2 <isr_nmi>:
100001c2:	be00      	bkpt	0x0000

100001c4 <isr_hardfault>:
100001c4:	be00      	bkpt	0x0000

100001c6 <isr_svcall>:
100001c6:	be00      	bkpt	0x0000

100001c8 <isr_pendsv>:
100001c8:	be00      	bkpt	0x0000

100001ca <isr_systick>:
100001ca:	be00      	bkpt	0x0000

100001cc <__unhandled_user_irq>:
100001cc:	f000 f84b 	bl	10000266 <__get_current_exception>
100001d0:	3810      	subs	r0, #16

100001d2 <unhandled_user_irq_num_in_r0>:
100001d2:	be00      	bkpt	0x0000

100001d4 <binary_info_header>:
100001d4:	7188ebf2 	.word	0x7188ebf2
100001d8:	10004f40 	.word	0x10004f40
100001dc:	10004f64 	.word	0x10004f64
100001e0:	10000234 	.word	0x10000234
100001e4:	e71aa390 	.word	0xe71aa390

100001e8 <_entry_point>:
100001e8:	2000      	movs	r0, #0
100001ea:	4921      	ldr	r1, [pc, #132]	; (10000270 <__get_current_exception+0xa>)
100001ec:	6008      	str	r0, [r1, #0]
100001ee:	c806      	ldmia	r0!, {r1, r2}
100001f0:	f381 8808 	msr	MSP, r1
100001f4:	4710      	bx	r2

100001f6 <_reset_handler>:
100001f6:	481f      	ldr	r0, [pc, #124]	; (10000274 <__get_current_exception+0xe>)
100001f8:	6800      	ldr	r0, [r0, #0]
100001fa:	2800      	cmp	r0, #0
100001fc:	d12f      	bne.n	1000025e <hold_non_core0_in_bootrom>
100001fe:	a40d      	add	r4, pc, #52	; (adr r4, 10000234 <data_cpy_table>)
10000200:	cc0e      	ldmia	r4!, {r1, r2, r3}
10000202:	2900      	cmp	r1, #0
10000204:	d002      	beq.n	1000020c <_reset_handler+0x16>
10000206:	f000 f812 	bl	1000022e <data_cpy>
1000020a:	e7f9      	b.n	10000200 <_reset_handler+0xa>
1000020c:	491a      	ldr	r1, [pc, #104]	; (10000278 <__get_current_exception+0x12>)
1000020e:	4a1b      	ldr	r2, [pc, #108]	; (1000027c <__get_current_exception+0x16>)
10000210:	2000      	movs	r0, #0
10000212:	e000      	b.n	10000216 <bss_fill_test>

10000214 <bss_fill_loop>:
10000214:	c101      	stmia	r1!, {r0}

10000216 <bss_fill_test>:
10000216:	4291      	cmp	r1, r2
10000218:	d1fc      	bne.n	10000214 <bss_fill_loop>

1000021a <platform_entry>:
1000021a:	4919      	ldr	r1, [pc, #100]	; (10000280 <__get_current_exception+0x1a>)
1000021c:	4788      	blx	r1
1000021e:	4919      	ldr	r1, [pc, #100]	; (10000284 <__get_current_exception+0x1e>)
10000220:	4788      	blx	r1
10000222:	4919      	ldr	r1, [pc, #100]	; (10000288 <__get_current_exception+0x22>)
10000224:	4788      	blx	r1
10000226:	be00      	bkpt	0x0000
10000228:	e7fd      	b.n	10000226 <platform_entry+0xc>

1000022a <data_cpy_loop>:
1000022a:	c901      	ldmia	r1!, {r0}
1000022c:	c201      	stmia	r2!, {r0}

1000022e <data_cpy>:
1000022e:	429a      	cmp	r2, r3
10000230:	d3fb      	bcc.n	1000022a <data_cpy_loop>
10000232:	4770      	bx	lr

10000234 <data_cpy_table>:
10000234:	10004f64 	.word	0x10004f64
10000238:	200000c0 	.word	0x200000c0
1000023c:	20000b74 	.word	0x20000b74
10000240:	10005a18 	.word	0x10005a18
10000244:	20040000 	.word	0x20040000
10000248:	20040000 	.word	0x20040000
1000024c:	10005a18 	.word	0x10005a18
10000250:	20041000 	.word	0x20041000
10000254:	20041000 	.word	0x20041000
10000258:	00000000 	.word	0x00000000
1000025c:	4770      	bx	lr

1000025e <hold_non_core0_in_bootrom>:
1000025e:	480b      	ldr	r0, [pc, #44]	; (1000028c <__get_current_exception+0x26>)
10000260:	f001 fcc0 	bl	10001be4 <rom_func_lookup>
10000264:	4700      	bx	r0

10000266 <__get_current_exception>:
10000266:	f3ef 8005 	mrs	r0, IPSR
1000026a:	b2c0      	uxtb	r0, r0
1000026c:	4770      	bx	lr
1000026e:	0000      	.short	0x0000
10000270:	e000ed08 	.word	0xe000ed08
10000274:	d0000000 	.word	0xd0000000
10000278:	20000b78 	.word	0x20000b78
1000027c:	2000193c 	.word	0x2000193c
10000280:	10001369 	.word	0x10001369
10000284:	100002e5 	.word	0x100002e5
10000288:	10001489 	.word	0x10001489
1000028c:	00005657 	.word	0x00005657

10000290 <__bi_46>:
10000290:	50520006 5360b3ab 10004ca0              ..RP..`S.L..

1000029c <__bi_34>:
1000029c:	50520006 02031c86 10004cb0              ..RP.....L..

100002a8 <__bi_26>:
100002a8:	50520006 9da22254 10004cb8              ..RPT"...L..

100002b4 <__bi_18>:
100002b4:	50520005 68f465de 10005a18              ..RP.e.h.Z..

100002c0 <_init>:
100002c0:	b5f8      	push	{r3, r4, r5, r6, r7, lr}
100002c2:	46c0      	nop			; (mov r8, r8)

100002c4 <frame_dummy>:
100002c4:	4b04      	ldr	r3, [pc, #16]	; (100002d8 <frame_dummy+0x14>)
100002c6:	b510      	push	{r4, lr}
100002c8:	2b00      	cmp	r3, #0
100002ca:	d003      	beq.n	100002d4 <frame_dummy+0x10>
100002cc:	4903      	ldr	r1, [pc, #12]	; (100002dc <frame_dummy+0x18>)
100002ce:	4804      	ldr	r0, [pc, #16]	; (100002e0 <frame_dummy+0x1c>)
100002d0:	e000      	b.n	100002d4 <frame_dummy+0x10>
100002d2:	bf00      	nop
100002d4:	bd10      	pop	{r4, pc}
100002d6:	46c0      	nop			; (mov r8, r8)
100002d8:	00000000 	.word	0x00000000
100002dc:	200018ec 	.word	0x200018ec
100002e0:	10004c38 	.word	0x10004c38

100002e4 <main>:
100002e4:	b510      	push	{r4, lr}
100002e6:	f001 febf 	bl	10002068 <stdio_init_all>
100002ea:	2019      	movs	r0, #25
100002ec:	f000 f838 	bl	10000360 <gpio_init>
100002f0:	200f      	movs	r0, #15
100002f2:	f000 f835 	bl	10000360 <gpio_init>
100002f6:	200e      	movs	r0, #14
100002f8:	f000 f832 	bl	10000360 <gpio_init>
100002fc:	22d0      	movs	r2, #208	; 0xd0
100002fe:	2080      	movs	r0, #128	; 0x80
10000300:	2180      	movs	r1, #128	; 0x80
10000302:	2380      	movs	r3, #128	; 0x80
10000304:	2401      	movs	r4, #1
10000306:	0612      	lsls	r2, r2, #24
10000308:	0480      	lsls	r0, r0, #18
1000030a:	0209      	lsls	r1, r1, #8
1000030c:	01db      	lsls	r3, r3, #7
1000030e:	6250      	str	r0, [r2, #36]	; 0x24
10000310:	6251      	str	r1, [r2, #36]	; 0x24
10000312:	6293      	str	r3, [r2, #40]	; 0x28
10000314:	6853      	ldr	r3, [r2, #4]
10000316:	0b9b      	lsrs	r3, r3, #14
10000318:	421c      	tst	r4, r3
1000031a:	d005      	beq.n	10000328 <main+0x44>
1000031c:	6190      	str	r0, [r2, #24]
1000031e:	6151      	str	r1, [r2, #20]
10000320:	6853      	ldr	r3, [r2, #4]
10000322:	0b9b      	lsrs	r3, r3, #14
10000324:	421c      	tst	r4, r3
10000326:	d1f9      	bne.n	1000031c <main+0x38>
10000328:	6150      	str	r0, [r2, #20]
1000032a:	6191      	str	r1, [r2, #24]
1000032c:	e7f2      	b.n	10000314 <main+0x30>
1000032e:	46c0      	nop			; (mov r8, r8)

10000330 <gpio_set_function>:
10000330:	4a09      	ldr	r2, [pc, #36]	; (10000358 <gpio_set_function+0x28>)
10000332:	0083      	lsls	r3, r0, #2
10000334:	4694      	mov	ip, r2
10000336:	2240      	movs	r2, #64	; 0x40
10000338:	4463      	add	r3, ip
1000033a:	b510      	push	{r4, lr}
1000033c:	681c      	ldr	r4, [r3, #0]
1000033e:	00c0      	lsls	r0, r0, #3
10000340:	4062      	eors	r2, r4
10000342:	24c0      	movs	r4, #192	; 0xc0
10000344:	4014      	ands	r4, r2
10000346:	2280      	movs	r2, #128	; 0x80
10000348:	0152      	lsls	r2, r2, #5
1000034a:	4313      	orrs	r3, r2
1000034c:	601c      	str	r4, [r3, #0]
1000034e:	4b03      	ldr	r3, [pc, #12]	; (1000035c <gpio_set_function+0x2c>)
10000350:	469c      	mov	ip, r3
10000352:	4460      	add	r0, ip
10000354:	6041      	str	r1, [r0, #4]
10000356:	bd10      	pop	{r4, pc}
10000358:	4001c004 	.word	0x4001c004
1000035c:	40014000 	.word	0x40014000

10000360 <gpio_init>:
10000360:	2301      	movs	r3, #1
10000362:	22d0      	movs	r2, #208	; 0xd0
10000364:	4083      	lsls	r3, r0
10000366:	0612      	lsls	r2, r2, #24
10000368:	6293      	str	r3, [r2, #40]	; 0x28
1000036a:	6193      	str	r3, [r2, #24]
1000036c:	4a09      	ldr	r2, [pc, #36]	; (10000394 <gpio_init+0x34>)
1000036e:	0083      	lsls	r3, r0, #2
10000370:	4694      	mov	ip, r2
10000372:	2240      	movs	r2, #64	; 0x40
10000374:	4463      	add	r3, ip
10000376:	6819      	ldr	r1, [r3, #0]
10000378:	00c0      	lsls	r0, r0, #3
1000037a:	404a      	eors	r2, r1
1000037c:	21c0      	movs	r1, #192	; 0xc0
1000037e:	4011      	ands	r1, r2
10000380:	2280      	movs	r2, #128	; 0x80
10000382:	0152      	lsls	r2, r2, #5
10000384:	4313      	orrs	r3, r2
10000386:	6019      	str	r1, [r3, #0]
10000388:	4b03      	ldr	r3, [pc, #12]	; (10000398 <gpio_init+0x38>)
1000038a:	469c      	mov	ip, r3
1000038c:	2305      	movs	r3, #5
1000038e:	4460      	add	r0, ip
10000390:	6043      	str	r3, [r0, #4]
10000392:	4770      	bx	lr
10000394:	4001c004 	.word	0x4001c004
10000398:	40014000 	.word	0x40014000

1000039c <hw_claim_or_assert>:
1000039c:	b5f8      	push	{r3, r4, r5, r6, r7, lr}
1000039e:	46ce      	mov	lr, r9
100003a0:	4647      	mov	r7, r8
100003a2:	4691      	mov	r9, r2
100003a4:	b580      	push	{r7, lr}
100003a6:	f3ef 8c10 	mrs	ip, PRIMASK
100003aa:	b672      	cpsid	i
100003ac:	4d10      	ldr	r5, [pc, #64]	; (100003f0 <hw_claim_or_assert+0x54>)
100003ae:	682b      	ldr	r3, [r5, #0]
100003b0:	2b00      	cmp	r3, #0
100003b2:	d0fc      	beq.n	100003ae <hw_claim_or_assert+0x12>
100003b4:	f3bf 8f5f 	dmb	sy
100003b8:	08cb      	lsrs	r3, r1, #3
100003ba:	5cc4      	ldrb	r4, [r0, r3]
100003bc:	18c7      	adds	r7, r0, r3
100003be:	2007      	movs	r0, #7
100003c0:	0026      	movs	r6, r4
100003c2:	2301      	movs	r3, #1
100003c4:	4008      	ands	r0, r1
100003c6:	40c6      	lsrs	r6, r0
100003c8:	001a      	movs	r2, r3
100003ca:	4032      	ands	r2, r6
100003cc:	4233      	tst	r3, r6
100003ce:	d10b      	bne.n	100003e8 <hw_claim_or_assert+0x4c>
100003d0:	4083      	lsls	r3, r0
100003d2:	4323      	orrs	r3, r4
100003d4:	703b      	strb	r3, [r7, #0]
100003d6:	f3bf 8f5f 	dmb	sy
100003da:	602a      	str	r2, [r5, #0]
100003dc:	f38c 8810 	msr	PRIMASK, ip
100003e0:	bcc0      	pop	{r6, r7}
100003e2:	46b9      	mov	r9, r7
100003e4:	46b0      	mov	r8, r6
100003e6:	bdf8      	pop	{r3, r4, r5, r6, r7, pc}
100003e8:	4648      	mov	r0, r9
100003ea:	f001 f84f 	bl	1000148c <panic>
100003ee:	46c0      	nop			; (mov r8, r8)
100003f0:	d000012c 	.word	0xd000012c

100003f4 <hw_claim_unused_from_range>:
100003f4:	b5f8      	push	{r3, r4, r5, r6, r7, lr}
100003f6:	4647      	mov	r7, r8
100003f8:	46ce      	mov	lr, r9
100003fa:	4688      	mov	r8, r1
100003fc:	b580      	push	{r7, lr}
100003fe:	f3ef 8c10 	mrs	ip, PRIMASK
10000402:	b672      	cpsid	i
10000404:	4d21      	ldr	r5, [pc, #132]	; (1000048c <hw_claim_unused_from_range+0x98>)
10000406:	682c      	ldr	r4, [r5, #0]
10000408:	2c00      	cmp	r4, #0
1000040a:	d0fc      	beq.n	10000406 <hw_claim_unused_from_range+0x12>
1000040c:	f3bf 8f5f 	dmb	sy
10000410:	429a      	cmp	r2, r3
10000412:	d82d      	bhi.n	10000470 <hw_claim_unused_from_range+0x7c>
10000414:	08d4      	lsrs	r4, r2, #3
10000416:	5d05      	ldrb	r5, [r0, r4]
10000418:	1907      	adds	r7, r0, r4
1000041a:	2407      	movs	r4, #7
1000041c:	002e      	movs	r6, r5
1000041e:	4014      	ands	r4, r2
10000420:	40e6      	lsrs	r6, r4
10000422:	07f1      	lsls	r1, r6, #31
10000424:	d51e      	bpl.n	10000464 <hw_claim_unused_from_range+0x70>
10000426:	2107      	movs	r1, #7
10000428:	4689      	mov	r9, r1
1000042a:	3906      	subs	r1, #6
1000042c:	e008      	b.n	10000440 <hw_claim_unused_from_range+0x4c>
1000042e:	08d4      	lsrs	r4, r2, #3
10000430:	5d05      	ldrb	r5, [r0, r4]
10000432:	1907      	adds	r7, r0, r4
10000434:	464c      	mov	r4, r9
10000436:	002e      	movs	r6, r5
10000438:	4014      	ands	r4, r2
1000043a:	40e6      	lsrs	r6, r4
1000043c:	4231      	tst	r1, r6
1000043e:	d011      	beq.n	10000464 <hw_claim_unused_from_range+0x70>
10000440:	3201      	adds	r2, #1
10000442:	4293      	cmp	r3, r2
10000444:	d2f3      	bcs.n	1000042e <hw_claim_unused_from_range+0x3a>
10000446:	2001      	movs	r0, #1
10000448:	4240      	negs	r0, r0
1000044a:	f3bf 8f5f 	dmb	sy
1000044e:	2200      	movs	r2, #0
10000450:	4b0e      	ldr	r3, [pc, #56]	; (1000048c <hw_claim_unused_from_range+0x98>)
10000452:	601a      	str	r2, [r3, #0]
10000454:	f38c 8810 	msr	PRIMASK, ip
10000458:	2800      	cmp	r0, #0
1000045a:	db11      	blt.n	10000480 <hw_claim_unused_from_range+0x8c>
1000045c:	bcc0      	pop	{r6, r7}
1000045e:	46b9      	mov	r9, r7
10000460:	46b0      	mov	r8, r6
10000462:	bdf8      	pop	{r3, r4, r5, r6, r7, pc}
10000464:	2301      	movs	r3, #1
10000466:	40a3      	lsls	r3, r4
10000468:	431d      	orrs	r5, r3
1000046a:	0010      	movs	r0, r2
1000046c:	703d      	strb	r5, [r7, #0]
1000046e:	e7ec      	b.n	1000044a <hw_claim_unused_from_range+0x56>
10000470:	f3bf 8f5f 	dmb	sy
10000474:	2300      	movs	r3, #0
10000476:	602b      	str	r3, [r5, #0]
10000478:	f38c 8810 	msr	PRIMASK, ip
1000047c:	2001      	movs	r0, #1
1000047e:	4240      	negs	r0, r0
10000480:	4643      	mov	r3, r8
10000482:	2b00      	cmp	r3, #0
10000484:	d0ea      	beq.n	1000045c <hw_claim_unused_from_range+0x68>
10000486:	9808      	ldr	r0, [sp, #32]
10000488:	f001 f800 	bl	1000148c <panic>
1000048c:	d000012c 	.word	0xd000012c

10000490 <spin_locks_reset>:
10000490:	2100      	movs	r1, #0
10000492:	4b04      	ldr	r3, [pc, #16]	; (100004a4 <spin_locks_reset+0x14>)
10000494:	4a04      	ldr	r2, [pc, #16]	; (100004a8 <spin_locks_reset+0x18>)
10000496:	f3bf 8f5f 	dmb	sy
1000049a:	c302      	stmia	r3!, {r1}
1000049c:	4293      	cmp	r3, r2
1000049e:	d1fa      	bne.n	10000496 <spin_locks_reset+0x6>
100004a0:	4770      	bx	lr
100004a2:	46c0      	nop			; (mov r8, r8)
100004a4:	d0000100 	.word	0xd0000100
100004a8:	d0000180 	.word	0xd0000180

100004ac <next_striped_spin_lock_num>:
100004ac:	4a04      	ldr	r2, [pc, #16]	; (100004c0 <next_striped_spin_lock_num+0x14>)
100004ae:	7810      	ldrb	r0, [r2, #0]
100004b0:	1c43      	adds	r3, r0, #1
100004b2:	b2db      	uxtb	r3, r3
100004b4:	2b17      	cmp	r3, #23
100004b6:	d900      	bls.n	100004ba <next_striped_spin_lock_num+0xe>
100004b8:	2310      	movs	r3, #16
100004ba:	7013      	strb	r3, [r2, #0]
100004bc:	4770      	bx	lr
100004be:	46c0      	nop			; (mov r8, r8)
100004c0:	20000248 	.word	0x20000248

100004c4 <spin_lock_claim_unused>:
100004c4:	b500      	push	{lr}
100004c6:	4b05      	ldr	r3, [pc, #20]	; (100004dc <spin_lock_claim_unused+0x18>)
100004c8:	b083      	sub	sp, #12
100004ca:	0001      	movs	r1, r0
100004cc:	9300      	str	r3, [sp, #0]
100004ce:	2218      	movs	r2, #24
100004d0:	231f      	movs	r3, #31
100004d2:	4803      	ldr	r0, [pc, #12]	; (100004e0 <spin_lock_claim_unused+0x1c>)
100004d4:	f7ff ff8e 	bl	100003f4 <hw_claim_unused_from_range>
100004d8:	b003      	add	sp, #12
100004da:	bd00      	pop	{pc}
100004dc:	10004c38 	.word	0x10004c38
100004e0:	200011fc 	.word	0x200011fc

100004e4 <running_on_fpga>:
100004e4:	4b02      	ldr	r3, [pc, #8]	; (100004f0 <running_on_fpga+0xc>)
100004e6:	6818      	ldr	r0, [r3, #0]
100004e8:	0780      	lsls	r0, r0, #30
100004ea:	0fc0      	lsrs	r0, r0, #31
100004ec:	4770      	bx	lr
100004ee:	46c0      	nop			; (mov r8, r8)
100004f0:	4006c000 	.word	0x4006c000

100004f4 <uart_init>:
100004f4:	b5f8      	push	{r3, r4, r5, r6, r7, lr}
100004f6:	0004      	movs	r4, r0
100004f8:	2006      	movs	r0, #6
100004fa:	000d      	movs	r5, r1
100004fc:	f001 f954 	bl	100017a8 <clock_get_hz>
10000500:	2800      	cmp	r0, #0
10000502:	d044      	beq.n	1000058e <uart_init+0x9a>
10000504:	4b2a      	ldr	r3, [pc, #168]	; (100005b0 <uart_init+0xbc>)
10000506:	492b      	ldr	r1, [pc, #172]	; (100005b4 <uart_init+0xc0>)
10000508:	18e2      	adds	r2, r4, r3
1000050a:	4253      	negs	r3, r2
1000050c:	415a      	adcs	r2, r3
1000050e:	2380      	movs	r3, #128	; 0x80
10000510:	03db      	lsls	r3, r3, #15
10000512:	469c      	mov	ip, r3
10000514:	0592      	lsls	r2, r2, #22
10000516:	4b28      	ldr	r3, [pc, #160]	; (100005b8 <uart_init+0xc4>)
10000518:	4462      	add	r2, ip
1000051a:	601a      	str	r2, [r3, #0]
1000051c:	4b27      	ldr	r3, [pc, #156]	; (100005bc <uart_init+0xc8>)
1000051e:	601a      	str	r2, [r3, #0]
10000520:	0010      	movs	r0, r2
10000522:	688b      	ldr	r3, [r1, #8]
10000524:	4398      	bics	r0, r3
10000526:	d1fb      	bne.n	10000520 <uart_init+0x2c>
10000528:	4b21      	ldr	r3, [pc, #132]	; (100005b0 <uart_init+0xbc>)
1000052a:	2180      	movs	r1, #128	; 0x80
1000052c:	18e3      	adds	r3, r4, r3
1000052e:	425a      	negs	r2, r3
10000530:	4153      	adcs	r3, r2
10000532:	4a23      	ldr	r2, [pc, #140]	; (100005c0 <uart_init+0xcc>)
10000534:	005b      	lsls	r3, r3, #1
10000536:	0049      	lsls	r1, r1, #1
10000538:	5299      	strh	r1, [r3, r2]
1000053a:	2006      	movs	r0, #6
1000053c:	f001 f934 	bl	100017a8 <clock_get_hz>
10000540:	0029      	movs	r1, r5
10000542:	00c0      	lsls	r0, r0, #3
10000544:	f001 fb80 	bl	10001c48 <__wrap___aeabi_uidiv>
10000548:	09c3      	lsrs	r3, r0, #7
1000054a:	d121      	bne.n	10000590 <uart_init+0x9c>
1000054c:	2740      	movs	r7, #64	; 0x40
1000054e:	2101      	movs	r1, #1
10000550:	0026      	movs	r6, r4
10000552:	2580      	movs	r5, #128	; 0x80
10000554:	6261      	str	r1, [r4, #36]	; 0x24
10000556:	62a3      	str	r3, [r4, #40]	; 0x28
10000558:	2300      	movs	r3, #0
1000055a:	362c      	adds	r6, #44	; 0x2c
1000055c:	01ad      	lsls	r5, r5, #6
1000055e:	4335      	orrs	r5, r6
10000560:	602b      	str	r3, [r5, #0]
10000562:	2006      	movs	r0, #6
10000564:	f001 f920 	bl	100017a8 <clock_get_hz>
10000568:	0039      	movs	r1, r7
1000056a:	0080      	lsls	r0, r0, #2
1000056c:	f001 fb6c 	bl	10001c48 <__wrap___aeabi_uidiv>
10000570:	2360      	movs	r3, #96	; 0x60
10000572:	6ae2      	ldr	r2, [r4, #44]	; 0x2c
10000574:	4053      	eors	r3, r2
10000576:	226e      	movs	r2, #110	; 0x6e
10000578:	401a      	ands	r2, r3
1000057a:	2380      	movs	r3, #128	; 0x80
1000057c:	015b      	lsls	r3, r3, #5
1000057e:	4333      	orrs	r3, r6
10000580:	601a      	str	r2, [r3, #0]
10000582:	4b10      	ldr	r3, [pc, #64]	; (100005c4 <uart_init+0xd0>)
10000584:	6323      	str	r3, [r4, #48]	; 0x30
10000586:	2310      	movs	r3, #16
10000588:	602b      	str	r3, [r5, #0]
1000058a:	3b0d      	subs	r3, #13
1000058c:	64a3      	str	r3, [r4, #72]	; 0x48
1000058e:	bdf8      	pop	{r3, r4, r5, r6, r7, pc}
10000590:	4a0d      	ldr	r2, [pc, #52]	; (100005c8 <uart_init+0xd4>)
10000592:	4293      	cmp	r3, r2
10000594:	d903      	bls.n	1000059e <uart_init+0xaa>
10000596:	2300      	movs	r3, #0
10000598:	4f0c      	ldr	r7, [pc, #48]	; (100005cc <uart_init+0xd8>)
1000059a:	490d      	ldr	r1, [pc, #52]	; (100005d0 <uart_init+0xdc>)
1000059c:	e7d8      	b.n	10000550 <uart_init+0x5c>
1000059e:	227f      	movs	r2, #127	; 0x7f
100005a0:	4010      	ands	r0, r2
100005a2:	3001      	adds	r0, #1
100005a4:	0840      	lsrs	r0, r0, #1
100005a6:	019f      	lsls	r7, r3, #6
100005a8:	0019      	movs	r1, r3
100005aa:	183f      	adds	r7, r7, r0
100005ac:	0003      	movs	r3, r0
100005ae:	e7cf      	b.n	10000550 <uart_init+0x5c>
100005b0:	bffc8000 	.word	0xbffc8000
100005b4:	4000c000 	.word	0x4000c000
100005b8:	4000e000 	.word	0x4000e000
100005bc:	4000f000 	.word	0x4000f000
100005c0:	20001930 	.word	0x20001930
100005c4:	00000301 	.word	0x00000301
100005c8:	0000fffe 	.word	0x0000fffe
100005cc:	003fffc0 	.word	0x003fffc0
100005d0:	0000ffff 	.word	0x0000ffff

100005d4 <timer_pool_entry_comparator>:
100005d4:	6883      	ldr	r3, [r0, #8]
100005d6:	480b      	ldr	r0, [pc, #44]	; (10000604 <timer_pool_entry_comparator+0x30>)
100005d8:	b510      	push	{r4, lr}
100005da:	4684      	mov	ip, r0
100005dc:	4461      	add	r1, ip
100005de:	4462      	add	r2, ip
100005e0:	0109      	lsls	r1, r1, #4
100005e2:	0112      	lsls	r2, r2, #4
100005e4:	189a      	adds	r2, r3, r2
100005e6:	1859      	adds	r1, r3, r1
100005e8:	6854      	ldr	r4, [r2, #4]
100005ea:	684b      	ldr	r3, [r1, #4]
100005ec:	2001      	movs	r0, #1
100005ee:	429c      	cmp	r4, r3
100005f0:	d801      	bhi.n	100005f6 <timer_pool_entry_comparator+0x22>
100005f2:	d002      	beq.n	100005fa <timer_pool_entry_comparator+0x26>
100005f4:	2000      	movs	r0, #0
100005f6:	b2c0      	uxtb	r0, r0
100005f8:	bd10      	pop	{r4, pc}
100005fa:	6812      	ldr	r2, [r2, #0]
100005fc:	680b      	ldr	r3, [r1, #0]
100005fe:	429a      	cmp	r2, r3
10000600:	d8f9      	bhi.n	100005f6 <timer_pool_entry_comparator+0x22>
10000602:	e7f7      	b.n	100005f4 <timer_pool_entry_comparator+0x20>
10000604:	0fffffff 	.word	0x0fffffff

10000608 <sev_callback>:
10000608:	bf40      	sev
1000060a:	2000      	movs	r0, #0
1000060c:	2100      	movs	r1, #0
1000060e:	4770      	bx	lr

10000610 <add_alarm_under_lock.isra.0>:
10000610:	b5f8      	push	{r3, r4, r5, r6, r7, lr}
10000612:	4645      	mov	r5, r8
10000614:	46de      	mov	lr, fp
10000616:	4657      	mov	r7, sl
10000618:	464e      	mov	r6, r9
1000061a:	b5e0      	push	{r5, r6, r7, lr}
1000061c:	4698      	mov	r8, r3
1000061e:	ab0d      	add	r3, sp, #52	; 0x34
10000620:	781b      	ldrb	r3, [r3, #0]
10000622:	0005      	movs	r5, r0
10000624:	469b      	mov	fp, r3
10000626:	9b0c      	ldr	r3, [sp, #48]	; 0x30
10000628:	0017      	movs	r7, r2
1000062a:	6806      	ldr	r6, [r0, #0]
1000062c:	2b00      	cmp	r3, #0
1000062e:	d03f      	beq.n	100006b0 <add_alarm_under_lock.isra.0+0xa0>
10000630:	6833      	ldr	r3, [r6, #0]
10000632:	4939      	ldr	r1, [pc, #228]	; (10000718 <add_alarm_under_lock.isra.0+0x108>)
10000634:	9a0c      	ldr	r2, [sp, #48]	; 0x30
10000636:	468c      	mov	ip, r1
10000638:	b2d2      	uxtb	r2, r2
1000063a:	68a9      	ldr	r1, [r5, #8]
1000063c:	4692      	mov	sl, r2
1000063e:	9a0c      	ldr	r2, [sp, #48]	; 0x30
10000640:	4462      	add	r2, ip
10000642:	468c      	mov	ip, r1
10000644:	4641      	mov	r1, r8
10000646:	0112      	lsls	r2, r2, #4
10000648:	4462      	add	r2, ip
1000064a:	6051      	str	r1, [r2, #4]
1000064c:	990a      	ldr	r1, [sp, #40]	; 0x28
1000064e:	6017      	str	r7, [r2, #0]
10000650:	6091      	str	r1, [r2, #8]
10000652:	990b      	ldr	r1, [sp, #44]	; 0x2c
10000654:	60d1      	str	r1, [r2, #12]
10000656:	990c      	ldr	r1, [sp, #48]	; 0x30
10000658:	9a0c      	ldr	r2, [sp, #48]	; 0x30
1000065a:	468c      	mov	ip, r1
1000065c:	0052      	lsls	r2, r2, #1
1000065e:	4462      	add	r2, ip
10000660:	3a03      	subs	r2, #3
10000662:	4691      	mov	r9, r2
10000664:	2200      	movs	r2, #0
10000666:	444b      	add	r3, r9
10000668:	709a      	strb	r2, [r3, #2]
1000066a:	705a      	strb	r2, [r3, #1]
1000066c:	701a      	strb	r2, [r3, #0]
1000066e:	7b74      	ldrb	r4, [r6, #13]
10000670:	2c00      	cmp	r4, #0
10000672:	d036      	beq.n	100006e2 <add_alarm_under_lock.isra.0+0xd2>
10000674:	4652      	mov	r2, sl
10000676:	6873      	ldr	r3, [r6, #4]
10000678:	0021      	movs	r1, r4
1000067a:	68b0      	ldr	r0, [r6, #8]
1000067c:	4798      	blx	r3
1000067e:	0063      	lsls	r3, r4, #1
10000680:	191b      	adds	r3, r3, r4
10000682:	6832      	ldr	r2, [r6, #0]
10000684:	3b03      	subs	r3, #3
10000686:	2800      	cmp	r0, #0
10000688:	d021      	beq.n	100006ce <add_alarm_under_lock.isra.0+0xbe>
1000068a:	4649      	mov	r1, r9
1000068c:	1851      	adds	r1, r2, r1
1000068e:	708c      	strb	r4, [r1, #2]
10000690:	18d0      	adds	r0, r2, r3
10000692:	5cd3      	ldrb	r3, [r2, r3]
10000694:	2b00      	cmp	r3, #0
10000696:	d139      	bne.n	1000070c <add_alarm_under_lock.isra.0+0xfc>
10000698:	4653      	mov	r3, sl
1000069a:	7003      	strb	r3, [r0, #0]
1000069c:	9b0c      	ldr	r3, [sp, #48]	; 0x30
1000069e:	7374      	strb	r4, [r6, #13]
100006a0:	429c      	cmp	r4, r3
100006a2:	d020      	beq.n	100006e6 <add_alarm_under_lock.isra.0+0xd6>
100006a4:	bcf0      	pop	{r4, r5, r6, r7}
100006a6:	46bb      	mov	fp, r7
100006a8:	46b2      	mov	sl, r6
100006aa:	46a9      	mov	r9, r5
100006ac:	46a0      	mov	r8, r4
100006ae:	bdf8      	pop	{r3, r4, r5, r6, r7, pc}
100006b0:	7bb4      	ldrb	r4, [r6, #14]
100006b2:	2c00      	cmp	r4, #0
100006b4:	d0f6      	beq.n	100006a4 <add_alarm_under_lock.isra.0+0x94>
100006b6:	6833      	ldr	r3, [r6, #0]
100006b8:	0062      	lsls	r2, r4, #1
100006ba:	1912      	adds	r2, r2, r4
100006bc:	189a      	adds	r2, r3, r2
100006be:	3a03      	subs	r2, #3
100006c0:	7852      	ldrb	r2, [r2, #1]
100006c2:	73b2      	strb	r2, [r6, #14]
100006c4:	2a00      	cmp	r2, #0
100006c6:	d100      	bne.n	100006ca <add_alarm_under_lock.isra.0+0xba>
100006c8:	73f2      	strb	r2, [r6, #15]
100006ca:	940c      	str	r4, [sp, #48]	; 0x30
100006cc:	e7b1      	b.n	10000632 <add_alarm_under_lock.isra.0+0x22>
100006ce:	4650      	mov	r0, sl
100006d0:	18d3      	adds	r3, r2, r3
100006d2:	7098      	strb	r0, [r3, #2]
100006d4:	4649      	mov	r1, r9
100006d6:	4648      	mov	r0, r9
100006d8:	1851      	adds	r1, r2, r1
100006da:	5c12      	ldrb	r2, [r2, r0]
100006dc:	2a00      	cmp	r2, #0
100006de:	d117      	bne.n	10000710 <add_alarm_under_lock.isra.0+0x100>
100006e0:	700c      	strb	r4, [r1, #0]
100006e2:	4653      	mov	r3, sl
100006e4:	7373      	strb	r3, [r6, #13]
100006e6:	003a      	movs	r2, r7
100006e8:	4643      	mov	r3, r8
100006ea:	7d28      	ldrb	r0, [r5, #20]
100006ec:	f000 fbba 	bl	10000e64 <hardware_alarm_set_target>
100006f0:	1e04      	subs	r4, r0, #0
100006f2:	d006      	beq.n	10000702 <add_alarm_under_lock.isra.0+0xf2>
100006f4:	465b      	mov	r3, fp
100006f6:	2b00      	cmp	r3, #0
100006f8:	d103      	bne.n	10000702 <add_alarm_under_lock.isra.0+0xf2>
100006fa:	4651      	mov	r1, sl
100006fc:	6828      	ldr	r0, [r5, #0]
100006fe:	f000 fdf5 	bl	100012ec <ph_delete>
10000702:	9b0e      	ldr	r3, [sp, #56]	; 0x38
10000704:	2b00      	cmp	r3, #0
10000706:	d0cd      	beq.n	100006a4 <add_alarm_under_lock.isra.0+0x94>
10000708:	701c      	strb	r4, [r3, #0]
1000070a:	e7cb      	b.n	100006a4 <add_alarm_under_lock.isra.0+0x94>
1000070c:	704b      	strb	r3, [r1, #1]
1000070e:	e7c3      	b.n	10000698 <add_alarm_under_lock.isra.0+0x88>
10000710:	705a      	strb	r2, [r3, #1]
10000712:	700c      	strb	r4, [r1, #0]
10000714:	e7e5      	b.n	100006e2 <add_alarm_under_lock.isra.0+0xd2>
10000716:	46c0      	nop			; (mov r8, r8)
10000718:	0fffffff 	.word	0x0fffffff

1000071c <alarm_pool_alarm_callback>:
1000071c:	b5f0      	push	{r4, r5, r6, r7, lr}
1000071e:	46de      	mov	lr, fp
10000720:	464e      	mov	r6, r9
10000722:	4657      	mov	r7, sl
10000724:	4645      	mov	r5, r8
10000726:	2300      	movs	r3, #0
10000728:	b5e0      	push	{r5, r6, r7, lr}
1000072a:	b08d      	sub	sp, #52	; 0x34
1000072c:	930a      	str	r3, [sp, #40]	; 0x28
1000072e:	4b6b      	ldr	r3, [pc, #428]	; (100008dc <alarm_pool_alarm_callback+0x1c0>)
10000730:	0082      	lsls	r2, r0, #2
10000732:	58d3      	ldr	r3, [r2, r3]
10000734:	900b      	str	r0, [sp, #44]	; 0x2c
10000736:	4699      	mov	r9, r3
10000738:	2300      	movs	r3, #0
1000073a:	469b      	mov	fp, r3
1000073c:	464b      	mov	r3, r9
1000073e:	9307      	str	r3, [sp, #28]
10000740:	f000 fb40 	bl	10000dc4 <time_us_64>
10000744:	9c07      	ldr	r4, [sp, #28]
10000746:	0006      	movs	r6, r0
10000748:	000f      	movs	r7, r1
1000074a:	6862      	ldr	r2, [r4, #4]
1000074c:	f3ef 8510 	mrs	r5, PRIMASK
10000750:	b672      	cpsid	i
10000752:	6813      	ldr	r3, [r2, #0]
10000754:	2b00      	cmp	r3, #0
10000756:	d0fc      	beq.n	10000752 <alarm_pool_alarm_callback+0x36>
10000758:	0022      	movs	r2, r4
1000075a:	9407      	str	r4, [sp, #28]
1000075c:	f3bf 8f5f 	dmb	sy
10000760:	6824      	ldr	r4, [r4, #0]
10000762:	7b63      	ldrb	r3, [r4, #13]
10000764:	4699      	mov	r9, r3
10000766:	2b00      	cmp	r3, #0
10000768:	d067      	beq.n	1000083a <alarm_pool_alarm_callback+0x11e>
1000076a:	6892      	ldr	r2, [r2, #8]
1000076c:	4b5c      	ldr	r3, [pc, #368]	; (100008e0 <alarm_pool_alarm_callback+0x1c4>)
1000076e:	4690      	mov	r8, r2
10000770:	444b      	add	r3, r9
10000772:	011b      	lsls	r3, r3, #4
10000774:	4498      	add	r8, r3
10000776:	4643      	mov	r3, r8
10000778:	681a      	ldr	r2, [r3, #0]
1000077a:	685b      	ldr	r3, [r3, #4]
1000077c:	0010      	movs	r0, r2
1000077e:	0019      	movs	r1, r3
10000780:	1b80      	subs	r0, r0, r6
10000782:	41b9      	sbcs	r1, r7
10000784:	2900      	cmp	r1, #0
10000786:	dd5f      	ble.n	10000848 <alarm_pool_alarm_callback+0x12c>
10000788:	980b      	ldr	r0, [sp, #44]	; 0x2c
1000078a:	f000 fb6b 	bl	10000e64 <hardware_alarm_set_target>
1000078e:	2300      	movs	r3, #0
10000790:	2600      	movs	r6, #0
10000792:	4698      	mov	r8, r3
10000794:	2700      	movs	r7, #0
10000796:	469a      	mov	sl, r3
10000798:	9c07      	ldr	r4, [sp, #28]
1000079a:	6863      	ldr	r3, [r4, #4]
1000079c:	f3bf 8f5f 	dmb	sy
100007a0:	465a      	mov	r2, fp
100007a2:	601a      	str	r2, [r3, #0]
100007a4:	f385 8810 	msr	PRIMASK, r5
100007a8:	4653      	mov	r3, sl
100007aa:	2b00      	cmp	r3, #0
100007ac:	d108      	bne.n	100007c0 <alarm_pool_alarm_callback+0xa4>
100007ae:	2800      	cmp	r0, #0
100007b0:	d1c6      	bne.n	10000740 <alarm_pool_alarm_callback+0x24>
100007b2:	b00d      	add	sp, #52	; 0x34
100007b4:	bcf0      	pop	{r4, r5, r6, r7}
100007b6:	46bb      	mov	fp, r7
100007b8:	46b2      	mov	sl, r6
100007ba:	46a9      	mov	r9, r5
100007bc:	46a0      	mov	r8, r4
100007be:	bdf0      	pop	{r4, r5, r6, r7, pc}
100007c0:	9b0a      	ldr	r3, [sp, #40]	; 0x28
100007c2:	4641      	mov	r1, r8
100007c4:	0218      	lsls	r0, r3, #8
100007c6:	464b      	mov	r3, r9
100007c8:	4318      	orrs	r0, r3
100007ca:	47d0      	blx	sl
100007cc:	9008      	str	r0, [sp, #32]
100007ce:	9109      	str	r1, [sp, #36]	; 0x24
100007d0:	6862      	ldr	r2, [r4, #4]
100007d2:	f3ef 8510 	mrs	r5, PRIMASK
100007d6:	b672      	cpsid	i
100007d8:	6813      	ldr	r3, [r2, #0]
100007da:	2b00      	cmp	r3, #0
100007dc:	d0fc      	beq.n	100007d8 <alarm_pool_alarm_callback+0xbc>
100007de:	9407      	str	r4, [sp, #28]
100007e0:	f3bf 8f5f 	dmb	sy
100007e4:	9908      	ldr	r1, [sp, #32]
100007e6:	9a09      	ldr	r2, [sp, #36]	; 0x24
100007e8:	2a00      	cmp	r2, #0
100007ea:	db48      	blt.n	1000087e <alarm_pool_alarm_callback+0x162>
100007ec:	4311      	orrs	r1, r2
100007ee:	d003      	beq.n	100007f8 <alarm_pool_alarm_callback+0xdc>
100007f0:	9b07      	ldr	r3, [sp, #28]
100007f2:	691b      	ldr	r3, [r3, #16]
100007f4:	2b00      	cmp	r3, #0
100007f6:	d15d      	bne.n	100008b4 <alarm_pool_alarm_callback+0x198>
100007f8:	9b07      	ldr	r3, [sp, #28]
100007fa:	681b      	ldr	r3, [r3, #0]
100007fc:	7bd9      	ldrb	r1, [r3, #15]
100007fe:	2900      	cmp	r1, #0
10000800:	d007      	beq.n	10000812 <alarm_pool_alarm_callback+0xf6>
10000802:	004a      	lsls	r2, r1, #1
10000804:	1852      	adds	r2, r2, r1
10000806:	6819      	ldr	r1, [r3, #0]
10000808:	468c      	mov	ip, r1
1000080a:	4649      	mov	r1, r9
1000080c:	4462      	add	r2, ip
1000080e:	3a03      	subs	r2, #3
10000810:	7051      	strb	r1, [r2, #1]
10000812:	464a      	mov	r2, r9
10000814:	73da      	strb	r2, [r3, #15]
10000816:	464b      	mov	r3, r9
10000818:	9a07      	ldr	r2, [sp, #28]
1000081a:	3b01      	subs	r3, #1
1000081c:	68d1      	ldr	r1, [r2, #12]
1000081e:	5cca      	ldrb	r2, [r1, r3]
10000820:	3201      	adds	r2, #1
10000822:	54ca      	strb	r2, [r1, r3]
10000824:	465b      	mov	r3, fp
10000826:	9a07      	ldr	r2, [sp, #28]
10000828:	6113      	str	r3, [r2, #16]
1000082a:	6853      	ldr	r3, [r2, #4]
1000082c:	f3bf 8f5f 	dmb	sy
10000830:	465a      	mov	r2, fp
10000832:	601a      	str	r2, [r3, #0]
10000834:	f385 8810 	msr	PRIMASK, r5
10000838:	e782      	b.n	10000740 <alarm_pool_alarm_callback+0x24>
1000083a:	2300      	movs	r3, #0
1000083c:	2600      	movs	r6, #0
1000083e:	4698      	mov	r8, r3
10000840:	2700      	movs	r7, #0
10000842:	469a      	mov	sl, r3
10000844:	2000      	movs	r0, #0
10000846:	e7a7      	b.n	10000798 <alarm_pool_alarm_callback+0x7c>
10000848:	2900      	cmp	r1, #0
1000084a:	d101      	bne.n	10000850 <alarm_pool_alarm_callback+0x134>
1000084c:	2800      	cmp	r0, #0
1000084e:	d19b      	bne.n	10000788 <alarm_pool_alarm_callback+0x6c>
10000850:	2101      	movs	r1, #1
10000852:	0020      	movs	r0, r4
10000854:	f000 fccc 	bl	100011f0 <ph_remove_head_reserve>
10000858:	4643      	mov	r3, r8
1000085a:	681e      	ldr	r6, [r3, #0]
1000085c:	685f      	ldr	r7, [r3, #4]
1000085e:	689b      	ldr	r3, [r3, #8]
10000860:	9a07      	ldr	r2, [sp, #28]
10000862:	469a      	mov	sl, r3
10000864:	4643      	mov	r3, r8
10000866:	68db      	ldr	r3, [r3, #12]
10000868:	4698      	mov	r8, r3
1000086a:	68d3      	ldr	r3, [r2, #12]
1000086c:	444b      	add	r3, r9
1000086e:	3b01      	subs	r3, #1
10000870:	781b      	ldrb	r3, [r3, #0]
10000872:	930a      	str	r3, [sp, #40]	; 0x28
10000874:	021b      	lsls	r3, r3, #8
10000876:	4303      	orrs	r3, r0
10000878:	6113      	str	r3, [r2, #16]
1000087a:	2000      	movs	r0, #0
1000087c:	e78c      	b.n	10000798 <alarm_pool_alarm_callback+0x7c>
1000087e:	6923      	ldr	r3, [r4, #16]
10000880:	2b00      	cmp	r3, #0
10000882:	d0b9      	beq.n	100007f8 <alarm_pool_alarm_callback+0xdc>
10000884:	0033      	movs	r3, r6
10000886:	003c      	movs	r4, r7
10000888:	1a5b      	subs	r3, r3, r1
1000088a:	4194      	sbcs	r4, r2
1000088c:	001a      	movs	r2, r3
1000088e:	0023      	movs	r3, r4
10000890:	42a7      	cmp	r7, r4
10000892:	d819      	bhi.n	100008c8 <alarm_pool_alarm_callback+0x1ac>
10000894:	429f      	cmp	r7, r3
10000896:	d01b      	beq.n	100008d0 <alarm_pool_alarm_callback+0x1b4>
10000898:	4659      	mov	r1, fp
1000089a:	9104      	str	r1, [sp, #16]
1000089c:	2101      	movs	r1, #1
1000089e:	9103      	str	r1, [sp, #12]
100008a0:	4649      	mov	r1, r9
100008a2:	9102      	str	r1, [sp, #8]
100008a4:	4641      	mov	r1, r8
100008a6:	9101      	str	r1, [sp, #4]
100008a8:	4651      	mov	r1, sl
100008aa:	9807      	ldr	r0, [sp, #28]
100008ac:	9100      	str	r1, [sp, #0]
100008ae:	f7ff feaf 	bl	10000610 <add_alarm_under_lock.isra.0>
100008b2:	e7b7      	b.n	10000824 <alarm_pool_alarm_callback+0x108>
100008b4:	f000 fa86 	bl	10000dc4 <time_us_64>
100008b8:	9a08      	ldr	r2, [sp, #32]
100008ba:	9b09      	ldr	r3, [sp, #36]	; 0x24
100008bc:	0006      	movs	r6, r0
100008be:	000f      	movs	r7, r1
100008c0:	1992      	adds	r2, r2, r6
100008c2:	417b      	adcs	r3, r7
100008c4:	4299      	cmp	r1, r3
100008c6:	d9e5      	bls.n	10000894 <alarm_pool_alarm_callback+0x178>
100008c8:	2201      	movs	r2, #1
100008ca:	4252      	negs	r2, r2
100008cc:	17d3      	asrs	r3, r2, #31
100008ce:	e7e3      	b.n	10000898 <alarm_pool_alarm_callback+0x17c>
100008d0:	4296      	cmp	r6, r2
100008d2:	d9e1      	bls.n	10000898 <alarm_pool_alarm_callback+0x17c>
100008d4:	2201      	movs	r2, #1
100008d6:	4252      	negs	r2, r2
100008d8:	17d3      	asrs	r3, r2, #31
100008da:	e7dd      	b.n	10000898 <alarm_pool_alarm_callback+0x17c>
100008dc:	20001904 	.word	0x20001904
100008e0:	0fffffff 	.word	0x0fffffff

100008e4 <alarm_pool_add_alarm_at.constprop.0>:
100008e4:	b5f8      	push	{r3, r4, r5, r6, r7, lr}
100008e6:	4657      	mov	r7, sl
100008e8:	464e      	mov	r6, r9
100008ea:	46de      	mov	lr, fp
100008ec:	4645      	mov	r5, r8
100008ee:	4691      	mov	r9, r2
100008f0:	b5e0      	push	{r5, r6, r7, lr}
100008f2:	0004      	movs	r4, r0
100008f4:	469a      	mov	sl, r3
100008f6:	6842      	ldr	r2, [r0, #4]
100008f8:	f3ef 8810 	mrs	r8, PRIMASK
100008fc:	b672      	cpsid	i
100008fe:	6813      	ldr	r3, [r2, #0]
10000900:	2b00      	cmp	r3, #0
10000902:	d0fc      	beq.n	100008fe <alarm_pool_add_alarm_at.constprop.0+0x1a>
10000904:	f3bf 8f5f 	dmb	sy
10000908:	6826      	ldr	r6, [r4, #0]
1000090a:	7bb5      	ldrb	r5, [r6, #14]
1000090c:	2d00      	cmp	r5, #0
1000090e:	d048      	beq.n	100009a2 <alarm_pool_add_alarm_at.constprop.0+0xbe>
10000910:	006f      	lsls	r7, r5, #1
10000912:	6833      	ldr	r3, [r6, #0]
10000914:	197f      	adds	r7, r7, r5
10000916:	3f03      	subs	r7, #3
10000918:	19d9      	adds	r1, r3, r7
1000091a:	784b      	ldrb	r3, [r1, #1]
1000091c:	73b3      	strb	r3, [r6, #14]
1000091e:	2b00      	cmp	r3, #0
10000920:	d100      	bne.n	10000924 <alarm_pool_add_alarm_at.constprop.0+0x40>
10000922:	73f3      	strb	r3, [r6, #15]
10000924:	68a2      	ldr	r2, [r4, #8]
10000926:	4b32      	ldr	r3, [pc, #200]	; (100009f0 <alarm_pool_add_alarm_at.constprop.0+0x10c>)
10000928:	4694      	mov	ip, r2
1000092a:	464a      	mov	r2, r9
1000092c:	18eb      	adds	r3, r5, r3
1000092e:	011b      	lsls	r3, r3, #4
10000930:	4463      	add	r3, ip
10000932:	601a      	str	r2, [r3, #0]
10000934:	4652      	mov	r2, sl
10000936:	605a      	str	r2, [r3, #4]
10000938:	4a2e      	ldr	r2, [pc, #184]	; (100009f4 <alarm_pool_add_alarm_at.constprop.0+0x110>)
1000093a:	609a      	str	r2, [r3, #8]
1000093c:	2200      	movs	r2, #0
1000093e:	60da      	str	r2, [r3, #12]
10000940:	708a      	strb	r2, [r1, #2]
10000942:	704a      	strb	r2, [r1, #1]
10000944:	700a      	strb	r2, [r1, #0]
10000946:	7b73      	ldrb	r3, [r6, #13]
10000948:	469b      	mov	fp, r3
1000094a:	2b00      	cmp	r3, #0
1000094c:	d03f      	beq.n	100009ce <alarm_pool_add_alarm_at.constprop.0+0xea>
1000094e:	002a      	movs	r2, r5
10000950:	0019      	movs	r1, r3
10000952:	68b0      	ldr	r0, [r6, #8]
10000954:	6873      	ldr	r3, [r6, #4]
10000956:	4798      	blx	r3
10000958:	465b      	mov	r3, fp
1000095a:	005b      	lsls	r3, r3, #1
1000095c:	445b      	add	r3, fp
1000095e:	6832      	ldr	r2, [r6, #0]
10000960:	3b03      	subs	r3, #3
10000962:	2800      	cmp	r0, #0
10000964:	d02b      	beq.n	100009be <alarm_pool_add_alarm_at.constprop.0+0xda>
10000966:	4658      	mov	r0, fp
10000968:	19d7      	adds	r7, r2, r7
1000096a:	70b8      	strb	r0, [r7, #2]
1000096c:	18d1      	adds	r1, r2, r3
1000096e:	5cd3      	ldrb	r3, [r2, r3]
10000970:	2b00      	cmp	r3, #0
10000972:	d13b      	bne.n	100009ec <alarm_pool_add_alarm_at.constprop.0+0x108>
10000974:	465b      	mov	r3, fp
10000976:	700d      	strb	r5, [r1, #0]
10000978:	7373      	strb	r3, [r6, #13]
1000097a:	455d      	cmp	r5, fp
1000097c:	d028      	beq.n	100009d0 <alarm_pool_add_alarm_at.constprop.0+0xec>
1000097e:	2600      	movs	r6, #0
10000980:	68e3      	ldr	r3, [r4, #12]
10000982:	195b      	adds	r3, r3, r5
10000984:	3b01      	subs	r3, #1
10000986:	7819      	ldrb	r1, [r3, #0]
10000988:	6863      	ldr	r3, [r4, #4]
1000098a:	f3bf 8f5f 	dmb	sy
1000098e:	2200      	movs	r2, #0
10000990:	601a      	str	r2, [r3, #0]
10000992:	f388 8810 	msr	PRIMASK, r8
10000996:	2000      	movs	r0, #0
10000998:	2e00      	cmp	r6, #0
1000099a:	d10a      	bne.n	100009b2 <alarm_pool_add_alarm_at.constprop.0+0xce>
1000099c:	0208      	lsls	r0, r1, #8
1000099e:	4328      	orrs	r0, r5
100009a0:	e007      	b.n	100009b2 <alarm_pool_add_alarm_at.constprop.0+0xce>
100009a2:	6863      	ldr	r3, [r4, #4]
100009a4:	f3bf 8f5f 	dmb	sy
100009a8:	601d      	str	r5, [r3, #0]
100009aa:	f388 8810 	msr	PRIMASK, r8
100009ae:	2001      	movs	r0, #1
100009b0:	4240      	negs	r0, r0
100009b2:	bcf0      	pop	{r4, r5, r6, r7}
100009b4:	46bb      	mov	fp, r7
100009b6:	46b2      	mov	sl, r6
100009b8:	46a9      	mov	r9, r5
100009ba:	46a0      	mov	r8, r4
100009bc:	bdf8      	pop	{r3, r4, r5, r6, r7, pc}
100009be:	18d3      	adds	r3, r2, r3
100009c0:	709d      	strb	r5, [r3, #2]
100009c2:	19d1      	adds	r1, r2, r7
100009c4:	5dd2      	ldrb	r2, [r2, r7]
100009c6:	2a00      	cmp	r2, #0
100009c8:	d10e      	bne.n	100009e8 <alarm_pool_add_alarm_at.constprop.0+0x104>
100009ca:	465b      	mov	r3, fp
100009cc:	700b      	strb	r3, [r1, #0]
100009ce:	7375      	strb	r5, [r6, #13]
100009d0:	464a      	mov	r2, r9
100009d2:	4653      	mov	r3, sl
100009d4:	7d20      	ldrb	r0, [r4, #20]
100009d6:	f000 fa45 	bl	10000e64 <hardware_alarm_set_target>
100009da:	1e06      	subs	r6, r0, #0
100009dc:	d0cf      	beq.n	1000097e <alarm_pool_add_alarm_at.constprop.0+0x9a>
100009de:	0029      	movs	r1, r5
100009e0:	6820      	ldr	r0, [r4, #0]
100009e2:	f000 fc83 	bl	100012ec <ph_delete>
100009e6:	e7cb      	b.n	10000980 <alarm_pool_add_alarm_at.constprop.0+0x9c>
100009e8:	705a      	strb	r2, [r3, #1]
100009ea:	e7ee      	b.n	100009ca <alarm_pool_add_alarm_at.constprop.0+0xe6>
100009ec:	707b      	strb	r3, [r7, #1]
100009ee:	e7c1      	b.n	10000974 <alarm_pool_add_alarm_at.constprop.0+0x90>
100009f0:	0fffffff 	.word	0x0fffffff
100009f4:	10000609 	.word	0x10000609

100009f8 <alarm_pool_init_default>:
100009f8:	b570      	push	{r4, r5, r6, lr}
100009fa:	4c18      	ldr	r4, [pc, #96]	; (10000a5c <alarm_pool_init_default+0x64>)
100009fc:	6823      	ldr	r3, [r4, #0]
100009fe:	2b00      	cmp	r3, #0
10000a00:	d000      	beq.n	10000a04 <alarm_pool_init_default+0xc>
10000a02:	bd70      	pop	{r4, r5, r6, pc}
10000a04:	2003      	movs	r0, #3
10000a06:	f000 f9d1 	bl	10000dac <hardware_alarm_claim>
10000a0a:	2003      	movs	r0, #3
10000a0c:	f000 fa8c 	bl	10000f28 <hardware_alarm_cancel>
10000a10:	4913      	ldr	r1, [pc, #76]	; (10000a60 <alarm_pool_init_default+0x68>)
10000a12:	2003      	movs	r0, #3
10000a14:	f000 f9e0 	bl	10000dd8 <hardware_alarm_set_callback>
10000a18:	2018      	movs	r0, #24
10000a1a:	f001 f9f7 	bl	10001e0c <__wrap_malloc>
10000a1e:	0005      	movs	r5, r0
10000a20:	f7ff fd44 	bl	100004ac <next_striped_spin_lock_num>
10000a24:	4b0f      	ldr	r3, [pc, #60]	; (10000a64 <alarm_pool_init_default+0x6c>)
10000a26:	002a      	movs	r2, r5
10000a28:	469c      	mov	ip, r3
10000a2a:	4460      	add	r0, ip
10000a2c:	0080      	lsls	r0, r0, #2
10000a2e:	490e      	ldr	r1, [pc, #56]	; (10000a68 <alarm_pool_init_default+0x70>)
10000a30:	6068      	str	r0, [r5, #4]
10000a32:	2010      	movs	r0, #16
10000a34:	f000 fae6 	bl	10001004 <ph_create>
10000a38:	2110      	movs	r1, #16
10000a3a:	6028      	str	r0, [r5, #0]
10000a3c:	2010      	movs	r0, #16
10000a3e:	f001 f9e9 	bl	10001e14 <__wrap_calloc>
10000a42:	2101      	movs	r1, #1
10000a44:	60a8      	str	r0, [r5, #8]
10000a46:	2010      	movs	r0, #16
10000a48:	f001 f9e4 	bl	10001e14 <__wrap_calloc>
10000a4c:	2303      	movs	r3, #3
10000a4e:	752b      	strb	r3, [r5, #20]
10000a50:	4b06      	ldr	r3, [pc, #24]	; (10000a6c <alarm_pool_init_default+0x74>)
10000a52:	60e8      	str	r0, [r5, #12]
10000a54:	60dd      	str	r5, [r3, #12]
10000a56:	6025      	str	r5, [r4, #0]
10000a58:	e7d3      	b.n	10000a02 <alarm_pool_init_default+0xa>
10000a5a:	46c0      	nop			; (mov r8, r8)
10000a5c:	20001228 	.word	0x20001228
10000a60:	1000071d 	.word	0x1000071d
10000a64:	34000040 	.word	0x34000040
10000a68:	100005d5 	.word	0x100005d5
10000a6c:	20001904 	.word	0x20001904

10000a70 <alarm_pool_get_default>:
10000a70:	4b01      	ldr	r3, [pc, #4]	; (10000a78 <alarm_pool_get_default+0x8>)
10000a72:	6818      	ldr	r0, [r3, #0]
10000a74:	4770      	bx	lr
10000a76:	46c0      	nop			; (mov r8, r8)
10000a78:	20001228 	.word	0x20001228

10000a7c <alarm_pool_add_alarm_at>:
10000a7c:	b5f0      	push	{r4, r5, r6, r7, lr}
10000a7e:	4645      	mov	r5, r8
10000a80:	46de      	mov	lr, fp
10000a82:	4657      	mov	r7, sl
10000a84:	464e      	mov	r6, r9
10000a86:	b5e0      	push	{r5, r6, r7, lr}
10000a88:	b085      	sub	sp, #20
10000a8a:	9301      	str	r3, [sp, #4]
10000a8c:	ab10      	add	r3, sp, #64	; 0x40
10000a8e:	781b      	ldrb	r3, [r3, #0]
10000a90:	0005      	movs	r5, r0
10000a92:	9303      	str	r3, [sp, #12]
10000a94:	2300      	movs	r3, #0
10000a96:	469b      	mov	fp, r3
10000a98:	4698      	mov	r8, r3
10000a9a:	9200      	str	r2, [sp, #0]
10000a9c:	686a      	ldr	r2, [r5, #4]
10000a9e:	f3ef 8a10 	mrs	sl, PRIMASK
10000aa2:	b672      	cpsid	i
10000aa4:	6813      	ldr	r3, [r2, #0]
10000aa6:	2b00      	cmp	r3, #0
10000aa8:	d0fc      	beq.n	10000aa4 <alarm_pool_add_alarm_at+0x28>
10000aaa:	f3bf 8f5f 	dmb	sy
10000aae:	682e      	ldr	r6, [r5, #0]
10000ab0:	7bb4      	ldrb	r4, [r6, #14]
10000ab2:	2c00      	cmp	r4, #0
10000ab4:	d100      	bne.n	10000ab8 <alarm_pool_add_alarm_at+0x3c>
10000ab6:	e081      	b.n	10000bbc <alarm_pool_add_alarm_at+0x140>
10000ab8:	0067      	lsls	r7, r4, #1
10000aba:	6833      	ldr	r3, [r6, #0]
10000abc:	193f      	adds	r7, r7, r4
10000abe:	3f03      	subs	r7, #3
10000ac0:	19db      	adds	r3, r3, r7
10000ac2:	785a      	ldrb	r2, [r3, #1]
10000ac4:	73b2      	strb	r2, [r6, #14]
10000ac6:	2a00      	cmp	r2, #0
10000ac8:	d100      	bne.n	10000acc <alarm_pool_add_alarm_at+0x50>
10000aca:	73f2      	strb	r2, [r6, #15]
10000acc:	68a9      	ldr	r1, [r5, #8]
10000ace:	4a54      	ldr	r2, [pc, #336]	; (10000c20 <alarm_pool_add_alarm_at+0x1a4>)
10000ad0:	468c      	mov	ip, r1
10000ad2:	9800      	ldr	r0, [sp, #0]
10000ad4:	9901      	ldr	r1, [sp, #4]
10000ad6:	18a2      	adds	r2, r4, r2
10000ad8:	0112      	lsls	r2, r2, #4
10000ada:	4462      	add	r2, ip
10000adc:	6010      	str	r0, [r2, #0]
10000ade:	6051      	str	r1, [r2, #4]
10000ae0:	990e      	ldr	r1, [sp, #56]	; 0x38
10000ae2:	6091      	str	r1, [r2, #8]
10000ae4:	990f      	ldr	r1, [sp, #60]	; 0x3c
10000ae6:	60d1      	str	r1, [r2, #12]
10000ae8:	4642      	mov	r2, r8
10000aea:	709a      	strb	r2, [r3, #2]
10000aec:	705a      	strb	r2, [r3, #1]
10000aee:	701a      	strb	r2, [r3, #0]
10000af0:	7b73      	ldrb	r3, [r6, #13]
10000af2:	4699      	mov	r9, r3
10000af4:	2b00      	cmp	r3, #0
10000af6:	d100      	bne.n	10000afa <alarm_pool_add_alarm_at+0x7e>
10000af8:	e07a      	b.n	10000bf0 <alarm_pool_add_alarm_at+0x174>
10000afa:	0022      	movs	r2, r4
10000afc:	0019      	movs	r1, r3
10000afe:	68b0      	ldr	r0, [r6, #8]
10000b00:	6873      	ldr	r3, [r6, #4]
10000b02:	4798      	blx	r3
10000b04:	464b      	mov	r3, r9
10000b06:	005b      	lsls	r3, r3, #1
10000b08:	444b      	add	r3, r9
10000b0a:	6832      	ldr	r2, [r6, #0]
10000b0c:	3b03      	subs	r3, #3
10000b0e:	2800      	cmp	r0, #0
10000b10:	d066      	beq.n	10000be0 <alarm_pool_add_alarm_at+0x164>
10000b12:	4648      	mov	r0, r9
10000b14:	19d7      	adds	r7, r2, r7
10000b16:	70b8      	strb	r0, [r7, #2]
10000b18:	18d1      	adds	r1, r2, r3
10000b1a:	5cd3      	ldrb	r3, [r2, r3]
10000b1c:	2b00      	cmp	r3, #0
10000b1e:	d000      	beq.n	10000b22 <alarm_pool_add_alarm_at+0xa6>
10000b20:	e079      	b.n	10000c16 <alarm_pool_add_alarm_at+0x19a>
10000b22:	464b      	mov	r3, r9
10000b24:	700c      	strb	r4, [r1, #0]
10000b26:	7373      	strb	r3, [r6, #13]
10000b28:	454c      	cmp	r4, r9
10000b2a:	d062      	beq.n	10000bf2 <alarm_pool_add_alarm_at+0x176>
10000b2c:	68eb      	ldr	r3, [r5, #12]
10000b2e:	191b      	adds	r3, r3, r4
10000b30:	3b01      	subs	r3, #1
10000b32:	7818      	ldrb	r0, [r3, #0]
10000b34:	686b      	ldr	r3, [r5, #4]
10000b36:	f3bf 8f5f 	dmb	sy
10000b3a:	4642      	mov	r2, r8
10000b3c:	601a      	str	r2, [r3, #0]
10000b3e:	f38a 8810 	msr	PRIMASK, sl
10000b42:	465b      	mov	r3, fp
10000b44:	2b00      	cmp	r3, #0
10000b46:	d108      	bne.n	10000b5a <alarm_pool_add_alarm_at+0xde>
10000b48:	0200      	lsls	r0, r0, #8
10000b4a:	4320      	orrs	r0, r4
10000b4c:	b005      	add	sp, #20
10000b4e:	bcf0      	pop	{r4, r5, r6, r7}
10000b50:	46bb      	mov	fp, r7
10000b52:	46b2      	mov	sl, r6
10000b54:	46a9      	mov	r9, r5
10000b56:	46a0      	mov	r8, r4
10000b58:	bdf0      	pop	{r4, r5, r6, r7, pc}
10000b5a:	9b03      	ldr	r3, [sp, #12]
10000b5c:	2b00      	cmp	r3, #0
10000b5e:	d05c      	beq.n	10000c1a <alarm_pool_add_alarm_at+0x19e>
10000b60:	9b0e      	ldr	r3, [sp, #56]	; 0x38
10000b62:	2000      	movs	r0, #0
10000b64:	990f      	ldr	r1, [sp, #60]	; 0x3c
10000b66:	4798      	blx	r3
10000b68:	0003      	movs	r3, r0
10000b6a:	430b      	orrs	r3, r1
10000b6c:	d055      	beq.n	10000c1a <alarm_pool_add_alarm_at+0x19e>
10000b6e:	0006      	movs	r6, r0
10000b70:	1e0f      	subs	r7, r1, #0
10000b72:	da0d      	bge.n	10000b90 <alarm_pool_add_alarm_at+0x114>
10000b74:	9800      	ldr	r0, [sp, #0]
10000b76:	9901      	ldr	r1, [sp, #4]
10000b78:	0002      	movs	r2, r0
10000b7a:	000b      	movs	r3, r1
10000b7c:	1b92      	subs	r2, r2, r6
10000b7e:	41bb      	sbcs	r3, r7
10000b80:	4299      	cmp	r1, r3
10000b82:	d815      	bhi.n	10000bb0 <alarm_pool_add_alarm_at+0x134>
10000b84:	d023      	beq.n	10000bce <alarm_pool_add_alarm_at+0x152>
10000b86:	9200      	str	r2, [sp, #0]
10000b88:	9301      	str	r3, [sp, #4]
10000b8a:	9b03      	ldr	r3, [sp, #12]
10000b8c:	469b      	mov	fp, r3
10000b8e:	e785      	b.n	10000a9c <alarm_pool_add_alarm_at+0x20>
10000b90:	f000 f918 	bl	10000dc4 <time_us_64>
10000b94:	0002      	movs	r2, r0
10000b96:	000b      	movs	r3, r1
10000b98:	18b6      	adds	r6, r6, r2
10000b9a:	415f      	adcs	r7, r3
10000b9c:	0030      	movs	r0, r6
10000b9e:	0039      	movs	r1, r7
10000ba0:	9000      	str	r0, [sp, #0]
10000ba2:	9101      	str	r1, [sp, #4]
10000ba4:	42bb      	cmp	r3, r7
10000ba6:	d803      	bhi.n	10000bb0 <alarm_pool_add_alarm_at+0x134>
10000ba8:	d1ef      	bne.n	10000b8a <alarm_pool_add_alarm_at+0x10e>
10000baa:	9900      	ldr	r1, [sp, #0]
10000bac:	428a      	cmp	r2, r1
10000bae:	d9ec      	bls.n	10000b8a <alarm_pool_add_alarm_at+0x10e>
10000bb0:	2301      	movs	r3, #1
10000bb2:	425b      	negs	r3, r3
10000bb4:	17dc      	asrs	r4, r3, #31
10000bb6:	9300      	str	r3, [sp, #0]
10000bb8:	9401      	str	r4, [sp, #4]
10000bba:	e7e6      	b.n	10000b8a <alarm_pool_add_alarm_at+0x10e>
10000bbc:	686b      	ldr	r3, [r5, #4]
10000bbe:	f3bf 8f5f 	dmb	sy
10000bc2:	601c      	str	r4, [r3, #0]
10000bc4:	f38a 8810 	msr	PRIMASK, sl
10000bc8:	2001      	movs	r0, #1
10000bca:	4240      	negs	r0, r0
10000bcc:	e7be      	b.n	10000b4c <alarm_pool_add_alarm_at+0xd0>
10000bce:	9900      	ldr	r1, [sp, #0]
10000bd0:	4291      	cmp	r1, r2
10000bd2:	d9d8      	bls.n	10000b86 <alarm_pool_add_alarm_at+0x10a>
10000bd4:	2301      	movs	r3, #1
10000bd6:	425b      	negs	r3, r3
10000bd8:	17dc      	asrs	r4, r3, #31
10000bda:	9300      	str	r3, [sp, #0]
10000bdc:	9401      	str	r4, [sp, #4]
10000bde:	e7d4      	b.n	10000b8a <alarm_pool_add_alarm_at+0x10e>
10000be0:	18d3      	adds	r3, r2, r3
10000be2:	709c      	strb	r4, [r3, #2]
10000be4:	19d1      	adds	r1, r2, r7
10000be6:	5dd2      	ldrb	r2, [r2, r7]
10000be8:	2a00      	cmp	r2, #0
10000bea:	d110      	bne.n	10000c0e <alarm_pool_add_alarm_at+0x192>
10000bec:	464b      	mov	r3, r9
10000bee:	700b      	strb	r3, [r1, #0]
10000bf0:	7374      	strb	r4, [r6, #13]
10000bf2:	7d28      	ldrb	r0, [r5, #20]
10000bf4:	9a00      	ldr	r2, [sp, #0]
10000bf6:	9b01      	ldr	r3, [sp, #4]
10000bf8:	f000 f934 	bl	10000e64 <hardware_alarm_set_target>
10000bfc:	4683      	mov	fp, r0
10000bfe:	2800      	cmp	r0, #0
10000c00:	d100      	bne.n	10000c04 <alarm_pool_add_alarm_at+0x188>
10000c02:	e793      	b.n	10000b2c <alarm_pool_add_alarm_at+0xb0>
10000c04:	0021      	movs	r1, r4
10000c06:	6828      	ldr	r0, [r5, #0]
10000c08:	f000 fb70 	bl	100012ec <ph_delete>
10000c0c:	e78e      	b.n	10000b2c <alarm_pool_add_alarm_at+0xb0>
10000c0e:	705a      	strb	r2, [r3, #1]
10000c10:	464b      	mov	r3, r9
10000c12:	700b      	strb	r3, [r1, #0]
10000c14:	e7ec      	b.n	10000bf0 <alarm_pool_add_alarm_at+0x174>
10000c16:	707b      	strb	r3, [r7, #1]
10000c18:	e783      	b.n	10000b22 <alarm_pool_add_alarm_at+0xa6>
10000c1a:	2000      	movs	r0, #0
10000c1c:	e796      	b.n	10000b4c <alarm_pool_add_alarm_at+0xd0>
10000c1e:	46c0      	nop			; (mov r8, r8)
10000c20:	0fffffff 	.word	0x0fffffff

10000c24 <alarm_pool_cancel_alarm>:
10000c24:	b5f8      	push	{r3, r4, r5, r6, r7, lr}
10000c26:	6842      	ldr	r2, [r0, #4]
10000c28:	0004      	movs	r4, r0
10000c2a:	f3ef 8510 	mrs	r5, PRIMASK
10000c2e:	b672      	cpsid	i
10000c30:	6813      	ldr	r3, [r2, #0]
10000c32:	2b00      	cmp	r3, #0
10000c34:	d0fc      	beq.n	10000c30 <alarm_pool_cancel_alarm+0xc>
10000c36:	f3bf 8f5f 	dmb	sy
10000c3a:	23ff      	movs	r3, #255	; 0xff
10000c3c:	6820      	ldr	r0, [r4, #0]
10000c3e:	b2ce      	uxtb	r6, r1
10000c40:	7b42      	ldrb	r2, [r0, #13]
10000c42:	400b      	ands	r3, r1
10000c44:	42b2      	cmp	r2, r6
10000c46:	d008      	beq.n	10000c5a <alarm_pool_cancel_alarm+0x36>
10000c48:	6807      	ldr	r7, [r0, #0]
10000c4a:	005a      	lsls	r2, r3, #1
10000c4c:	46bc      	mov	ip, r7
10000c4e:	18d2      	adds	r2, r2, r3
10000c50:	4462      	add	r2, ip
10000c52:	3a03      	subs	r2, #3
10000c54:	7892      	ldrb	r2, [r2, #2]
10000c56:	2a00      	cmp	r2, #0
10000c58:	d011      	beq.n	10000c7e <alarm_pool_cancel_alarm+0x5a>
10000c5a:	68e2      	ldr	r2, [r4, #12]
10000c5c:	0a09      	lsrs	r1, r1, #8
10000c5e:	4694      	mov	ip, r2
10000c60:	4463      	add	r3, ip
10000c62:	3b01      	subs	r3, #1
10000c64:	781b      	ldrb	r3, [r3, #0]
10000c66:	b2c9      	uxtb	r1, r1
10000c68:	428b      	cmp	r3, r1
10000c6a:	d00e      	beq.n	10000c8a <alarm_pool_cancel_alarm+0x66>
10000c6c:	2000      	movs	r0, #0
10000c6e:	6863      	ldr	r3, [r4, #4]
10000c70:	f3bf 8f5f 	dmb	sy
10000c74:	2200      	movs	r2, #0
10000c76:	601a      	str	r2, [r3, #0]
10000c78:	f385 8810 	msr	PRIMASK, r5
10000c7c:	bdf8      	pop	{r3, r4, r5, r6, r7, pc}
10000c7e:	6923      	ldr	r3, [r4, #16]
10000c80:	428b      	cmp	r3, r1
10000c82:	d1f3      	bne.n	10000c6c <alarm_pool_cancel_alarm+0x48>
10000c84:	2000      	movs	r0, #0
10000c86:	6122      	str	r2, [r4, #16]
10000c88:	e7f1      	b.n	10000c6e <alarm_pool_cancel_alarm+0x4a>
10000c8a:	0031      	movs	r1, r6
10000c8c:	f000 fb2e 	bl	100012ec <ph_delete>
10000c90:	e7ed      	b.n	10000c6e <alarm_pool_cancel_alarm+0x4a>
10000c92:	46c0      	nop			; (mov r8, r8)

10000c94 <best_effort_wfe_or_timeout>:
10000c94:	b570      	push	{r4, r5, r6, lr}
10000c96:	4d15      	ldr	r5, [pc, #84]	; (10000cec <best_effort_wfe_or_timeout+0x58>)
10000c98:	0002      	movs	r2, r0
10000c9a:	000b      	movs	r3, r1
10000c9c:	0006      	movs	r6, r0
10000c9e:	6828      	ldr	r0, [r5, #0]
10000ca0:	000c      	movs	r4, r1
10000ca2:	f7ff fe1f 	bl	100008e4 <alarm_pool_add_alarm_at.constprop.0>
10000ca6:	1e01      	subs	r1, r0, #0
10000ca8:	dc09      	bgt.n	10000cbe <best_effort_wfe_or_timeout+0x2a>
10000caa:	4b11      	ldr	r3, [pc, #68]	; (10000cf0 <best_effort_wfe_or_timeout+0x5c>)
10000cac:	2000      	movs	r0, #0
10000cae:	6a59      	ldr	r1, [r3, #36]	; 0x24
10000cb0:	42a1      	cmp	r1, r4
10000cb2:	d303      	bcc.n	10000cbc <best_effort_wfe_or_timeout+0x28>
10000cb4:	6a9b      	ldr	r3, [r3, #40]	; 0x28
10000cb6:	3001      	adds	r0, #1
10000cb8:	42b3      	cmp	r3, r6
10000cba:	d312      	bcc.n	10000ce2 <best_effort_wfe_or_timeout+0x4e>
10000cbc:	bd70      	pop	{r4, r5, r6, pc}
10000cbe:	bf20      	wfe
10000cc0:	6828      	ldr	r0, [r5, #0]
10000cc2:	f7ff ffaf 	bl	10000c24 <alarm_pool_cancel_alarm>
10000cc6:	4a0a      	ldr	r2, [pc, #40]	; (10000cf0 <best_effort_wfe_or_timeout+0x5c>)
10000cc8:	2000      	movs	r0, #0
10000cca:	6a53      	ldr	r3, [r2, #36]	; 0x24
10000ccc:	42a3      	cmp	r3, r4
10000cce:	d3f5      	bcc.n	10000cbc <best_effort_wfe_or_timeout+0x28>
10000cd0:	6a92      	ldr	r2, [r2, #40]	; 0x28
10000cd2:	3001      	adds	r0, #1
10000cd4:	42b2      	cmp	r2, r6
10000cd6:	d2f1      	bcs.n	10000cbc <best_effort_wfe_or_timeout+0x28>
10000cd8:	1b18      	subs	r0, r3, r4
10000cda:	1e42      	subs	r2, r0, #1
10000cdc:	4190      	sbcs	r0, r2
10000cde:	b2c0      	uxtb	r0, r0
10000ce0:	e7ec      	b.n	10000cbc <best_effort_wfe_or_timeout+0x28>
10000ce2:	1b08      	subs	r0, r1, r4
10000ce4:	1e43      	subs	r3, r0, #1
10000ce6:	4198      	sbcs	r0, r3
10000ce8:	b2c0      	uxtb	r0, r0
10000cea:	e7e7      	b.n	10000cbc <best_effort_wfe_or_timeout+0x28>
10000cec:	20001228 	.word	0x20001228
10000cf0:	40054000 	.word	0x40054000

10000cf4 <hardware_alarm_irq_handler>:
10000cf4:	b5f0      	push	{r4, r5, r6, r7, lr}
10000cf6:	46d6      	mov	lr, sl
10000cf8:	464f      	mov	r7, r9
10000cfa:	4646      	mov	r6, r8
10000cfc:	b5c0      	push	{r6, r7, lr}
10000cfe:	f3ef 8305 	mrs	r3, IPSR
10000d02:	223f      	movs	r2, #63	; 0x3f
10000d04:	4013      	ands	r3, r2
10000d06:	0018      	movs	r0, r3
10000d08:	3810      	subs	r0, #16
10000d0a:	f3ef 8c10 	mrs	ip, PRIMASK
10000d0e:	b672      	cpsid	i
10000d10:	4d20      	ldr	r5, [pc, #128]	; (10000d94 <hardware_alarm_irq_handler+0xa0>)
10000d12:	682a      	ldr	r2, [r5, #0]
10000d14:	2a00      	cmp	r2, #0
10000d16:	d0fc      	beq.n	10000d12 <hardware_alarm_irq_handler+0x1e>
10000d18:	f3bf 8f5f 	dmb	sy
10000d1c:	2201      	movs	r2, #1
10000d1e:	0011      	movs	r1, r2
10000d20:	4081      	lsls	r1, r0
10000d22:	4c1d      	ldr	r4, [pc, #116]	; (10000d98 <hardware_alarm_irq_handler+0xa4>)
10000d24:	4688      	mov	r8, r1
10000d26:	6361      	str	r1, [r4, #52]	; 0x34
10000d28:	491c      	ldr	r1, [pc, #112]	; (10000d9c <hardware_alarm_irq_handler+0xa8>)
10000d2a:	0017      	movs	r7, r2
10000d2c:	780e      	ldrb	r6, [r1, #0]
10000d2e:	468a      	mov	sl, r1
10000d30:	0031      	movs	r1, r6
10000d32:	40c1      	lsrs	r1, r0
10000d34:	400f      	ands	r7, r1
10000d36:	420a      	tst	r2, r1
10000d38:	d109      	bne.n	10000d4e <hardware_alarm_irq_handler+0x5a>
10000d3a:	f3bf 8f5f 	dmb	sy
10000d3e:	602f      	str	r7, [r5, #0]
10000d40:	f38c 8810 	msr	PRIMASK, ip
10000d44:	bce0      	pop	{r5, r6, r7}
10000d46:	46ba      	mov	sl, r7
10000d48:	46b1      	mov	r9, r6
10000d4a:	46a8      	mov	r8, r5
10000d4c:	bdf0      	pop	{r4, r5, r6, r7, pc}
10000d4e:	4914      	ldr	r1, [pc, #80]	; (10000da0 <hardware_alarm_irq_handler+0xac>)
10000d50:	0082      	lsls	r2, r0, #2
10000d52:	6a64      	ldr	r4, [r4, #36]	; 0x24
10000d54:	5851      	ldr	r1, [r2, r1]
10000d56:	428c      	cmp	r4, r1
10000d58:	d30f      	bcc.n	10000d7a <hardware_alarm_irq_handler+0x86>
10000d5a:	4b12      	ldr	r3, [pc, #72]	; (10000da4 <hardware_alarm_irq_handler+0xb0>)
10000d5c:	58d2      	ldr	r2, [r2, r3]
10000d5e:	4643      	mov	r3, r8
10000d60:	439e      	bics	r6, r3
10000d62:	4653      	mov	r3, sl
10000d64:	701e      	strb	r6, [r3, #0]
10000d66:	f3bf 8f5f 	dmb	sy
10000d6a:	2300      	movs	r3, #0
10000d6c:	602b      	str	r3, [r5, #0]
10000d6e:	f38c 8810 	msr	PRIMASK, ip
10000d72:	2a00      	cmp	r2, #0
10000d74:	d0e6      	beq.n	10000d44 <hardware_alarm_irq_handler+0x50>
10000d76:	4790      	blx	r2
10000d78:	e7e4      	b.n	10000d44 <hardware_alarm_irq_handler+0x50>
10000d7a:	4a0b      	ldr	r2, [pc, #44]	; (10000da8 <hardware_alarm_irq_handler+0xb4>)
10000d7c:	009b      	lsls	r3, r3, #2
10000d7e:	4690      	mov	r8, r2
10000d80:	4443      	add	r3, r8
10000d82:	681a      	ldr	r2, [r3, #0]
10000d84:	601a      	str	r2, [r3, #0]
10000d86:	f3bf 8f5f 	dmb	sy
10000d8a:	2300      	movs	r3, #0
10000d8c:	602b      	str	r3, [r5, #0]
10000d8e:	f38c 8810 	msr	PRIMASK, ip
10000d92:	e7d7      	b.n	10000d44 <hardware_alarm_irq_handler+0x50>
10000d94:	d0000128 	.word	0xd0000128
10000d98:	40054000 	.word	0x40054000
10000d9c:	20001939 	.word	0x20001939
10000da0:	20001920 	.word	0x20001920
10000da4:	200011ec 	.word	0x200011ec
10000da8:	40053fd0 	.word	0x40053fd0

10000dac <hardware_alarm_claim>:
10000dac:	b510      	push	{r4, lr}
10000dae:	0001      	movs	r1, r0
10000db0:	4a02      	ldr	r2, [pc, #8]	; (10000dbc <hardware_alarm_claim+0x10>)
10000db2:	4803      	ldr	r0, [pc, #12]	; (10000dc0 <hardware_alarm_claim+0x14>)
10000db4:	f7ff faf2 	bl	1000039c <hw_claim_or_assert>
10000db8:	bd10      	pop	{r4, pc}
10000dba:	46c0      	nop			; (mov r8, r8)
10000dbc:	10004c54 	.word	0x10004c54
10000dc0:	20001937 	.word	0x20001937

10000dc4 <time_us_64>:
10000dc4:	4b03      	ldr	r3, [pc, #12]	; (10000dd4 <time_us_64+0x10>)
10000dc6:	6a59      	ldr	r1, [r3, #36]	; 0x24
10000dc8:	000a      	movs	r2, r1
10000dca:	6a98      	ldr	r0, [r3, #40]	; 0x28
10000dcc:	6a59      	ldr	r1, [r3, #36]	; 0x24
10000dce:	428a      	cmp	r2, r1
10000dd0:	d1fa      	bne.n	10000dc8 <time_us_64+0x4>
10000dd2:	4770      	bx	lr
10000dd4:	40054000 	.word	0x40054000

10000dd8 <hardware_alarm_set_callback>:
10000dd8:	b570      	push	{r4, r5, r6, lr}
10000dda:	0004      	movs	r4, r0
10000ddc:	000d      	movs	r5, r1
10000dde:	f3ef 8610 	mrs	r6, PRIMASK
10000de2:	b672      	cpsid	i
10000de4:	4a1a      	ldr	r2, [pc, #104]	; (10000e50 <hardware_alarm_set_callback+0x78>)
10000de6:	6813      	ldr	r3, [r2, #0]
10000de8:	2b00      	cmp	r3, #0
10000dea:	d0fc      	beq.n	10000de6 <hardware_alarm_set_callback+0xe>
10000dec:	f3bf 8f5f 	dmb	sy
10000df0:	2d00      	cmp	r5, #0
10000df2:	d01b      	beq.n	10000e2c <hardware_alarm_set_callback+0x54>
10000df4:	0020      	movs	r0, r4
10000df6:	f000 fd41 	bl	1000187c <irq_get_vtable_handler>
10000dfa:	4916      	ldr	r1, [pc, #88]	; (10000e54 <hardware_alarm_set_callback+0x7c>)
10000dfc:	4281      	cmp	r1, r0
10000dfe:	d00a      	beq.n	10000e16 <hardware_alarm_set_callback+0x3e>
10000e00:	0020      	movs	r0, r4
10000e02:	f000 fd43 	bl	1000188c <irq_set_exclusive_handler>
10000e06:	2101      	movs	r1, #1
10000e08:	0020      	movs	r0, r4
10000e0a:	f000 fd1d 	bl	10001848 <irq_set_enabled>
10000e0e:	2301      	movs	r3, #1
10000e10:	40a3      	lsls	r3, r4
10000e12:	4a11      	ldr	r2, [pc, #68]	; (10000e58 <hardware_alarm_set_callback+0x80>)
10000e14:	6013      	str	r3, [r2, #0]
10000e16:	4b11      	ldr	r3, [pc, #68]	; (10000e5c <hardware_alarm_set_callback+0x84>)
10000e18:	00a4      	lsls	r4, r4, #2
10000e1a:	50e5      	str	r5, [r4, r3]
10000e1c:	f3bf 8f5f 	dmb	sy
10000e20:	2200      	movs	r2, #0
10000e22:	4b0b      	ldr	r3, [pc, #44]	; (10000e50 <hardware_alarm_set_callback+0x78>)
10000e24:	601a      	str	r2, [r3, #0]
10000e26:	f386 8810 	msr	PRIMASK, r6
10000e2a:	bd70      	pop	{r4, r5, r6, pc}
10000e2c:	4b0b      	ldr	r3, [pc, #44]	; (10000e5c <hardware_alarm_set_callback+0x84>)
10000e2e:	00a2      	lsls	r2, r4, #2
10000e30:	50d5      	str	r5, [r2, r3]
10000e32:	2201      	movs	r2, #1
10000e34:	40a2      	lsls	r2, r4
10000e36:	490a      	ldr	r1, [pc, #40]	; (10000e60 <hardware_alarm_set_callback+0x88>)
10000e38:	0020      	movs	r0, r4
10000e3a:	780b      	ldrb	r3, [r1, #0]
10000e3c:	4393      	bics	r3, r2
10000e3e:	700b      	strb	r3, [r1, #0]
10000e40:	4904      	ldr	r1, [pc, #16]	; (10000e54 <hardware_alarm_set_callback+0x7c>)
10000e42:	f000 fd4d 	bl	100018e0 <irq_remove_handler>
10000e46:	2100      	movs	r1, #0
10000e48:	0020      	movs	r0, r4
10000e4a:	f000 fcfd 	bl	10001848 <irq_set_enabled>
10000e4e:	e7e5      	b.n	10000e1c <hardware_alarm_set_callback+0x44>
10000e50:	d0000128 	.word	0xd0000128
10000e54:	10000cf5 	.word	0x10000cf5
10000e58:	40056038 	.word	0x40056038
10000e5c:	200011ec 	.word	0x200011ec
10000e60:	20001939 	.word	0x20001939

10000e64 <hardware_alarm_set_target>:
10000e64:	b5f0      	push	{r4, r5, r6, r7, lr}
10000e66:	46ce      	mov	lr, r9
10000e68:	4647      	mov	r7, r8
10000e6a:	b580      	push	{r7, lr}
10000e6c:	4c2a      	ldr	r4, [pc, #168]	; (10000f18 <hardware_alarm_set_target+0xb4>)
10000e6e:	6a61      	ldr	r1, [r4, #36]	; 0x24
10000e70:	000d      	movs	r5, r1
10000e72:	6aa6      	ldr	r6, [r4, #40]	; 0x28
10000e74:	6a61      	ldr	r1, [r4, #36]	; 0x24
10000e76:	42a9      	cmp	r1, r5
10000e78:	d1fa      	bne.n	10000e70 <hardware_alarm_set_target+0xc>
10000e7a:	428b      	cmp	r3, r1
10000e7c:	d807      	bhi.n	10000e8e <hardware_alarm_set_target+0x2a>
10000e7e:	d004      	beq.n	10000e8a <hardware_alarm_set_target+0x26>
10000e80:	2001      	movs	r0, #1
10000e82:	bcc0      	pop	{r6, r7}
10000e84:	46b9      	mov	r9, r7
10000e86:	46b0      	mov	r8, r6
10000e88:	bdf0      	pop	{r4, r5, r6, r7, pc}
10000e8a:	42b2      	cmp	r2, r6
10000e8c:	d9f8      	bls.n	10000e80 <hardware_alarm_set_target+0x1c>
10000e8e:	f3ef 8910 	mrs	r9, PRIMASK
10000e92:	b672      	cpsid	i
10000e94:	4c21      	ldr	r4, [pc, #132]	; (10000f1c <hardware_alarm_set_target+0xb8>)
10000e96:	6821      	ldr	r1, [r4, #0]
10000e98:	2900      	cmp	r1, #0
10000e9a:	d0fc      	beq.n	10000e96 <hardware_alarm_set_target+0x32>
10000e9c:	f3bf 8f5f 	dmb	sy
10000ea0:	2501      	movs	r5, #1
10000ea2:	4085      	lsls	r5, r0
10000ea4:	4c1c      	ldr	r4, [pc, #112]	; (10000f18 <hardware_alarm_set_target+0xb4>)
10000ea6:	4f1e      	ldr	r7, [pc, #120]	; (10000f20 <hardware_alarm_set_target+0xbc>)
10000ea8:	6365      	str	r5, [r4, #52]	; 0x34
10000eaa:	b2e9      	uxtb	r1, r5
10000eac:	4688      	mov	r8, r1
10000eae:	7839      	ldrb	r1, [r7, #0]
10000eb0:	468c      	mov	ip, r1
10000eb2:	4641      	mov	r1, r8
10000eb4:	4666      	mov	r6, ip
10000eb6:	4331      	orrs	r1, r6
10000eb8:	7039      	strb	r1, [r7, #0]
10000eba:	1d01      	adds	r1, r0, #4
10000ebc:	0089      	lsls	r1, r1, #2
10000ebe:	510a      	str	r2, [r1, r4]
10000ec0:	4918      	ldr	r1, [pc, #96]	; (10000f24 <hardware_alarm_set_target+0xc0>)
10000ec2:	0080      	lsls	r0, r0, #2
10000ec4:	5043      	str	r3, [r0, r1]
10000ec6:	6a21      	ldr	r1, [r4, #32]
10000ec8:	2000      	movs	r0, #0
10000eca:	4229      	tst	r1, r5
10000ecc:	d00b      	beq.n	10000ee6 <hardware_alarm_set_target+0x82>
10000ece:	6a61      	ldr	r1, [r4, #36]	; 0x24
10000ed0:	0008      	movs	r0, r1
10000ed2:	6aa6      	ldr	r6, [r4, #40]	; 0x28
10000ed4:	6a61      	ldr	r1, [r4, #36]	; 0x24
10000ed6:	4281      	cmp	r1, r0
10000ed8:	d1fa      	bne.n	10000ed0 <hardware_alarm_set_target+0x6c>
10000eda:	428b      	cmp	r3, r1
10000edc:	d802      	bhi.n	10000ee4 <hardware_alarm_set_target+0x80>
10000ede:	d10a      	bne.n	10000ef6 <hardware_alarm_set_target+0x92>
10000ee0:	42b2      	cmp	r2, r6
10000ee2:	d908      	bls.n	10000ef6 <hardware_alarm_set_target+0x92>
10000ee4:	2000      	movs	r0, #0
10000ee6:	f3bf 8f5f 	dmb	sy
10000eea:	2200      	movs	r2, #0
10000eec:	4b0b      	ldr	r3, [pc, #44]	; (10000f1c <hardware_alarm_set_target+0xb8>)
10000eee:	601a      	str	r2, [r3, #0]
10000ef0:	f389 8810 	msr	PRIMASK, r9
10000ef4:	e7c5      	b.n	10000e82 <hardware_alarm_set_target+0x1e>
10000ef6:	4b08      	ldr	r3, [pc, #32]	; (10000f18 <hardware_alarm_set_target+0xb4>)
10000ef8:	4642      	mov	r2, r8
10000efa:	621d      	str	r5, [r3, #32]
10000efc:	635d      	str	r5, [r3, #52]	; 0x34
10000efe:	4663      	mov	r3, ip
10000f00:	4393      	bics	r3, r2
10000f02:	2001      	movs	r0, #1
10000f04:	703b      	strb	r3, [r7, #0]
10000f06:	f3bf 8f5f 	dmb	sy
10000f0a:	2200      	movs	r2, #0
10000f0c:	4b03      	ldr	r3, [pc, #12]	; (10000f1c <hardware_alarm_set_target+0xb8>)
10000f0e:	601a      	str	r2, [r3, #0]
10000f10:	f389 8810 	msr	PRIMASK, r9
10000f14:	e7b5      	b.n	10000e82 <hardware_alarm_set_target+0x1e>
10000f16:	46c0      	nop			; (mov r8, r8)
10000f18:	40054000 	.word	0x40054000
10000f1c:	d0000128 	.word	0xd0000128
10000f20:	20001939 	.word	0x20001939
10000f24:	20001920 	.word	0x20001920

10000f28 <hardware_alarm_cancel>:
10000f28:	f3ef 8c10 	mrs	ip, PRIMASK
10000f2c:	b672      	cpsid	i
10000f2e:	490a      	ldr	r1, [pc, #40]	; (10000f58 <hardware_alarm_cancel+0x30>)
10000f30:	680b      	ldr	r3, [r1, #0]
10000f32:	2b00      	cmp	r3, #0
10000f34:	d0fc      	beq.n	10000f30 <hardware_alarm_cancel+0x8>
10000f36:	f3bf 8f5f 	dmb	sy
10000f3a:	2301      	movs	r3, #1
10000f3c:	4083      	lsls	r3, r0
10000f3e:	4a07      	ldr	r2, [pc, #28]	; (10000f5c <hardware_alarm_cancel+0x34>)
10000f40:	4807      	ldr	r0, [pc, #28]	; (10000f60 <hardware_alarm_cancel+0x38>)
10000f42:	6213      	str	r3, [r2, #32]
10000f44:	7802      	ldrb	r2, [r0, #0]
10000f46:	439a      	bics	r2, r3
10000f48:	7002      	strb	r2, [r0, #0]
10000f4a:	f3bf 8f5f 	dmb	sy
10000f4e:	2300      	movs	r3, #0
10000f50:	600b      	str	r3, [r1, #0]
10000f52:	f38c 8810 	msr	PRIMASK, ip
10000f56:	4770      	bx	lr
10000f58:	d0000128 	.word	0xd0000128
10000f5c:	40054000 	.word	0x40054000
10000f60:	20001939 	.word	0x20001939

10000f64 <lock_init>:
10000f64:	4b02      	ldr	r3, [pc, #8]	; (10000f70 <lock_init+0xc>)
10000f66:	469c      	mov	ip, r3
10000f68:	4461      	add	r1, ip
10000f6a:	0089      	lsls	r1, r1, #2
10000f6c:	6001      	str	r1, [r0, #0]
10000f6e:	4770      	bx	lr
10000f70:	34000040 	.word	0x34000040

10000f74 <mutex_init>:
10000f74:	b510      	push	{r4, lr}
10000f76:	0004      	movs	r4, r0
10000f78:	f7ff fa98 	bl	100004ac <next_striped_spin_lock_num>
10000f7c:	0001      	movs	r1, r0
10000f7e:	0020      	movs	r0, r4
10000f80:	f7ff fff0 	bl	10000f64 <lock_init>
10000f84:	23ff      	movs	r3, #255	; 0xff
10000f86:	7123      	strb	r3, [r4, #4]
10000f88:	f3bf 8f5f 	dmb	sy
10000f8c:	bd10      	pop	{r4, pc}
10000f8e:	46c0      	nop			; (mov r8, r8)

10000f90 <critical_section_init>:
10000f90:	b510      	push	{r4, lr}
10000f92:	0004      	movs	r4, r0
10000f94:	2001      	movs	r0, #1
10000f96:	f7ff fa95 	bl	100004c4 <spin_lock_claim_unused>
10000f9a:	0001      	movs	r1, r0
10000f9c:	0020      	movs	r0, r4
10000f9e:	f7ff ffe1 	bl	10000f64 <lock_init>
10000fa2:	f3bf 8f5f 	dmb	sy
10000fa6:	bd10      	pop	{r4, pc}

10000fa8 <ph_merge_nodes>:
10000fa8:	b570      	push	{r4, r5, r6, lr}
10000faa:	0005      	movs	r5, r0
10000fac:	0014      	movs	r4, r2
10000fae:	0016      	movs	r6, r2
10000fb0:	2900      	cmp	r1, #0
10000fb2:	d015      	beq.n	10000fe0 <ph_merge_nodes+0x38>
10000fb4:	000c      	movs	r4, r1
10000fb6:	2a00      	cmp	r2, #0
10000fb8:	d012      	beq.n	10000fe0 <ph_merge_nodes+0x38>
10000fba:	686b      	ldr	r3, [r5, #4]
10000fbc:	6880      	ldr	r0, [r0, #8]
10000fbe:	4798      	blx	r3
10000fc0:	0072      	lsls	r2, r6, #1
10000fc2:	0063      	lsls	r3, r4, #1
10000fc4:	1992      	adds	r2, r2, r6
10000fc6:	191b      	adds	r3, r3, r4
10000fc8:	6829      	ldr	r1, [r5, #0]
10000fca:	3a03      	subs	r2, #3
10000fcc:	3b03      	subs	r3, #3
10000fce:	2800      	cmp	r0, #0
10000fd0:	d008      	beq.n	10000fe4 <ph_merge_nodes+0x3c>
10000fd2:	188a      	adds	r2, r1, r2
10000fd4:	7094      	strb	r4, [r2, #2]
10000fd6:	18c8      	adds	r0, r1, r3
10000fd8:	5ccb      	ldrb	r3, [r1, r3]
10000fda:	2b00      	cmp	r3, #0
10000fdc:	d10f      	bne.n	10000ffe <ph_merge_nodes+0x56>
10000fde:	7006      	strb	r6, [r0, #0]
10000fe0:	0020      	movs	r0, r4
10000fe2:	bd70      	pop	{r4, r5, r6, pc}
10000fe4:	18cb      	adds	r3, r1, r3
10000fe6:	709e      	strb	r6, [r3, #2]
10000fe8:	1888      	adds	r0, r1, r2
10000fea:	5c8a      	ldrb	r2, [r1, r2]
10000fec:	2a00      	cmp	r2, #0
10000fee:	d102      	bne.n	10000ff6 <ph_merge_nodes+0x4e>
10000ff0:	7004      	strb	r4, [r0, #0]
10000ff2:	0034      	movs	r4, r6
10000ff4:	e7f4      	b.n	10000fe0 <ph_merge_nodes+0x38>
10000ff6:	705a      	strb	r2, [r3, #1]
10000ff8:	7004      	strb	r4, [r0, #0]
10000ffa:	0034      	movs	r4, r6
10000ffc:	e7f0      	b.n	10000fe0 <ph_merge_nodes+0x38>
10000ffe:	7053      	strb	r3, [r2, #1]
10001000:	7006      	strb	r6, [r0, #0]
10001002:	e7ed      	b.n	10000fe0 <ph_merge_nodes+0x38>

10001004 <ph_create>:
10001004:	b5f0      	push	{r4, r5, r6, r7, lr}
10001006:	46c6      	mov	lr, r8
10001008:	0005      	movs	r5, r0
1000100a:	000f      	movs	r7, r1
1000100c:	b500      	push	{lr}
1000100e:	2110      	movs	r1, #16
10001010:	2001      	movs	r0, #1
10001012:	0016      	movs	r6, r2
10001014:	f000 fefe 	bl	10001e14 <__wrap_calloc>
10001018:	b2eb      	uxtb	r3, r5
1000101a:	0004      	movs	r4, r0
1000101c:	7303      	strb	r3, [r0, #12]
1000101e:	2103      	movs	r1, #3
10001020:	6047      	str	r7, [r0, #4]
10001022:	0028      	movs	r0, r5
10001024:	4698      	mov	r8, r3
10001026:	f000 fef5 	bl	10001e14 <__wrap_calloc>
1000102a:	2300      	movs	r3, #0
1000102c:	7363      	strb	r3, [r4, #13]
1000102e:	3301      	adds	r3, #1
10001030:	73a3      	strb	r3, [r4, #14]
10001032:	4643      	mov	r3, r8
10001034:	21ff      	movs	r1, #255	; 0xff
10001036:	73e3      	strb	r3, [r4, #15]
10001038:	23fe      	movs	r3, #254	; 0xfe
1000103a:	6020      	str	r0, [r4, #0]
1000103c:	60a6      	str	r6, [r4, #8]
1000103e:	4029      	ands	r1, r5
10001040:	422b      	tst	r3, r5
10001042:	d006      	beq.n	10001052 <ph_create+0x4e>
10001044:	1c42      	adds	r2, r0, #1
10001046:	3bfd      	subs	r3, #253	; 0xfd
10001048:	3301      	adds	r3, #1
1000104a:	7013      	strb	r3, [r2, #0]
1000104c:	3203      	adds	r2, #3
1000104e:	428b      	cmp	r3, r1
10001050:	d3fa      	bcc.n	10001048 <ph_create+0x44>
10001052:	004b      	lsls	r3, r1, #1
10001054:	1859      	adds	r1, r3, r1
10001056:	2300      	movs	r3, #0
10001058:	1840      	adds	r0, r0, r1
1000105a:	3803      	subs	r0, #3
1000105c:	7043      	strb	r3, [r0, #1]
1000105e:	0020      	movs	r0, r4
10001060:	bc80      	pop	{r7}
10001062:	46b8      	mov	r8, r7
10001064:	bdf0      	pop	{r4, r5, r6, r7, pc}
10001066:	46c0      	nop			; (mov r8, r8)

10001068 <ph_merge_two_pass>:
10001068:	b5f8      	push	{r3, r4, r5, r6, r7, lr}
1000106a:	46ce      	mov	lr, r9
1000106c:	4647      	mov	r7, r8
1000106e:	0006      	movs	r6, r0
10001070:	000c      	movs	r4, r1
10001072:	b580      	push	{r7, lr}
10001074:	2900      	cmp	r1, #0
10001076:	d007      	beq.n	10001088 <ph_merge_two_pass+0x20>
10001078:	004d      	lsls	r5, r1, #1
1000107a:	6803      	ldr	r3, [r0, #0]
1000107c:	186d      	adds	r5, r5, r1
1000107e:	3d03      	subs	r5, #3
10001080:	195a      	adds	r2, r3, r5
10001082:	7857      	ldrb	r7, [r2, #1]
10001084:	2f00      	cmp	r7, #0
10001086:	d104      	bne.n	10001092 <ph_merge_two_pass+0x2a>
10001088:	0020      	movs	r0, r4
1000108a:	bcc0      	pop	{r6, r7}
1000108c:	46b9      	mov	r9, r7
1000108e:	46b0      	mov	r8, r6
10001090:	bdf8      	pop	{r3, r4, r5, r6, r7, pc}
10001092:	0079      	lsls	r1, r7, #1
10001094:	19c9      	adds	r1, r1, r7
10001096:	3903      	subs	r1, #3
10001098:	4688      	mov	r8, r1
1000109a:	4443      	add	r3, r8
1000109c:	7859      	ldrb	r1, [r3, #1]
1000109e:	4689      	mov	r9, r1
100010a0:	2100      	movs	r1, #0
100010a2:	7059      	strb	r1, [r3, #1]
100010a4:	7051      	strb	r1, [r2, #1]
100010a6:	6873      	ldr	r3, [r6, #4]
100010a8:	003a      	movs	r2, r7
100010aa:	0021      	movs	r1, r4
100010ac:	6880      	ldr	r0, [r0, #8]
100010ae:	4798      	blx	r3
100010b0:	6833      	ldr	r3, [r6, #0]
100010b2:	2800      	cmp	r0, #0
100010b4:	d014      	beq.n	100010e0 <ph_merge_two_pass+0x78>
100010b6:	4642      	mov	r2, r8
100010b8:	189a      	adds	r2, r3, r2
100010ba:	7094      	strb	r4, [r2, #2]
100010bc:	1959      	adds	r1, r3, r5
100010be:	5d5b      	ldrb	r3, [r3, r5]
100010c0:	2b00      	cmp	r3, #0
100010c2:	d000      	beq.n	100010c6 <ph_merge_two_pass+0x5e>
100010c4:	7053      	strb	r3, [r2, #1]
100010c6:	700f      	strb	r7, [r1, #0]
100010c8:	0027      	movs	r7, r4
100010ca:	4649      	mov	r1, r9
100010cc:	0030      	movs	r0, r6
100010ce:	f7ff ffcb 	bl	10001068 <ph_merge_two_pass>
100010d2:	0039      	movs	r1, r7
100010d4:	0002      	movs	r2, r0
100010d6:	0030      	movs	r0, r6
100010d8:	f7ff ff66 	bl	10000fa8 <ph_merge_nodes>
100010dc:	0004      	movs	r4, r0
100010de:	e7d3      	b.n	10001088 <ph_merge_two_pass+0x20>
100010e0:	4642      	mov	r2, r8
100010e2:	4641      	mov	r1, r8
100010e4:	195d      	adds	r5, r3, r5
100010e6:	70af      	strb	r7, [r5, #2]
100010e8:	189a      	adds	r2, r3, r2
100010ea:	5c5b      	ldrb	r3, [r3, r1]
100010ec:	2b00      	cmp	r3, #0
100010ee:	d000      	beq.n	100010f2 <ph_merge_two_pass+0x8a>
100010f0:	706b      	strb	r3, [r5, #1]
100010f2:	7014      	strb	r4, [r2, #0]
100010f4:	e7e9      	b.n	100010ca <ph_merge_two_pass+0x62>
100010f6:	46c0      	nop			; (mov r8, r8)

100010f8 <ph_remove_any_head>:
100010f8:	b5f0      	push	{r4, r5, r6, r7, lr}
100010fa:	4657      	mov	r7, sl
100010fc:	4645      	mov	r5, r8
100010fe:	46de      	mov	lr, fp
10001100:	464e      	mov	r6, r9
10001102:	b5e0      	push	{r5, r6, r7, lr}
10001104:	000d      	movs	r5, r1
10001106:	006b      	lsls	r3, r5, #1
10001108:	6801      	ldr	r1, [r0, #0]
1000110a:	195b      	adds	r3, r3, r5
1000110c:	1edf      	subs	r7, r3, #3
1000110e:	0004      	movs	r4, r0
10001110:	5dc8      	ldrb	r0, [r1, r7]
10001112:	b083      	sub	sp, #12
10001114:	9201      	str	r2, [sp, #4]
10001116:	19ca      	adds	r2, r1, r7
10001118:	2800      	cmp	r0, #0
1000111a:	d04c      	beq.n	100011b6 <ph_remove_any_head+0xbe>
1000111c:	0043      	lsls	r3, r0, #1
1000111e:	181b      	adds	r3, r3, r0
10001120:	3b03      	subs	r3, #3
10001122:	18cb      	adds	r3, r1, r3
10001124:	785e      	ldrb	r6, [r3, #1]
10001126:	46b4      	mov	ip, r6
10001128:	2e00      	cmp	r6, #0
1000112a:	d116      	bne.n	1000115a <ph_remove_any_head+0x62>
1000112c:	9e01      	ldr	r6, [sp, #4]
1000112e:	2e00      	cmp	r6, #0
10001130:	d13e      	bne.n	100011b0 <ph_remove_any_head+0xb8>
10001132:	7be6      	ldrb	r6, [r4, #15]
10001134:	2e00      	cmp	r6, #0
10001136:	d004      	beq.n	10001142 <ph_remove_any_head+0x4a>
10001138:	0073      	lsls	r3, r6, #1
1000113a:	199b      	adds	r3, r3, r6
1000113c:	18cb      	adds	r3, r1, r3
1000113e:	3b03      	subs	r3, #3
10001140:	705d      	strb	r5, [r3, #1]
10001142:	73e5      	strb	r5, [r4, #15]
10001144:	2800      	cmp	r0, #0
10001146:	d12f      	bne.n	100011a8 <ph_remove_any_head+0xb0>
10001148:	2300      	movs	r3, #0
1000114a:	7053      	strb	r3, [r2, #1]
1000114c:	b003      	add	sp, #12
1000114e:	bcf0      	pop	{r4, r5, r6, r7}
10001150:	46bb      	mov	fp, r7
10001152:	46b2      	mov	sl, r6
10001154:	46a9      	mov	r9, r5
10001156:	46a0      	mov	r8, r4
10001158:	bdf0      	pop	{r4, r5, r6, r7, pc}
1000115a:	0072      	lsls	r2, r6, #1
1000115c:	4462      	add	r2, ip
1000115e:	3a03      	subs	r2, #3
10001160:	1889      	adds	r1, r1, r2
10001162:	784a      	ldrb	r2, [r1, #1]
10001164:	4690      	mov	r8, r2
10001166:	2200      	movs	r2, #0
10001168:	704a      	strb	r2, [r1, #1]
1000116a:	4691      	mov	r9, r2
1000116c:	705a      	strb	r2, [r3, #1]
1000116e:	0001      	movs	r1, r0
10001170:	0032      	movs	r2, r6
10001172:	0020      	movs	r0, r4
10001174:	f7ff ff18 	bl	10000fa8 <ph_merge_nodes>
10001178:	4643      	mov	r3, r8
1000117a:	4682      	mov	sl, r0
1000117c:	2b00      	cmp	r3, #0
1000117e:	d007      	beq.n	10001190 <ph_remove_any_head+0x98>
10001180:	005b      	lsls	r3, r3, #1
10001182:	6821      	ldr	r1, [r4, #0]
10001184:	4443      	add	r3, r8
10001186:	3b03      	subs	r3, #3
10001188:	18cb      	adds	r3, r1, r3
1000118a:	785a      	ldrb	r2, [r3, #1]
1000118c:	2a00      	cmp	r2, #0
1000118e:	d116      	bne.n	100011be <ph_remove_any_head+0xc6>
10001190:	4642      	mov	r2, r8
10001192:	4651      	mov	r1, sl
10001194:	0020      	movs	r0, r4
10001196:	f7ff ff07 	bl	10000fa8 <ph_merge_nodes>
1000119a:	6821      	ldr	r1, [r4, #0]
1000119c:	9b01      	ldr	r3, [sp, #4]
1000119e:	19ca      	adds	r2, r1, r7
100011a0:	2b00      	cmp	r3, #0
100011a2:	d0c6      	beq.n	10001132 <ph_remove_any_head+0x3a>
100011a4:	2800      	cmp	r0, #0
100011a6:	d0cf      	beq.n	10001148 <ph_remove_any_head+0x50>
100011a8:	0043      	lsls	r3, r0, #1
100011aa:	181b      	adds	r3, r3, r0
100011ac:	3b03      	subs	r3, #3
100011ae:	18cb      	adds	r3, r1, r3
100011b0:	2100      	movs	r1, #0
100011b2:	7099      	strb	r1, [r3, #2]
100011b4:	e7c8      	b.n	10001148 <ph_remove_any_head+0x50>
100011b6:	9b01      	ldr	r3, [sp, #4]
100011b8:	2b00      	cmp	r3, #0
100011ba:	d1c5      	bne.n	10001148 <ph_remove_any_head+0x50>
100011bc:	e7b9      	b.n	10001132 <ph_remove_any_head+0x3a>
100011be:	0050      	lsls	r0, r2, #1
100011c0:	1880      	adds	r0, r0, r2
100011c2:	3803      	subs	r0, #3
100011c4:	1809      	adds	r1, r1, r0
100011c6:	7848      	ldrb	r0, [r1, #1]
100011c8:	4683      	mov	fp, r0
100011ca:	4648      	mov	r0, r9
100011cc:	7048      	strb	r0, [r1, #1]
100011ce:	7058      	strb	r0, [r3, #1]
100011d0:	4641      	mov	r1, r8
100011d2:	0020      	movs	r0, r4
100011d4:	f7ff fee8 	bl	10000fa8 <ph_merge_nodes>
100011d8:	4659      	mov	r1, fp
100011da:	4680      	mov	r8, r0
100011dc:	0020      	movs	r0, r4
100011de:	f7ff ff43 	bl	10001068 <ph_merge_two_pass>
100011e2:	4641      	mov	r1, r8
100011e4:	0002      	movs	r2, r0
100011e6:	0020      	movs	r0, r4
100011e8:	f7ff fede 	bl	10000fa8 <ph_merge_nodes>
100011ec:	4680      	mov	r8, r0
100011ee:	e7cf      	b.n	10001190 <ph_remove_any_head+0x98>

100011f0 <ph_remove_head_reserve>:
100011f0:	b5f0      	push	{r4, r5, r6, r7, lr}
100011f2:	4657      	mov	r7, sl
100011f4:	4645      	mov	r5, r8
100011f6:	46de      	mov	lr, fp
100011f8:	464e      	mov	r6, r9
100011fa:	b5e0      	push	{r5, r6, r7, lr}
100011fc:	b083      	sub	sp, #12
100011fe:	9101      	str	r1, [sp, #4]
10001200:	7b45      	ldrb	r5, [r0, #13]
10001202:	0004      	movs	r4, r0
10001204:	006b      	lsls	r3, r5, #1
10001206:	6800      	ldr	r0, [r0, #0]
10001208:	195b      	adds	r3, r3, r5
1000120a:	1edf      	subs	r7, r3, #3
1000120c:	5dc1      	ldrb	r1, [r0, r7]
1000120e:	19c2      	adds	r2, r0, r7
10001210:	2900      	cmp	r1, #0
10001212:	d04e      	beq.n	100012b2 <ph_remove_head_reserve+0xc2>
10001214:	004b      	lsls	r3, r1, #1
10001216:	185b      	adds	r3, r3, r1
10001218:	3b03      	subs	r3, #3
1000121a:	18c3      	adds	r3, r0, r3
1000121c:	785e      	ldrb	r6, [r3, #1]
1000121e:	46b4      	mov	ip, r6
10001220:	2e00      	cmp	r6, #0
10001222:	d118      	bne.n	10001256 <ph_remove_head_reserve+0x66>
10001224:	9e01      	ldr	r6, [sp, #4]
10001226:	2e00      	cmp	r6, #0
10001228:	d140      	bne.n	100012ac <ph_remove_head_reserve+0xbc>
1000122a:	7be6      	ldrb	r6, [r4, #15]
1000122c:	2e00      	cmp	r6, #0
1000122e:	d004      	beq.n	1000123a <ph_remove_head_reserve+0x4a>
10001230:	0073      	lsls	r3, r6, #1
10001232:	199b      	adds	r3, r3, r6
10001234:	18c3      	adds	r3, r0, r3
10001236:	3b03      	subs	r3, #3
10001238:	705d      	strb	r5, [r3, #1]
1000123a:	73e5      	strb	r5, [r4, #15]
1000123c:	2900      	cmp	r1, #0
1000123e:	d131      	bne.n	100012a4 <ph_remove_head_reserve+0xb4>
10001240:	2300      	movs	r3, #0
10001242:	0028      	movs	r0, r5
10001244:	7053      	strb	r3, [r2, #1]
10001246:	7361      	strb	r1, [r4, #13]
10001248:	b003      	add	sp, #12
1000124a:	bcf0      	pop	{r4, r5, r6, r7}
1000124c:	46bb      	mov	fp, r7
1000124e:	46b2      	mov	sl, r6
10001250:	46a9      	mov	r9, r5
10001252:	46a0      	mov	r8, r4
10001254:	bdf0      	pop	{r4, r5, r6, r7, pc}
10001256:	0072      	lsls	r2, r6, #1
10001258:	4462      	add	r2, ip
1000125a:	3a03      	subs	r2, #3
1000125c:	1880      	adds	r0, r0, r2
1000125e:	7842      	ldrb	r2, [r0, #1]
10001260:	4690      	mov	r8, r2
10001262:	2200      	movs	r2, #0
10001264:	7042      	strb	r2, [r0, #1]
10001266:	4691      	mov	r9, r2
10001268:	705a      	strb	r2, [r3, #1]
1000126a:	0020      	movs	r0, r4
1000126c:	0032      	movs	r2, r6
1000126e:	f7ff fe9b 	bl	10000fa8 <ph_merge_nodes>
10001272:	4643      	mov	r3, r8
10001274:	4682      	mov	sl, r0
10001276:	2b00      	cmp	r3, #0
10001278:	d007      	beq.n	1000128a <ph_remove_head_reserve+0x9a>
1000127a:	005b      	lsls	r3, r3, #1
1000127c:	6821      	ldr	r1, [r4, #0]
1000127e:	4443      	add	r3, r8
10001280:	3b03      	subs	r3, #3
10001282:	18cb      	adds	r3, r1, r3
10001284:	785a      	ldrb	r2, [r3, #1]
10001286:	2a00      	cmp	r2, #0
10001288:	d117      	bne.n	100012ba <ph_remove_head_reserve+0xca>
1000128a:	4642      	mov	r2, r8
1000128c:	4651      	mov	r1, sl
1000128e:	0020      	movs	r0, r4
10001290:	f7ff fe8a 	bl	10000fa8 <ph_merge_nodes>
10001294:	9b01      	ldr	r3, [sp, #4]
10001296:	0001      	movs	r1, r0
10001298:	6820      	ldr	r0, [r4, #0]
1000129a:	19c2      	adds	r2, r0, r7
1000129c:	2b00      	cmp	r3, #0
1000129e:	d0c4      	beq.n	1000122a <ph_remove_head_reserve+0x3a>
100012a0:	2900      	cmp	r1, #0
100012a2:	d0cd      	beq.n	10001240 <ph_remove_head_reserve+0x50>
100012a4:	004b      	lsls	r3, r1, #1
100012a6:	185b      	adds	r3, r3, r1
100012a8:	3b03      	subs	r3, #3
100012aa:	18c3      	adds	r3, r0, r3
100012ac:	2000      	movs	r0, #0
100012ae:	7098      	strb	r0, [r3, #2]
100012b0:	e7c6      	b.n	10001240 <ph_remove_head_reserve+0x50>
100012b2:	9b01      	ldr	r3, [sp, #4]
100012b4:	2b00      	cmp	r3, #0
100012b6:	d1c3      	bne.n	10001240 <ph_remove_head_reserve+0x50>
100012b8:	e7b7      	b.n	1000122a <ph_remove_head_reserve+0x3a>
100012ba:	0050      	lsls	r0, r2, #1
100012bc:	1880      	adds	r0, r0, r2
100012be:	3803      	subs	r0, #3
100012c0:	1809      	adds	r1, r1, r0
100012c2:	7848      	ldrb	r0, [r1, #1]
100012c4:	4683      	mov	fp, r0
100012c6:	4648      	mov	r0, r9
100012c8:	7048      	strb	r0, [r1, #1]
100012ca:	7058      	strb	r0, [r3, #1]
100012cc:	4641      	mov	r1, r8
100012ce:	0020      	movs	r0, r4
100012d0:	f7ff fe6a 	bl	10000fa8 <ph_merge_nodes>
100012d4:	4659      	mov	r1, fp
100012d6:	4680      	mov	r8, r0
100012d8:	0020      	movs	r0, r4
100012da:	f7ff fec5 	bl	10001068 <ph_merge_two_pass>
100012de:	4641      	mov	r1, r8
100012e0:	0002      	movs	r2, r0
100012e2:	0020      	movs	r0, r4
100012e4:	f7ff fe60 	bl	10000fa8 <ph_merge_nodes>
100012e8:	4680      	mov	r8, r0
100012ea:	e7ce      	b.n	1000128a <ph_remove_head_reserve+0x9a>

100012ec <ph_delete>:
100012ec:	b570      	push	{r4, r5, r6, lr}
100012ee:	0004      	movs	r4, r0
100012f0:	2900      	cmp	r1, #0
100012f2:	d02c      	beq.n	1000134e <ph_delete+0x62>
100012f4:	7b43      	ldrb	r3, [r0, #13]
100012f6:	428b      	cmp	r3, r1
100012f8:	d02e      	beq.n	10001358 <ph_delete+0x6c>
100012fa:	6805      	ldr	r5, [r0, #0]
100012fc:	0048      	lsls	r0, r1, #1
100012fe:	1840      	adds	r0, r0, r1
10001300:	3803      	subs	r0, #3
10001302:	1828      	adds	r0, r5, r0
10001304:	7882      	ldrb	r2, [r0, #2]
10001306:	2a00      	cmp	r2, #0
10001308:	d021      	beq.n	1000134e <ph_delete+0x62>
1000130a:	0053      	lsls	r3, r2, #1
1000130c:	189b      	adds	r3, r3, r2
1000130e:	3b03      	subs	r3, #3
10001310:	5cea      	ldrb	r2, [r5, r3]
10001312:	18ee      	adds	r6, r5, r3
10001314:	428a      	cmp	r2, r1
10001316:	d102      	bne.n	1000131e <ph_delete+0x32>
10001318:	e01b      	b.n	10001352 <ph_delete+0x66>
1000131a:	2a00      	cmp	r2, #0
1000131c:	d008      	beq.n	10001330 <ph_delete+0x44>
1000131e:	0053      	lsls	r3, r2, #1
10001320:	189b      	adds	r3, r3, r2
10001322:	3b03      	subs	r3, #3
10001324:	18eb      	adds	r3, r5, r3
10001326:	785a      	ldrb	r2, [r3, #1]
10001328:	428a      	cmp	r2, r1
1000132a:	d1f6      	bne.n	1000131a <ph_delete+0x2e>
1000132c:	7842      	ldrb	r2, [r0, #1]
1000132e:	705a      	strb	r2, [r3, #1]
10001330:	2300      	movs	r3, #0
10001332:	2200      	movs	r2, #0
10001334:	7083      	strb	r3, [r0, #2]
10001336:	7043      	strb	r3, [r0, #1]
10001338:	0020      	movs	r0, r4
1000133a:	f7ff fedd 	bl	100010f8 <ph_remove_any_head>
1000133e:	7b61      	ldrb	r1, [r4, #13]
10001340:	0002      	movs	r2, r0
10001342:	0020      	movs	r0, r4
10001344:	f7ff fe30 	bl	10000fa8 <ph_merge_nodes>
10001348:	7360      	strb	r0, [r4, #13]
1000134a:	2001      	movs	r0, #1
1000134c:	e000      	b.n	10001350 <ph_delete+0x64>
1000134e:	2000      	movs	r0, #0
10001350:	bd70      	pop	{r4, r5, r6, pc}
10001352:	7843      	ldrb	r3, [r0, #1]
10001354:	7033      	strb	r3, [r6, #0]
10001356:	e7eb      	b.n	10001330 <ph_delete+0x44>
10001358:	2200      	movs	r2, #0
1000135a:	0019      	movs	r1, r3
1000135c:	f7ff fecc 	bl	100010f8 <ph_remove_any_head>
10001360:	7360      	strb	r0, [r4, #13]
10001362:	2001      	movs	r0, #1
10001364:	e7f4      	b.n	10001350 <ph_delete+0x64>
10001366:	46c0      	nop			; (mov r8, r8)

10001368 <runtime_init>:
10001368:	b5f8      	push	{r3, r4, r5, r6, r7, lr}
1000136a:	4a2b      	ldr	r2, [pc, #172]	; (10001418 <runtime_init+0xb0>)
1000136c:	4b2b      	ldr	r3, [pc, #172]	; (1000141c <runtime_init+0xb4>)
1000136e:	492c      	ldr	r1, [pc, #176]	; (10001420 <runtime_init+0xb8>)
10001370:	601a      	str	r2, [r3, #0]
10001372:	4a2c      	ldr	r2, [pc, #176]	; (10001424 <runtime_init+0xbc>)
10001374:	4b2c      	ldr	r3, [pc, #176]	; (10001428 <runtime_init+0xc0>)
10001376:	601a      	str	r2, [r3, #0]
10001378:	0014      	movs	r4, r2
1000137a:	688b      	ldr	r3, [r1, #8]
1000137c:	439c      	bics	r4, r3
1000137e:	d1fb      	bne.n	10001378 <runtime_init+0x10>
10001380:	4d2a      	ldr	r5, [pc, #168]	; (1000142c <runtime_init+0xc4>)
10001382:	4e2b      	ldr	r6, [pc, #172]	; (10001430 <runtime_init+0xc8>)
10001384:	42b5      	cmp	r5, r6
10001386:	d208      	bcs.n	1000139a <runtime_init+0x32>
10001388:	3e01      	subs	r6, #1
1000138a:	1b76      	subs	r6, r6, r5
1000138c:	08b6      	lsrs	r6, r6, #2
1000138e:	cd08      	ldmia	r5!, {r3}
10001390:	4798      	blx	r3
10001392:	0023      	movs	r3, r4
10001394:	3401      	adds	r4, #1
10001396:	42b3      	cmp	r3, r6
10001398:	d1f9      	bne.n	1000138e <runtime_init+0x26>
1000139a:	f000 f895 	bl	100014c8 <clocks_init>
1000139e:	4a25      	ldr	r2, [pc, #148]	; (10001434 <runtime_init+0xcc>)
100013a0:	4b21      	ldr	r3, [pc, #132]	; (10001428 <runtime_init+0xc0>)
100013a2:	601a      	str	r2, [r3, #0]
100013a4:	4a1e      	ldr	r2, [pc, #120]	; (10001420 <runtime_init+0xb8>)
100013a6:	6893      	ldr	r3, [r2, #8]
100013a8:	43db      	mvns	r3, r3
100013aa:	01db      	lsls	r3, r3, #7
100013ac:	09dc      	lsrs	r4, r3, #7
100013ae:	2b00      	cmp	r3, #0
100013b0:	d1f9      	bne.n	100013a6 <runtime_init+0x3e>
100013b2:	2240      	movs	r2, #64	; 0x40
100013b4:	4b20      	ldr	r3, [pc, #128]	; (10001438 <runtime_init+0xd0>)
100013b6:	4d21      	ldr	r5, [pc, #132]	; (1000143c <runtime_init+0xd4>)
100013b8:	4f21      	ldr	r7, [pc, #132]	; (10001440 <runtime_init+0xd8>)
100013ba:	679a      	str	r2, [r3, #120]	; 0x78
100013bc:	675a      	str	r2, [r3, #116]	; 0x74
100013be:	671a      	str	r2, [r3, #112]	; 0x70
100013c0:	66da      	str	r2, [r3, #108]	; 0x6c
100013c2:	42bd      	cmp	r5, r7
100013c4:	d20b      	bcs.n	100013de <runtime_init+0x76>
100013c6:	2600      	movs	r6, #0
100013c8:	3f01      	subs	r7, #1
100013ca:	1b7f      	subs	r7, r7, r5
100013cc:	08ff      	lsrs	r7, r7, #3
100013ce:	0028      	movs	r0, r5
100013d0:	f7ff fdd0 	bl	10000f74 <mutex_init>
100013d4:	3508      	adds	r5, #8
100013d6:	0033      	movs	r3, r6
100013d8:	3601      	adds	r6, #1
100013da:	42bb      	cmp	r3, r7
100013dc:	d1f7      	bne.n	100013ce <runtime_init+0x66>
100013de:	4e19      	ldr	r6, [pc, #100]	; (10001444 <runtime_init+0xdc>)
100013e0:	4d19      	ldr	r5, [pc, #100]	; (10001448 <runtime_init+0xe0>)
100013e2:	22c0      	movs	r2, #192	; 0xc0
100013e4:	68a9      	ldr	r1, [r5, #8]
100013e6:	0030      	movs	r0, r6
100013e8:	f000 fd26 	bl	10001e38 <__wrap___aeabi_memcpy>
100013ec:	60ae      	str	r6, [r5, #8]
100013ee:	f7ff f84f 	bl	10000490 <spin_locks_reset>
100013f2:	f000 fbb3 	bl	10001b5c <irq_init_priorities>
100013f6:	f7ff faff 	bl	100009f8 <alarm_pool_init_default>
100013fa:	4d14      	ldr	r5, [pc, #80]	; (1000144c <runtime_init+0xe4>)
100013fc:	4e14      	ldr	r6, [pc, #80]	; (10001450 <runtime_init+0xe8>)
100013fe:	42b5      	cmp	r5, r6
10001400:	d208      	bcs.n	10001414 <runtime_init+0xac>
10001402:	3e01      	subs	r6, #1
10001404:	1b76      	subs	r6, r6, r5
10001406:	08b6      	lsrs	r6, r6, #2
10001408:	cd08      	ldmia	r5!, {r3}
1000140a:	4798      	blx	r3
1000140c:	0023      	movs	r3, r4
1000140e:	3401      	adds	r4, #1
10001410:	429e      	cmp	r6, r3
10001412:	d1f9      	bne.n	10001408 <runtime_init+0xa0>
10001414:	bdf8      	pop	{r3, r4, r5, r6, r7, pc}
10001416:	46c0      	nop			; (mov r8, r8)
10001418:	ffffcdbf 	.word	0xffffcdbf
1000141c:	4000e000 	.word	0x4000e000
10001420:	4000c000 	.word	0x4000c000
10001424:	003c7ffe 	.word	0x003c7ffe
10001428:	4000f000 	.word	0x4000f000
1000142c:	20000b5c 	.word	0x20000b5c
10001430:	20000b6c 	.word	0x20000b6c
10001434:	01ffffff 	.word	0x01ffffff
10001438:	4001f000 	.word	0x4001f000
1000143c:	20000b54 	.word	0x20000b54
10001440:	20000b5c 	.word	0x20000b5c
10001444:	20000000 	.word	0x20000000
10001448:	e000ed00 	.word	0xe000ed00
1000144c:	20000b6c 	.word	0x20000b6c
10001450:	20000b74 	.word	0x20000b74

10001454 <_sbrk>:
10001454:	4a09      	ldr	r2, [pc, #36]	; (1000147c <_sbrk+0x28>)
10001456:	0003      	movs	r3, r0
10001458:	6810      	ldr	r0, [r2, #0]
1000145a:	2800      	cmp	r0, #0
1000145c:	d005      	beq.n	1000146a <_sbrk+0x16>
1000145e:	4908      	ldr	r1, [pc, #32]	; (10001480 <_sbrk+0x2c>)
10001460:	18c3      	adds	r3, r0, r3
10001462:	428b      	cmp	r3, r1
10001464:	d207      	bcs.n	10001476 <_sbrk+0x22>
10001466:	6013      	str	r3, [r2, #0]
10001468:	4770      	bx	lr
1000146a:	4806      	ldr	r0, [pc, #24]	; (10001484 <_sbrk+0x30>)
1000146c:	4904      	ldr	r1, [pc, #16]	; (10001480 <_sbrk+0x2c>)
1000146e:	18c3      	adds	r3, r0, r3
10001470:	6010      	str	r0, [r2, #0]
10001472:	428b      	cmp	r3, r1
10001474:	d3f7      	bcc.n	10001466 <_sbrk+0x12>
10001476:	2001      	movs	r0, #1
10001478:	4240      	negs	r0, r0
1000147a:	e7f5      	b.n	10001468 <_sbrk+0x14>
1000147c:	20001260 	.word	0x20001260
10001480:	20040000 	.word	0x20040000
10001484:	2000193c 	.word	0x2000193c

10001488 <exit>:
10001488:	be00      	bkpt	0x0000
1000148a:	e7fd      	b.n	10001488 <exit>

1000148c <panic>:
1000148c:	b40f      	push	{r0, r1, r2, r3}
1000148e:	b500      	push	{lr}
10001490:	4808      	ldr	r0, [pc, #32]	; (100014b4 <panic+0x28>)
10001492:	b083      	sub	sp, #12
10001494:	f000 fdac 	bl	10001ff0 <__wrap_puts>
10001498:	9b04      	ldr	r3, [sp, #16]
1000149a:	2b00      	cmp	r3, #0
1000149c:	d007      	beq.n	100014ae <panic+0x22>
1000149e:	a905      	add	r1, sp, #20
100014a0:	0018      	movs	r0, r3
100014a2:	9101      	str	r1, [sp, #4]
100014a4:	f000 fb7e 	bl	10001ba4 <weak_raw_vprintf>
100014a8:	4803      	ldr	r0, [pc, #12]	; (100014b8 <panic+0x2c>)
100014aa:	f000 fda1 	bl	10001ff0 <__wrap_puts>
100014ae:	be00      	bkpt	0x0000
100014b0:	e7fd      	b.n	100014ae <panic+0x22>
100014b2:	46c0      	nop			; (mov r8, r8)
100014b4:	10004c78 	.word	0x10004c78
100014b8:	10004c88 	.word	0x10004c88

100014bc <hard_assertion_failure>:
100014bc:	b510      	push	{r4, lr}
100014be:	4801      	ldr	r0, [pc, #4]	; (100014c4 <hard_assertion_failure+0x8>)
100014c0:	f7ff ffe4 	bl	1000148c <panic>
100014c4:	10004c8c 	.word	0x10004c8c

100014c8 <clocks_init>:
100014c8:	b530      	push	{r4, r5, lr}
100014ca:	200c      	movs	r0, #12
100014cc:	b083      	sub	sp, #12
100014ce:	f000 f971 	bl	100017b4 <watchdog_start_tick>
100014d2:	f7ff f807 	bl	100004e4 <running_on_fpga>
100014d6:	2800      	cmp	r0, #0
100014d8:	d00e      	beq.n	100014f8 <clocks_init+0x30>
100014da:	4b9a      	ldr	r3, [pc, #616]	; (10001744 <clocks_init+0x27c>)
100014dc:	4a9a      	ldr	r2, [pc, #616]	; (10001748 <clocks_init+0x280>)
100014de:	601a      	str	r2, [r3, #0]
100014e0:	605a      	str	r2, [r3, #4]
100014e2:	609a      	str	r2, [r3, #8]
100014e4:	60da      	str	r2, [r3, #12]
100014e6:	611a      	str	r2, [r3, #16]
100014e8:	615a      	str	r2, [r3, #20]
100014ea:	619a      	str	r2, [r3, #24]
100014ec:	61da      	str	r2, [r3, #28]
100014ee:	621a      	str	r2, [r3, #32]
100014f0:	4a96      	ldr	r2, [pc, #600]	; (1000174c <clocks_init+0x284>)
100014f2:	625a      	str	r2, [r3, #36]	; 0x24
100014f4:	b003      	add	sp, #12
100014f6:	bd30      	pop	{r4, r5, pc}
100014f8:	4c95      	ldr	r4, [pc, #596]	; (10001750 <clocks_init+0x288>)
100014fa:	67a0      	str	r0, [r4, #120]	; 0x78
100014fc:	f000 f962 	bl	100017c4 <xosc_init>
10001500:	2201      	movs	r2, #1
10001502:	4b94      	ldr	r3, [pc, #592]	; (10001754 <clocks_init+0x28c>)
10001504:	601a      	str	r2, [r3, #0]
10001506:	6c63      	ldr	r3, [r4, #68]	; 0x44
10001508:	2b01      	cmp	r3, #1
1000150a:	d1fc      	bne.n	10001506 <clocks_init+0x3e>
1000150c:	2203      	movs	r2, #3
1000150e:	4b92      	ldr	r3, [pc, #584]	; (10001758 <clocks_init+0x290>)
10001510:	601a      	str	r2, [r3, #0]
10001512:	4a8f      	ldr	r2, [pc, #572]	; (10001750 <clocks_init+0x288>)
10001514:	6b93      	ldr	r3, [r2, #56]	; 0x38
10001516:	2b01      	cmp	r3, #1
10001518:	d1fc      	bne.n	10001514 <clocks_init+0x4c>
1000151a:	22c0      	movs	r2, #192	; 0xc0
1000151c:	4b8f      	ldr	r3, [pc, #572]	; (1000175c <clocks_init+0x294>)
1000151e:	0192      	lsls	r2, r2, #6
10001520:	601a      	str	r2, [r3, #0]
10001522:	4b8f      	ldr	r3, [pc, #572]	; (10001760 <clocks_init+0x298>)
10001524:	498f      	ldr	r1, [pc, #572]	; (10001764 <clocks_init+0x29c>)
10001526:	601a      	str	r2, [r3, #0]
10001528:	0010      	movs	r0, r2
1000152a:	688b      	ldr	r3, [r1, #8]
1000152c:	4398      	bics	r0, r3
1000152e:	1e03      	subs	r3, r0, #0
10001530:	d1fa      	bne.n	10001528 <clocks_init+0x60>
10001532:	2402      	movs	r4, #2
10001534:	2101      	movs	r1, #1
10001536:	4a8c      	ldr	r2, [pc, #560]	; (10001768 <clocks_init+0x2a0>)
10001538:	488c      	ldr	r0, [pc, #560]	; (1000176c <clocks_init+0x2a4>)
1000153a:	3306      	adds	r3, #6
1000153c:	9400      	str	r4, [sp, #0]
1000153e:	f000 f955 	bl	100017ec <pll_init>
10001542:	2305      	movs	r3, #5
10001544:	4a8a      	ldr	r2, [pc, #552]	; (10001770 <clocks_init+0x2a8>)
10001546:	2101      	movs	r1, #1
10001548:	488a      	ldr	r0, [pc, #552]	; (10001774 <clocks_init+0x2ac>)
1000154a:	9400      	str	r4, [sp, #0]
1000154c:	f000 f94e 	bl	100017ec <pll_init>
10001550:	4b89      	ldr	r3, [pc, #548]	; (10001778 <clocks_init+0x2b0>)
10001552:	685a      	ldr	r2, [r3, #4]
10001554:	2aff      	cmp	r2, #255	; 0xff
10001556:	d802      	bhi.n	1000155e <clocks_init+0x96>
10001558:	2280      	movs	r2, #128	; 0x80
1000155a:	0052      	lsls	r2, r2, #1
1000155c:	605a      	str	r2, [r3, #4]
1000155e:	2280      	movs	r2, #128	; 0x80
10001560:	4c78      	ldr	r4, [pc, #480]	; (10001744 <clocks_init+0x27c>)
10001562:	4b7d      	ldr	r3, [pc, #500]	; (10001758 <clocks_init+0x290>)
10001564:	6921      	ldr	r1, [r4, #16]
10001566:	0112      	lsls	r2, r2, #4
10001568:	4d83      	ldr	r5, [pc, #524]	; (10001778 <clocks_init+0x2b0>)
1000156a:	601a      	str	r2, [r3, #0]
1000156c:	2900      	cmp	r1, #0
1000156e:	d005      	beq.n	1000157c <clocks_init+0xb4>
10001570:	6960      	ldr	r0, [r4, #20]
10001572:	f000 fb69 	bl	10001c48 <__wrap___aeabi_uidiv>
10001576:	3001      	adds	r0, #1
10001578:	3801      	subs	r0, #1
1000157a:	d1fd      	bne.n	10001578 <clocks_init+0xb0>
1000157c:	21e0      	movs	r1, #224	; 0xe0
1000157e:	4b7e      	ldr	r3, [pc, #504]	; (10001778 <clocks_init+0x2b0>)
10001580:	2002      	movs	r0, #2
10001582:	681a      	ldr	r2, [r3, #0]
10001584:	4011      	ands	r1, r2
10001586:	2280      	movs	r2, #128	; 0x80
10001588:	0152      	lsls	r2, r2, #5
1000158a:	432a      	orrs	r2, r5
1000158c:	6011      	str	r1, [r2, #0]
1000158e:	6819      	ldr	r1, [r3, #0]
10001590:	4048      	eors	r0, r1
10001592:	2103      	movs	r1, #3
10001594:	4001      	ands	r1, r0
10001596:	6011      	str	r1, [r2, #0]
10001598:	2104      	movs	r1, #4
1000159a:	689a      	ldr	r2, [r3, #8]
1000159c:	4211      	tst	r1, r2
1000159e:	d0fc      	beq.n	1000159a <clocks_init+0xd2>
100015a0:	2280      	movs	r2, #128	; 0x80
100015a2:	2180      	movs	r1, #128	; 0x80
100015a4:	0192      	lsls	r2, r2, #6
100015a6:	432a      	orrs	r2, r5
100015a8:	0109      	lsls	r1, r1, #4
100015aa:	6011      	str	r1, [r2, #0]
100015ac:	2280      	movs	r2, #128	; 0x80
100015ae:	0052      	lsls	r2, r2, #1
100015b0:	605a      	str	r2, [r3, #4]
100015b2:	4b72      	ldr	r3, [pc, #456]	; (1000177c <clocks_init+0x2b4>)
100015b4:	6123      	str	r3, [r4, #16]
100015b6:	4b72      	ldr	r3, [pc, #456]	; (10001780 <clocks_init+0x2b8>)
100015b8:	6859      	ldr	r1, [r3, #4]
100015ba:	29ff      	cmp	r1, #255	; 0xff
100015bc:	d800      	bhi.n	100015c0 <clocks_init+0xf8>
100015be:	605a      	str	r2, [r3, #4]
100015c0:	2103      	movs	r1, #3
100015c2:	4a64      	ldr	r2, [pc, #400]	; (10001754 <clocks_init+0x28c>)
100015c4:	4b6e      	ldr	r3, [pc, #440]	; (10001780 <clocks_init+0x2b8>)
100015c6:	6011      	str	r1, [r2, #0]
100015c8:	3902      	subs	r1, #2
100015ca:	689a      	ldr	r2, [r3, #8]
100015cc:	4211      	tst	r1, r2
100015ce:	d0fc      	beq.n	100015ca <clocks_init+0x102>
100015d0:	20e0      	movs	r0, #224	; 0xe0
100015d2:	681a      	ldr	r2, [r3, #0]
100015d4:	4010      	ands	r0, r2
100015d6:	2280      	movs	r2, #128	; 0x80
100015d8:	0152      	lsls	r2, r2, #5
100015da:	431a      	orrs	r2, r3
100015dc:	6010      	str	r0, [r2, #0]
100015de:	6818      	ldr	r0, [r3, #0]
100015e0:	4048      	eors	r0, r1
100015e2:	2103      	movs	r1, #3
100015e4:	4001      	ands	r1, r0
100015e6:	2002      	movs	r0, #2
100015e8:	6011      	str	r1, [r2, #0]
100015ea:	4965      	ldr	r1, [pc, #404]	; (10001780 <clocks_init+0x2b8>)
100015ec:	688a      	ldr	r2, [r1, #8]
100015ee:	4210      	tst	r0, r2
100015f0:	d0fc      	beq.n	100015ec <clocks_init+0x124>
100015f2:	2280      	movs	r2, #128	; 0x80
100015f4:	0192      	lsls	r2, r2, #6
100015f6:	4313      	orrs	r3, r2
100015f8:	2280      	movs	r2, #128	; 0x80
100015fa:	0112      	lsls	r2, r2, #4
100015fc:	601a      	str	r2, [r3, #0]
100015fe:	2280      	movs	r2, #128	; 0x80
10001600:	4b60      	ldr	r3, [pc, #384]	; (10001784 <clocks_init+0x2bc>)
10001602:	0052      	lsls	r2, r2, #1
10001604:	604a      	str	r2, [r1, #4]
10001606:	6163      	str	r3, [r4, #20]
10001608:	4b5f      	ldr	r3, [pc, #380]	; (10001788 <clocks_init+0x2c0>)
1000160a:	6859      	ldr	r1, [r3, #4]
1000160c:	29ff      	cmp	r1, #255	; 0xff
1000160e:	d800      	bhi.n	10001612 <clocks_init+0x14a>
10001610:	605a      	str	r2, [r3, #4]
10001612:	2280      	movs	r2, #128	; 0x80
10001614:	4b5d      	ldr	r3, [pc, #372]	; (1000178c <clocks_init+0x2c4>)
10001616:	69e1      	ldr	r1, [r4, #28]
10001618:	0112      	lsls	r2, r2, #4
1000161a:	4d5b      	ldr	r5, [pc, #364]	; (10001788 <clocks_init+0x2c0>)
1000161c:	601a      	str	r2, [r3, #0]
1000161e:	2900      	cmp	r1, #0
10001620:	d005      	beq.n	1000162e <clocks_init+0x166>
10001622:	6960      	ldr	r0, [r4, #20]
10001624:	f000 fb10 	bl	10001c48 <__wrap___aeabi_uidiv>
10001628:	3001      	adds	r0, #1
1000162a:	3801      	subs	r0, #1
1000162c:	d1fd      	bne.n	1000162a <clocks_init+0x162>
1000162e:	22e0      	movs	r2, #224	; 0xe0
10001630:	4955      	ldr	r1, [pc, #340]	; (10001788 <clocks_init+0x2c0>)
10001632:	680b      	ldr	r3, [r1, #0]
10001634:	401a      	ands	r2, r3
10001636:	2380      	movs	r3, #128	; 0x80
10001638:	015b      	lsls	r3, r3, #5
1000163a:	432b      	orrs	r3, r5
1000163c:	601a      	str	r2, [r3, #0]
1000163e:	2380      	movs	r3, #128	; 0x80
10001640:	2280      	movs	r2, #128	; 0x80
10001642:	019b      	lsls	r3, r3, #6
10001644:	432b      	orrs	r3, r5
10001646:	0112      	lsls	r2, r2, #4
10001648:	601a      	str	r2, [r3, #0]
1000164a:	2280      	movs	r2, #128	; 0x80
1000164c:	4b3e      	ldr	r3, [pc, #248]	; (10001748 <clocks_init+0x280>)
1000164e:	0052      	lsls	r2, r2, #1
10001650:	604a      	str	r2, [r1, #4]
10001652:	61e3      	str	r3, [r4, #28]
10001654:	4b4e      	ldr	r3, [pc, #312]	; (10001790 <clocks_init+0x2c8>)
10001656:	6859      	ldr	r1, [r3, #4]
10001658:	29ff      	cmp	r1, #255	; 0xff
1000165a:	d800      	bhi.n	1000165e <clocks_init+0x196>
1000165c:	605a      	str	r2, [r3, #4]
1000165e:	2280      	movs	r2, #128	; 0x80
10001660:	4b4c      	ldr	r3, [pc, #304]	; (10001794 <clocks_init+0x2cc>)
10001662:	6a21      	ldr	r1, [r4, #32]
10001664:	0112      	lsls	r2, r2, #4
10001666:	4d4a      	ldr	r5, [pc, #296]	; (10001790 <clocks_init+0x2c8>)
10001668:	601a      	str	r2, [r3, #0]
1000166a:	2900      	cmp	r1, #0
1000166c:	d005      	beq.n	1000167a <clocks_init+0x1b2>
1000166e:	6960      	ldr	r0, [r4, #20]
10001670:	f000 faea 	bl	10001c48 <__wrap___aeabi_uidiv>
10001674:	3001      	adds	r0, #1
10001676:	3801      	subs	r0, #1
10001678:	d1fd      	bne.n	10001676 <clocks_init+0x1ae>
1000167a:	22e0      	movs	r2, #224	; 0xe0
1000167c:	4944      	ldr	r1, [pc, #272]	; (10001790 <clocks_init+0x2c8>)
1000167e:	680b      	ldr	r3, [r1, #0]
10001680:	401a      	ands	r2, r3
10001682:	2380      	movs	r3, #128	; 0x80
10001684:	015b      	lsls	r3, r3, #5
10001686:	432b      	orrs	r3, r5
10001688:	601a      	str	r2, [r3, #0]
1000168a:	2380      	movs	r3, #128	; 0x80
1000168c:	2280      	movs	r2, #128	; 0x80
1000168e:	019b      	lsls	r3, r3, #6
10001690:	432b      	orrs	r3, r5
10001692:	0112      	lsls	r2, r2, #4
10001694:	601a      	str	r2, [r3, #0]
10001696:	2380      	movs	r3, #128	; 0x80
10001698:	2280      	movs	r2, #128	; 0x80
1000169a:	005b      	lsls	r3, r3, #1
1000169c:	604b      	str	r3, [r1, #4]
1000169e:	4b2a      	ldr	r3, [pc, #168]	; (10001748 <clocks_init+0x280>)
100016a0:	02d2      	lsls	r2, r2, #11
100016a2:	6223      	str	r3, [r4, #32]
100016a4:	4b3c      	ldr	r3, [pc, #240]	; (10001798 <clocks_init+0x2d0>)
100016a6:	6859      	ldr	r1, [r3, #4]
100016a8:	4291      	cmp	r1, r2
100016aa:	d200      	bcs.n	100016ae <clocks_init+0x1e6>
100016ac:	605a      	str	r2, [r3, #4]
100016ae:	2280      	movs	r2, #128	; 0x80
100016b0:	4b3a      	ldr	r3, [pc, #232]	; (1000179c <clocks_init+0x2d4>)
100016b2:	6a61      	ldr	r1, [r4, #36]	; 0x24
100016b4:	0112      	lsls	r2, r2, #4
100016b6:	4d38      	ldr	r5, [pc, #224]	; (10001798 <clocks_init+0x2d0>)
100016b8:	601a      	str	r2, [r3, #0]
100016ba:	2900      	cmp	r1, #0
100016bc:	d005      	beq.n	100016ca <clocks_init+0x202>
100016be:	6960      	ldr	r0, [r4, #20]
100016c0:	f000 fac2 	bl	10001c48 <__wrap___aeabi_uidiv>
100016c4:	3001      	adds	r0, #1
100016c6:	3801      	subs	r0, #1
100016c8:	d1fd      	bne.n	100016c6 <clocks_init+0x1fe>
100016ca:	22e0      	movs	r2, #224	; 0xe0
100016cc:	4932      	ldr	r1, [pc, #200]	; (10001798 <clocks_init+0x2d0>)
100016ce:	680b      	ldr	r3, [r1, #0]
100016d0:	401a      	ands	r2, r3
100016d2:	2380      	movs	r3, #128	; 0x80
100016d4:	015b      	lsls	r3, r3, #5
100016d6:	432b      	orrs	r3, r5
100016d8:	601a      	str	r2, [r3, #0]
100016da:	2380      	movs	r3, #128	; 0x80
100016dc:	2280      	movs	r2, #128	; 0x80
100016de:	019b      	lsls	r3, r3, #6
100016e0:	432b      	orrs	r3, r5
100016e2:	0112      	lsls	r2, r2, #4
100016e4:	601a      	str	r2, [r3, #0]
100016e6:	2380      	movs	r3, #128	; 0x80
100016e8:	02db      	lsls	r3, r3, #11
100016ea:	604b      	str	r3, [r1, #4]
100016ec:	4b17      	ldr	r3, [pc, #92]	; (1000174c <clocks_init+0x284>)
100016ee:	6263      	str	r3, [r4, #36]	; 0x24
100016f0:	4b2b      	ldr	r3, [pc, #172]	; (100017a0 <clocks_init+0x2d8>)
100016f2:	685a      	ldr	r2, [r3, #4]
100016f4:	2aff      	cmp	r2, #255	; 0xff
100016f6:	d802      	bhi.n	100016fe <clocks_init+0x236>
100016f8:	2280      	movs	r2, #128	; 0x80
100016fa:	0052      	lsls	r2, r2, #1
100016fc:	605a      	str	r2, [r3, #4]
100016fe:	2280      	movs	r2, #128	; 0x80
10001700:	4b28      	ldr	r3, [pc, #160]	; (100017a4 <clocks_init+0x2dc>)
10001702:	69a1      	ldr	r1, [r4, #24]
10001704:	0112      	lsls	r2, r2, #4
10001706:	4d26      	ldr	r5, [pc, #152]	; (100017a0 <clocks_init+0x2d8>)
10001708:	601a      	str	r2, [r3, #0]
1000170a:	2900      	cmp	r1, #0
1000170c:	d005      	beq.n	1000171a <clocks_init+0x252>
1000170e:	6960      	ldr	r0, [r4, #20]
10001710:	f000 fa9a 	bl	10001c48 <__wrap___aeabi_uidiv>
10001714:	3001      	adds	r0, #1
10001716:	3801      	subs	r0, #1
10001718:	d1fd      	bne.n	10001716 <clocks_init+0x24e>
1000171a:	22e0      	movs	r2, #224	; 0xe0
1000171c:	4920      	ldr	r1, [pc, #128]	; (100017a0 <clocks_init+0x2d8>)
1000171e:	680b      	ldr	r3, [r1, #0]
10001720:	401a      	ands	r2, r3
10001722:	2380      	movs	r3, #128	; 0x80
10001724:	015b      	lsls	r3, r3, #5
10001726:	432b      	orrs	r3, r5
10001728:	601a      	str	r2, [r3, #0]
1000172a:	2380      	movs	r3, #128	; 0x80
1000172c:	2280      	movs	r2, #128	; 0x80
1000172e:	019b      	lsls	r3, r3, #6
10001730:	432b      	orrs	r3, r5
10001732:	0112      	lsls	r2, r2, #4
10001734:	601a      	str	r2, [r3, #0]
10001736:	2380      	movs	r3, #128	; 0x80
10001738:	005b      	lsls	r3, r3, #1
1000173a:	604b      	str	r3, [r1, #4]
1000173c:	4b11      	ldr	r3, [pc, #68]	; (10001784 <clocks_init+0x2bc>)
1000173e:	61a3      	str	r3, [r4, #24]
10001740:	e6d8      	b.n	100014f4 <clocks_init+0x2c>
10001742:	46c0      	nop			; (mov r8, r8)
10001744:	20001200 	.word	0x20001200
10001748:	02dc6c00 	.word	0x02dc6c00
1000174c:	0000b71b 	.word	0x0000b71b
10001750:	40008000 	.word	0x40008000
10001754:	4000b03c 	.word	0x4000b03c
10001758:	4000b030 	.word	0x4000b030
1000175c:	4000e000 	.word	0x4000e000
10001760:	4000f000 	.word	0x4000f000
10001764:	4000c000 	.word	0x4000c000
10001768:	59682f00 	.word	0x59682f00
1000176c:	40028000 	.word	0x40028000
10001770:	1c9c3800 	.word	0x1c9c3800
10001774:	4002c000 	.word	0x4002c000
10001778:	40008030 	.word	0x40008030
1000177c:	00b71b00 	.word	0x00b71b00
10001780:	4000803c 	.word	0x4000803c
10001784:	07735940 	.word	0x07735940
10001788:	40008054 	.word	0x40008054
1000178c:	4000b054 	.word	0x4000b054
10001790:	40008060 	.word	0x40008060
10001794:	4000b060 	.word	0x4000b060
10001798:	4000806c 	.word	0x4000806c
1000179c:	4000b06c 	.word	0x4000b06c
100017a0:	40008048 	.word	0x40008048
100017a4:	4000b048 	.word	0x4000b048

100017a8 <clock_get_hz>:
100017a8:	4b01      	ldr	r3, [pc, #4]	; (100017b0 <clock_get_hz+0x8>)
100017aa:	0080      	lsls	r0, r0, #2
100017ac:	58c0      	ldr	r0, [r0, r3]
100017ae:	4770      	bx	lr
100017b0:	20001200 	.word	0x20001200

100017b4 <watchdog_start_tick>:
100017b4:	2380      	movs	r3, #128	; 0x80
100017b6:	4a02      	ldr	r2, [pc, #8]	; (100017c0 <watchdog_start_tick+0xc>)
100017b8:	009b      	lsls	r3, r3, #2
100017ba:	4303      	orrs	r3, r0
100017bc:	62d3      	str	r3, [r2, #44]	; 0x2c
100017be:	4770      	bx	lr
100017c0:	40058000 	.word	0x40058000

100017c4 <xosc_init>:
100017c4:	23aa      	movs	r3, #170	; 0xaa
100017c6:	4a06      	ldr	r2, [pc, #24]	; (100017e0 <xosc_init+0x1c>)
100017c8:	011b      	lsls	r3, r3, #4
100017ca:	6013      	str	r3, [r2, #0]
100017cc:	232f      	movs	r3, #47	; 0x2f
100017ce:	4905      	ldr	r1, [pc, #20]	; (100017e4 <xosc_init+0x20>)
100017d0:	60d3      	str	r3, [r2, #12]
100017d2:	4b05      	ldr	r3, [pc, #20]	; (100017e8 <xosc_init+0x24>)
100017d4:	6019      	str	r1, [r3, #0]
100017d6:	6853      	ldr	r3, [r2, #4]
100017d8:	2b00      	cmp	r3, #0
100017da:	dafc      	bge.n	100017d6 <xosc_init+0x12>
100017dc:	4770      	bx	lr
100017de:	46c0      	nop			; (mov r8, r8)
100017e0:	40024000 	.word	0x40024000
100017e4:	00fab000 	.word	0x00fab000
100017e8:	40026000 	.word	0x40026000

100017ec <pll_init>:
100017ec:	b5f0      	push	{r4, r5, r6, r7, lr}
100017ee:	46c6      	mov	lr, r8
100017f0:	b500      	push	{lr}
100017f2:	001e      	movs	r6, r3
100017f4:	ab06      	add	r3, sp, #24
100017f6:	781f      	ldrb	r7, [r3, #0]
100017f8:	2301      	movs	r3, #1
100017fa:	425b      	negs	r3, r3
100017fc:	6043      	str	r3, [r0, #4]
100017fe:	2300      	movs	r3, #0
10001800:	0004      	movs	r4, r0
10001802:	6083      	str	r3, [r0, #8]
10001804:	6001      	str	r1, [r0, #0]
10001806:	200c      	movs	r0, #12
10001808:	4690      	mov	r8, r2
1000180a:	f000 fa1d 	bl	10001c48 <__wrap___aeabi_uidiv>
1000180e:	0141      	lsls	r1, r0, #5
10001810:	1a09      	subs	r1, r1, r0
10001812:	018d      	lsls	r5, r1, #6
10001814:	1a69      	subs	r1, r5, r1
10001816:	00c9      	lsls	r1, r1, #3
10001818:	1809      	adds	r1, r1, r0
1000181a:	0189      	lsls	r1, r1, #6
1000181c:	4640      	mov	r0, r8
1000181e:	f000 fa13 	bl	10001c48 <__wrap___aeabi_uidiv>
10001822:	21c0      	movs	r1, #192	; 0xc0
10001824:	1d23      	adds	r3, r4, #4
10001826:	0189      	lsls	r1, r1, #6
10001828:	4319      	orrs	r1, r3
1000182a:	2321      	movs	r3, #33	; 0x21
1000182c:	60a0      	str	r0, [r4, #8]
1000182e:	600b      	str	r3, [r1, #0]
10001830:	6822      	ldr	r2, [r4, #0]
10001832:	2a00      	cmp	r2, #0
10001834:	dafc      	bge.n	10001830 <pll_init+0x44>
10001836:	2308      	movs	r3, #8
10001838:	033f      	lsls	r7, r7, #12
1000183a:	0436      	lsls	r6, r6, #16
1000183c:	433e      	orrs	r6, r7
1000183e:	60e6      	str	r6, [r4, #12]
10001840:	600b      	str	r3, [r1, #0]
10001842:	bc80      	pop	{r7}
10001844:	46b8      	mov	r8, r7
10001846:	bdf0      	pop	{r4, r5, r6, r7, pc}

10001848 <irq_set_enabled>:
10001848:	2301      	movs	r3, #1
1000184a:	4083      	lsls	r3, r0
1000184c:	2900      	cmp	r1, #0
1000184e:	d004      	beq.n	1000185a <irq_set_enabled+0x12>
10001850:	4a03      	ldr	r2, [pc, #12]	; (10001860 <irq_set_enabled+0x18>)
10001852:	6013      	str	r3, [r2, #0]
10001854:	4a03      	ldr	r2, [pc, #12]	; (10001864 <irq_set_enabled+0x1c>)
10001856:	6013      	str	r3, [r2, #0]
10001858:	4770      	bx	lr
1000185a:	4a03      	ldr	r2, [pc, #12]	; (10001868 <irq_set_enabled+0x20>)
1000185c:	6013      	str	r3, [r2, #0]
1000185e:	e7fb      	b.n	10001858 <irq_set_enabled+0x10>
10001860:	e000e280 	.word	0xe000e280
10001864:	e000e100 	.word	0xe000e100
10001868:	e000e180 	.word	0xe000e180

1000186c <irq_set_pending>:
1000186c:	2301      	movs	r3, #1
1000186e:	4083      	lsls	r3, r0
10001870:	4a01      	ldr	r2, [pc, #4]	; (10001878 <irq_set_pending+0xc>)
10001872:	6013      	str	r3, [r2, #0]
10001874:	4770      	bx	lr
10001876:	46c0      	nop			; (mov r8, r8)
10001878:	e000e200 	.word	0xe000e200

1000187c <irq_get_vtable_handler>:
1000187c:	4b02      	ldr	r3, [pc, #8]	; (10001888 <irq_get_vtable_handler+0xc>)
1000187e:	3010      	adds	r0, #16
10001880:	689b      	ldr	r3, [r3, #8]
10001882:	0080      	lsls	r0, r0, #2
10001884:	58c0      	ldr	r0, [r0, r3]
10001886:	4770      	bx	lr
10001888:	e000ed00 	.word	0xe000ed00

1000188c <irq_set_exclusive_handler>:
1000188c:	b570      	push	{r4, r5, r6, lr}
1000188e:	000d      	movs	r5, r1
10001890:	f3ef 8610 	mrs	r6, PRIMASK
10001894:	b672      	cpsid	i
10001896:	4a0f      	ldr	r2, [pc, #60]	; (100018d4 <irq_set_exclusive_handler+0x48>)
10001898:	6813      	ldr	r3, [r2, #0]
1000189a:	2b00      	cmp	r3, #0
1000189c:	d0fc      	beq.n	10001898 <irq_set_exclusive_handler+0xc>
1000189e:	f3bf 8f5f 	dmb	sy
100018a2:	4b0d      	ldr	r3, [pc, #52]	; (100018d8 <irq_set_exclusive_handler+0x4c>)
100018a4:	3010      	adds	r0, #16
100018a6:	689b      	ldr	r3, [r3, #8]
100018a8:	0084      	lsls	r4, r0, #2
100018aa:	591b      	ldr	r3, [r3, r4]
100018ac:	4a0b      	ldr	r2, [pc, #44]	; (100018dc <irq_set_exclusive_handler+0x50>)
100018ae:	4293      	cmp	r3, r2
100018b0:	d003      	beq.n	100018ba <irq_set_exclusive_handler+0x2e>
100018b2:	429d      	cmp	r5, r3
100018b4:	d001      	beq.n	100018ba <irq_set_exclusive_handler+0x2e>
100018b6:	f7ff fe01 	bl	100014bc <hard_assertion_failure>
100018ba:	4b07      	ldr	r3, [pc, #28]	; (100018d8 <irq_set_exclusive_handler+0x4c>)
100018bc:	689b      	ldr	r3, [r3, #8]
100018be:	511d      	str	r5, [r3, r4]
100018c0:	f3bf 8f5f 	dmb	sy
100018c4:	f3bf 8f5f 	dmb	sy
100018c8:	2200      	movs	r2, #0
100018ca:	4b02      	ldr	r3, [pc, #8]	; (100018d4 <irq_set_exclusive_handler+0x48>)
100018cc:	601a      	str	r2, [r3, #0]
100018ce:	f386 8810 	msr	PRIMASK, r6
100018d2:	bd70      	pop	{r4, r5, r6, pc}
100018d4:	d0000124 	.word	0xd0000124
100018d8:	e000ed00 	.word	0xe000ed00
100018dc:	100001cd 	.word	0x100001cd

100018e0 <irq_remove_handler>:
100018e0:	b5f0      	push	{r4, r5, r6, r7, lr}
100018e2:	46de      	mov	lr, fp
100018e4:	4657      	mov	r7, sl
100018e6:	464e      	mov	r6, r9
100018e8:	4645      	mov	r5, r8
100018ea:	b5e0      	push	{r5, r6, r7, lr}
100018ec:	000c      	movs	r4, r1
100018ee:	b083      	sub	sp, #12
100018f0:	f3ef 8a10 	mrs	sl, PRIMASK
100018f4:	b672      	cpsid	i
100018f6:	4a5e      	ldr	r2, [pc, #376]	; (10001a70 <irq_remove_handler+0x190>)
100018f8:	6813      	ldr	r3, [r2, #0]
100018fa:	2b00      	cmp	r3, #0
100018fc:	d0fc      	beq.n	100018f8 <irq_remove_handler+0x18>
100018fe:	f3bf 8f5f 	dmb	sy
10001902:	2210      	movs	r2, #16
10001904:	4691      	mov	r9, r2
10001906:	4481      	add	r9, r0
10001908:	464a      	mov	r2, r9
1000190a:	4b5a      	ldr	r3, [pc, #360]	; (10001a74 <irq_remove_handler+0x194>)
1000190c:	0096      	lsls	r6, r2, #2
1000190e:	689b      	ldr	r3, [r3, #8]
10001910:	599d      	ldr	r5, [r3, r6]
10001912:	4b59      	ldr	r3, [pc, #356]	; (10001a78 <irq_remove_handler+0x198>)
10001914:	4698      	mov	r8, r3
10001916:	429d      	cmp	r5, r3
10001918:	d005      	beq.n	10001926 <irq_remove_handler+0x46>
1000191a:	42a5      	cmp	r5, r4
1000191c:	d016      	beq.n	1000194c <irq_remove_handler+0x6c>
1000191e:	4f57      	ldr	r7, [pc, #348]	; (10001a7c <irq_remove_handler+0x19c>)
10001920:	1beb      	subs	r3, r5, r7
10001922:	2b2f      	cmp	r3, #47	; 0x2f
10001924:	d914      	bls.n	10001950 <irq_remove_handler+0x70>
10001926:	4b53      	ldr	r3, [pc, #332]	; (10001a74 <irq_remove_handler+0x194>)
10001928:	689b      	ldr	r3, [r3, #8]
1000192a:	519d      	str	r5, [r3, r6]
1000192c:	f3bf 8f5f 	dmb	sy
10001930:	f3bf 8f5f 	dmb	sy
10001934:	2200      	movs	r2, #0
10001936:	4b4e      	ldr	r3, [pc, #312]	; (10001a70 <irq_remove_handler+0x190>)
10001938:	601a      	str	r2, [r3, #0]
1000193a:	f38a 8810 	msr	PRIMASK, sl
1000193e:	b003      	add	sp, #12
10001940:	bcf0      	pop	{r4, r5, r6, r7}
10001942:	46bb      	mov	fp, r7
10001944:	46b2      	mov	sl, r6
10001946:	46a9      	mov	r9, r5
10001948:	46a0      	mov	r8, r4
1000194a:	bdf0      	pop	{r4, r5, r6, r7, pc}
1000194c:	001d      	movs	r5, r3
1000194e:	e7ea      	b.n	10001926 <irq_remove_handler+0x46>
10001950:	2301      	movs	r3, #1
10001952:	4083      	lsls	r3, r0
10001954:	469b      	mov	fp, r3
10001956:	465a      	mov	r2, fp
10001958:	4b49      	ldr	r3, [pc, #292]	; (10001a80 <irq_remove_handler+0x1a0>)
1000195a:	681b      	ldr	r3, [r3, #0]
1000195c:	401a      	ands	r2, r3
1000195e:	9200      	str	r2, [sp, #0]
10001960:	465a      	mov	r2, fp
10001962:	4b48      	ldr	r3, [pc, #288]	; (10001a84 <irq_remove_handler+0x1a4>)
10001964:	601a      	str	r2, [r3, #0]
10001966:	f3bf 8f5f 	dmb	sy
1000196a:	f7fe fc7c 	bl	10000266 <__get_current_exception>
1000196e:	9001      	str	r0, [sp, #4]
10001970:	2800      	cmp	r0, #0
10001972:	d003      	beq.n	1000197c <irq_remove_handler+0x9c>
10001974:	4581      	cmp	r9, r0
10001976:	d001      	beq.n	1000197c <irq_remove_handler+0x9c>
10001978:	f7ff fda0 	bl	100014bc <hard_assertion_failure>
1000197c:	2301      	movs	r3, #1
1000197e:	0029      	movs	r1, r5
10001980:	2006      	movs	r0, #6
10001982:	4399      	bics	r1, r3
10001984:	688b      	ldr	r3, [r1, #8]
10001986:	5608      	ldrsb	r0, [r1, r0]
10001988:	42a3      	cmp	r3, r4
1000198a:	d068      	beq.n	10001a5e <irq_remove_handler+0x17e>
1000198c:	000a      	movs	r2, r1
1000198e:	e009      	b.n	100019a4 <irq_remove_handler+0xc4>
10001990:	0043      	lsls	r3, r0, #1
10001992:	181b      	adds	r3, r3, r0
10001994:	009b      	lsls	r3, r3, #2
10001996:	18fb      	adds	r3, r7, r3
10001998:	6898      	ldr	r0, [r3, #8]
1000199a:	42a0      	cmp	r0, r4
1000199c:	d011      	beq.n	100019c2 <irq_remove_handler+0xe2>
1000199e:	2006      	movs	r0, #6
100019a0:	001a      	movs	r2, r3
100019a2:	5618      	ldrsb	r0, [r3, r0]
100019a4:	2800      	cmp	r0, #0
100019a6:	daf3      	bge.n	10001990 <irq_remove_handler+0xb0>
100019a8:	9b00      	ldr	r3, [sp, #0]
100019aa:	2b00      	cmp	r3, #0
100019ac:	d005      	beq.n	100019ba <irq_remove_handler+0xda>
100019ae:	465a      	mov	r2, fp
100019b0:	4b35      	ldr	r3, [pc, #212]	; (10001a88 <irq_remove_handler+0x1a8>)
100019b2:	601a      	str	r2, [r3, #0]
100019b4:	4b32      	ldr	r3, [pc, #200]	; (10001a80 <irq_remove_handler+0x1a0>)
100019b6:	601a      	str	r2, [r3, #0]
100019b8:	e7b5      	b.n	10001926 <irq_remove_handler+0x46>
100019ba:	465a      	mov	r2, fp
100019bc:	4b31      	ldr	r3, [pc, #196]	; (10001a84 <irq_remove_handler+0x1a4>)
100019be:	601a      	str	r2, [r3, #0]
100019c0:	e7b1      	b.n	10001926 <irq_remove_handler+0x46>
100019c2:	2006      	movs	r0, #6
100019c4:	5618      	ldrsb	r0, [r3, r0]
100019c6:	2800      	cmp	r0, #0
100019c8:	db21      	blt.n	10001a0e <irq_remove_handler+0x12e>
100019ca:	0042      	lsls	r2, r0, #1
100019cc:	1811      	adds	r1, r2, r0
100019ce:	0089      	lsls	r1, r1, #2
100019d0:	187c      	adds	r4, r7, r1
100019d2:	4688      	mov	r8, r1
100019d4:	68a1      	ldr	r1, [r4, #8]
100019d6:	6099      	str	r1, [r3, #8]
100019d8:	79e1      	ldrb	r1, [r4, #7]
100019da:	71d9      	strb	r1, [r3, #7]
100019dc:	2106      	movs	r1, #6
100019de:	5661      	ldrsb	r1, [r4, r1]
100019e0:	7199      	strb	r1, [r3, #6]
100019e2:	2900      	cmp	r1, #0
100019e4:	db2b      	blt.n	10001a3e <irq_remove_handler+0x15e>
100019e6:	88a4      	ldrh	r4, [r4, #4]
100019e8:	1af9      	subs	r1, r7, r3
100019ea:	0564      	lsls	r4, r4, #21
100019ec:	1524      	asrs	r4, r4, #20
100019ee:	4444      	add	r4, r8
100019f0:	1909      	adds	r1, r1, r4
100019f2:	24e0      	movs	r4, #224	; 0xe0
100019f4:	0509      	lsls	r1, r1, #20
100019f6:	0d49      	lsrs	r1, r1, #21
100019f8:	0224      	lsls	r4, r4, #8
100019fa:	4321      	orrs	r1, r4
100019fc:	8099      	strh	r1, [r3, #4]
100019fe:	1812      	adds	r2, r2, r0
10001a00:	4b22      	ldr	r3, [pc, #136]	; (10001a8c <irq_remove_handler+0x1ac>)
10001a02:	0092      	lsls	r2, r2, #2
10001a04:	18bf      	adds	r7, r7, r2
10001a06:	781a      	ldrb	r2, [r3, #0]
10001a08:	7018      	strb	r0, [r3, #0]
10001a0a:	71ba      	strb	r2, [r7, #6]
10001a0c:	e7cc      	b.n	100019a8 <irq_remove_handler+0xc8>
10001a0e:	9801      	ldr	r0, [sp, #4]
10001a10:	2800      	cmp	r0, #0
10001a12:	d117      	bne.n	10001a44 <irq_remove_handler+0x164>
10001a14:	30ff      	adds	r0, #255	; 0xff
10001a16:	7190      	strb	r0, [r2, #6]
10001a18:	481d      	ldr	r0, [pc, #116]	; (10001a90 <irq_remove_handler+0x1b0>)
10001a1a:	8090      	strh	r0, [r2, #4]
10001a1c:	4a1b      	ldr	r2, [pc, #108]	; (10001a8c <irq_remove_handler+0x1ac>)
10001a1e:	1bc9      	subs	r1, r1, r7
10001a20:	7810      	ldrb	r0, [r2, #0]
10001a22:	1089      	asrs	r1, r1, #2
10001a24:	7198      	strb	r0, [r3, #6]
10001a26:	008b      	lsls	r3, r1, #2
10001a28:	185b      	adds	r3, r3, r1
10001a2a:	0118      	lsls	r0, r3, #4
10001a2c:	181b      	adds	r3, r3, r0
10001a2e:	0218      	lsls	r0, r3, #8
10001a30:	181b      	adds	r3, r3, r0
10001a32:	0418      	lsls	r0, r3, #16
10001a34:	181b      	adds	r3, r3, r0
10001a36:	005b      	lsls	r3, r3, #1
10001a38:	185b      	adds	r3, r3, r1
10001a3a:	7013      	strb	r3, [r2, #0]
10001a3c:	e7b4      	b.n	100019a8 <irq_remove_handler+0xc8>
10001a3e:	21bd      	movs	r1, #189	; 0xbd
10001a40:	0209      	lsls	r1, r1, #8
10001a42:	e7db      	b.n	100019fc <irq_remove_handler+0x11c>
10001a44:	4a13      	ldr	r2, [pc, #76]	; (10001a94 <irq_remove_handler+0x1b4>)
10001a46:	4914      	ldr	r1, [pc, #80]	; (10001a98 <irq_remove_handler+0x1b8>)
10001a48:	1ad2      	subs	r2, r2, r3
10001a4a:	3a08      	subs	r2, #8
10001a4c:	0250      	lsls	r0, r2, #9
10001a4e:	0d40      	lsrs	r0, r0, #21
10001a50:	4301      	orrs	r1, r0
10001a52:	8099      	strh	r1, [r3, #4]
10001a54:	4911      	ldr	r1, [pc, #68]	; (10001a9c <irq_remove_handler+0x1bc>)
10001a56:	0852      	lsrs	r2, r2, #1
10001a58:	430a      	orrs	r2, r1
10001a5a:	80da      	strh	r2, [r3, #6]
10001a5c:	e7a4      	b.n	100019a8 <irq_remove_handler+0xc8>
10001a5e:	000b      	movs	r3, r1
10001a60:	2800      	cmp	r0, #0
10001a62:	dab2      	bge.n	100019ca <irq_remove_handler+0xea>
10001a64:	9a01      	ldr	r2, [sp, #4]
10001a66:	2a00      	cmp	r2, #0
10001a68:	d1ec      	bne.n	10001a44 <irq_remove_handler+0x164>
10001a6a:	4645      	mov	r5, r8
10001a6c:	e7d6      	b.n	10001a1c <irq_remove_handler+0x13c>
10001a6e:	46c0      	nop			; (mov r8, r8)
10001a70:	d0000124 	.word	0xd0000124
10001a74:	e000ed00 	.word	0xe000ed00
10001a78:	100001cd 	.word	0x100001cd
10001a7c:	2000024c 	.word	0x2000024c
10001a80:	e000e100 	.word	0xe000e100
10001a84:	e000e180 	.word	0xe000e180
10001a88:	e000e280 	.word	0xe000e280
10001a8c:	20001938 	.word	0x20001938
10001a90:	ffffbd00 	.word	0xffffbd00
10001a94:	20000286 	.word	0x20000286
10001a98:	fffff000 	.word	0xfffff000
10001a9c:	fffff800 	.word	0xfffff800

10001aa0 <irq_add_tail_to_free_list>:
10001aa0:	b570      	push	{r4, r5, r6, lr}
10001aa2:	2501      	movs	r5, #1
10001aa4:	0004      	movs	r4, r0
10001aa6:	4305      	orrs	r5, r0
10001aa8:	f7fe fbdd 	bl	10000266 <__get_current_exception>
10001aac:	f3ef 8c10 	mrs	ip, PRIMASK
10001ab0:	b672      	cpsid	i
10001ab2:	4a24      	ldr	r2, [pc, #144]	; (10001b44 <irq_add_tail_to_free_list+0xa4>)
10001ab4:	6813      	ldr	r3, [r2, #0]
10001ab6:	2b00      	cmp	r3, #0
10001ab8:	d0fc      	beq.n	10001ab4 <irq_add_tail_to_free_list+0x14>
10001aba:	f3bf 8f5f 	dmb	sy
10001abe:	4e22      	ldr	r6, [pc, #136]	; (10001b48 <irq_add_tail_to_free_list+0xa8>)
10001ac0:	0080      	lsls	r0, r0, #2
10001ac2:	1ba1      	subs	r1, r4, r6
10001ac4:	1089      	asrs	r1, r1, #2
10001ac6:	008a      	lsls	r2, r1, #2
10001ac8:	1852      	adds	r2, r2, r1
10001aca:	0113      	lsls	r3, r2, #4
10001acc:	18d2      	adds	r2, r2, r3
10001ace:	0213      	lsls	r3, r2, #8
10001ad0:	18d2      	adds	r2, r2, r3
10001ad2:	0413      	lsls	r3, r2, #16
10001ad4:	18d3      	adds	r3, r2, r3
10001ad6:	4a1d      	ldr	r2, [pc, #116]	; (10001b4c <irq_add_tail_to_free_list+0xac>)
10001ad8:	005b      	lsls	r3, r3, #1
10001ada:	185b      	adds	r3, r3, r1
10001adc:	6891      	ldr	r1, [r2, #8]
10001ade:	5809      	ldr	r1, [r1, r0]
10001ae0:	42a9      	cmp	r1, r5
10001ae2:	d01c      	beq.n	10001b1e <irq_add_tail_to_free_list+0x7e>
10001ae4:	2206      	movs	r2, #6
10001ae6:	56b2      	ldrsb	r2, [r6, r2]
10001ae8:	429a      	cmp	r2, r3
10001aea:	d01c      	beq.n	10001b26 <irq_add_tail_to_free_list+0x86>
10001aec:	2212      	movs	r2, #18
10001aee:	56b2      	ldrsb	r2, [r6, r2]
10001af0:	4293      	cmp	r3, r2
10001af2:	d022      	beq.n	10001b3a <irq_add_tail_to_free_list+0x9a>
10001af4:	221e      	movs	r2, #30
10001af6:	56b2      	ldrsb	r2, [r6, r2]
10001af8:	4293      	cmp	r3, r2
10001afa:	d020      	beq.n	10001b3e <irq_add_tail_to_free_list+0x9e>
10001afc:	222a      	movs	r2, #42	; 0x2a
10001afe:	56b2      	ldrsb	r2, [r6, r2]
10001b00:	2103      	movs	r1, #3
10001b02:	429a      	cmp	r2, r3
10001b04:	d010      	beq.n	10001b28 <irq_add_tail_to_free_list+0x88>
10001b06:	4a12      	ldr	r2, [pc, #72]	; (10001b50 <irq_add_tail_to_free_list+0xb0>)
10001b08:	7811      	ldrb	r1, [r2, #0]
10001b0a:	7013      	strb	r3, [r2, #0]
10001b0c:	71a1      	strb	r1, [r4, #6]
10001b0e:	f3bf 8f5f 	dmb	sy
10001b12:	2200      	movs	r2, #0
10001b14:	4b0b      	ldr	r3, [pc, #44]	; (10001b44 <irq_add_tail_to_free_list+0xa4>)
10001b16:	601a      	str	r2, [r3, #0]
10001b18:	f38c 8810 	msr	PRIMASK, ip
10001b1c:	bd70      	pop	{r4, r5, r6, pc}
10001b1e:	6892      	ldr	r2, [r2, #8]
10001b20:	490c      	ldr	r1, [pc, #48]	; (10001b54 <irq_add_tail_to_free_list+0xb4>)
10001b22:	5011      	str	r1, [r2, r0]
10001b24:	e7ef      	b.n	10001b06 <irq_add_tail_to_free_list+0x66>
10001b26:	2100      	movs	r1, #0
10001b28:	004a      	lsls	r2, r1, #1
10001b2a:	1852      	adds	r2, r2, r1
10001b2c:	21ff      	movs	r1, #255	; 0xff
10001b2e:	0092      	lsls	r2, r2, #2
10001b30:	18b2      	adds	r2, r6, r2
10001b32:	7191      	strb	r1, [r2, #6]
10001b34:	4908      	ldr	r1, [pc, #32]	; (10001b58 <irq_add_tail_to_free_list+0xb8>)
10001b36:	8091      	strh	r1, [r2, #4]
10001b38:	e7e5      	b.n	10001b06 <irq_add_tail_to_free_list+0x66>
10001b3a:	2101      	movs	r1, #1
10001b3c:	e7f4      	b.n	10001b28 <irq_add_tail_to_free_list+0x88>
10001b3e:	2102      	movs	r1, #2
10001b40:	e7f2      	b.n	10001b28 <irq_add_tail_to_free_list+0x88>
10001b42:	46c0      	nop			; (mov r8, r8)
10001b44:	d0000124 	.word	0xd0000124
10001b48:	2000024c 	.word	0x2000024c
10001b4c:	e000ed00 	.word	0xe000ed00
10001b50:	20001938 	.word	0x20001938
10001b54:	100001cd 	.word	0x100001cd
10001b58:	ffffbd00 	.word	0xffffbd00

10001b5c <irq_init_priorities>:
10001b5c:	b5f0      	push	{r4, r5, r6, r7, lr}
10001b5e:	2200      	movs	r2, #0
10001b60:	2403      	movs	r4, #3
10001b62:	27ff      	movs	r7, #255	; 0xff
10001b64:	2680      	movs	r6, #128	; 0x80
10001b66:	0020      	movs	r0, r4
10001b68:	003d      	movs	r5, r7
10001b6a:	4b09      	ldr	r3, [pc, #36]	; (10001b90 <irq_init_priorities+0x34>)
10001b6c:	0011      	movs	r1, r2
10001b6e:	469c      	mov	ip, r3
10001b70:	4010      	ands	r0, r2
10001b72:	00c0      	lsls	r0, r0, #3
10001b74:	4085      	lsls	r5, r0
10001b76:	43a1      	bics	r1, r4
10001b78:	4461      	add	r1, ip
10001b7a:	680b      	ldr	r3, [r1, #0]
10001b7c:	3201      	adds	r2, #1
10001b7e:	43ab      	bics	r3, r5
10001b80:	0035      	movs	r5, r6
10001b82:	4085      	lsls	r5, r0
10001b84:	432b      	orrs	r3, r5
10001b86:	600b      	str	r3, [r1, #0]
10001b88:	2a20      	cmp	r2, #32
10001b8a:	d1ec      	bne.n	10001b66 <irq_init_priorities+0xa>
10001b8c:	bdf0      	pop	{r4, r5, r6, r7, pc}
10001b8e:	46c0      	nop			; (mov r8, r8)
10001b90:	e000e400 	.word	0xe000e400

10001b94 <_out_char>:
10001b94:	b510      	push	{r4, lr}
10001b96:	2800      	cmp	r0, #0
10001b98:	d100      	bne.n	10001b9c <_out_char+0x8>
10001b9a:	bd10      	pop	{r4, pc}
10001b9c:	f000 fa1a 	bl	10001fd4 <__wrap_putchar>
10001ba0:	e7fb      	b.n	10001b9a <_out_char+0x6>
10001ba2:	46c0      	nop			; (mov r8, r8)

10001ba4 <weak_raw_vprintf>:
10001ba4:	b510      	push	{r4, lr}
10001ba6:	4a09      	ldr	r2, [pc, #36]	; (10001bcc <weak_raw_vprintf+0x28>)
10001ba8:	0003      	movs	r3, r0
10001baa:	6814      	ldr	r4, [r2, #0]
10001bac:	b084      	sub	sp, #16
10001bae:	2c00      	cmp	r4, #0
10001bb0:	d008      	beq.n	10001bc4 <weak_raw_vprintf+0x20>
10001bb2:	2201      	movs	r2, #1
10001bb4:	9100      	str	r1, [sp, #0]
10001bb6:	4806      	ldr	r0, [pc, #24]	; (10001bd0 <weak_raw_vprintf+0x2c>)
10001bb8:	4252      	negs	r2, r2
10001bba:	a903      	add	r1, sp, #12
10001bbc:	47a0      	blx	r4
10001bbe:	2001      	movs	r0, #1
10001bc0:	b004      	add	sp, #16
10001bc2:	bd10      	pop	{r4, pc}
10001bc4:	f000 fa14 	bl	10001ff0 <__wrap_puts>
10001bc8:	2000      	movs	r0, #0
10001bca:	e7f9      	b.n	10001bc0 <weak_raw_vprintf+0x1c>
10001bcc:	200018e4 	.word	0x200018e4
10001bd0:	10001b95 	.word	0x10001b95

10001bd4 <__aeabi_bits_init>:
10001bd4:	4801      	ldr	r0, [pc, #4]	; (10001bdc <__aeabi_bits_init+0x8>)
10001bd6:	2104      	movs	r1, #4
10001bd8:	4b01      	ldr	r3, [pc, #4]	; (10001be0 <__aeabi_bits_init+0xc>)
10001bda:	4718      	bx	r3
10001bdc:	200002a0 	.word	0x200002a0
10001be0:	10001c05 	.word	0x10001c05

10001be4 <rom_func_lookup>:
10001be4:	2314      	movs	r3, #20
10001be6:	b510      	push	{r4, lr}
10001be8:	0001      	movs	r1, r0
10001bea:	8818      	ldrh	r0, [r3, #0]
10001bec:	3304      	adds	r3, #4
10001bee:	881b      	ldrh	r3, [r3, #0]
10001bf0:	4798      	blx	r3
10001bf2:	bd10      	pop	{r4, pc}

10001bf4 <rom_data_lookup>:
10001bf4:	2316      	movs	r3, #22
10001bf6:	b510      	push	{r4, lr}
10001bf8:	0001      	movs	r1, r0
10001bfa:	8818      	ldrh	r0, [r3, #0]
10001bfc:	3302      	adds	r3, #2
10001bfe:	881b      	ldrh	r3, [r3, #0]
10001c00:	4798      	blx	r3
10001c02:	bd10      	pop	{r4, pc}

10001c04 <rom_funcs_lookup>:
10001c04:	b5f8      	push	{r3, r4, r5, r6, r7, lr}
10001c06:	4647      	mov	r7, r8
10001c08:	46ce      	mov	lr, r9
10001c0a:	b580      	push	{r7, lr}
10001c0c:	1e0f      	subs	r7, r1, #0
10001c0e:	d019      	beq.n	10001c44 <rom_funcs_lookup+0x40>
10001c10:	2314      	movs	r3, #20
10001c12:	4699      	mov	r9, r3
10001c14:	3304      	adds	r3, #4
10001c16:	0004      	movs	r4, r0
10001c18:	2500      	movs	r5, #0
10001c1a:	2601      	movs	r6, #1
10001c1c:	4698      	mov	r8, r3
10001c1e:	464b      	mov	r3, r9
10001c20:	8818      	ldrh	r0, [r3, #0]
10001c22:	4643      	mov	r3, r8
10001c24:	6821      	ldr	r1, [r4, #0]
10001c26:	881b      	ldrh	r3, [r3, #0]
10001c28:	4798      	blx	r3
10001c2a:	c401      	stmia	r4!, {r0}
10001c2c:	1e43      	subs	r3, r0, #1
10001c2e:	4198      	sbcs	r0, r3
10001c30:	3501      	adds	r5, #1
10001c32:	4240      	negs	r0, r0
10001c34:	4006      	ands	r6, r0
10001c36:	42af      	cmp	r7, r5
10001c38:	d1f1      	bne.n	10001c1e <rom_funcs_lookup+0x1a>
10001c3a:	0030      	movs	r0, r6
10001c3c:	bcc0      	pop	{r6, r7}
10001c3e:	46b9      	mov	r9, r7
10001c40:	46b0      	mov	r8, r6
10001c42:	bdf8      	pop	{r3, r4, r5, r6, r7, pc}
10001c44:	2601      	movs	r6, #1
10001c46:	e7f8      	b.n	10001c3a <rom_funcs_lookup+0x36>

10001c48 <__wrap___aeabi_uidiv>:
10001c48:	4a13      	ldr	r2, [pc, #76]	; (10001c98 <divmod_u32u32_savestate+0x20>)
10001c4a:	6f93      	ldr	r3, [r2, #120]	; 0x78
10001c4c:	089b      	lsrs	r3, r3, #2
10001c4e:	d213      	bcs.n	10001c78 <divmod_u32u32_savestate>

10001c50 <divmod_u32u32_unsafe>:
10001c50:	6610      	str	r0, [r2, #96]	; 0x60
10001c52:	6651      	str	r1, [r2, #100]	; 0x64
10001c54:	2900      	cmp	r1, #0
10001c56:	d005      	beq.n	10001c64 <divmod_u32u32_unsafe+0x14>
10001c58:	e7ff      	b.n	10001c5a <divmod_u32u32_unsafe+0xa>
10001c5a:	e7ff      	b.n	10001c5c <divmod_u32u32_unsafe+0xc>
10001c5c:	e7ff      	b.n	10001c5e <divmod_u32u32_unsafe+0xe>
10001c5e:	6f51      	ldr	r1, [r2, #116]	; 0x74
10001c60:	6f10      	ldr	r0, [r2, #112]	; 0x70
10001c62:	4770      	bx	lr
10001c64:	b504      	push	{r2, lr}
10001c66:	2800      	cmp	r0, #0
10001c68:	d001      	beq.n	10001c6e <divmod_u32u32_unsafe+0x1e>
10001c6a:	2000      	movs	r0, #0
10001c6c:	43c0      	mvns	r0, r0
10001c6e:	f002 ffc3 	bl	10004bf8 <____aeabi_idiv0_veneer>
10001c72:	2100      	movs	r1, #0
10001c74:	bd04      	pop	{r2, pc}
10001c76:	46c0      	nop			; (mov r8, r8)

10001c78 <divmod_u32u32_savestate>:
10001c78:	6f93      	ldr	r3, [r2, #120]	; 0x78
10001c7a:	085b      	lsrs	r3, r3, #1
10001c7c:	d3fd      	bcc.n	10001c7a <divmod_u32u32_savestate+0x2>
10001c7e:	b5f0      	push	{r4, r5, r6, r7, lr}
10001c80:	6e94      	ldr	r4, [r2, #104]	; 0x68
10001c82:	6ed5      	ldr	r5, [r2, #108]	; 0x6c
10001c84:	6f57      	ldr	r7, [r2, #116]	; 0x74
10001c86:	6f16      	ldr	r6, [r2, #112]	; 0x70
10001c88:	f7ff ffe2 	bl	10001c50 <divmod_u32u32_unsafe>
10001c8c:	6694      	str	r4, [r2, #104]	; 0x68
10001c8e:	66d5      	str	r5, [r2, #108]	; 0x6c
10001c90:	6757      	str	r7, [r2, #116]	; 0x74
10001c92:	6716      	str	r6, [r2, #112]	; 0x70
10001c94:	bdf0      	pop	{r4, r5, r6, r7, pc}
10001c96:	0000      	.short	0x0000
10001c98:	d0000000 	.word	0xd0000000

10001c9c <__aeabi_double_init>:
10001c9c:	2313      	movs	r3, #19
10001c9e:	b570      	push	{r4, r5, r6, lr}
10001ca0:	781d      	ldrb	r5, [r3, #0]
10001ca2:	2d01      	cmp	r5, #1
10001ca4:	d010      	beq.n	10001cc8 <__aeabi_double_init+0x2c>
10001ca6:	dd0b      	ble.n	10001cc0 <__aeabi_double_init+0x24>
10001ca8:	4819      	ldr	r0, [pc, #100]	; (10001d10 <__aeabi_double_init+0x74>)
10001caa:	f7ff ffa3 	bl	10001bf4 <rom_data_lookup>
10001cae:	4c19      	ldr	r4, [pc, #100]	; (10001d14 <__aeabi_double_init+0x78>)
10001cb0:	0001      	movs	r1, r0
10001cb2:	2280      	movs	r2, #128	; 0x80
10001cb4:	0020      	movs	r0, r4
10001cb6:	f000 f8bf 	bl	10001e38 <__wrap___aeabi_memcpy>
10001cba:	2d02      	cmp	r5, #2
10001cbc:	d001      	beq.n	10001cc2 <__aeabi_double_init+0x26>
10001cbe:	bd70      	pop	{r4, r5, r6, pc}
10001cc0:	4c14      	ldr	r4, [pc, #80]	; (10001d14 <__aeabi_double_init+0x78>)
10001cc2:	4b15      	ldr	r3, [pc, #84]	; (10001d18 <__aeabi_double_init+0x7c>)
10001cc4:	64a3      	str	r3, [r4, #72]	; 0x48
10001cc6:	e7fa      	b.n	10001cbe <__aeabi_double_init+0x22>
10001cc8:	4b13      	ldr	r3, [pc, #76]	; (10001d18 <__aeabi_double_init+0x7c>)
10001cca:	4c12      	ldr	r4, [pc, #72]	; (10001d14 <__aeabi_double_init+0x78>)
10001ccc:	6023      	str	r3, [r4, #0]
10001cce:	6063      	str	r3, [r4, #4]
10001cd0:	60a3      	str	r3, [r4, #8]
10001cd2:	60e3      	str	r3, [r4, #12]
10001cd4:	6123      	str	r3, [r4, #16]
10001cd6:	6163      	str	r3, [r4, #20]
10001cd8:	61a3      	str	r3, [r4, #24]
10001cda:	61e3      	str	r3, [r4, #28]
10001cdc:	6223      	str	r3, [r4, #32]
10001cde:	6263      	str	r3, [r4, #36]	; 0x24
10001ce0:	62a3      	str	r3, [r4, #40]	; 0x28
10001ce2:	62e3      	str	r3, [r4, #44]	; 0x2c
10001ce4:	6323      	str	r3, [r4, #48]	; 0x30
10001ce6:	6363      	str	r3, [r4, #52]	; 0x34
10001ce8:	63a3      	str	r3, [r4, #56]	; 0x38
10001cea:	63e3      	str	r3, [r4, #60]	; 0x3c
10001cec:	6423      	str	r3, [r4, #64]	; 0x40
10001cee:	6463      	str	r3, [r4, #68]	; 0x44
10001cf0:	64a3      	str	r3, [r4, #72]	; 0x48
10001cf2:	64e3      	str	r3, [r4, #76]	; 0x4c
10001cf4:	6523      	str	r3, [r4, #80]	; 0x50
10001cf6:	6563      	str	r3, [r4, #84]	; 0x54
10001cf8:	65a3      	str	r3, [r4, #88]	; 0x58
10001cfa:	65e3      	str	r3, [r4, #92]	; 0x5c
10001cfc:	6623      	str	r3, [r4, #96]	; 0x60
10001cfe:	6663      	str	r3, [r4, #100]	; 0x64
10001d00:	66a3      	str	r3, [r4, #104]	; 0x68
10001d02:	66e3      	str	r3, [r4, #108]	; 0x6c
10001d04:	6723      	str	r3, [r4, #112]	; 0x70
10001d06:	6763      	str	r3, [r4, #116]	; 0x74
10001d08:	67a3      	str	r3, [r4, #120]	; 0x78
10001d0a:	67e3      	str	r3, [r4, #124]	; 0x7c
10001d0c:	64a3      	str	r3, [r4, #72]	; 0x48
10001d0e:	e7d6      	b.n	10001cbe <__aeabi_double_init+0x22>
10001d10:	00004453 	.word	0x00004453
10001d14:	20000b80 	.word	0x20000b80
10001d18:	10001d1d 	.word	0x10001d1d

10001d1c <double_table_shim_on_use_helper>:
10001d1c:	b507      	push	{r0, r1, r2, lr}
10001d1e:	4660      	mov	r0, ip
10001d20:	8801      	ldrh	r1, [r0, #0]
10001d22:	0a0a      	lsrs	r2, r1, #8
10001d24:	3002      	adds	r0, #2
10001d26:	2adf      	cmp	r2, #223	; 0xdf
10001d28:	d1fa      	bne.n	10001d20 <double_table_shim_on_use_helper+0x4>
10001d2a:	b2c9      	uxtb	r1, r1
10001d2c:	0882      	lsrs	r2, r0, #2
10001d2e:	d304      	bcc.n	10001d3a <double_table_shim_on_use_helper+0x1e>
10001d30:	8802      	ldrh	r2, [r0, #0]
10001d32:	8840      	ldrh	r0, [r0, #2]
10001d34:	0400      	lsls	r0, r0, #16
10001d36:	4310      	orrs	r0, r2
10001d38:	e000      	b.n	10001d3c <double_table_shim_on_use_helper+0x20>
10001d3a:	6800      	ldr	r0, [r0, #0]
10001d3c:	4a01      	ldr	r2, [pc, #4]	; (10001d44 <double_table_shim_on_use_helper+0x28>)
10001d3e:	5050      	str	r0, [r2, r1]
10001d40:	9003      	str	r0, [sp, #12]
10001d42:	bd07      	pop	{r0, r1, r2, pc}
10001d44:	20000b80 	.word	0x20000b80

10001d48 <__wrap___aeabi_lmul>:
10001d48:	4351      	muls	r1, r2
10001d4a:	4343      	muls	r3, r0
10001d4c:	18c9      	adds	r1, r1, r3
10001d4e:	468c      	mov	ip, r1
10001d50:	0c11      	lsrs	r1, r2, #16
10001d52:	b283      	uxth	r3, r0
10001d54:	434b      	muls	r3, r1
10001d56:	b410      	push	{r4}
10001d58:	0c04      	lsrs	r4, r0, #16
10001d5a:	4361      	muls	r1, r4
10001d5c:	b292      	uxth	r2, r2
10001d5e:	b280      	uxth	r0, r0
10001d60:	4350      	muls	r0, r2
10001d62:	4362      	muls	r2, r4
10001d64:	041c      	lsls	r4, r3, #16
10001d66:	0c1b      	lsrs	r3, r3, #16
10001d68:	1900      	adds	r0, r0, r4
10001d6a:	bc10      	pop	{r4}
10001d6c:	4159      	adcs	r1, r3
10001d6e:	0413      	lsls	r3, r2, #16
10001d70:	0c12      	lsrs	r2, r2, #16
10001d72:	18c0      	adds	r0, r0, r3
10001d74:	4151      	adcs	r1, r2
10001d76:	4461      	add	r1, ip
10001d78:	4770      	bx	lr
	...

10001d7c <__aeabi_float_init>:
10001d7c:	2313      	movs	r3, #19
10001d7e:	b510      	push	{r4, lr}
10001d80:	4812      	ldr	r0, [pc, #72]	; (10001dcc <__aeabi_float_init+0x50>)
10001d82:	781c      	ldrb	r4, [r3, #0]
10001d84:	f7ff ff36 	bl	10001bf4 <rom_data_lookup>
10001d88:	0001      	movs	r1, r0
10001d8a:	2c01      	cmp	r4, #1
10001d8c:	d00a      	beq.n	10001da4 <__aeabi_float_init+0x28>
10001d8e:	dd03      	ble.n	10001d98 <__aeabi_float_init+0x1c>
10001d90:	2280      	movs	r2, #128	; 0x80
10001d92:	480f      	ldr	r0, [pc, #60]	; (10001dd0 <__aeabi_float_init+0x54>)
10001d94:	f000 f850 	bl	10001e38 <__wrap___aeabi_memcpy>
10001d98:	480e      	ldr	r0, [pc, #56]	; (10001dd4 <__aeabi_float_init+0x58>)
10001d9a:	f7ff ff23 	bl	10001be4 <rom_func_lookup>
10001d9e:	4b0e      	ldr	r3, [pc, #56]	; (10001dd8 <__aeabi_float_init+0x5c>)
10001da0:	6018      	str	r0, [r3, #0]
10001da2:	bd10      	pop	{r4, pc}
10001da4:	4c0a      	ldr	r4, [pc, #40]	; (10001dd0 <__aeabi_float_init+0x54>)
10001da6:	2254      	movs	r2, #84	; 0x54
10001da8:	0020      	movs	r0, r4
10001daa:	f000 f845 	bl	10001e38 <__wrap___aeabi_memcpy>
10001dae:	4b0b      	ldr	r3, [pc, #44]	; (10001ddc <__aeabi_float_init+0x60>)
10001db0:	6563      	str	r3, [r4, #84]	; 0x54
10001db2:	65a3      	str	r3, [r4, #88]	; 0x58
10001db4:	65e3      	str	r3, [r4, #92]	; 0x5c
10001db6:	6623      	str	r3, [r4, #96]	; 0x60
10001db8:	6663      	str	r3, [r4, #100]	; 0x64
10001dba:	66a3      	str	r3, [r4, #104]	; 0x68
10001dbc:	66e3      	str	r3, [r4, #108]	; 0x6c
10001dbe:	6723      	str	r3, [r4, #112]	; 0x70
10001dc0:	6763      	str	r3, [r4, #116]	; 0x74
10001dc2:	67a3      	str	r3, [r4, #120]	; 0x78
10001dc4:	67e3      	str	r3, [r4, #124]	; 0x7c
10001dc6:	6223      	str	r3, [r4, #32]
10001dc8:	61e3      	str	r3, [r4, #28]
10001dca:	e7e5      	b.n	10001d98 <__aeabi_float_init+0x1c>
10001dcc:	00004653 	.word	0x00004653
10001dd0:	20000c80 	.word	0x20000c80
10001dd4:	0000334c 	.word	0x0000334c
10001dd8:	20001914 	.word	0x20001914
10001ddc:	10001de1 	.word	0x10001de1

10001de0 <float_table_shim_on_use_helper>:
10001de0:	b507      	push	{r0, r1, r2, lr}
10001de2:	4660      	mov	r0, ip
10001de4:	8801      	ldrh	r1, [r0, #0]
10001de6:	0a0a      	lsrs	r2, r1, #8
10001de8:	3002      	adds	r0, #2
10001dea:	2adf      	cmp	r2, #223	; 0xdf
10001dec:	d1fa      	bne.n	10001de4 <float_table_shim_on_use_helper+0x4>
10001dee:	b2c9      	uxtb	r1, r1
10001df0:	0882      	lsrs	r2, r0, #2
10001df2:	d304      	bcc.n	10001dfe <float_table_shim_on_use_helper+0x1e>
10001df4:	8802      	ldrh	r2, [r0, #0]
10001df6:	8840      	ldrh	r0, [r0, #2]
10001df8:	0400      	lsls	r0, r0, #16
10001dfa:	4310      	orrs	r0, r2
10001dfc:	e000      	b.n	10001e00 <float_table_shim_on_use_helper+0x20>
10001dfe:	6800      	ldr	r0, [r0, #0]
10001e00:	4a01      	ldr	r2, [pc, #4]	; (10001e08 <float_table_shim_on_use_helper+0x28>)
10001e02:	5050      	str	r0, [r2, r1]
10001e04:	9003      	str	r0, [sp, #12]
10001e06:	bd07      	pop	{r0, r1, r2, pc}
10001e08:	20000c80 	.word	0x20000c80

10001e0c <__wrap_malloc>:
10001e0c:	b510      	push	{r4, lr}
10001e0e:	f002 fa1f 	bl	10004250 <malloc>
10001e12:	bd10      	pop	{r4, pc}

10001e14 <__wrap_calloc>:
10001e14:	b510      	push	{r4, lr}
10001e16:	f002 f9cd 	bl	100041b4 <calloc>
10001e1a:	bd10      	pop	{r4, pc}

10001e1c <__aeabi_mem_init>:
10001e1c:	4801      	ldr	r0, [pc, #4]	; (10001e24 <__aeabi_mem_init+0x8>)
10001e1e:	2104      	movs	r1, #4
10001e20:	4b01      	ldr	r3, [pc, #4]	; (10001e28 <__aeabi_mem_init+0xc>)
10001e22:	4718      	bx	r3
10001e24:	200002b0 	.word	0x200002b0
10001e28:	10001c05 	.word	0x10001c05

10001e2c <__wrap_memset>:
10001e2c:	4b01      	ldr	r3, [pc, #4]	; (10001e34 <__wrap_memset+0x8>)
10001e2e:	681b      	ldr	r3, [r3, #0]
10001e30:	4718      	bx	r3
10001e32:	0000      	.short	0x0000
10001e34:	200002b0 	.word	0x200002b0

10001e38 <__wrap___aeabi_memcpy>:
10001e38:	4b01      	ldr	r3, [pc, #4]	; (10001e40 <__wrap___aeabi_memcpy+0x8>)
10001e3a:	685b      	ldr	r3, [r3, #4]
10001e3c:	4718      	bx	r3
10001e3e:	0000      	.short	0x0000
10001e40:	200002b0 	.word	0x200002b0

10001e44 <stdio_out_chars_crlf.part.0>:
10001e44:	b5f0      	push	{r4, r5, r6, r7, lr}
10001e46:	46d6      	mov	lr, sl
10001e48:	4646      	mov	r6, r8
10001e4a:	464f      	mov	r7, r9
10001e4c:	4682      	mov	sl, r0
10001e4e:	b5c0      	push	{r6, r7, lr}
10001e50:	0015      	movs	r5, r2
10001e52:	000e      	movs	r6, r1
10001e54:	2a00      	cmp	r2, #0
10001e56:	dd39      	ble.n	10001ecc <stdio_out_chars_crlf.part.0+0x88>
10001e58:	1e4b      	subs	r3, r1, #1
10001e5a:	4698      	mov	r8, r3
10001e5c:	4b1e      	ldr	r3, [pc, #120]	; (10001ed8 <stdio_out_chars_crlf.part.0+0x94>)
10001e5e:	2000      	movs	r0, #0
10001e60:	2400      	movs	r4, #0
10001e62:	4699      	mov	r9, r3
10001e64:	e00c      	b.n	10001e80 <stdio_out_chars_crlf.part.0+0x3c>
10001e66:	4643      	mov	r3, r8
10001e68:	5d1b      	ldrb	r3, [r3, r4]
10001e6a:	1c67      	adds	r7, r4, #1
10001e6c:	3b0d      	subs	r3, #13
10001e6e:	425a      	negs	r2, r3
10001e70:	4153      	adcs	r3, r2
10001e72:	5d32      	ldrb	r2, [r6, r4]
10001e74:	b2db      	uxtb	r3, r3
10001e76:	2a0a      	cmp	r2, #10
10001e78:	d00a      	beq.n	10001e90 <stdio_out_chars_crlf.part.0+0x4c>
10001e7a:	42bd      	cmp	r5, r7
10001e7c:	d019      	beq.n	10001eb2 <stdio_out_chars_crlf.part.0+0x6e>
10001e7e:	003c      	movs	r4, r7
10001e80:	2c00      	cmp	r4, #0
10001e82:	d1f0      	bne.n	10001e66 <stdio_out_chars_crlf.part.0+0x22>
10001e84:	4653      	mov	r3, sl
10001e86:	5d32      	ldrb	r2, [r6, r4]
10001e88:	7c1b      	ldrb	r3, [r3, #16]
10001e8a:	1c67      	adds	r7, r4, #1
10001e8c:	2a0a      	cmp	r2, #10
10001e8e:	d1f4      	bne.n	10001e7a <stdio_out_chars_crlf.part.0+0x36>
10001e90:	2b00      	cmp	r3, #0
10001e92:	d1f2      	bne.n	10001e7a <stdio_out_chars_crlf.part.0+0x36>
10001e94:	4653      	mov	r3, sl
10001e96:	681b      	ldr	r3, [r3, #0]
10001e98:	42a0      	cmp	r0, r4
10001e9a:	da04      	bge.n	10001ea6 <stdio_out_chars_crlf.part.0+0x62>
10001e9c:	1a21      	subs	r1, r4, r0
10001e9e:	1830      	adds	r0, r6, r0
10001ea0:	4798      	blx	r3
10001ea2:	4653      	mov	r3, sl
10001ea4:	681b      	ldr	r3, [r3, #0]
10001ea6:	4648      	mov	r0, r9
10001ea8:	2102      	movs	r1, #2
10001eaa:	4798      	blx	r3
10001eac:	0038      	movs	r0, r7
10001eae:	42bd      	cmp	r5, r7
10001eb0:	d1e5      	bne.n	10001e7e <stdio_out_chars_crlf.part.0+0x3a>
10001eb2:	42a8      	cmp	r0, r5
10001eb4:	da04      	bge.n	10001ec0 <stdio_out_chars_crlf.part.0+0x7c>
10001eb6:	4653      	mov	r3, sl
10001eb8:	1a29      	subs	r1, r5, r0
10001eba:	681b      	ldr	r3, [r3, #0]
10001ebc:	1830      	adds	r0, r6, r0
10001ebe:	4798      	blx	r3
10001ec0:	5d33      	ldrb	r3, [r6, r4]
10001ec2:	3b0d      	subs	r3, #13
10001ec4:	425a      	negs	r2, r3
10001ec6:	4153      	adcs	r3, r2
10001ec8:	4652      	mov	r2, sl
10001eca:	7413      	strb	r3, [r2, #16]
10001ecc:	bce0      	pop	{r5, r6, r7}
10001ece:	46ba      	mov	sl, r7
10001ed0:	46b1      	mov	r9, r6
10001ed2:	46a8      	mov	r8, r5
10001ed4:	bdf0      	pop	{r4, r5, r6, r7, pc}
10001ed6:	46c0      	nop			; (mov r8, r8)
10001ed8:	10004cdc 	.word	0x10004cdc

10001edc <stdio_put_string.isra.0>:
10001edc:	b5f0      	push	{r4, r5, r6, r7, lr}
10001ede:	4657      	mov	r7, sl
10001ee0:	4645      	mov	r5, r8
10001ee2:	46de      	mov	lr, fp
10001ee4:	464e      	mov	r6, r9
10001ee6:	23d0      	movs	r3, #208	; 0xd0
10001ee8:	b5e0      	push	{r5, r6, r7, lr}
10001eea:	061b      	lsls	r3, r3, #24
10001eec:	681c      	ldr	r4, [r3, #0]
10001eee:	4b35      	ldr	r3, [pc, #212]	; (10001fc4 <stdio_put_string.isra.0+0xe8>)
10001ef0:	b083      	sub	sp, #12
10001ef2:	0007      	movs	r7, r0
10001ef4:	000d      	movs	r5, r1
10001ef6:	0018      	movs	r0, r3
10001ef8:	a901      	add	r1, sp, #4
10001efa:	4690      	mov	r8, r2
10001efc:	469a      	mov	sl, r3
10001efe:	f002 fe83 	bl	10004c08 <__mutex_try_enter_veneer>
10001f02:	4681      	mov	r9, r0
10001f04:	2800      	cmp	r0, #0
10001f06:	d107      	bne.n	10001f18 <stdio_put_string.isra.0+0x3c>
10001f08:	9b01      	ldr	r3, [sp, #4]
10001f0a:	429c      	cmp	r4, r3
10001f0c:	d004      	beq.n	10001f18 <stdio_put_string.isra.0+0x3c>
10001f0e:	4650      	mov	r0, sl
10001f10:	f002 fe8a 	bl	10004c28 <__mutex_enter_blocking_veneer>
10001f14:	2301      	movs	r3, #1
10001f16:	4699      	mov	r9, r3
10001f18:	1c6b      	adds	r3, r5, #1
10001f1a:	d103      	bne.n	10001f24 <stdio_put_string.isra.0+0x48>
10001f1c:	0038      	movs	r0, r7
10001f1e:	f002 fc8f 	bl	10004840 <strlen>
10001f22:	0005      	movs	r5, r0
10001f24:	4b28      	ldr	r3, [pc, #160]	; (10001fc8 <stdio_put_string.isra.0+0xec>)
10001f26:	681c      	ldr	r4, [r3, #0]
10001f28:	2c00      	cmp	r4, #0
10001f2a:	d02f      	beq.n	10001f8c <stdio_put_string.isra.0+0xb0>
10001f2c:	230a      	movs	r3, #10
10001f2e:	4e27      	ldr	r6, [pc, #156]	; (10001fcc <stdio_put_string.isra.0+0xf0>)
10001f30:	469b      	mov	fp, r3
10001f32:	e002      	b.n	10001f3a <stdio_put_string.isra.0+0x5e>
10001f34:	68e4      	ldr	r4, [r4, #12]
10001f36:	2c00      	cmp	r4, #0
10001f38:	d028      	beq.n	10001f8c <stdio_put_string.isra.0+0xb0>
10001f3a:	6822      	ldr	r2, [r4, #0]
10001f3c:	2a00      	cmp	r2, #0
10001f3e:	d0f9      	beq.n	10001f34 <stdio_put_string.isra.0+0x58>
10001f40:	6833      	ldr	r3, [r6, #0]
10001f42:	2b00      	cmp	r3, #0
10001f44:	d001      	beq.n	10001f4a <stdio_put_string.isra.0+0x6e>
10001f46:	42a3      	cmp	r3, r4
10001f48:	d1f4      	bne.n	10001f34 <stdio_put_string.isra.0+0x58>
10001f4a:	7c63      	ldrb	r3, [r4, #17]
10001f4c:	2b00      	cmp	r3, #0
10001f4e:	d027      	beq.n	10001fa0 <stdio_put_string.isra.0+0xc4>
10001f50:	002a      	movs	r2, r5
10001f52:	0039      	movs	r1, r7
10001f54:	0020      	movs	r0, r4
10001f56:	f7ff ff75 	bl	10001e44 <stdio_out_chars_crlf.part.0>
10001f5a:	4643      	mov	r3, r8
10001f5c:	2b00      	cmp	r3, #0
10001f5e:	d0e9      	beq.n	10001f34 <stdio_put_string.isra.0+0x58>
10001f60:	466b      	mov	r3, sp
10001f62:	465a      	mov	r2, fp
10001f64:	711a      	strb	r2, [r3, #4]
10001f66:	7c63      	ldrb	r3, [r4, #17]
10001f68:	2b00      	cmp	r3, #0
10001f6a:	d01d      	beq.n	10001fa8 <stdio_put_string.isra.0+0xcc>
10001f6c:	7c23      	ldrb	r3, [r4, #16]
10001f6e:	6822      	ldr	r2, [r4, #0]
10001f70:	2b00      	cmp	r3, #0
10001f72:	d022      	beq.n	10001fba <stdio_put_string.isra.0+0xde>
10001f74:	2101      	movs	r1, #1
10001f76:	a801      	add	r0, sp, #4
10001f78:	4790      	blx	r2
10001f7a:	466b      	mov	r3, sp
10001f7c:	791b      	ldrb	r3, [r3, #4]
10001f7e:	3b0d      	subs	r3, #13
10001f80:	425a      	negs	r2, r3
10001f82:	4153      	adcs	r3, r2
10001f84:	7423      	strb	r3, [r4, #16]
10001f86:	68e4      	ldr	r4, [r4, #12]
10001f88:	2c00      	cmp	r4, #0
10001f8a:	d1d6      	bne.n	10001f3a <stdio_put_string.isra.0+0x5e>
10001f8c:	464b      	mov	r3, r9
10001f8e:	2b00      	cmp	r3, #0
10001f90:	d10f      	bne.n	10001fb2 <stdio_put_string.isra.0+0xd6>
10001f92:	b003      	add	sp, #12
10001f94:	bcf0      	pop	{r4, r5, r6, r7}
10001f96:	46bb      	mov	fp, r7
10001f98:	46b2      	mov	sl, r6
10001f9a:	46a9      	mov	r9, r5
10001f9c:	46a0      	mov	r8, r4
10001f9e:	bdf0      	pop	{r4, r5, r6, r7, pc}
10001fa0:	0029      	movs	r1, r5
10001fa2:	0038      	movs	r0, r7
10001fa4:	4790      	blx	r2
10001fa6:	e7d8      	b.n	10001f5a <stdio_put_string.isra.0+0x7e>
10001fa8:	2101      	movs	r1, #1
10001faa:	6823      	ldr	r3, [r4, #0]
10001fac:	a801      	add	r0, sp, #4
10001fae:	4798      	blx	r3
10001fb0:	e7c0      	b.n	10001f34 <stdio_put_string.isra.0+0x58>
10001fb2:	4650      	mov	r0, sl
10001fb4:	f002 fe18 	bl	10004be8 <__mutex_exit_veneer>
10001fb8:	e7eb      	b.n	10001f92 <stdio_put_string.isra.0+0xb6>
10001fba:	2102      	movs	r1, #2
10001fbc:	4804      	ldr	r0, [pc, #16]	; (10001fd0 <stdio_put_string.isra.0+0xf4>)
10001fbe:	4790      	blx	r2
10001fc0:	e7db      	b.n	10001f7a <stdio_put_string.isra.0+0x9e>
10001fc2:	46c0      	nop			; (mov r8, r8)
10001fc4:	20000b54 	.word	0x20000b54
10001fc8:	20001254 	.word	0x20001254
10001fcc:	2000125c 	.word	0x2000125c
10001fd0:	10004cdc 	.word	0x10004cdc

10001fd4 <__wrap_putchar>:
10001fd4:	b510      	push	{r4, lr}
10001fd6:	b082      	sub	sp, #8
10001fd8:	466b      	mov	r3, sp
10001fda:	0004      	movs	r4, r0
10001fdc:	2200      	movs	r2, #0
10001fde:	1dd8      	adds	r0, r3, #7
10001fe0:	2101      	movs	r1, #1
10001fe2:	7004      	strb	r4, [r0, #0]
10001fe4:	f7ff ff7a 	bl	10001edc <stdio_put_string.isra.0>
10001fe8:	0020      	movs	r0, r4
10001fea:	b002      	add	sp, #8
10001fec:	bd10      	pop	{r4, pc}
10001fee:	46c0      	nop			; (mov r8, r8)

10001ff0 <__wrap_puts>:
10001ff0:	b570      	push	{r4, r5, r6, lr}
10001ff2:	0004      	movs	r4, r0
10001ff4:	f002 fc24 	bl	10004840 <strlen>
10001ff8:	2201      	movs	r2, #1
10001ffa:	0001      	movs	r1, r0
10001ffc:	0005      	movs	r5, r0
10001ffe:	0020      	movs	r0, r4
10002000:	f7ff ff6c 	bl	10001edc <stdio_put_string.isra.0>
10002004:	4b08      	ldr	r3, [pc, #32]	; (10002028 <__wrap_puts+0x38>)
10002006:	681c      	ldr	r4, [r3, #0]
10002008:	2c00      	cmp	r4, #0
1000200a:	d006      	beq.n	1000201a <__wrap_puts+0x2a>
1000200c:	6863      	ldr	r3, [r4, #4]
1000200e:	2b00      	cmp	r3, #0
10002010:	d005      	beq.n	1000201e <__wrap_puts+0x2e>
10002012:	4798      	blx	r3
10002014:	68e4      	ldr	r4, [r4, #12]
10002016:	2c00      	cmp	r4, #0
10002018:	d1f8      	bne.n	1000200c <__wrap_puts+0x1c>
1000201a:	0028      	movs	r0, r5
1000201c:	bd70      	pop	{r4, r5, r6, pc}
1000201e:	68e4      	ldr	r4, [r4, #12]
10002020:	2c00      	cmp	r4, #0
10002022:	d1f3      	bne.n	1000200c <__wrap_puts+0x1c>
10002024:	e7f9      	b.n	1000201a <__wrap_puts+0x2a>
10002026:	46c0      	nop			; (mov r8, r8)
10002028:	20001254 	.word	0x20001254

1000202c <stdio_set_driver_enabled>:
1000202c:	4a0d      	ldr	r2, [pc, #52]	; (10002064 <stdio_set_driver_enabled+0x38>)
1000202e:	6813      	ldr	r3, [r2, #0]
10002030:	2b00      	cmp	r3, #0
10002032:	d013      	beq.n	1000205c <stdio_set_driver_enabled+0x30>
10002034:	4283      	cmp	r3, r0
10002036:	d102      	bne.n	1000203e <stdio_set_driver_enabled+0x12>
10002038:	e009      	b.n	1000204e <stdio_set_driver_enabled+0x22>
1000203a:	4298      	cmp	r0, r3
1000203c:	d008      	beq.n	10002050 <stdio_set_driver_enabled+0x24>
1000203e:	001a      	movs	r2, r3
10002040:	68db      	ldr	r3, [r3, #12]
10002042:	2b00      	cmp	r3, #0
10002044:	d1f9      	bne.n	1000203a <stdio_set_driver_enabled+0xe>
10002046:	2900      	cmp	r1, #0
10002048:	d000      	beq.n	1000204c <stdio_set_driver_enabled+0x20>
1000204a:	60d0      	str	r0, [r2, #12]
1000204c:	4770      	bx	lr
1000204e:	001a      	movs	r2, r3
10002050:	2900      	cmp	r1, #0
10002052:	d1fb      	bne.n	1000204c <stdio_set_driver_enabled+0x20>
10002054:	68db      	ldr	r3, [r3, #12]
10002056:	60d3      	str	r3, [r2, #12]
10002058:	60c1      	str	r1, [r0, #12]
1000205a:	e7f7      	b.n	1000204c <stdio_set_driver_enabled+0x20>
1000205c:	2900      	cmp	r1, #0
1000205e:	d0f5      	beq.n	1000204c <stdio_set_driver_enabled+0x20>
10002060:	6010      	str	r0, [r2, #0]
10002062:	e7f3      	b.n	1000204c <stdio_set_driver_enabled+0x20>
10002064:	20001254 	.word	0x20001254

10002068 <stdio_init_all>:
10002068:	b510      	push	{r4, lr}
1000206a:	f000 f83d 	bl	100020e8 <stdio_uart_init>
1000206e:	f000 f91b 	bl	100022a8 <stdio_usb_init>
10002072:	bd10      	pop	{r4, pc}

10002074 <stdio_uart_out_chars>:
10002074:	b5f0      	push	{r4, r5, r6, r7, lr}
10002076:	2900      	cmp	r1, #0
10002078:	d010      	beq.n	1000209c <stdio_uart_out_chars+0x28>
1000207a:	1845      	adds	r5, r0, r1
1000207c:	270d      	movs	r7, #13
1000207e:	2120      	movs	r1, #32
10002080:	4b09      	ldr	r3, [pc, #36]	; (100020a8 <stdio_uart_out_chars+0x34>)
10002082:	4a0a      	ldr	r2, [pc, #40]	; (100020ac <stdio_uart_out_chars+0x38>)
10002084:	2600      	movs	r6, #0
10002086:	5f9e      	ldrsh	r6, [r3, r6]
10002088:	7804      	ldrb	r4, [r0, #0]
1000208a:	42a6      	cmp	r6, r4
1000208c:	d007      	beq.n	1000209e <stdio_uart_out_chars+0x2a>
1000208e:	6993      	ldr	r3, [r2, #24]
10002090:	4219      	tst	r1, r3
10002092:	d1fc      	bne.n	1000208e <stdio_uart_out_chars+0x1a>
10002094:	3001      	adds	r0, #1
10002096:	6014      	str	r4, [r2, #0]
10002098:	42a8      	cmp	r0, r5
1000209a:	d1f5      	bne.n	10002088 <stdio_uart_out_chars+0x14>
1000209c:	bdf0      	pop	{r4, r5, r6, r7, pc}
1000209e:	6993      	ldr	r3, [r2, #24]
100020a0:	4219      	tst	r1, r3
100020a2:	d1fc      	bne.n	1000209e <stdio_uart_out_chars+0x2a>
100020a4:	6017      	str	r7, [r2, #0]
100020a6:	e7f2      	b.n	1000208e <stdio_uart_out_chars+0x1a>
100020a8:	20001930 	.word	0x20001930
100020ac:	40034000 	.word	0x40034000

100020b0 <stdio_uart_in_chars>:
100020b0:	b530      	push	{r4, r5, lr}
100020b2:	0004      	movs	r4, r0
100020b4:	000d      	movs	r5, r1
100020b6:	2000      	movs	r0, #0
100020b8:	2900      	cmp	r1, #0
100020ba:	dd10      	ble.n	100020de <stdio_uart_in_chars+0x2e>
100020bc:	2110      	movs	r1, #16
100020be:	4a09      	ldr	r2, [pc, #36]	; (100020e4 <stdio_uart_in_chars+0x34>)
100020c0:	3c01      	subs	r4, #1
100020c2:	6993      	ldr	r3, [r2, #24]
100020c4:	4219      	tst	r1, r3
100020c6:	d108      	bne.n	100020da <stdio_uart_in_chars+0x2a>
100020c8:	3001      	adds	r0, #1
100020ca:	6993      	ldr	r3, [r2, #24]
100020cc:	4219      	tst	r1, r3
100020ce:	d1fc      	bne.n	100020ca <stdio_uart_in_chars+0x1a>
100020d0:	6813      	ldr	r3, [r2, #0]
100020d2:	5423      	strb	r3, [r4, r0]
100020d4:	4285      	cmp	r5, r0
100020d6:	d1f4      	bne.n	100020c2 <stdio_uart_in_chars+0x12>
100020d8:	bd30      	pop	{r4, r5, pc}
100020da:	2800      	cmp	r0, #0
100020dc:	d1fc      	bne.n	100020d8 <stdio_uart_in_chars+0x28>
100020de:	2003      	movs	r0, #3
100020e0:	4240      	negs	r0, r0
100020e2:	e7f9      	b.n	100020d8 <stdio_uart_in_chars+0x28>
100020e4:	40034000 	.word	0x40034000

100020e8 <stdio_uart_init>:
100020e8:	21e1      	movs	r1, #225	; 0xe1
100020ea:	b510      	push	{r4, lr}
100020ec:	4b0a      	ldr	r3, [pc, #40]	; (10002118 <stdio_uart_init+0x30>)
100020ee:	0249      	lsls	r1, r1, #9
100020f0:	781b      	ldrb	r3, [r3, #0]
100020f2:	4b0a      	ldr	r3, [pc, #40]	; (1000211c <stdio_uart_init+0x34>)
100020f4:	480a      	ldr	r0, [pc, #40]	; (10002120 <stdio_uart_init+0x38>)
100020f6:	781b      	ldrb	r3, [r3, #0]
100020f8:	f7fe f9fc 	bl	100004f4 <uart_init>
100020fc:	2102      	movs	r1, #2
100020fe:	2000      	movs	r0, #0
10002100:	f7fe f916 	bl	10000330 <gpio_set_function>
10002104:	2102      	movs	r1, #2
10002106:	2001      	movs	r0, #1
10002108:	f7fe f912 	bl	10000330 <gpio_set_function>
1000210c:	2101      	movs	r1, #1
1000210e:	4805      	ldr	r0, [pc, #20]	; (10002124 <stdio_uart_init+0x3c>)
10002110:	f7ff ff8c 	bl	1000202c <stdio_set_driver_enabled>
10002114:	bd10      	pop	{r4, pc}
10002116:	46c0      	nop			; (mov r8, r8)
10002118:	10004f58 	.word	0x10004f58
1000211c:	10004f5c 	.word	0x10004f5c
10002120:	40034000 	.word	0x40034000
10002124:	200002c0 	.word	0x200002c0

10002128 <stdio_usb_in_chars>:
10002128:	b570      	push	{r4, r5, r6, lr}
1000212a:	4c18      	ldr	r4, [pc, #96]	; (1000218c <stdio_usb_in_chars+0x64>)
1000212c:	b082      	sub	sp, #8
1000212e:	0006      	movs	r6, r0
10002130:	000d      	movs	r5, r1
10002132:	0020      	movs	r0, r4
10002134:	a901      	add	r1, sp, #4
10002136:	f002 fd67 	bl	10004c08 <__mutex_try_enter_veneer>
1000213a:	2800      	cmp	r0, #0
1000213c:	d108      	bne.n	10002150 <stdio_usb_in_chars+0x28>
1000213e:	23d0      	movs	r3, #208	; 0xd0
10002140:	061b      	lsls	r3, r3, #24
10002142:	681b      	ldr	r3, [r3, #0]
10002144:	9a01      	ldr	r2, [sp, #4]
10002146:	429a      	cmp	r2, r3
10002148:	d01c      	beq.n	10002184 <stdio_usb_in_chars+0x5c>
1000214a:	0020      	movs	r0, r4
1000214c:	f002 fd6c 	bl	10004c28 <__mutex_enter_blocking_veneer>
10002150:	2000      	movs	r0, #0
10002152:	f001 fb87 	bl	10003864 <tud_cdc_n_connected>
10002156:	2800      	cmp	r0, #0
10002158:	d107      	bne.n	1000216a <stdio_usb_in_chars+0x42>
1000215a:	2503      	movs	r5, #3
1000215c:	426d      	negs	r5, r5
1000215e:	0020      	movs	r0, r4
10002160:	f002 fd42 	bl	10004be8 <__mutex_exit_veneer>
10002164:	0028      	movs	r0, r5
10002166:	b002      	add	sp, #8
10002168:	bd70      	pop	{r4, r5, r6, pc}
1000216a:	2000      	movs	r0, #0
1000216c:	f001 fb94 	bl	10003898 <tud_cdc_n_available>
10002170:	2800      	cmp	r0, #0
10002172:	d0f2      	beq.n	1000215a <stdio_usb_in_chars+0x32>
10002174:	002a      	movs	r2, r5
10002176:	0031      	movs	r1, r6
10002178:	2000      	movs	r0, #0
1000217a:	f001 fb9b 	bl	100038b4 <tud_cdc_n_read>
1000217e:	1e05      	subs	r5, r0, #0
10002180:	d0eb      	beq.n	1000215a <stdio_usb_in_chars+0x32>
10002182:	e7ec      	b.n	1000215e <stdio_usb_in_chars+0x36>
10002184:	2503      	movs	r5, #3
10002186:	426d      	negs	r5, r5
10002188:	e7ec      	b.n	10002164 <stdio_usb_in_chars+0x3c>
1000218a:	46c0      	nop			; (mov r8, r8)
1000218c:	20001918 	.word	0x20001918

10002190 <stdio_usb_out_chars>:
10002190:	b5f0      	push	{r4, r5, r6, r7, lr}
10002192:	46de      	mov	lr, fp
10002194:	464f      	mov	r7, r9
10002196:	4646      	mov	r6, r8
10002198:	b5c0      	push	{r6, r7, lr}
1000219a:	4b33      	ldr	r3, [pc, #204]	; (10002268 <stdio_usb_out_chars+0xd8>)
1000219c:	b082      	sub	sp, #8
1000219e:	4681      	mov	r9, r0
100021a0:	000d      	movs	r5, r1
100021a2:	0018      	movs	r0, r3
100021a4:	a901      	add	r1, sp, #4
100021a6:	469b      	mov	fp, r3
100021a8:	f002 fd2e 	bl	10004c08 <__mutex_try_enter_veneer>
100021ac:	2800      	cmp	r0, #0
100021ae:	d108      	bne.n	100021c2 <stdio_usb_out_chars+0x32>
100021b0:	23d0      	movs	r3, #208	; 0xd0
100021b2:	061b      	lsls	r3, r3, #24
100021b4:	681b      	ldr	r3, [r3, #0]
100021b6:	9a01      	ldr	r2, [sp, #4]
100021b8:	429a      	cmp	r2, r3
100021ba:	d04f      	beq.n	1000225c <stdio_usb_out_chars+0xcc>
100021bc:	4658      	mov	r0, fp
100021be:	f002 fd33 	bl	10004c28 <__mutex_enter_blocking_veneer>
100021c2:	2000      	movs	r0, #0
100021c4:	f001 fb4e 	bl	10003864 <tud_cdc_n_connected>
100021c8:	2800      	cmp	r0, #0
100021ca:	d03f      	beq.n	1000224c <stdio_usb_out_chars+0xbc>
100021cc:	2400      	movs	r4, #0
100021ce:	2d00      	cmp	r5, #0
100021d0:	dd41      	ble.n	10002256 <stdio_usb_out_chars+0xc6>
100021d2:	4e26      	ldr	r6, [pc, #152]	; (1000226c <stdio_usb_out_chars+0xdc>)
100021d4:	e011      	b.n	100021fa <stdio_usb_out_chars+0x6a>
100021d6:	464b      	mov	r3, r9
100021d8:	2000      	movs	r0, #0
100021da:	1919      	adds	r1, r3, r4
100021dc:	f001 fbe4 	bl	100039a8 <tud_cdc_n_write>
100021e0:	4680      	mov	r8, r0
100021e2:	f000 fcb7 	bl	10002b54 <tud_task>
100021e6:	2000      	movs	r0, #0
100021e8:	f001 fb9e 	bl	10003928 <tud_cdc_n_write_flush>
100021ec:	f7fe fdea 	bl	10000dc4 <time_us_64>
100021f0:	6030      	str	r0, [r6, #0]
100021f2:	6071      	str	r1, [r6, #4]
100021f4:	4444      	add	r4, r8
100021f6:	42ac      	cmp	r4, r5
100021f8:	da2d      	bge.n	10002256 <stdio_usb_out_chars+0xc6>
100021fa:	2000      	movs	r0, #0
100021fc:	f001 fbf0 	bl	100039e0 <tud_cdc_n_write_available>
10002200:	1b2f      	subs	r7, r5, r4
10002202:	0002      	movs	r2, r0
10002204:	42b8      	cmp	r0, r7
10002206:	dd00      	ble.n	1000220a <stdio_usb_out_chars+0x7a>
10002208:	003a      	movs	r2, r7
1000220a:	2a00      	cmp	r2, #0
1000220c:	d1e3      	bne.n	100021d6 <stdio_usb_out_chars+0x46>
1000220e:	f000 fca1 	bl	10002b54 <tud_task>
10002212:	2000      	movs	r0, #0
10002214:	f001 fb88 	bl	10003928 <tud_cdc_n_write_flush>
10002218:	2000      	movs	r0, #0
1000221a:	f001 fb23 	bl	10003864 <tud_cdc_n_connected>
1000221e:	2800      	cmp	r0, #0
10002220:	d019      	beq.n	10002256 <stdio_usb_out_chars+0xc6>
10002222:	2000      	movs	r0, #0
10002224:	f001 fbdc 	bl	100039e0 <tud_cdc_n_write_available>
10002228:	2800      	cmp	r0, #0
1000222a:	d1e4      	bne.n	100021f6 <stdio_usb_out_chars+0x66>
1000222c:	f7fe fdca 	bl	10000dc4 <time_us_64>
10002230:	6832      	ldr	r2, [r6, #0]
10002232:	6873      	ldr	r3, [r6, #4]
10002234:	000f      	movs	r7, r1
10002236:	2100      	movs	r1, #0
10002238:	4684      	mov	ip, r0
1000223a:	480d      	ldr	r0, [pc, #52]	; (10002270 <stdio_usb_out_chars+0xe0>)
1000223c:	1812      	adds	r2, r2, r0
1000223e:	414b      	adcs	r3, r1
10002240:	429f      	cmp	r7, r3
10002242:	d808      	bhi.n	10002256 <stdio_usb_out_chars+0xc6>
10002244:	d1d7      	bne.n	100021f6 <stdio_usb_out_chars+0x66>
10002246:	4594      	cmp	ip, r2
10002248:	d9d5      	bls.n	100021f6 <stdio_usb_out_chars+0x66>
1000224a:	e004      	b.n	10002256 <stdio_usb_out_chars+0xc6>
1000224c:	2000      	movs	r0, #0
1000224e:	2100      	movs	r1, #0
10002250:	4b06      	ldr	r3, [pc, #24]	; (1000226c <stdio_usb_out_chars+0xdc>)
10002252:	6018      	str	r0, [r3, #0]
10002254:	6059      	str	r1, [r3, #4]
10002256:	4658      	mov	r0, fp
10002258:	f002 fcc6 	bl	10004be8 <__mutex_exit_veneer>
1000225c:	b002      	add	sp, #8
1000225e:	bce0      	pop	{r5, r6, r7}
10002260:	46bb      	mov	fp, r7
10002262:	46b1      	mov	r9, r6
10002264:	46a8      	mov	r8, r5
10002266:	bdf0      	pop	{r4, r5, r6, r7, pc}
10002268:	20001918 	.word	0x20001918
1000226c:	20000b78 	.word	0x20000b78
10002270:	0007a120 	.word	0x0007a120

10002274 <timer_task>:
10002274:	201f      	movs	r0, #31
10002276:	b510      	push	{r4, lr}
10002278:	f7ff faf8 	bl	1000186c <irq_set_pending>
1000227c:	20fa      	movs	r0, #250	; 0xfa
1000227e:	2100      	movs	r1, #0
10002280:	0080      	lsls	r0, r0, #2
10002282:	bd10      	pop	{r4, pc}

10002284 <low_priority_worker_irq>:
10002284:	b510      	push	{r4, lr}
10002286:	4c07      	ldr	r4, [pc, #28]	; (100022a4 <low_priority_worker_irq+0x20>)
10002288:	2100      	movs	r1, #0
1000228a:	0020      	movs	r0, r4
1000228c:	f002 fcbc 	bl	10004c08 <__mutex_try_enter_veneer>
10002290:	2800      	cmp	r0, #0
10002292:	d100      	bne.n	10002296 <low_priority_worker_irq+0x12>
10002294:	bd10      	pop	{r4, pc}
10002296:	f000 fc5d 	bl	10002b54 <tud_task>
1000229a:	0020      	movs	r0, r4
1000229c:	f002 fca4 	bl	10004be8 <__mutex_exit_veneer>
100022a0:	e7f8      	b.n	10002294 <low_priority_worker_irq+0x10>
100022a2:	46c0      	nop			; (mov r8, r8)
100022a4:	20001918 	.word	0x20001918

100022a8 <stdio_usb_init>:
100022a8:	b570      	push	{r4, r5, r6, lr}
100022aa:	4b1e      	ldr	r3, [pc, #120]	; (10002324 <stdio_usb_init+0x7c>)
100022ac:	b084      	sub	sp, #16
100022ae:	781b      	ldrb	r3, [r3, #0]
100022b0:	f001 fd68 	bl	10003d84 <tusb_init>
100022b4:	201f      	movs	r0, #31
100022b6:	491c      	ldr	r1, [pc, #112]	; (10002328 <stdio_usb_init+0x80>)
100022b8:	f7ff fae8 	bl	1000188c <irq_set_exclusive_handler>
100022bc:	2101      	movs	r1, #1
100022be:	201f      	movs	r0, #31
100022c0:	f7ff fac2 	bl	10001848 <irq_set_enabled>
100022c4:	4819      	ldr	r0, [pc, #100]	; (1000232c <stdio_usb_init+0x84>)
100022c6:	f7fe fe55 	bl	10000f74 <mutex_init>
100022ca:	f7fe fbd1 	bl	10000a70 <alarm_pool_get_default>
100022ce:	0006      	movs	r6, r0
100022d0:	f7fe fd78 	bl	10000dc4 <time_us_64>
100022d4:	22fa      	movs	r2, #250	; 0xfa
100022d6:	0004      	movs	r4, r0
100022d8:	000d      	movs	r5, r1
100022da:	2300      	movs	r3, #0
100022dc:	0092      	lsls	r2, r2, #2
100022de:	1912      	adds	r2, r2, r4
100022e0:	416b      	adcs	r3, r5
100022e2:	4299      	cmp	r1, r3
100022e4:	d814      	bhi.n	10002310 <stdio_usb_init+0x68>
100022e6:	d011      	beq.n	1000230c <stdio_usb_init+0x64>
100022e8:	2101      	movs	r1, #1
100022ea:	9102      	str	r1, [sp, #8]
100022ec:	2100      	movs	r1, #0
100022ee:	9101      	str	r1, [sp, #4]
100022f0:	490f      	ldr	r1, [pc, #60]	; (10002330 <stdio_usb_init+0x88>)
100022f2:	0030      	movs	r0, r6
100022f4:	9100      	str	r1, [sp, #0]
100022f6:	f7fe fbc1 	bl	10000a7c <alarm_pool_add_alarm_at>
100022fa:	0004      	movs	r4, r0
100022fc:	1e63      	subs	r3, r4, #1
100022fe:	419c      	sbcs	r4, r3
10002300:	b2e4      	uxtb	r4, r4
10002302:	2800      	cmp	r0, #0
10002304:	d108      	bne.n	10002318 <stdio_usb_init+0x70>
10002306:	0020      	movs	r0, r4
10002308:	b004      	add	sp, #16
1000230a:	bd70      	pop	{r4, r5, r6, pc}
1000230c:	4290      	cmp	r0, r2
1000230e:	d9eb      	bls.n	100022e8 <stdio_usb_init+0x40>
10002310:	2201      	movs	r2, #1
10002312:	4252      	negs	r2, r2
10002314:	17d3      	asrs	r3, r2, #31
10002316:	e7e7      	b.n	100022e8 <stdio_usb_init+0x40>
10002318:	2101      	movs	r1, #1
1000231a:	4806      	ldr	r0, [pc, #24]	; (10002334 <stdio_usb_init+0x8c>)
1000231c:	f7ff fe86 	bl	1000202c <stdio_set_driver_enabled>
10002320:	e7f1      	b.n	10002306 <stdio_usb_init+0x5e>
10002322:	46c0      	nop			; (mov r8, r8)
10002324:	10004f60 	.word	0x10004f60
10002328:	10002285 	.word	0x10002285
1000232c:	20001918 	.word	0x20001918
10002330:	10002275 	.word	0x10002275
10002334:	200002d4 	.word	0x200002d4

10002338 <tud_descriptor_device_cb>:
10002338:	4800      	ldr	r0, [pc, #0]	; (1000233c <tud_descriptor_device_cb+0x4>)
1000233a:	4770      	bx	lr
1000233c:	10004dc0 	.word	0x10004dc0

10002340 <tud_descriptor_configuration_cb>:
10002340:	4800      	ldr	r0, [pc, #0]	; (10002344 <tud_descriptor_configuration_cb+0x4>)
10002342:	4770      	bx	lr
10002344:	10004d74 	.word	0x10004d74

10002348 <tud_descriptor_string_cb>:
10002348:	b530      	push	{r4, r5, lr}
1000234a:	2800      	cmp	r0, #0
1000234c:	d106      	bne.n	1000235c <tud_descriptor_string_cb+0x14>
1000234e:	25c1      	movs	r5, #193	; 0xc1
10002350:	4811      	ldr	r0, [pc, #68]	; (10002398 <tud_descriptor_string_cb+0x50>)
10002352:	4b12      	ldr	r3, [pc, #72]	; (1000239c <tud_descriptor_string_cb+0x54>)
10002354:	00ad      	lsls	r5, r5, #2
10002356:	8043      	strh	r3, [r0, #2]
10002358:	8005      	strh	r5, [r0, #0]
1000235a:	bd30      	pop	{r4, r5, pc}
1000235c:	2804      	cmp	r0, #4
1000235e:	d818      	bhi.n	10002392 <tud_descriptor_string_cb+0x4a>
10002360:	4b0f      	ldr	r3, [pc, #60]	; (100023a0 <tud_descriptor_string_cb+0x58>)
10002362:	0080      	lsls	r0, r0, #2
10002364:	58c4      	ldr	r4, [r0, r3]
10002366:	480c      	ldr	r0, [pc, #48]	; (10002398 <tud_descriptor_string_cb+0x50>)
10002368:	2301      	movs	r3, #1
1000236a:	1c81      	adds	r1, r0, #2
1000236c:	3c01      	subs	r4, #1
1000236e:	e004      	b.n	1000237a <tud_descriptor_string_cb+0x32>
10002370:	3301      	adds	r3, #1
10002372:	800a      	strh	r2, [r1, #0]
10002374:	3102      	adds	r1, #2
10002376:	2b14      	cmp	r3, #20
10002378:	d008      	beq.n	1000238c <tud_descriptor_string_cb+0x44>
1000237a:	5ce2      	ldrb	r2, [r4, r3]
1000237c:	b2dd      	uxtb	r5, r3
1000237e:	2a00      	cmp	r2, #0
10002380:	d1f6      	bne.n	10002370 <tud_descriptor_string_cb+0x28>
10002382:	23c0      	movs	r3, #192	; 0xc0
10002384:	006d      	lsls	r5, r5, #1
10002386:	009b      	lsls	r3, r3, #2
10002388:	431d      	orrs	r5, r3
1000238a:	e7e5      	b.n	10002358 <tud_descriptor_string_cb+0x10>
1000238c:	25ca      	movs	r5, #202	; 0xca
1000238e:	00ad      	lsls	r5, r5, #2
10002390:	e7e2      	b.n	10002358 <tud_descriptor_string_cb+0x10>
10002392:	2000      	movs	r0, #0
10002394:	e7e1      	b.n	1000235a <tud_descriptor_string_cb+0x12>
10002396:	46c0      	nop			; (mov r8, r8)
10002398:	2000122c 	.word	0x2000122c
1000239c:	00000409 	.word	0x00000409
100023a0:	10004dd4 	.word	0x10004dd4

100023a4 <dcd_rp2040_irq>:
100023a4:	2398      	movs	r3, #152	; 0x98
100023a6:	b5f0      	push	{r4, r5, r6, r7, lr}
100023a8:	4645      	mov	r5, r8
100023aa:	46de      	mov	lr, fp
100023ac:	4657      	mov	r7, sl
100023ae:	464e      	mov	r6, r9
100023b0:	4a42      	ldr	r2, [pc, #264]	; (100024bc <dcd_rp2040_irq+0x118>)
100023b2:	b5e0      	push	{r5, r6, r7, lr}
100023b4:	58d3      	ldr	r3, [r2, r3]
100023b6:	2480      	movs	r4, #128	; 0x80
100023b8:	4698      	mov	r8, r3
100023ba:	001d      	movs	r5, r3
100023bc:	2310      	movs	r3, #16
100023be:	b085      	sub	sp, #20
100023c0:	9303      	str	r3, [sp, #12]
100023c2:	4643      	mov	r3, r8
100023c4:	0264      	lsls	r4, r4, #9
100023c6:	4025      	ands	r5, r4
100023c8:	4223      	tst	r3, r4
100023ca:	d014      	beq.n	100023f6 <dcd_rp2040_irq+0x52>
100023cc:	2101      	movs	r1, #1
100023ce:	2039      	movs	r0, #57	; 0x39
100023d0:	2200      	movs	r2, #0
100023d2:	4b3b      	ldr	r3, [pc, #236]	; (100024c0 <dcd_rp2040_irq+0x11c>)
100023d4:	0025      	movs	r5, r4
100023d6:	5419      	strb	r1, [r3, r0]
100023d8:	7159      	strb	r1, [r3, #5]
100023da:	3147      	adds	r1, #71	; 0x47
100023dc:	545a      	strb	r2, [r3, r1]
100023de:	751a      	strb	r2, [r3, #20]
100023e0:	2000      	movs	r0, #0
100023e2:	3201      	adds	r2, #1
100023e4:	4937      	ldr	r1, [pc, #220]	; (100024c4 <dcd_rp2040_irq+0x120>)
100023e6:	f001 f823 	bl	10003430 <dcd_event_setup_received>
100023ea:	2280      	movs	r2, #128	; 0x80
100023ec:	4b36      	ldr	r3, [pc, #216]	; (100024c8 <dcd_rp2040_irq+0x124>)
100023ee:	0292      	lsls	r2, r2, #10
100023f0:	651a      	str	r2, [r3, #80]	; 0x50
100023f2:	4b36      	ldr	r3, [pc, #216]	; (100024cc <dcd_rp2040_irq+0x128>)
100023f4:	9303      	str	r3, [sp, #12]
100023f6:	4643      	mov	r3, r8
100023f8:	06db      	lsls	r3, r3, #27
100023fa:	d40d      	bmi.n	10002418 <dcd_rp2040_irq+0x74>
100023fc:	2380      	movs	r3, #128	; 0x80
100023fe:	4642      	mov	r2, r8
10002400:	015b      	lsls	r3, r3, #5
10002402:	421a      	tst	r2, r3
10002404:	d138      	bne.n	10002478 <dcd_rp2040_irq+0xd4>
10002406:	4545      	cmp	r5, r8
10002408:	d152      	bne.n	100024b0 <dcd_rp2040_irq+0x10c>
1000240a:	b005      	add	sp, #20
1000240c:	bcf0      	pop	{r4, r5, r6, r7}
1000240e:	46bb      	mov	fp, r7
10002410:	46b2      	mov	sl, r6
10002412:	46a9      	mov	r9, r5
10002414:	46a0      	mov	r8, r4
10002416:	bdf0      	pop	{r4, r5, r6, r7, pc}
10002418:	4b28      	ldr	r3, [pc, #160]	; (100024bc <dcd_rp2040_irq+0x118>)
1000241a:	6d9f      	ldr	r7, [r3, #88]	; 0x58
1000241c:	469a      	mov	sl, r3
1000241e:	2f00      	cmp	r7, #0
10002420:	d024      	beq.n	1000246c <dcd_rp2040_irq+0xc8>
10002422:	4b29      	ldr	r3, [pc, #164]	; (100024c8 <dcd_rp2040_irq+0x124>)
10002424:	2500      	movs	r5, #0
10002426:	2401      	movs	r4, #1
10002428:	469b      	mov	fp, r3
1000242a:	e003      	b.n	10002434 <dcd_rp2040_irq+0x90>
1000242c:	0064      	lsls	r4, r4, #1
1000242e:	3501      	adds	r5, #1
10002430:	2d20      	cmp	r5, #32
10002432:	d01b      	beq.n	1000246c <dcd_rp2040_irq+0xc8>
10002434:	4227      	tst	r7, r4
10002436:	d0f9      	beq.n	1000242c <dcd_rp2040_irq+0x88>
10002438:	4653      	mov	r3, sl
1000243a:	6ddb      	ldr	r3, [r3, #92]	; 0x5c
1000243c:	465b      	mov	r3, fp
1000243e:	2668      	movs	r6, #104	; 0x68
10002440:	2201      	movs	r2, #1
10002442:	659c      	str	r4, [r3, #88]	; 0x58
10002444:	086b      	lsrs	r3, r5, #1
10002446:	435e      	muls	r6, r3
10002448:	2334      	movs	r3, #52	; 0x34
1000244a:	4691      	mov	r9, r2
1000244c:	43aa      	bics	r2, r5
1000244e:	4353      	muls	r3, r2
10002450:	18f6      	adds	r6, r6, r3
10002452:	4b1b      	ldr	r3, [pc, #108]	; (100024c0 <dcd_rp2040_irq+0x11c>)
10002454:	469c      	mov	ip, r3
10002456:	4466      	add	r6, ip
10002458:	0030      	movs	r0, r6
1000245a:	f000 fa3d 	bl	100028d8 <_hw_endpoint_xfer_continue>
1000245e:	2800      	cmp	r0, #0
10002460:	d11a      	bne.n	10002498 <dcd_rp2040_irq+0xf4>
10002462:	43a7      	bics	r7, r4
10002464:	3501      	adds	r5, #1
10002466:	0064      	lsls	r4, r4, #1
10002468:	2f00      	cmp	r7, #0
1000246a:	d1e1      	bne.n	10002430 <dcd_rp2040_irq+0x8c>
1000246c:	2380      	movs	r3, #128	; 0x80
1000246e:	4642      	mov	r2, r8
10002470:	015b      	lsls	r3, r3, #5
10002472:	9d03      	ldr	r5, [sp, #12]
10002474:	421a      	tst	r2, r3
10002476:	d0c6      	beq.n	10002406 <dcd_rp2040_irq+0x62>
10002478:	2200      	movs	r2, #0
1000247a:	4915      	ldr	r1, [pc, #84]	; (100024d0 <dcd_rp2040_irq+0x12c>)
1000247c:	2000      	movs	r0, #0
1000247e:	700a      	strb	r2, [r1, #0]
10002480:	490e      	ldr	r1, [pc, #56]	; (100024bc <dcd_rp2040_irq+0x118>)
10002482:	431d      	orrs	r5, r3
10002484:	600a      	str	r2, [r1, #0]
10002486:	3201      	adds	r2, #1
10002488:	2101      	movs	r1, #1
1000248a:	f000 ff61 	bl	10003350 <dcd_event_bus_signal>
1000248e:	2280      	movs	r2, #128	; 0x80
10002490:	4b0d      	ldr	r3, [pc, #52]	; (100024c8 <dcd_rp2040_irq+0x124>)
10002492:	0312      	lsls	r2, r2, #12
10002494:	651a      	str	r2, [r3, #80]	; 0x50
10002496:	e7b6      	b.n	10002406 <dcd_rp2040_irq+0x62>
10002498:	464b      	mov	r3, r9
1000249a:	69f2      	ldr	r2, [r6, #28]
1000249c:	7931      	ldrb	r1, [r6, #4]
1000249e:	2000      	movs	r0, #0
100024a0:	9300      	str	r3, [sp, #0]
100024a2:	2300      	movs	r3, #0
100024a4:	f000 ffec 	bl	10003480 <dcd_event_xfer_complete>
100024a8:	0030      	movs	r0, r6
100024aa:	f000 f9e9 	bl	10002880 <hw_endpoint_reset_transfer>
100024ae:	e7d8      	b.n	10002462 <dcd_rp2040_irq+0xbe>
100024b0:	4641      	mov	r1, r8
100024b2:	4808      	ldr	r0, [pc, #32]	; (100024d4 <dcd_rp2040_irq+0x130>)
100024b4:	4069      	eors	r1, r5
100024b6:	f7fe ffe9 	bl	1000148c <panic>
100024ba:	46c0      	nop			; (mov r8, r8)
100024bc:	50110000 	.word	0x50110000
100024c0:	20001264 	.word	0x20001264
100024c4:	50100000 	.word	0x50100000
100024c8:	50113000 	.word	0x50113000
100024cc:	00010010 	.word	0x00010010
100024d0:	20001936 	.word	0x20001936
100024d4:	10004de8 	.word	0x10004de8

100024d8 <dcd_int_enable>:
100024d8:	b510      	push	{r4, lr}
100024da:	2101      	movs	r1, #1
100024dc:	2005      	movs	r0, #5
100024de:	f7ff f9b3 	bl	10001848 <irq_set_enabled>
100024e2:	bd10      	pop	{r4, pc}

100024e4 <dcd_set_address>:
100024e4:	4b09      	ldr	r3, [pc, #36]	; (1000250c <dcd_set_address+0x28>)
100024e6:	b510      	push	{r4, lr}
100024e8:	2201      	movs	r2, #1
100024ea:	7019      	strb	r1, [r3, #0]
100024ec:	2139      	movs	r1, #57	; 0x39
100024ee:	2300      	movs	r3, #0
100024f0:	4807      	ldr	r0, [pc, #28]	; (10002510 <dcd_set_address+0x2c>)
100024f2:	5442      	strb	r2, [r0, r1]
100024f4:	7142      	strb	r2, [r0, #5]
100024f6:	3247      	adds	r2, #71	; 0x47
100024f8:	5483      	strb	r3, [r0, r2]
100024fa:	7503      	strb	r3, [r0, #20]
100024fc:	2200      	movs	r2, #0
100024fe:	2100      	movs	r1, #0
10002500:	3034      	adds	r0, #52	; 0x34
10002502:	3301      	adds	r3, #1
10002504:	f000 fa66 	bl	100029d4 <_hw_endpoint_xfer>
10002508:	bd10      	pop	{r4, pc}
1000250a:	46c0      	nop			; (mov r8, r8)
1000250c:	20001936 	.word	0x20001936
10002510:	20001264 	.word	0x20001264

10002514 <dcd_connect>:
10002514:	2280      	movs	r2, #128	; 0x80
10002516:	4b02      	ldr	r3, [pc, #8]	; (10002520 <dcd_connect+0xc>)
10002518:	0252      	lsls	r2, r2, #9
1000251a:	64da      	str	r2, [r3, #76]	; 0x4c
1000251c:	4770      	bx	lr
1000251e:	46c0      	nop			; (mov r8, r8)
10002520:	50112000 	.word	0x50112000

10002524 <dcd_init>:
10002524:	b570      	push	{r4, r5, r6, lr}
10002526:	0005      	movs	r5, r0
10002528:	f000 f982 	bl	10002830 <rp2040_usb_init>
1000252c:	2005      	movs	r0, #5
1000252e:	491c      	ldr	r1, [pc, #112]	; (100025a0 <dcd_init+0x7c>)
10002530:	f7ff f9ac 	bl	1000188c <irq_set_exclusive_handler>
10002534:	22d0      	movs	r2, #208	; 0xd0
10002536:	4c1b      	ldr	r4, [pc, #108]	; (100025a4 <dcd_init+0x80>)
10002538:	2100      	movs	r1, #0
1000253a:	0020      	movs	r0, r4
1000253c:	00d2      	lsls	r2, r2, #3
1000253e:	f7ff fc75 	bl	10001e2c <__wrap_memset>
10002542:	2200      	movs	r2, #0
10002544:	4b18      	ldr	r3, [pc, #96]	; (100025a8 <dcd_init+0x84>)
10002546:	4919      	ldr	r1, [pc, #100]	; (100025ac <dcd_init+0x88>)
10002548:	701a      	strb	r2, [r3, #0]
1000254a:	4b19      	ldr	r3, [pc, #100]	; (100025b0 <dcd_init+0x8c>)
1000254c:	2040      	movs	r0, #64	; 0x40
1000254e:	6019      	str	r1, [r3, #0]
10002550:	2635      	movs	r6, #53	; 0x35
10002552:	2301      	movs	r3, #1
10002554:	4917      	ldr	r1, [pc, #92]	; (100025b4 <dcd_init+0x90>)
10002556:	70e3      	strb	r3, [r4, #3]
10002558:	7163      	strb	r3, [r4, #5]
1000255a:	62e0      	str	r0, [r4, #44]	; 0x2c
1000255c:	60e1      	str	r1, [r4, #12]
1000255e:	600a      	str	r2, [r1, #0]
10002560:	55a3      	strb	r3, [r4, r6]
10002562:	364c      	adds	r6, #76	; 0x4c
10002564:	36ff      	adds	r6, #255	; 0xff
10002566:	8726      	strh	r6, [r4, #56]	; 0x38
10002568:	2600      	movs	r6, #0
1000256a:	6620      	str	r0, [r4, #96]	; 0x60
1000256c:	3024      	adds	r0, #36	; 0x24
1000256e:	5426      	strb	r6, [r4, r0]
10002570:	4911      	ldr	r1, [pc, #68]	; (100025b8 <dcd_init+0x94>)
10002572:	4812      	ldr	r0, [pc, #72]	; (100025bc <dcd_init+0x98>)
10002574:	60a2      	str	r2, [r4, #8]
10002576:	6121      	str	r1, [r4, #16]
10002578:	7023      	strb	r3, [r4, #0]
1000257a:	86e2      	strh	r2, [r4, #54]	; 0x36
1000257c:	6420      	str	r0, [r4, #64]	; 0x40
1000257e:	6002      	str	r2, [r0, #0]
10002580:	63e2      	str	r2, [r4, #60]	; 0x3c
10002582:	3234      	adds	r2, #52	; 0x34
10002584:	54a3      	strb	r3, [r4, r2]
10002586:	4a0e      	ldr	r2, [pc, #56]	; (100025c0 <dcd_init+0x9c>)
10002588:	6461      	str	r1, [r4, #68]	; 0x44
1000258a:	6413      	str	r3, [r2, #64]	; 0x40
1000258c:	2380      	movs	r3, #128	; 0x80
1000258e:	059b      	lsls	r3, r3, #22
10002590:	64d3      	str	r3, [r2, #76]	; 0x4c
10002592:	2390      	movs	r3, #144	; 0x90
10002594:	490b      	ldr	r1, [pc, #44]	; (100025c4 <dcd_init+0xa0>)
10002596:	0028      	movs	r0, r5
10002598:	50d1      	str	r1, [r2, r3]
1000259a:	f7ff ffbb 	bl	10002514 <dcd_connect>
1000259e:	bd70      	pop	{r4, r5, r6, pc}
100025a0:	100023a5 	.word	0x100023a5
100025a4:	20001264 	.word	0x20001264
100025a8:	20001936 	.word	0x20001936
100025ac:	50100180 	.word	0x50100180
100025b0:	200018e8 	.word	0x200018e8
100025b4:	50100084 	.word	0x50100084
100025b8:	50100100 	.word	0x50100100
100025bc:	50100080 	.word	0x50100080
100025c0:	50110000 	.word	0x50110000
100025c4:	00011010 	.word	0x00011010

100025c8 <dcd_edpt0_status_complete>:
100025c8:	780b      	ldrb	r3, [r1, #0]
100025ca:	065b      	lsls	r3, r3, #25
100025cc:	d102      	bne.n	100025d4 <dcd_edpt0_status_complete+0xc>
100025ce:	784b      	ldrb	r3, [r1, #1]
100025d0:	2b05      	cmp	r3, #5
100025d2:	d009      	beq.n	100025e8 <dcd_edpt0_status_complete+0x20>
100025d4:	2101      	movs	r1, #1
100025d6:	2039      	movs	r0, #57	; 0x39
100025d8:	2200      	movs	r2, #0
100025da:	4b06      	ldr	r3, [pc, #24]	; (100025f4 <dcd_edpt0_status_complete+0x2c>)
100025dc:	7159      	strb	r1, [r3, #5]
100025de:	5419      	strb	r1, [r3, r0]
100025e0:	3147      	adds	r1, #71	; 0x47
100025e2:	751a      	strb	r2, [r3, #20]
100025e4:	545a      	strb	r2, [r3, r1]
100025e6:	4770      	bx	lr
100025e8:	4b03      	ldr	r3, [pc, #12]	; (100025f8 <dcd_edpt0_status_complete+0x30>)
100025ea:	781a      	ldrb	r2, [r3, #0]
100025ec:	4b03      	ldr	r3, [pc, #12]	; (100025fc <dcd_edpt0_status_complete+0x34>)
100025ee:	601a      	str	r2, [r3, #0]
100025f0:	e7f0      	b.n	100025d4 <dcd_edpt0_status_complete+0xc>
100025f2:	46c0      	nop			; (mov r8, r8)
100025f4:	20001264 	.word	0x20001264
100025f8:	20001936 	.word	0x20001936
100025fc:	50110000 	.word	0x50110000

10002600 <dcd_edpt_open>:
10002600:	b5f8      	push	{r3, r4, r5, r6, r7, lr}
10002602:	4647      	mov	r7, r8
10002604:	46ce      	mov	lr, r9
10002606:	2307      	movs	r3, #7
10002608:	b580      	push	{r7, lr}
1000260a:	7948      	ldrb	r0, [r1, #5]
1000260c:	78cc      	ldrb	r4, [r1, #3]
1000260e:	790a      	ldrb	r2, [r1, #4]
10002610:	4003      	ands	r3, r0
10002612:	788f      	ldrb	r7, [r1, #2]
10002614:	07a4      	lsls	r4, r4, #30
10002616:	021b      	lsls	r3, r3, #8
10002618:	4313      	orrs	r3, r2
1000261a:	0fa2      	lsrs	r2, r4, #30
1000261c:	4694      	mov	ip, r2
1000261e:	0014      	movs	r4, r2
10002620:	207f      	movs	r0, #127	; 0x7f
10002622:	b27a      	sxtb	r2, r7
10002624:	4691      	mov	r9, r2
10002626:	2168      	movs	r1, #104	; 0x68
10002628:	2234      	movs	r2, #52	; 0x34
1000262a:	4038      	ands	r0, r7
1000262c:	09fe      	lsrs	r6, r7, #7
1000262e:	4341      	muls	r1, r0
10002630:	4372      	muls	r2, r6
10002632:	1852      	adds	r2, r2, r1
10002634:	4649      	mov	r1, r9
10002636:	43c9      	mvns	r1, r1
10002638:	4d3c      	ldr	r5, [pc, #240]	; (1000272c <dcd_edpt_open+0x12c>)
1000263a:	0fc9      	lsrs	r1, r1, #31
1000263c:	18aa      	adds	r2, r5, r2
1000263e:	70d1      	strb	r1, [r2, #3]
10002640:	4241      	negs	r1, r0
10002642:	4141      	adcs	r1, r0
10002644:	7117      	strb	r7, [r2, #4]
10002646:	7056      	strb	r6, [r2, #1]
10002648:	7090      	strb	r0, [r2, #2]
1000264a:	7151      	strb	r1, [r2, #5]
1000264c:	2c01      	cmp	r4, #1
1000264e:	d05e      	beq.n	1000270e <dcd_edpt_open+0x10e>
10002650:	2b40      	cmp	r3, #64	; 0x40
10002652:	d860      	bhi.n	10002716 <dcd_edpt_open+0x116>
10002654:	2234      	movs	r2, #52	; 0x34
10002656:	2168      	movs	r1, #104	; 0x68
10002658:	4372      	muls	r2, r6
1000265a:	4341      	muls	r1, r0
1000265c:	1852      	adds	r2, r2, r1
1000265e:	18aa      	adds	r2, r5, r2
10002660:	0011      	movs	r1, r2
10002662:	4667      	mov	r7, ip
10002664:	3130      	adds	r1, #48	; 0x30
10002666:	700f      	strb	r7, [r1, #0]
10002668:	464f      	mov	r7, r9
1000266a:	62d3      	str	r3, [r2, #44]	; 0x2c
1000266c:	00c1      	lsls	r1, r0, #3
1000266e:	2f00      	cmp	r7, #0
10002670:	db3d      	blt.n	100026ee <dcd_edpt_open+0xee>
10002672:	4f2f      	ldr	r7, [pc, #188]	; (10002730 <dcd_edpt_open+0x130>)
10002674:	46bc      	mov	ip, r7
10002676:	2700      	movs	r7, #0
10002678:	4461      	add	r1, ip
1000267a:	60d1      	str	r1, [r2, #12]
1000267c:	600f      	str	r7, [r1, #0]
1000267e:	2800      	cmp	r0, #0
10002680:	d03d      	beq.n	100026fe <dcd_edpt_open+0xfe>
10002682:	4f2c      	ldr	r7, [pc, #176]	; (10002734 <dcd_edpt_open+0x134>)
10002684:	00c1      	lsls	r1, r0, #3
10002686:	46bc      	mov	ip, r7
10002688:	4461      	add	r1, ip
1000268a:	6091      	str	r1, [r2, #8]
1000268c:	2768      	movs	r7, #104	; 0x68
1000268e:	4a2a      	ldr	r2, [pc, #168]	; (10002738 <dcd_edpt_open+0x138>)
10002690:	4347      	muls	r7, r0
10002692:	6811      	ldr	r1, [r2, #0]
10002694:	4690      	mov	r8, r2
10002696:	2234      	movs	r2, #52	; 0x34
10002698:	46bc      	mov	ip, r7
1000269a:	4372      	muls	r2, r6
1000269c:	4462      	add	r2, ip
1000269e:	18aa      	adds	r2, r5, r2
100026a0:	6111      	str	r1, [r2, #16]
100026a2:	2b40      	cmp	r3, #64	; 0x40
100026a4:	d200      	bcs.n	100026a8 <dcd_edpt_open+0xa8>
100026a6:	2340      	movs	r3, #64	; 0x40
100026a8:	223f      	movs	r2, #63	; 0x3f
100026aa:	18cb      	adds	r3, r1, r3
100026ac:	4213      	tst	r3, r2
100026ae:	d001      	beq.n	100026b4 <dcd_edpt_open+0xb4>
100026b0:	4393      	bics	r3, r2
100026b2:	3340      	adds	r3, #64	; 0x40
100026b4:	4642      	mov	r2, r8
100026b6:	6013      	str	r3, [r2, #0]
100026b8:	4b20      	ldr	r3, [pc, #128]	; (1000273c <dcd_edpt_open+0x13c>)
100026ba:	2268      	movs	r2, #104	; 0x68
100026bc:	4059      	eors	r1, r3
100026be:	2334      	movs	r3, #52	; 0x34
100026c0:	06a4      	lsls	r4, r4, #26
100026c2:	430c      	orrs	r4, r1
100026c4:	21a0      	movs	r1, #160	; 0xa0
100026c6:	4373      	muls	r3, r6
100026c8:	4342      	muls	r2, r0
100026ca:	189b      	adds	r3, r3, r2
100026cc:	18eb      	adds	r3, r5, r3
100026ce:	689b      	ldr	r3, [r3, #8]
100026d0:	0609      	lsls	r1, r1, #24
100026d2:	430c      	orrs	r4, r1
100026d4:	601c      	str	r4, [r3, #0]
100026d6:	2334      	movs	r3, #52	; 0x34
100026d8:	435e      	muls	r6, r3
100026da:	3334      	adds	r3, #52	; 0x34
100026dc:	4358      	muls	r0, r3
100026de:	3b67      	subs	r3, #103	; 0x67
100026e0:	1836      	adds	r6, r6, r0
100026e2:	55ab      	strb	r3, [r5, r6]
100026e4:	2001      	movs	r0, #1
100026e6:	bcc0      	pop	{r6, r7}
100026e8:	46b9      	mov	r9, r7
100026ea:	46b0      	mov	r8, r6
100026ec:	bdf8      	pop	{r3, r4, r5, r6, r7, pc}
100026ee:	4f14      	ldr	r7, [pc, #80]	; (10002740 <dcd_edpt_open+0x140>)
100026f0:	46bc      	mov	ip, r7
100026f2:	2700      	movs	r7, #0
100026f4:	4461      	add	r1, ip
100026f6:	60d1      	str	r1, [r2, #12]
100026f8:	600f      	str	r7, [r1, #0]
100026fa:	2800      	cmp	r0, #0
100026fc:	d10f      	bne.n	1000271e <dcd_edpt_open+0x11e>
100026fe:	2334      	movs	r3, #52	; 0x34
10002700:	2200      	movs	r2, #0
10002702:	4373      	muls	r3, r6
10002704:	18eb      	adds	r3, r5, r3
10002706:	609a      	str	r2, [r3, #8]
10002708:	4a0e      	ldr	r2, [pc, #56]	; (10002744 <dcd_edpt_open+0x144>)
1000270a:	611a      	str	r2, [r3, #16]
1000270c:	e7e3      	b.n	100026d6 <dcd_edpt_open+0xd6>
1000270e:	2280      	movs	r2, #128	; 0x80
10002710:	00d2      	lsls	r2, r2, #3
10002712:	4293      	cmp	r3, r2
10002714:	d39e      	bcc.n	10002654 <dcd_edpt_open+0x54>
10002716:	0019      	movs	r1, r3
10002718:	480b      	ldr	r0, [pc, #44]	; (10002748 <dcd_edpt_open+0x148>)
1000271a:	f7fe feb7 	bl	1000148c <panic>
1000271e:	4f07      	ldr	r7, [pc, #28]	; (1000273c <dcd_edpt_open+0x13c>)
10002720:	00c1      	lsls	r1, r0, #3
10002722:	46bc      	mov	ip, r7
10002724:	4461      	add	r1, ip
10002726:	6091      	str	r1, [r2, #8]
10002728:	e7b0      	b.n	1000268c <dcd_edpt_open+0x8c>
1000272a:	46c0      	nop			; (mov r8, r8)
1000272c:	20001264 	.word	0x20001264
10002730:	50100084 	.word	0x50100084
10002734:	50100004 	.word	0x50100004
10002738:	200018e8 	.word	0x200018e8
1000273c:	50100000 	.word	0x50100000
10002740:	50100080 	.word	0x50100080
10002744:	50100100 	.word	0x50100100
10002748:	10004dfc 	.word	0x10004dfc

1000274c <dcd_edpt_xfer>:
1000274c:	b510      	push	{r4, lr}
1000274e:	000c      	movs	r4, r1
10002750:	2034      	movs	r0, #52	; 0x34
10002752:	0011      	movs	r1, r2
10002754:	001a      	movs	r2, r3
10002756:	09e3      	lsrs	r3, r4, #7
10002758:	4358      	muls	r0, r3
1000275a:	237f      	movs	r3, #127	; 0x7f
1000275c:	4023      	ands	r3, r4
1000275e:	2468      	movs	r4, #104	; 0x68
10002760:	435c      	muls	r4, r3
10002762:	4b04      	ldr	r3, [pc, #16]	; (10002774 <dcd_edpt_xfer+0x28>)
10002764:	1900      	adds	r0, r0, r4
10002766:	18c0      	adds	r0, r0, r3
10002768:	2301      	movs	r3, #1
1000276a:	f000 f933 	bl	100029d4 <_hw_endpoint_xfer>
1000276e:	2001      	movs	r0, #1
10002770:	bd10      	pop	{r4, pc}
10002772:	46c0      	nop			; (mov r8, r8)
10002774:	20001264 	.word	0x20001264

10002778 <dcd_edpt_stall>:
10002778:	b570      	push	{r4, r5, r6, lr}
1000277a:	257f      	movs	r5, #127	; 0x7f
1000277c:	2034      	movs	r0, #52	; 0x34
1000277e:	2368      	movs	r3, #104	; 0x68
10002780:	400d      	ands	r5, r1
10002782:	09cc      	lsrs	r4, r1, #7
10002784:	436b      	muls	r3, r5
10002786:	4360      	muls	r0, r4
10002788:	4e0c      	ldr	r6, [pc, #48]	; (100027bc <dcd_edpt_stall+0x44>)
1000278a:	18c0      	adds	r0, r0, r3
1000278c:	1830      	adds	r0, r6, r0
1000278e:	7883      	ldrb	r3, [r0, #2]
10002790:	2b00      	cmp	r3, #0
10002792:	d105      	bne.n	100027a0 <dcd_edpt_stall+0x28>
10002794:	7843      	ldrb	r3, [r0, #1]
10002796:	425a      	negs	r2, r3
10002798:	4153      	adcs	r3, r2
1000279a:	4a09      	ldr	r2, [pc, #36]	; (100027c0 <dcd_edpt_stall+0x48>)
1000279c:	3301      	adds	r3, #1
1000279e:	6693      	str	r3, [r2, #104]	; 0x68
100027a0:	2280      	movs	r2, #128	; 0x80
100027a2:	4908      	ldr	r1, [pc, #32]	; (100027c4 <dcd_edpt_stall+0x4c>)
100027a4:	0112      	lsls	r2, r2, #4
100027a6:	f000 f875 	bl	10002894 <_hw_endpoint_buffer_control_update32>
100027aa:	2134      	movs	r1, #52	; 0x34
100027ac:	2301      	movs	r3, #1
100027ae:	434c      	muls	r4, r1
100027b0:	3134      	adds	r1, #52	; 0x34
100027b2:	434d      	muls	r5, r1
100027b4:	1964      	adds	r4, r4, r5
100027b6:	1934      	adds	r4, r6, r4
100027b8:	7523      	strb	r3, [r4, #20]
100027ba:	bd70      	pop	{r4, r5, r6, pc}
100027bc:	20001264 	.word	0x20001264
100027c0:	50112000 	.word	0x50112000
100027c4:	fffff7ff 	.word	0xfffff7ff

100027c8 <dcd_edpt_clear_stall>:
100027c8:	b570      	push	{r4, r5, r6, lr}
100027ca:	257f      	movs	r5, #127	; 0x7f
100027cc:	2034      	movs	r0, #52	; 0x34
100027ce:	2368      	movs	r3, #104	; 0x68
100027d0:	400d      	ands	r5, r1
100027d2:	09cc      	lsrs	r4, r1, #7
100027d4:	436b      	muls	r3, r5
100027d6:	4360      	muls	r0, r4
100027d8:	4e0c      	ldr	r6, [pc, #48]	; (1000280c <dcd_edpt_clear_stall+0x44>)
100027da:	18c0      	adds	r0, r0, r3
100027dc:	1830      	adds	r0, r6, r0
100027de:	7883      	ldrb	r3, [r0, #2]
100027e0:	2b00      	cmp	r3, #0
100027e2:	d105      	bne.n	100027f0 <dcd_edpt_clear_stall+0x28>
100027e4:	7843      	ldrb	r3, [r0, #1]
100027e6:	425a      	negs	r2, r3
100027e8:	4153      	adcs	r3, r2
100027ea:	4a09      	ldr	r2, [pc, #36]	; (10002810 <dcd_edpt_clear_stall+0x48>)
100027ec:	3301      	adds	r3, #1
100027ee:	6693      	str	r3, [r2, #104]	; 0x68
100027f0:	2200      	movs	r2, #0
100027f2:	4908      	ldr	r1, [pc, #32]	; (10002814 <dcd_edpt_clear_stall+0x4c>)
100027f4:	f000 f84e 	bl	10002894 <_hw_endpoint_buffer_control_update32>
100027f8:	2134      	movs	r1, #52	; 0x34
100027fa:	2300      	movs	r3, #0
100027fc:	434c      	muls	r4, r1
100027fe:	3134      	adds	r1, #52	; 0x34
10002800:	434d      	muls	r5, r1
10002802:	1964      	adds	r4, r4, r5
10002804:	1934      	adds	r4, r6, r4
10002806:	7523      	strb	r3, [r4, #20]
10002808:	bd70      	pop	{r4, r5, r6, pc}
1000280a:	46c0      	nop			; (mov r8, r8)
1000280c:	20001264 	.word	0x20001264
10002810:	50113000 	.word	0x50113000
10002814:	fffff7ff 	.word	0xfffff7ff

10002818 <_hw_endpoint_buffer_control_update32.part.0.isra.0>:
10002818:	4b03      	ldr	r3, [pc, #12]	; (10002828 <_hw_endpoint_buffer_control_update32.part.0.isra.0+0x10>)
1000281a:	0080      	lsls	r0, r0, #2
1000281c:	58c2      	ldr	r2, [r0, r3]
1000281e:	b510      	push	{r4, lr}
10002820:	4802      	ldr	r0, [pc, #8]	; (1000282c <_hw_endpoint_buffer_control_update32.part.0.isra.0+0x14>)
10002822:	f7fe fe33 	bl	1000148c <panic>
10002826:	46c0      	nop			; (mov r8, r8)
10002828:	200002e8 	.word	0x200002e8
1000282c:	10004e24 	.word	0x10004e24

10002830 <rp2040_usb_init>:
10002830:	2280      	movs	r2, #128	; 0x80
10002832:	4b0e      	ldr	r3, [pc, #56]	; (1000286c <rp2040_usb_init+0x3c>)
10002834:	0452      	lsls	r2, r2, #17
10002836:	b510      	push	{r4, lr}
10002838:	601a      	str	r2, [r3, #0]
1000283a:	4b0d      	ldr	r3, [pc, #52]	; (10002870 <rp2040_usb_init+0x40>)
1000283c:	490d      	ldr	r1, [pc, #52]	; (10002874 <rp2040_usb_init+0x44>)
1000283e:	601a      	str	r2, [r3, #0]
10002840:	0010      	movs	r0, r2
10002842:	688b      	ldr	r3, [r1, #8]
10002844:	4398      	bics	r0, r3
10002846:	d1fb      	bne.n	10002840 <rp2040_usb_init+0x10>
10002848:	4c0b      	ldr	r4, [pc, #44]	; (10002878 <rp2040_usb_init+0x48>)
1000284a:	229c      	movs	r2, #156	; 0x9c
1000284c:	2100      	movs	r1, #0
1000284e:	0020      	movs	r0, r4
10002850:	f7ff faec 	bl	10001e2c <__wrap_memset>
10002854:	2280      	movs	r2, #128	; 0x80
10002856:	2100      	movs	r1, #0
10002858:	0152      	lsls	r2, r2, #5
1000285a:	4808      	ldr	r0, [pc, #32]	; (1000287c <rp2040_usb_init+0x4c>)
1000285c:	f7ff fae6 	bl	10001e2c <__wrap_memset>
10002860:	2309      	movs	r3, #9
10002862:	6763      	str	r3, [r4, #116]	; 0x74
10002864:	3303      	adds	r3, #3
10002866:	67a3      	str	r3, [r4, #120]	; 0x78
10002868:	bd10      	pop	{r4, pc}
1000286a:	46c0      	nop			; (mov r8, r8)
1000286c:	4000e000 	.word	0x4000e000
10002870:	4000f000 	.word	0x4000f000
10002874:	4000c000 	.word	0x4000c000
10002878:	50110000 	.word	0x50110000
1000287c:	50100000 	.word	0x50100000

10002880 <hw_endpoint_reset_transfer>:
10002880:	2300      	movs	r3, #0
10002882:	2100      	movs	r1, #0
10002884:	2232      	movs	r2, #50	; 0x32
10002886:	8283      	strh	r3, [r0, #20]
10002888:	5481      	strb	r1, [r0, r2]
1000288a:	6183      	str	r3, [r0, #24]
1000288c:	61c3      	str	r3, [r0, #28]
1000288e:	6203      	str	r3, [r0, #32]
10002890:	6283      	str	r3, [r0, #40]	; 0x28
10002892:	4770      	bx	lr

10002894 <_hw_endpoint_buffer_control_update32>:
10002894:	b510      	push	{r4, lr}
10002896:	68c3      	ldr	r3, [r0, #12]
10002898:	2900      	cmp	r1, #0
1000289a:	d001      	beq.n	100028a0 <_hw_endpoint_buffer_control_update32+0xc>
1000289c:	681c      	ldr	r4, [r3, #0]
1000289e:	4021      	ands	r1, r4
100028a0:	2a00      	cmp	r2, #0
100028a2:	d011      	beq.n	100028c8 <_hw_endpoint_buffer_control_update32+0x34>
100028a4:	2480      	movs	r4, #128	; 0x80
100028a6:	00e4      	lsls	r4, r4, #3
100028a8:	4311      	orrs	r1, r2
100028aa:	4222      	tst	r2, r4
100028ac:	d00c      	beq.n	100028c8 <_hw_endpoint_buffer_control_update32+0x34>
100028ae:	681a      	ldr	r2, [r3, #0]
100028b0:	4222      	tst	r2, r4
100028b2:	d10b      	bne.n	100028cc <_hw_endpoint_buffer_control_update32+0x38>
100028b4:	4a07      	ldr	r2, [pc, #28]	; (100028d4 <_hw_endpoint_buffer_control_update32+0x40>)
100028b6:	400a      	ands	r2, r1
100028b8:	601a      	str	r2, [r3, #0]
100028ba:	e7ff      	b.n	100028bc <_hw_endpoint_buffer_control_update32+0x28>
100028bc:	e7ff      	b.n	100028be <_hw_endpoint_buffer_control_update32+0x2a>
100028be:	e7ff      	b.n	100028c0 <_hw_endpoint_buffer_control_update32+0x2c>
100028c0:	e7ff      	b.n	100028c2 <_hw_endpoint_buffer_control_update32+0x2e>
100028c2:	e7ff      	b.n	100028c4 <_hw_endpoint_buffer_control_update32+0x30>
100028c4:	e7ff      	b.n	100028c6 <_hw_endpoint_buffer_control_update32+0x32>
100028c6:	68c3      	ldr	r3, [r0, #12]
100028c8:	6019      	str	r1, [r3, #0]
100028ca:	bd10      	pop	{r4, pc}
100028cc:	7881      	ldrb	r1, [r0, #2]
100028ce:	7840      	ldrb	r0, [r0, #1]
100028d0:	f7ff ffa2 	bl	10002818 <_hw_endpoint_buffer_control_update32.part.0.isra.0>
100028d4:	fffffbff 	.word	0xfffffbff

100028d8 <_hw_endpoint_xfer_continue>:
100028d8:	b5f8      	push	{r3, r4, r5, r6, r7, lr}
100028da:	7d46      	ldrb	r6, [r0, #21]
100028dc:	0004      	movs	r4, r0
100028de:	2e00      	cmp	r6, #0
100028e0:	d100      	bne.n	100028e4 <_hw_endpoint_xfer_continue+0xc>
100028e2:	e065      	b.n	100029b0 <_hw_endpoint_xfer_continue+0xd8>
100028e4:	68c3      	ldr	r3, [r0, #12]
100028e6:	78c0      	ldrb	r0, [r0, #3]
100028e8:	681d      	ldr	r5, [r3, #0]
100028ea:	69e1      	ldr	r1, [r4, #28]
100028ec:	05ad      	lsls	r5, r5, #22
100028ee:	0dad      	lsrs	r5, r5, #22
100028f0:	2800      	cmp	r0, #0
100028f2:	d142      	bne.n	1000297a <_hw_endpoint_xfer_continue+0xa2>
100028f4:	1869      	adds	r1, r5, r1
100028f6:	61e1      	str	r1, [r4, #28]
100028f8:	69a2      	ldr	r2, [r4, #24]
